:100000006F20A04A1300000013000000130000003E
:100010001300000013000000130000001300000094
:100020001300000013000000130000001300000084
:08003000130000007300100032
:100038000000000000000000683900006C39000072
:100048000000000034240000000000000000000050
:1000580036240000382400000000000000000000E2
:100068003A240000000000003C24000000000000CA
:100078003E240000402400004224000044240000E4
:1000880046240000482400004A2400004C240000B4
:100098004E24000050240000522400005424000084
:1000A80056240000582400005A2400005C24000054
:1000B8005E24000060240000622400006424000024
:1000C80066240000682400006A2400006C240000F4
:1000D8006E240000702400007224000074240000C4
:1000E80076240000782400007A2400007C24000094
:1000F8007E24000080240000822400008424000064
:1001080086240000882400008A2400008C24000033
:100118008E24000006310000922400009424000080
:1001280096240000982400009A2400006E390000EC
:1001380076390000A0240000A2240000A4240000B6
:10014800A6240000A8240000000000000000000011
:100158000000000000000000000000000000000097
:100168000000000000000000000000000000000087
:0801780000000000000000007F
:10018000EF12C23E9126FDBF23AC05FE1C4181E764
:100190000CC18280BA8703A787FF6DFF23ACB7FE2F
:1001A000828017270020130767031C43411122C4D4
:1001B00026C24AC006C601440149BA8491E7A16536
:1001C000EF30706C05C809A803C7E7FF631BA702DF
:1001D00015CCA165EF30503C9840832784FF63190C
:1001E000E40217270020232BF7FEFD57232C04FEE3
:1001F000230FF4FE2285B240224492440249410179
:10020000828011E03E8983A787FF4DBF3E84E5BF12
:10021000232CF9FED9BF97270020938767019C43C1
:1002200099E33E858280BA236315B7009823E30AD9
:10023000A7FEDC47F5B70111680006CE22CCEF001F
:10024000415AFD576305F508324735CF1724002082
:10025000130404F91848630EF700972700209387CA
:10026000E7019C43829732471C486373F700BA87C3
:100270003E95172400201304A4151C4C81CF97270A
:1002800000209387671B94433707CDFF7D179C465B
:10029000F98F9CC6972700209387C7F99C578297B0
:1002A00019E51C4C8DC3EF90A102EF80E1711C4C4D
:1002B00099CB97270020938727189843B7063300D8
:1002C0001C47D58F1CC7F240624405618280172409
:1002D00000201304E4F01C48E387A7FE97270020C2
:1002E0009387C7F99C4382971C4859B709CD81CDA4
:1002F00019CA81473387F50014233307F5008507B2
:1003000014A3E319F6FE828019C991C909CA91059F
:1003100083A7C5FF11057D16232EF5FEC5BF82807C
:1003200001C919C62A960505A30FB5FEE31DA6FE51
:10033000828081473307F5000307070019E33E85F4
:1003400082808507C5BF01112E8626CAAA8413158F
:1003500006019305F004418122CC06CE32C6EF108F
:10036000F0622A8401C53246A68549372285F240CB
:100370006244D24405618280854705C199CD11CE82
:100380008147B306F5003387F5009422182363985C
:10039000E6008507E317F6FE85473E8582808147A4
:1003A000EDBF9307F6FFBE952A966313C5008280C2
:1003B000FD159C310505A30FF5FEC5BFAA870145B4
:1003C00081CF09CE3E96850703C7F7FF6317B700B5
:1003D000E39BC7FE05458280828001458280011132
:1003E000972700209387C7E422CC804306CE26CAF5
:1003F0004AC84EC652C456C25AC059C437C9C901A8
:10040000814497290020938969E71309F937172A4E
:100410000020130A2AE2972A0020938A6ADC3E20F1
:1004200091EF5C44A5EC172700202323F7E0032B72
:10043000C4002285EF1010625A840DA883A709001A
:1004400082971C443307F540636CE904972700202A
:1004500023A007DA2E200820EF30101454405C440B
:10046000F1D21844A284369718C43E844DF89727D9
:1004700000209387E7D69C4B09476372F704F9176E
:10048000172700202326F7D6F2406244D24442497F
:10049000B249224A924A024B05618280DCC441BFC4
:1004A00003278A0211CB03A70A01898F63F6E700AD
:1004B00017270020232EF7D2A284404445BF972758
:1004C000002023A707D2C9B7411122C41724002056
:1004D0001304C4D31C4006C626C24AC091C78297E3
:1004E0009727002023A407D25C4091C382971C4029
:1004F000639B07189727002083C7D7ED858B9DC77F
:1005000097270020A38807EC172700200347B7ECA4
:10051000914763FDE700EF1040559727002083C700
:1005200097EBF9178A07A2979C4382971729002017
:10053000130909EE8347C900918B99C3EF10B03AB4
:100540001C4491C3829797240020938424CE984022
:10055000172600200346D6C89727002083C747C820
:1005600093961700BA969622C1CA9727002083C790
:1005700027C763EDC70897270020238307C61C40C1
:10058000639307109727002083C717E581CF97272C
:10059000002083C757E499E797270020A38E07E23E
:1005A000EF80910C97270020938747CD9C43E1CFA4
:1005B000FD5717270020232DF7C215359727002058
:1005C000938747C79C57E1C3172700200347B7E02D
:1005D000914763EAE70A8347C900918BCDE79040D2
:1005E0009726002083C6D6BF63E5D70A2244B240CF
:1005F00092440249410181B1850793F7F70F97268D
:100600000020238FF6BCE3E9C7F485B786073E9741
:100610000E232310070097270020239707C0972752
:100620000020938767BE9C4317250020034545BBE8
:1006300013172500BA979C4382979727002083D7EA
:10064000A7BE172700200347A7B993C7F7FF7D8DE3
:100650009317170098403E971E235D8D0AA3972796
:10066000002083C7E7B791C7850717270020230914
:10067000F7B6172700200347A7B69727002083C7A0
:1006800037B6E37AF7EEB240224492440249410180
:1006900082801397170032971A2375F78507A9B739
:1006A000AD6737470240BD072326F7200100010050
:1006B000972700209387C7B2C84F83278726BD6638
:1006C000BD0693C7F7FF99836A052326D7205D8D62
:1006D000828082809387418C9843172600200346AE
:1006E00026CD81476315F600814636858280BA861D
:1006F00013078702835587FDE389A5FE850793F7D6
:10070000F70FCDB79387018E9C4317260020034631
:1007100036CA01476365C700814636858280BE863A
:10072000990783D5A7FFE38AA5FE0507E5B7938759
:10073000818D984319E3014615A81C4703D8A700EB
:10074000636B050183584700B38608016355D500E4
:100750008146639416011843F1BF3E86C10703D357
:10076000A7FF6317A30099C12390050132858280FA
:100770008506C206C182F1BF97270020938787BFF5
:100780009843172600200346A6C281476315F6004A
:10079000814636858280BA861307C703835567FC76
:1007A000E389A5FE850793F7F70FCDB703278511DA
:1007B0007DC7411122C406C65C258345C5042A8431
:1007C00093F7C70F5CA514375227139586016185EF
:1007D00063F6C50663500506082793F6F60714B7B7
:1007E000054693E627006314C50093E6170054A45A
:1007F0005C4389075CC34CB8032504112E864C4327
:100800000905ED34832784115038D443DA27B29692
:10081000118FD4C3DAA789473CBC03474403972709
:10082000002083C747A26371F7045C2493E70701A4
:100830005CA41DA893E717005CA475BF9376F60F20
:10084000635905020827854513E627006314B500A0
:1008500013E6170050A454B8A304070085473CBC16
:10086000832784119C43D5FBB240224401454101BA
:10087000828093E717005CA454B8A3040700032503
:1008800004114C4309059D34832784115038D44307
:10089000DA27B296118FD4C3DAA78D47C9B70545B9
:1008A000828097270020938767B19C43411122C41F
:1008B00006C6858B2A84DDE34165130525F5EF0027
:1008C000315A49CD3C253EA583270412B5E32320A8
:1008D000A4122322A41285472310F4042320050028
:1008E0007C2854415EA5583418A5054718B517272C
:1008F00000201307E7AD184F1385170215811C431D
:100900007D151375F50F9CC25C43DCC21C479CC669
:100910005C47DCC61C4B9CCA5C4BDCCA1C4F9CCEA3
:100920005C4FDCCE19CD9386060213070702C1BFC8
:100930008327441288C3835704042322A412850703
:1009400061BF9727002083D7E7B5850717270020C9
:10095000231AF7B4B2402244410182805C24230967
:100960000400054593C747005CA4EDB71C2D93F721
:10097000E70FCDEB1C3DDDE73029542509CA83453F
:100980004503172700200347178C63E7E50013F79B
:10099000060151CB014709C6C18A0357851B81C691
:1009A0008356C51B369741C31307C712172500206E
:1009B0000355258AB335A70237460F0041111306A8
:1009C0000624814622C426C206C67D543305A702EA
:1009D000EF00A27D9727002083C73787B384A70045
:1009E00097270020938787AB03A7C70883270709AA
:1009F00063F387003E84184375FB97270020938795
:100A0000E7879C43829781476364A400B307A440AF
:100A1000B2402244B3B7970093C7170092443E8573
:100A20004101828081473E858280972600209386FF
:100A3000E6A683A7C6086386074203A5460979711F
:100A400037470F0006D622D426D24AD04ECE52CCFB
:100A500056CA5AC85EC662C4171300200353637F88
:100A60000148FD58130EF7231306072403D7470840
:100A700083A507093307670272973357C702338785
:100A8000E540637517013E85BA8805489C43F9FF28
:100A9000630608009727002023ACA7A803A44609F3
:100AA000B7490F00938BF923171900201309097D0B
:100AB0009714002093840478930A0032130B204E7D
:100AC000054A9389092483270900032C0409829786
:100AD0009716002083D6E677637C852B035744085E
:100AE0009717002083C77776330CAC403307D702C3
:100AF0005E97335737033E97636087237E3CA30F8F
:100B00000400228585077EBC83470414C5CBD52EFF
:100B10002285EFF0307859E58357440817150020F7
:100B20000355257337470F00B387A7029306F723B2
:100B30001307072483290409230A0402B697B3D7AD
:100B4000E7020547B387F9402324F4088327C40844
:100B5000BE993C34232834096394E7060357E4071D
:100B6000363C63EFE6041428639CF6048327841163
:100B7000A1EB8327440AA9E774349D476392F604E6
:100B80001E3CB387E7021307204EB387E702032713
:100B90004409B3D7E702171700200347076BBA973A
:100BA0002312F408B250225492540259F249624A74
:100BB000D24A424BB24B224C45618280652489BFA8
:100BC0001E309DCB763C5A3037460F0056B03387E7
:100BD000E640B387E7023A30130606248146814592
:100BE000BA97C207C1833385A7023EB0EF00E25B2C
:100BF00001C5AA9923283409832709008297AA8965
:100C0000832709008297E30D35FF83270900832995
:100C1000840882973385A94069C58327C408637215
:100C2000F50C37490F0013090924B3352503F22CBD
:100C3000814633052503EF0042573E301717002049
:100C40001307C77A14433E95B567BD07DCC601009C
:100C500001001C432630096798C7130700F8971650
:100C600000202389E67606059719002083D9695E5E
:100C7000E8D3338534033D673D0737460F00D8C7B7
:100C80001306062481468145EF00225219CDB33761
:100C900025034E868146B305B9023305A902BE95E8
:100CA000EF00A2503385A4402AB0EF80A118EF8056
:100CB0008125383485478145631CF700177501008D
:100CC00013058522EF30A04D930700FD7CA4D9BD0C
:100CD000171501001305C524EF30604C930710FC75
:100CE000F5B73834854703A344036317F7009545E8
:100CF000E30A03EA154529A0E30603EA95451945E9
:100D00002254B25092540259F249624AD24A424B9A
:100D1000B24B224C4561028363540C047E3C850730
:100D20007EBC8347041499E322852D2A2285EFF0A7
:100D30007056832704090327C408BA972328F408A8
:100D40003C34639547012285EF6071407C3C8545CA
:100D500085077CBCDC58E38807D615458297A5B388
:100D60005E3C130700328E07B387D70293870719BB
:100D7000B3D7E702E3F887E3A1452285EFF0704996
:100D80002305A40203A344038945E31503F619BD13
:100D90005E3C330C85418E07B387D70293870719D2
:100DA000B3D757036371FC0A8327090082977E3CFF
:100DB0002A8C85077EBC8347041499E322855D2035
:100DC0002285EFF0304DE31F05DC8327040903275C
:100DD000C408BA972328F4087C3C13F7070F39CBD3
:100DE0002285EFF07003A30F040083270409E37D3D
:100DF000FCFA8356E4071E3C03274409B387D70255
:100E0000B3876703B3D7E702171700200347E74309
:100E10000607BA972312F4083C34639047033E3C1C
:100E2000E3F3D7CA2285EF609132DC58E38D07C81F
:100E30008D4525B785077CBC4DBFDC58E38507C8C9
:100E40008D45194521BFE34F0CD4A1452285EFF014
:100E5000503C2305A40203A34403E30503D49145B6
:100E600051BD8280797126D206D622D44AD04ECE88
:100E700052CC56CA5AC85EC683473503034475131D
:100E8000AA843E941374F40F9307400263F687001C
:100E90001304B4FD1374F40F03AA841383AAC413B8
:100EA000A38B841222865285D685EF00822A05897B
:100EB00005E503CBD41201498149337B6403930BCD
:100EC00050024A865285D685EF00A228058915C5AD
:100ED000639169031374F90F238B8412B250225467
:100EE00092540259F249624AD24A424BB24B45618E
:100EF00082808509E20993D989410509E31379FDC7
:100F0000E1BF83278509723D797193D60701BD8EB4
:100F1000C206C182358E1357764093575640898B4F
:100F2000058B5D8F93573640918B5D8F935716409D
:100F3000A18B5D8F93171600C18B5D8F93173600C1
:100F400093F707025D8F931756009355860093F72A
:100F500007041E065D8F1376F60F518F93D7554009
:100F600013D63540118A898BD18F13D67540D18F16
:100F700013D61540218AD18F13961500418AD18F3F
:100F80001396350013760602D18F1396550013760B
:100F900006049E05D18F93F5F50FCD8FA207454628
:100FA0005D8F3307C70222D42A8426D252CC56CA78
:100FB000032A8413832AC4135AC806D636974207D5
:100FC000418393577740135557400989858BC98FC3
:100FD000135537401189C98F135517402189C98F7F
:100FE000131517004189C98F1315370013750502B2
:100FF000C98F1315570093558700137505041E07F5
:10100000C98F1377F70FD98F13D5354013D75540B4
:101010001189098B498F13D57540498F13D5154018
:101020002189498F139515004189498F1395350002
:1010300013750502498F13955500137505049E0518
:10104000498F93F5F50F4D8F2207D98FB387C702CC
:101050004AD04ECE5EC662C4B697C207C18313D7CC
:10106000774013D557400989058B498F13D53740F1
:101070001189498F13D517402189498F139517007E
:101080004189498F1395370013750502498F1395D0
:10109000570093D58700137505049E07498F93F772
:1010A000F70FD98F13D5354013D755401189098BC8
:1010B000498F13D57540498F13D515402189498F24
:1010C000139515004189498F139535001375050255
:1010D000498F13955500137505049E05498F93F5A7
:1010E000F50F4D8F2207D98FB387C7021306500221
:1010F0005285D685B697BD8E93940601C18033F68E
:10110000C402137BF60FEF00C20405891DE9834773
:10111000D41201498149B3849702130C5002C18053
:101120004A865285D685EF00C2020589937BF90F66
:1011300011C563863403850993F9F90F0509E31195
:1011400089FF230B6413B250225492540259F2497E
:10115000624AD24A424BB24B224C456182805E8B3E
:10116000CDB78327C50803568508797193D6070143
:10117000BD8EC206C182358E1357764093575640B6
:10118000898B058B5D8F93573640918B5D8F93577D
:101190001640A18B5D8F93171600C18B5D8F93173F
:1011A000360093F707025D8F93175600935586001C
:1011B00093F707041E065D8F1376F60F518F93D7B2
:1011C000554013D63540118A898BD18F13D675407F
:1011D000D18F13D61540218AD18F13961500418ADD
:1011E000D18F1396350013760602D18F13965500D2
:1011F000137606049E05D18F93F5F50FCD8FA207C8
:1012000045465D8F3307C70222D42A8426D252CCAA
:1012100056CA032A8409832AC4095AC806D63697AF
:101220004207418393577740135557400989858B6F
:10123000C98F135537401189C98F1355174021891C
:10124000C98F131517004189C98F131537001375FE
:101250000502C98F131557009355870013750504B0
:101260001E07C98F1377F70FD98F13D5354013D7C2
:1012700055401189098B498F13D57540498F13D576
:1012800015402189498F139515004189498F139580
:10129000350013750502498F139555001375050424
:1012A0009E05498F93F5F50F4D8F2207D98FB38790
:1012B000C7024AD04ECE5EC662C4B697C207C1838B
:1012C00013D7774013D557400989058B498F13D51C
:1012D00037401189498F13D517402189498F1395BC
:1012E00017004189498F1395370013750502498FFF
:1012F0001395570093D58700137505049E07498FF2
:1013000093F7F70FD98F13D5354013D7554011896F
:10131000098B498F13D57540498F13D51540218905
:10132000498F139515004189498F13953500137521
:101330000502498F13955500137505049E05498FC5
:1013400093F5F50F4D8F2207D98FB387C702130688
:1013500050025285D685B697BD8E93940601C18002
:1013600033F6C402137BF60FEFF0B15E05891DE979
:101370008347140801498149B3849702130C500232
:10138000C1804A865285D685EFF0B15C0589937B92
:10139000F90F11C563863403850993F9F90F05091F
:1013A000E31189FF230F6407B2502254925402596B
:1013B000F249624AD24A424BB24B224C456182808A
:1013C0005E8BCDB78327450903568508797193D67F
:1013D0000701BD8EC206C182358E135776409357E2
:1013E0005640898B058B5D8F93573640918B5D8F6F
:1013F00093571640A18B5D8F93171600C18B5D8F9D
:101400009317360093F707025D8F93175600935595
:10141000860093F707041E065D8F1376F60F518F33
:1014200093D7554013D63540118A898BD18F13D667
:101430007540D18F13D61540218AD18F1396150090
:10144000418AD18F1396350013760602D18F1396F9
:101450005500137606049E05D18F93F5F50FCD8FB9
:10146000A20745465D8F3307C70222D42A8426D2BD
:1014700052CC56CA032A840A832AC40A5AC806D6FA
:101480003697420741839357774013555740098950
:10149000858BC98F135537401189C98F1355174054
:1014A0002189C98F131517004189C98F131537007A
:1014B00013750502C98F13155700935587001375CF
:1014C00005041E07C98F1377F70FD98F13D5354041
:1014D00013D755401189098B498F13D57540498F12
:1014E00013D515402189498F139515004189498FDE
:1014F0001395350013750502498F13955500137523
:1015000005049E05498F93F5F50F4D8F2207D98F5E
:10151000B387C7024AD04ECE5EC662C4B697C20732
:10152000C18313D7774013D557400989058B498F5D
:1015300013D537401189498F13D517402189498F19
:10154000139517004189498F1395370013750502CC
:10155000498F1395570093D58700137505049E078F
:10156000498F93F7F70FD98F13D5354013D75540CF
:101570001189098B498F13D57540498F13D51540B3
:101580002189498F139515004189498F139535009D
:1015900013750502498F13955500137505049E05B3
:1015A000498F93F5F50F4D8F2207D98FB387C70267
:1015B000130650025285D685B697BD8E93940601C8
:1015C000C18033F6C402137BF60FEFF09138058922
:1015D0001DE98347F40801498149B3849702130C3C
:1015E0005002C1804A865285D685EFF09136058932
:1015F000937BF90F11C563863403850993F9F90FBD
:101600000509E31189FF230F6407B2502254925455
:101610000259F249624AD24A424BB24B224C4561CE
:1016200082805E8BCDB7011122CC604126CA4AC8A8
:101630004EC652C406CEAA841D4A130965058549C3
:10164000BC446364F400054591A0D8345C20631762
:10165000470503C784026304F7000040D5B758303C
:1016600083C75405E31BF7FE1946CA8513056400BA
:10167000EFE09FD0E31335FF582483C79402E31EA5
:10168000F7FC7A24BE34E31AF7FC0145F2406244C9
:10169000D2444249B249224A05618280E31FF7FAE7
:1016A000583083C75405E31AF7FA1946CA8513055B
:1016B0006400EFE07FCCE31235FBC1BF0111971747
:1016C00000209387A7DD22CC03A4070B26CA06CEF1
:1016D0002AC42EC6854419E40145F2406244D2442E
:1016E000056182809C841830858B6304F700004478
:1016F000DDB719469305A10013052400EFE0DFC70D
:10170000E31795FE0545D1BF97170020938707CEB5
:10171000984301112AC62EC432C206CE3C4B93E731
:1017200007083CCBEF70017197160020938686C99D
:101730009C423245A24523A00700183103482500EA
:1017400022074208429703480500429703483500A4
:101750006208429798D7583103486500220742082B
:101760004297034845004297034875006208429734
:10177000D8D718350348A5002207420842970348E6
:10178000850042970348B5006208429798DB5835B8
:101790000348E5002207420842970348C500683520
:1017A000429762052A97D8DB9831A8212207420583
:1017B0002A9788212A97A83162052A9798CFD8318D
:1017C000E821220742052A97C8212A97E8316205B5
:1017D0002A97D8CF9835A825220742052A97882529
:1017E0002A97A83562052A9798D3D835E825220785
:1017F00042052A97C825EC352A97E2052E97D8D3BB
:10180000D843759BD8C3D84313671700D8C39843F0
:101810001367170098C3124698425C43858BADE767
:101820001C4F01451CA29C429C4FA1831CB29C42B0
:101830009C4FC1833CA29C429C4FE1833CB29C42A2
:10184000D84F58A2D84F218358B2D84F418378A29D
:10185000D84F618378B2985318A69853218318B64D
:101860009853418338A69853618338B6D85358A605
:10187000D853218358B6D853418378A6DC53E183EB
:101880007CB6F24005618280010079B7971700208D
:101890009387C7B598431605136505083C4B93E736
:1018A00007083CCB971700209387C7B19C4303A739
:1018B000450E88C398CB03A7850E0145D8CB03A757
:1018C000C50B98CF03A7050CD8CF03A7450C98D319
:1018D00003A7850CD8D303A7C50C98D703A7050D7C
:1018E000D8D703A7450D98DB03A7850DD8DB03A741
:1018F000C50D98C703A7050ED8C7984313670704FB
:1019000098C3828097170020938747AE98431605A7
:10191000136505083C4B93E707083CCB971700205D
:10192000938747AA9C4303A7C50E88C398CB03A7F8
:10193000050F0145D8CB03A7C50B98CF03A7050C0E
:10194000D8CF03A7450C98D303A7850CD8D303A7FA
:10195000C50C98D703A7050DD8D703A7450D98DB6D
:1019600003A7850DD8DB03A7C50D98C703A7050EF0
:10197000D8C798431367070498C3930700F817174D
:101980000020230AF7A48280171700201307C7A39B
:101990001443411122C49C5E06C626C29983858BDE
:1019A0003A84A5CB930700069CDE9717002083C7D7
:1019B00027A293F7070497140020938464A195C38A
:1019C000971700209387878B9C4382979717002057
:1019D00023A8A7A09C2093F7F70B17170020230933
:1019E000F79EDC2093F707048DE785471717002043
:1019F000A302F79E971700209387479F9C43096790
:101A000098C7130700FC971600202385E69CD8444E
:101A1000F8D318401C5F9183858B81CBC1471CDFB5
:101A20008547971600202387F69A1C5F9D83858B38
:101A300089CB930700081CDF854717170020230B6D
:101A4000F798971700209387E7979C43D84305831F
:101A5000058B19C7D843759BD8C3D843799BD8C386
:101A6000B24022449244410182809717002093871C
:101A7000E797944397170020938787959823058BC2
:101A800011CB971700202387079497170020A38373
:101A9000079482809833058B6DF7F85265F3DC3339
:101AA000EDB71718002013082892032708001C5FC1
:101AB0009583858BBDE701C61C5BBD831CA29DC6BB
:101AC00083270800985B4607935767016356070012
:101AD00093E707C0C207C18303970600C207C18707
:101AE00009C7BA970947B3C7E7029EA285C11C314F
:101AF00091CF3E951C350547194593F6F70663933C
:101B0000E602E207E187394563CE07008327080034
:101B100001459C5FED838D8B17170020A30FF78A7B
:101B2000828005458280411122C406C61714002018
:101B30001304C48B18403DE5AE877453FDFE3E850B
:101B4000B2859717002023860788EF70210C97171E
:101B50000020938767879C43B70680009843558F82
:101B600098C3D857719BD8D797170020A3840786AE
:101B700097170020A38E07841C40094798C3144080
:101B8000171700201307C7843C23858B81EB3C3358
:101B9000858BD9C797170020238E0782B240224435
:101BA000410182808D476310F502971700209387CB
:101BB000A7819C43B70680009843558F98C3D85798
:101BC000719BD8D76DBF8547E31BF5FAB567BD0795
:101BD0005CC7010001001C400967094698C713074C
:101BE00000F8970600202387E67E170700201307DA
:101BF000A77D1443984231830D8B6319C7001307E7
:101C0000E043F8D33D673D07D8C795BF984231837D
:101C10000D8B01E713076019EDB71307E01BD5B76C
:101C2000FC52BDF3A5BF5D7152DC170A0020130AF8
:101C3000AA7903270A0086C6A2C4A6C2CAC04EDE7D
:101C40001C43970900209389297F17090020130955
:101C5000E97993F7F7E793E707081CC383A6090020
:101C60003707CEFF7D179C46130680022A84F98F22
:101C70009CC6832709002800AE8423A80704930587
:101C80001008EFE0EFE9EF70E11AEF70C12783274A
:101C90000A009376F41F3706330023A40700984BFD
:101CA000370FFCFF4E881367F70398CBF84FCA88AD
:101CB000130510F8137707E0558FF8CF9843F576A2
:101CC000FD16758F98C317070020A305077083269C
:101CD000090017070020A30D076E054798C2984317
:101CE000D285B70204001377F7E798C398439303AC
:101CF000401F11491377F7E71367071098C303A72D
:101D000009007D1F85491C47930F8002D18F1CC796
:101D100093079005BCCA014734001353370026933C
:101D20008347030013767700B3D7C740858BDDCF99
:101D30009C41832E0800239C07042390070603AED2
:101D4000CE02137EDEFF23A6CE0383AE0700137EF2
:101D5000F70793FE0EF833EECE0123A0C70103AEC2
:101D60004702336E5E0023A2C70383AE0800014E14
:101D700023A27E0603DA070663074E0303AE0703BA
:101D8000038A0600135EFE00620E135E8E416358E6
:101D9000CA0103AE0703135EFE002380C60103DE03
:101DA0000706137EFE0F03AA4E0663060A0003DA37
:101DB0008705E37F49FB03AE4702337EEE0123A292
:101DC000C70383870600635CF400034E0300339669
:101DD000C9001346F6FF3376C6012300C3003E86D2
:101DE00063D3A7002A86131586016185050713773B
:101DF000F70F8506E313F7F3B640264496440649E9
:101E0000F259625A61618280970600209386065ECD
:101E10009C42D847131617016355060298471316BC
:101E20001701635006027D57B8D717070020130724
:101E3000273B584F0507170600202321E63C116772
:101E400098C798470D83058B1DC3170700200347CC
:101E500047581367170017060020230CE656130790
:101E600000F8170600202307E656214798C7984731
:101E7000058B09CF170700200347975513671700F5
:101E800017060020A306E654054798C7984709831C
:101E9000058B09E798470583058B21CF98471706DF
:101EA00000201306E652170500201305E5510983AB
:101EB000058B630107101841184331830D8B65EBC7
:101EC000AC4B184E93F505021833C5CD71EF1307CF
:101ED000D005D8CF18221367170017060020230952
:101EE000E64E114798C718415C57F19B93E71700DE
:101EF0005CD79C4298479316370163D60602970633
:101F0000002083C6A660C18A17070020130707595F
:101F1000DDCA0347070713670702970600202387D8
:101F2000E65E056798C798479316270163D10602B6
:101F3000170700200347074A6207618763570700B6
:101F40000547970600202387E648096798C7984702
:101F50009316070163D606029706002083C6165B18
:101F6000858A1707002013076753A5CE0347170775
:101F70001367270097060020A38AE658216798C7B1
:101F8000828031D785456315B7001307100691B7D6
:101F900089456315B7001307500625BF8D456315A6
:101FA000B7001307900635B71307B0061DB7130720
:101FB000C00605B738321367170017060020A30ABA
:101FC000E640094705B7834607070946BD8A638887
:101FD000C600034707078D463D8BE314D7F411472E
:101FE0002DBF83461707918AD1DA03471707136776
:101FF000870049B7170700201307873F343F97072B
:10200000002083C7B741B69793F7F70FFD4663EA01
:10201000F6044C4B97060020A38CF63C9707002053
:1020200083C7173D05473317F70097060020A3879E
:10203000F63E6D8F1DEF9706002083C6763EB3F601
:10204000D70213050002814733D6F500058A13F83D
:10205000F70F09CE6399E60097070020A38A073996
:10206000828081177DB705071377F70F8507E39DFA
:10207000A7FC828097070020938747209C4341114B
:1020800022C44AC006C626C28297970700209387BB
:102090002738804701496301A404018DBE8413548D
:1020A00055009707002083C747361379F50163620F
:1020B000F402893794441707002003470735931724
:1020C0005700BE96198C9707002023A7D734E372D8
:1020D000E4FE160433692401B24022444A85924446
:1020E00002494101828097070020938727199C436A
:1020F000411122C406C626C2829797070020938703
:10210000273180476307A404018DBE841354550012
:102110009707002083C7672F636DF402E13D984461
:102120009707002083C7672E9396570036971D8C1C
:102130009706002023A2E62EE372F4FE2244B2406A
:102140009244170500200345B52A814541016F706F
:10215000211CB24022449244410182809707002012
:102160009387872D9843B75702009387079F83264D
:10217000070913965600635806008326070913962D
:10218000660063440600FD17FDF3828069C1AA87DB
:102190000145E1C18D07C207C183F19BC207C1831D
:1021A00013074003636FF702170700201307872EFA
:1021B0000843170700201307672D14436398A602EE
:1021C0001707002013070707585B014559C3411142
:1021D000C20706C60545DD8D0297B24001454101A3
:1021E0008280170700201307A72AD9B77A2131EF79
:1021F0005A21636CF704B306F7402146637AD6028E
:1022000003280500938687001D8FAA96611717067D
:102210000020035646FDDAA223A006012393060000
:1022200014C15EA1130786FF97060020239DE6FADE
:102230006EA19705002083D505FBB387F5401707EE
:1022400000202312F7FA21058280084185BF01454D
:10225000828082800DC1970700209387A72303A364
:102260000700970700209387672283A8070081460D
:102270009A8763E31701828003A807006362F50A67
:102280006360A80A13878700E367E5FEF2232167EE
:1022900005076317E60003C7418F0507238AE18E10
:1022A000970500209385C5F3D223FA2123930700D5
:1022B000329742074183170500202316E5F2638712
:1022C0006702170500201305A51C08416300F502ED
:1022D000EA2209EDDE2223A0060121073E9621060F
:1022E000D2A2970700202390E7F0B6879843E30433
:1022F00017F9970600209386A6199442E30DD7F6A6
:102300007623B5FAD62352231843A106B296D6A354
:1023100098C3FE21A107170700202316F7EC82803F
:10232000BE86C287B9B7970700209387A71697067E
:1023300000209386A6159C4390422A87B305B5409A
:102340006314F6003A8529A8938687009C43E369C5
:10235000D7FEE377F7FE2E85E3E4D5FEE3F2F5FE44
:1023600082800111970700209387471322CC03A492
:10237000870B26CA4AC84EC606CEAA841309250072
:10238000854905C09C303830858B6304F700405C7C
:10239000CDBF1946930544004A85EFD0FFFDE318F1
:1023A00035FF2285F2406244D2444249B249056178
:1023B00082804111970700209387470E22C403A40F
:1023C000870B26C24AC006C693042500054901E8CA
:1023D0002285B24022449244024941018280A6856E
:1023E0001305A402EFE0F116E30425FF405CC5B736
:1023F0004111970700209387670A22C403A4870B23
:1024000026C24AC006C693042500054901E8228574
:10241000B24022449244024941018280A6851305BC
:10242000A401EFE01113E30425FF405CC5B70000F1
:1024300001A001A001A001A001A001A001A001A094
:1024400001A001A001A001A001A001A001A001A084
:1024500001A001A001A001A001A001A001A001A074
:1024600001A001A001A001A001A001A001A001A064
:1024700001A001A001A001A001A001A001A001A054
:1024800001A001A001A001A001A001A001A001A044
:1024900001A001A001A001A001A001A001A001A034
:1024A00001A001A001A001A001A097E1FF1F93815D
:1024B000614D17E100201301E1B417150200130567
:1024C000A5E297E5FF1F9385E5B31386818563FA3F
:1024D000C5008322050023A0550011059105E3EAFC
:1024E000C5FE13858185970500209385250D6377AB
:1024F000B500232005001105E36DB5FEFD42739084
:1025000002BC8D42739042809302800873A0023017
:1025100097E2FFFF938282B293E2320073905230CF
:10252000EF10E0459712000093820240739012343E
:1025300073002030EFF28103B727014093870740F3
:10254000631CF500854513050020292B81451305E3
:102550000020092B6FF0C103B73701409387078034
:10256000E31AF5FE854513050040ED298145130565
:102570000040C5B75C413707F1E01307F7EF944D12
:102580007D8F9C41D58FD44DD58FD441A206D58F58
:10259000D98F5CC11C4537F7F1FF1307D77FD445AE
:1025A0007D8F9C49D58F94458606D58FD98F1CC5C4
:1025B0005C55370710FF7D177D8FDC29FD1793F7DA
:1025C000F70FD207D98F5CD582801C4589C593E768
:1025D00017001CC58280F99BEDBF1C4591C53707CC
:1025E0005000D98F1CC582803707B0FF7D17F98F47
:1025F000D5BFA54763F7B7048D47138765FF33073A
:10260000F7020328C5009D47B397E70093C7F7FF7C
:10261000B3F70701B396E600DD8E54C5994763E32F
:10262000C70495477D163306F6025859FD47B39700
:10263000C70093C7F7FFF98F3396C5005D8E50D959
:1026400082800D473387E502032805019D47B39734
:10265000E70093C7F7FFB3F70701B396E600DD8EF7
:1026600014C96DBFB14763E2C702954765163306CB
:10267000F6021859FD47B397C70093C7F7FFF98FC4
:102680003396C5005D8E10D9828095474D1633066E
:10269000F6025855FD47B397C70093C7F7FFF98F68
:1026A000B395C500DD8D4CD58280684542054181DA
:1026B0008280B727014093870740984711C5B70626
:1026C0008000558F98C78280B70680FFFD16758FF2
:1026D000D5BF08416D8D3335A00082805C4191C526
:1026E00037070004D98F5CC18280370700FC7D1753
:1026F000F98FD5BFB707014023AAA74082803727AB
:1027000002401C4B93E707081CCB8280B706674545
:10271000B7270240938636123797EFCDD4C31307FD
:10272000B79AD8C3D4D3D8D38280EFE23164C13F03
:102730006FE01166B7270240984BB7060200137589
:1027400005F0558F98CBC8CB984B1367070498CBEF
:10275000D847058B75FF984B8176FD16758F98CB02
:102760008280372702401C4BC166137505F0D58F58
:102770001CCB5C47858BF5FF372702405C47898B74
:10278000F5FF3727024013060010B386F50003A8B3
:102790000600B306F50023A006015447898AF5FE1A
:1027A0009107E394C7FE1C4BB7062000D58F1CCBC6
:1027B000B7270240D847058B75FF984BC176FD16A9
:1027C000758F98CB828037F7FF1F8327877E93D63C
:1027D00087001CA114B193D60701E18334A13CB159
:1027E0008327C77E5CA1A1835CB182809C4513F7DF
:1027F000070113F8F70001C7D8413368E8008E21BC
:1028000013F7F50F39C318418146854E3D4F930F9D
:10281000800293028004214E3396DE00B3F8C50097
:10282000631116039398260033131F011343F3FF1C
:102830003377E300B318180133E7E800639FF70527
:1028400050C98506E39AC6FD18C11307F00F6375DA
:10285000B70454412146854E3D4F930F80029302A9
:102860008004414EB398CE0033F715016392E8021D
:102870001317260001173313EF001343F3FFB3764A
:10288000D3003317E800D98E639DF701232A150181
:102890000506E319C6FD54C18280E39457FA10C9B6
:1028A0004DB7E39757FE23281501DDB73777004072
:1028B0001C4309C593E707101CC3828093F7F7EF09
:1028C000E5BFB7160240DC4251777D17F98F5D8D69
:1028D000C8C28280B7170240238007022380070204
:1028E00005476306E50011476306E5008280238003
:1028F000A702828015472380E702828037170240B3
:102900001C535D8D08D3828001C9371702401C53C8
:10291000A166D58F1CD38280B71602409C52617786
:102920007D17F98F9CD28280371702405C43914615
:10293000B18B6387D706A1466389D706B7177A009C
:10294000938707201CC1371602405C4237070020DE
:10295000130707009183BD8BBA9794231C41B3D70B
:10296000D7005CC15442A1829D8ABA969422B3D604
:10297000D70014C55442AD829D8A36971823B3D729
:10298000E7005CC55842398393763700370700204B
:102990001307071836971823B3D7E7021CC982809C
:1029A000B757E8019387078071BF5C435843C166FE
:1029B000C983BD8B758F8907C5466393D700C94707
:1029C00001EF3747024003270780418B15CB3717AC
:1029D0007A001307072029A8B7160240D842370605
:1029E000C000718F6319C7003727F4001307074031
:1029F000B387E70281BFD8429316E700E3D906FC0C
:102A000037173D0013070790E5B799C53717024000
:102A10005C4B5D8D48CB8280B7170240D84B134585
:102A2000F5FF798DC8CB828099C5371702401C4FBE
:102A30005D8D08CF8280B7170240984F1345F5FF90
:102A4000798D88CF828099C5371702405C4F5D8DA4
:102A500048CF8280B7170240D84F1345F5FF798DD4
:102A6000C8CF828099C5371702405C475D8D48C743
:102A70008280B7170240D8471345F5FF798DC8C744
:102A800082809357550005476399E700B7170240C6
:102A90009C4333D5A7000589828009476396E700E8
:102AA000B71702409C53F5B7B7170240DC53D5B7B0
:102AB000B737004003D74780136707012392E780A9
:102AC00082803737004083574780C207C183BD9B50
:102AD000C207C1832312F7808280B736004083D7B4
:102AE000868103D5C68103D78681C20713160501E7
:102AF0004207C18341834182938606806386E70053
:102B0000CA2E4207598D828013950701518D82800C
:102B1000EFE2D12541112AC6613F3245B737004067
:102B2000135705014205239CE7804181239EA7801E
:102B3000493F41016FE0D125EFE2512341112AC6FF
:102B4000853F3245B7370040135705013D8B42059D
:102B50002394E78041812396A780A53741016FE048
:102B60003123373700408357478093F70702E5DF6B
:102B70008280B737004003D747801345F5FF798D32
:102B80002392A7808280EFE2711EE5376FE051202B
:102B9000EFE2D11D1629F577FD17F58FF621DA251D
:102BA0007971D58F1EA95625FD779387379FF58FAD
:102BB000D6212A842EC6D58F9625D58FB625D58FBA
:102BC0005EA55E29C207C18393F7F7CFD98F5EA9AF
:102BD0006808993BB747014093870780B245631A5D
:102BE000F404A25756246547B387E702C206C1869C
:102BF000984163D20604060752244206B3D7E7027F
:102C0000130740064186B3D6E702B3F7E702920600
:102C1000635506028E0793872703B3D7E70213F79E
:102C20007700B367D700C207C1831EA445616FE078
:102C30003116925745BF0A07C1B7920793872703FA
:102C4000B3D7E702BD8BD58FF9BF91C55E25096764
:102C5000D98F5EA582805A25F977FD17F98FD5BFE8
:102C600093F5F51F4EA182800A216D8D3335A000AA
:102C7000828083A7C18137177A0013070720B3D753
:102C8000E70293F7F70F238DF1841307803EB38794
:102C9000E702239CF1848280B7F700E0D8438146A5
:102CA000799BD8C303C7A1853306A70290CBD4CBA9
:102CB00098431367070198C398431367170298C393
:102CC000D843058B75DF9843799B98C38280B7F70B
:102CD00000E0D8438146799BD8C303D7818533066A
:102CE000A70290CBD4CB98431367070198C39843AE
:102CF0001367170298C3D843058B75DF9843799BF8
:102D000098C38280EFE291062A84116501118545FE
:102D10001105193B930700207C82371501408D4730
:102D20003EC44C00E147130505803EC6C13422C8AD
:102D300037440140B70708000C08130504803ECC57
:102D400002CA231E0100A935854513050480F53DFF
:102D500005616FE0F103EFE2C17FB7440140AE8946
:102D60003289014493840480634524014A856FE0DD
:102D70009101930500042685C53D65DDB387890073
:102D80008385070026850504C205C181D13DE9BFC1
:102D9000138741801C43B72600209386865B3E95AF
:102DA000636BD500B70601209386060063E5A60095
:102DB00008C33E858280FD57EDBFEFE2217BB287DD
:102DC00013962500AA853E85EFD04FD201456FE0CE
:102DD000217CEFE2A17941112A8432C6053A22858D
:102DE000913A32462285B285AD3A813205456D353C
:102DF000014541016FE0C179EFE2C1740111130691
:102E0000000281450A85EFE0910437240140130454
:102E10000440B717024085451305002083AB8701A6
:102E200003AC4700032B4400832A8400032AC40216
:102E3000832944030329C400C53E316559342285E2
:102E4000EFF04FEFB7070E003EC68A858547228513
:102E5000230AF10002C002C202C402C8EFF08FF1DF
:102E600085452285EFF06FF685452285EFF01F87B7
:102E70000545EFF01F849D460546C1452285EFF0CC
:102E80004FF785452285EFF04FF5B724014089457E
:102E90002285EFF01F8465DD13850440EFF0FF808D
:102EA0002A8413850440EFF0EFE8B717024023AC03
:102EB000770123A2870123A2644123A4544123A6BE
:102EC000444323AA344323A62441228505616FE0AD
:102ED000E16AEFE2A16993970501C1872E8463DB64
:102EE0000700EFD00FAC19C1EF00F0382165218D3C
:102EF0006FE0016A93F7150013C51500F5FB939772
:102F0000250163DF0700EF60E12A03C5B18537F6CD
:102F10000200130606E08965EF00B0770965C1BFBE
:102F2000939715010145E3D507FC373502001305DA
:102F30008592EFE0910D03C5B1851306006491659C
:102F4000EF003075116565B7EFE24162B7350200F9
:102F5000373502005D7155469385C5921305C5EE60
:102F6000EFD08FC101E93735020013054594EFE03A
:102F7000D10901A0B7270240D857B7060090FD1627
:102F8000758FD8D7D857B706003013060004558F71
:102F9000D8D7D857B70600038145558FD8D708082A
:102FA000EFD00FB8B7070020938747573EC889670F
:102FB000938707C0FC82B7870708938707C03ECC7A
:102FC00093073050FC87ED472310F102854723011A
:102FD000F102B73700009387A7DBBEC4B737000004
:102FE000938727DDBEC691672317F102930720035D
:102FF0002318F1028567938797D02312F102B73720
:103000000000938787DF28003EDEEFF0CFFB180833
:103010008147994630003E9610228507050770BB10
:10302000E39AD7FEC24789C7B88285676373F70002
:1030300001A00808EF10A02DAA8501C937350200AC
:1030400013058595EFE0216B01A08545130500046C
:103050006D3AB7E700E03707008023A2E710054785
:1030600023A4E71061616FE0A152EFE221503735F0
:103070000000130525EDEF10C0251384B18508A0CD
:103080001928082037F60200130606E08965EF00CC
:1030900050606FE0E14FEFE2614D85453705001864
:1030A0005D320545EFF09F800545EFF0BF8201449A
:1030B00013051004F93231C19307900F63F88700AC
:1030C0003735020013058597EFE0217413050010D2
:1030D000EFF0DF820545EFF03F8361345934054559
:1030E000A13C413401452D34AD3C3735000013057A
:1030F000A5ADEF1080526FE0A149050442042945B7
:103100004180F13675B7EFD0CFDC054737050200B7
:1031100023AEE184EFF00FDE0945B5349934730036
:103120002030EFE2A14437350200B305B04013056B
:10313000C5C7EFE0415C6FE0A145EFE221434111DB
:103140003284708603C6C1866C00EF40507D3735EF
:103150000200A285130585BEEFE0E1590547A38271
:10316000E18641016FE0C142EFE24140411136C6C4
:103170002E84EF00F02DB24637460F0013060624CA
:103180003376C50291CA37350200B2851305C5C62C
:1031900032C6EFE04156324681452285EFA011202C
:1031A00041016FE0E13EEFE2613C89E93735020021
:1031B000B2851305C5BFEFE0015419A88547639098
:1031C000F50209EA37350200130505C1EFE0E163B6
:1031D0006FE0013C37350200130505C2C5BF8947C2
:1031E0006398F50075F637350200130505C3F9BF7E
:1031F0008D47E39FF5FC11E637350200130505C442
:10320000F1B737350200B285130545C56DB7EFE25A
:1032100041342A8AAE898144138441971389618697
:103220000345090063E9A4040E0509051946D28582
:103230002295EFD0AF8B8345090037350200130587
:1032400005AF93973500850593F5F50F1386F5FFC8
:103250000E062296A297A380370183487600034882
:1032600066005C325822343230222300B900EFE08D
:1032700081486FE041319395340089051946A29544
:103280005285EFD06F8F75F5850493F4F40F79B7FD
:10329000EFE2212C93970501C1870111AE8463DD14
:1032A000072203C5C1861389C186EFC09FEF2A8418
:1032B00005C518219307000B631DF70083C77186AE
:1032C00009474C21130A8500638DE7005285EF50B2
:1032D000A0362285EF00207A2165258D05616FE0FB
:1032E000812A0D47638FE5000547639EE500182599
:1032F0006317F7024C25373502001305459DEFE0B3
:10330000813FA382018658209307F0076319F700D5
:103310000E24373502001305C59EEFE0C13D5C2049
:103320002D476384E70205476398E7021824A946FE
:10333000631ED7024C24373502001305859FEFE04A
:10334000813BA38201864C2051B75C443735020093
:10335000130585A08C23E5B74D476392E702373507
:1033600002001305C5A2EFE0414AE1BFC94663135D
:10337000D702373502004C24130585A1C9B76D4724
:10338000639AE7002E24373502001305C5A3EFE04A
:10339000813655BF03C74186938941864DD78546FF
:1033A000631CD7061D476397E7021E2485C75C444C
:1033B00037350200130505A58C33B0339823BC23A1
:1033C000A2052206D98D5D8E2395B1862394C186F0
:1033D000EFE061325C201D47639EE7021830E94749
:1033E000E393E7F683D7A186B9DF7C8483D7818610
:1033F00009472380E9007C85F977938727107C862D
:10340000FD575C870346090003D581812C00EF40FE
:10341000505B15BF0547E9B789466319D7062547AD
:10342000639DE7021E2495CB5844034509001C33D5
:103430001823938A2186A207D98F930500041306C7
:1034400000642390FA00EF00D02483D50A003735BA
:1034500002001305C5A7EFE0012A5C20254763950C
:10346000E7021830E947E390E7EE8D472380F90043
:1034700083D7A1867C8483D781867C85930720208F
:103480007C8693079002B5BF0547F1BF8D46E31CCC
:10349000D7EA2547639FE7021E2485CF584403459A
:1034A00009001C331823938A0186A207D98F239021
:1034B000FA009305000813060064A3820186EF005A
:1034C000501D83D50A0037350200130545AAEFE0E9
:1034D00081222380090085BD93F7150091CF03C594
:1034E000C186370600201306060193850181EF90FF
:1034F000811913C51400DDB393F7052081CB416515
:103500007D15EFA0515F13C50420C9BB93F785005B
:103510009DC781577C84239101862394018623953E
:10352000018605472382E18683C6C18603D5818152
:1035300009462C00EF40F06413C5840045B393F7AF
:10354000050191CF03D5818113078025814613069C
:103550004006D145EFA0B15913C5040141B393F71B
:1035600005029DC303D581810147894609468145EE
:10357000EFA0915AAA85373502001305C5ADEFE0DB
:10358000811713C5040299BB93F70504CDC383C704
:10359000518613895186ADE783C6A18103D7218661
:1035A00003D58181138A81811384A181B5C2788476
:1035B0008547014781460546C945231801007C859A
:1035C000EF40D0472AC60DCD9307A0059389C18649
:1035D0001CA103C6090003550A002C00EF40F03E71
:1035E0001DE185472300F9001C2003C509001306CF
:1035F000006493B71700930500041CA0EF00700946
:1036000013C50404E1B9C9452800EF50E002CDBF5D
:1036100003C6C1862C007884EF40703A75F1854767
:103620002300F9001C2093B717001CA0D1BF93F70B
:103630000508A5C303C751861384518639E383D790
:10364000018603D581817C84814689470946C94525
:10365000231801007C85EF40703E2AC613898181C2
:103660000DC1854923003501B247035509002C00DF
:10367000A380070003C6C186EF40303511E5230063
:10368000340113C5040899B9C9452800EF40D07A20
:10369000CDBF93F705100145E38207C403D58181AF
:1036A000EFA0B14403C5C1860566130606969305CF
:1036B0000010EF00007E13C504100DB13C214947F6
:1036C000636EF71AEFD2F168373702008A071307E3
:1036D0008798BA979C432A84828705041374F40F51
:1036E00083C7618613896186637CF4009315340077
:1036F00089051946A69513858180EFC0FFC771DD46
:1037000083470900639A870237350200130585B2A3
:10371000EFE0A10F014685450D4523000900EF802C
:10372000717E37350200130585B1EFE0010ED9A097
:103730000144938441976DB7373502001305C5B333
:10374000EFE0A10C938741970E04930624003E946A
:103750001030BE9681450145EF80517803C5C18682
:103760000566130606C893050020EF008072373502
:1037700002001305C5B455BF9384C1868820930504
:103780000020EF0050100C30B9E10947A383E18617
:103790003A248820239CE180130600640547A14554
:1037A000A382E186EF00E06E88200564130604C85A
:1037B000C145EF00006E88201306049693050010A3
:1037C000EF00206D373502001305C5B5B9BF373599
:1037D00002001305C5B6EFD011723735020013058C
:1037E00085B1EFE0810223830186014685450D45C1
:1037F000EF8051716FD03159A38301867957239C93
:10380000E180238201862391018623830186A3829E
:10381000018603C5C18693050010EF00D0066C2019
:1038200037350200130585B8EFD0F16C373502004B
:10383000130585B1EFD0717D4DBF373502001305FB
:1038400045BAE5B537350200130545BBF9BD373537
:103850000200130545BCEFD0517B03C76186930777
:10386000F004E3E9E7F84C2013055400EFF03F9A29
:1038700051B737350200130545BDF1BF8280EFD245
:10388000F14E37350000411113050529EF00702472
:103890001384C186856508A0938505960945EF20A8
:1038A000A058D1451D45EF202058930540062145DD
:1038B000EF208057930540063545EF20E0568547B9
:1038C0000D47700091451305F0405C84DC845885F9
:1038D000DC8502C6EF90914B300085451305804092
:1038E000EF90D14A13069100854513059040EF9063
:1038F000F1491306A10085451305A040EF90114939
:103900001306B10085451305D040EF903148EF50C4
:1039100000710820EF50402408208545B529410159
:103920006FD01147EFD29144EFF0AFB4716513053A
:103930000520EFF02FBDB735020037350200938523
:10394000C5C8130585C9EFD0115B373502001305D3
:10395000C5EEEFD0916BEFF02FDFEFF00FF1EFA09E
:10396000F11B313FEFC0DF817300203001A0EFE099
:10397000AF8173002030EFE02FC973002030B717FC
:1039800002409843B706FFF841111367170098C328
:10399000D84337060200758FD8C39843B706F7FEA1
:1039A000FD16758F98C39843B706FCFFFD16758FFB
:1039B00098C3D843B70681FFFD16758FD8C3370764
:1039C0009F0098C702C402C69843C166558F98C32A
:1039D000B716024005679C42F18F3EC6A247850795
:1039E0003EC4B24781E7A247E397E7FEB71702401C
:1039F0009C431397E700635E070685473EC6324740
:103A000085476316F706B7170240D843B706C000CC
:103A1000558FD8C3D843B706C1FFFD1613670708F3
:103A2000D8C3D843D8C3D84313670740D8C3D843B3
:103A3000758FD8C3D843B7063500558FD8C3984380
:103A4000B7060001558F98C3984393166700E3DDCE
:103A500006FED843B7160240719BD8C3D8431367FC
:103A60002700D8C32147DC42B18BE39EE7FE41012A
:103A7000828002C669B70DC18346E5FF1307F00FC8
:103A80009147639CE600411106C6EFE0AFFCB240EF
:103A900081473E854101828095473E85828001E9CC
:103AA000014582800145B2402244410182809565F2
:103AB0004111938505D022C4C98D2A842105C205F0
:103AC0004205C181418106C6EFE04FEC61DDFD5743
:103AD0002320050042A17CA12105F1B7B9CD4111F8
:103AE00022C406C62A8497E7FF1F83C7776F2E85F7
:103AF0006375F400894763E88700B53F0D45B24020
:103B000022444101828083A785FF99E703C7E5FF2F
:103B10009307F00F6305F700B93F1545CDB7238F25
:103B200085FE17E5FF1F1305656BEFC0EFE52285E6
:103B30002244B240A165410185A41545828097E7E2
:103B4000FF1F23AD07688280C9C1797122D406D6D0
:103B500026D24AD04ECE01444147B3D78540858B0B
:103B6000A5C31205314722953305E50297E7FF1FEC
:103B70009387477003A907008544B3948400C20467
:103B8000C180BE892A990327090011C7032549006E
:103B90002EC60297B24531473304E40283A70900D9
:103BA0003E941C4489E72320090023220900B250D7
:103BB0002254A58D02599254F2492E854561828086
:103BC0000504E31CE4F88144DDB72E8582804111B1
:103BD0001397050122C406C626C24AC041872E8417
:103BE000635F0700EFC0EFDB11C17135A1673D8C4A
:103BF0002285B24022449244024941018280EDD99B
:103C0000AA8701474146B356E440858A8DCE920784
:103C1000BA97B146B387D70297E6FF1F93868665AA
:103C200003A906008544B394E400C204C1803E9910
:103C300083270900032549008297232009002322B6
:103C40000900258C75B70507E31FC7FA8144D5BF66
:103C500097E7FF1F9387075EDC53411122C406C616
:103C60001384018299C782971C403E9523A0A182AC
:103C700039A097E7FF1F938767609C43EDF70840E3
:103C8000B74703009387D73F3305F502B7A7260050
:103C9000938737ECB24022443E9523A0A182410194
:103CA000828065C9374836FE1308F8C789476363C1
:103CB000C80E797197E7FF1F9387C75B22D45AC854
:103CC00003A807003E8B06D626D24AD04ECE52CC51
:103CD00056CA5EC662C40144B148C147B30B14035F
:103CE000137CF40F3303780103230300631E0308DE
:103CF000AE8AC165AA84938505F041453A8AB689A2
:103D00003289EFE0AFC80DE997E7FF1F938787522D
:103D1000DC5B99EF8147B250225492540259F24928
:103D2000624AD24A424BB24B224C3E854561828068
:103D3000814511458297F9BF97E7FF1F9387474F4A
:103D400098431DEF97E7FF1F23A4A74E230005000C
:103D500083270B00054733148700232605002324FF
:103D6000250122A123224501DE9784C323A2570106
:103D700023A44701E38009FA2380890161BF3687C4
:103D80005447F5FE48C7D9B70504E319F4F4A14731
:103D900059B789473E85828097E7FF1F83C75744FD
:103DA000637FF50017E7FF1F1307474893171500B8
:103DB00008433E951E21DD8D0EA1014582800D45F3
:103DC000828097E7FF1F83C7B7416371F50217E74A
:103DD000FF1F1307A74593171500084393C5F5FF69
:103DE0003E951E21FD8D0EA1014582800D458280EC
:103DF00001114AC806CE22CC26CA4EC652C4930729
:103E0000F002094963EEA706B146B306D50297E76B
:103E1000FF1F938727469843094936971C43ADC334
:103E2000135A450005443D893315A40013140501B8
:103E30004180AE845285A285EFC0EFBDAA890149B9
:103E400021C1A2855285B53F97E7FF1F938707439E
:103E50009C43829797E7FF1F83D7A73F338797023B
:103E60002A84130600648146B3B79702130507320C
:103E7000B335E500BE95EFD04133229523A4A900C8
:103E8000F24062444A85D2444249B249224A05611D
:103E9000828097E7FF1F83C7B7346364F50001454D
:103EA0008280011197E7FF1F9387473D4EC683A984
:103EB000070006CE22CC26CA4AC8638C09082E8980
:103EC00097E5FF1F83D5E538B387C5022A84B284FE
:103ED0008146B3B5C50213850732B337F500130623
:103EE0000064BE95EFD0612CB74736FE9387F7C7C5
:103EF00063E1A706829997E5FF1F83D58535B387D0
:103F00009502AA89130600648146B3B5950213850C
:103F10000732B337F500BE95EFD02129AA99CA859B
:103F20002285EFC04FAF09C52324350105451DA0EB
:103F3000936504F0C205C1814145EFE02FA515E16D
:103F400097E7FF1F9387072FDC5B81C7A285114589
:103F500082970145F2406244D2444249B249056128
:103F6000828097E7FF1F9387A72C9C4395E397E7F1
:103F7000FF1F23AFA72A85472326050023243501E9
:103F80002311250100A11CB12322050045B7BA87E2
:103F9000D84775FFC8C7C5B751C9797122D426D291
:103FA0004AD04ECE52CC56CA5AC85EC662C406D655
:103FB000B689B28A2E8A2A899304000C414417EBF1
:103FC000FF1F130B2B2B054C930B000383270B00B8
:103FD000A6979C43A1E79375F400B315BC00C205F6
:103FE0005686C181135544006D350DC983270B00DA
:103FF0000145BE9423A0240123A244016384090047
:1040000023808900B250225492540259F249624AE4
:10401000D24A424BB24B224C456182800504137454
:10402000F40FB104E31474FB2145E9BF0945828014
:10403000411122C426C24AC006C62A842E89B284EF
:10404000893DCA852285EFC00F9D05CD97E5FF1FED
:1040500083D52520B38795022A8413060064814600
:10406000B3B5950213850732B337F500BE95EFD08F
:10407000C11348C00145B240224492440249410163
:1040800082802145CDBF411122C426C24AC006C646
:104090002A892E84EFC02F98AA8419C12311050004
:1040A000A2854A85393B97E7FF1F83C76713639B48
:1040B000270197E7FF1F83D727175D8C97E7FF1F1F
:1040C00023948716014591E01945B2402244924459
:1040D0000249410182809307F00263E8A70441117D
:1040E000B14722C43304F50226C297E4FF1F93842C
:1040F00064189C4006C6A297984389470DC39377DE
:10410000F5008545B395F500C205C1811181A53F34
:104110009C40A29723A0070023A207008147B2403A
:10412000224492443E854101828089473E858280B7
:10413000411106C622C4EFC00F8E11E50145B24001
:1041400022444101828097E7FF1F938727139C43F6
:1041500000458297B74736FE3305A4409387E7C7EB
:10416000E3EEA7FC93070064B335F50217E6FF1FE3
:104170000356260E81463305F502EFD00103C1B781
:10418000411106C697E7FF1F23A8A70E0295B2406C
:1041900097E7FF1F23A2A7060145410182809947A7
:1041A00063E9B7008A0597E7FF1F93872706BE9547
:1041B00088C1828041117146814517E5FF1F1305B3
:1041C000E50406C697E7FF1F23A4070697E7FF1F2E
:1041D00023A4070A97E7FF1F23A2070AEFC04F9403
:1041E00013068002814517E5FF1F130565FFEFC029
:1041F0002F93EFA0411D97E7FF1F83C7F70413D547
:1042000027008D8B3E958D473305F5028545390591
:104210001375F50F97E7FF1F2385A7FC9947330513
:10422000F50213050524EFD07FF617E7FF1F2323C0
:10423000A70449CD994717E6FF1F034686FA3306C0
:10424000F602814513060624EFC08F8D97E7FF1F06
:10425000938747029C439387072417E7FF1F232573
:10426000F7FA17E7FF1F0347C7F70A07BA9717E7D9
:10427000FF1F232DF7FAEFF09F8C2D2197E7FF1FEB
:10428000938787F8944397E7FF1F83C777F51397C2
:1042900027003697170600001306468B10C31387B6
:1042A00017001377F70F0A07369717060000130653
:1042B000469210C313873700890793F7F70F8A07D1
:1042C00097E5FF1FA38EE5F0B69790C3B24041017A
:1042D000828097E7FF1F83C7B7F017E7FF1F0347E9
:1042E00047F063F3E70217E7FF1F1307E7F11843EF
:1042F0009386170017E6FF1FA304D6EE93962700B8
:10430000369708C33E8582809307F00FE5BF1C41B6
:104310006380071441777D8FB70600208947631AB1
:10432000D7125A2163070712411122C419462A8461
:104330009305F00F610506C6EFC04F8805478D470E
:104340006303E5101C4481CB185C9947630D070E8D
:10435000585C630A070E13060004814517E5FF1F2A
:10436000130545EDEFB0DFFB13060004A28517E54A
:10437000FF1F130525ECEFB07FF717E7FF1F03576B
:1043800027EC97E7FF1F9387E7EA19E71307001069
:1043900097E6FF1F2396E6EA17E7FF1F034767EA42
:1043A00011E7054797E6FF1F238DE6E817E7FF1F94
:1043B000035747E911E76D4797E6FF1F2394E6E8A7
:1043C00017E7FF1F0347F7E711E7154797E6FF1FBA
:1043D000A389E6E617E7FF1F0347E7E611E705476E
:1043E00097E6FF1F2381E6E617E7FF1F0347B7E5C0
:1043F00011E7F83797E6FF1FA387E6E417E7FF1FEB
:10440000034787E411E7254797E6FF1F238EE6E27F
:1044100017E7FF1F034777E311E7514797E6FF1FB1
:10442000A385E6E2782819E71307C00397E6FF1F84
:10443000238DE6E0DC5791C7829797E7FF1F23950E
:10444000A7DA8D3B8147B24022443E8541018280FC
:1044500089473E85828097E7FF1F938727E29C4329
:10446000411106C622C426C24AC08297930700643F
:10447000B335F50217E9FF1F0359A9DD4A868146C6
:104480003305F502EFC0715297E7FF1F938747D5B9
:10449000804FAA8401456304940233858440636C91
:1044A00094004A8681461305009C9305F063EFC093
:1044B000D14F018D269597E7FF1F23AF97D2B240CA
:1044C00022449244024941018280011122CC0A8592
:1044D0002E84414697E501009385454406CEEFD0F2
:1044E000E10B180806043A94035504FF97E7FF1FF1
:1044F00083D747D6F2406244AA9737450F00130589
:1045000005243355F5020561828097E7FF1F83D7A5
:1045100067D451471D45637CF70279471945637895
:10452000F7021307200315456373F7021307B0045E
:104530001145637EF700130740060D456379F700C8
:104540001307600909456374F70013B5B70F82803C
:10455000011122CC06CE2A842EC6EFF06FEFB245B1
:10456000F240818D33A5A502229562441375F50FA3
:1045700005618280011122CC06CE2A842EC6EFF07E
:104580002FEDB245F240818D33A5A50222956244FC
:104590004205418105618280011122CC06CE2A8428
:1045A0002EC6EFF0EFEAB245F240818D33B5A50299
:1045B000229562440561828097E7FF1F938787C732
:1045C000D85739CB411122C426C206C6BE840297F1
:1045D00017E7FF1F035747C12A8415CBBA876373B8
:1045E000A700AA87C207C183BA866373E400A286C4
:1045F000C206C182958F5147635BF7009C5891C3F7
:104600008297EF40313B97E7FF1F239F87BCB24063
:104610002244924441018280828097E7FF1F938762
:1046200067C19C5B011106CE81C72AC682973245BD
:104630001DC917E7FF1F0357C7C185470DC317E7FC
:10464000FF1F035727C101CF97E7FF1F23A8A7C26A
:1046500017050000130565E0EFF09FB28147F240B7
:104660003E850561828097E7FF1F23A907B8E177A0
:1046700093C727A117E7FF1F231DF7BC930720034C
:1046800017E7FF1F2318F7BC7D57B747024023A445
:10469000E72697C7FFFF9387E70017E7FF1F232F42
:1046A000F7BC7DB7011122CC17E4FF1F130484B8B7
:1046B000084406CE26CA4AC801E90545F2406244CC
:1046C000D2444249056182801C5CE5DB585C75D7A9
:1046D0007000854582971844B247E300F7FE9305C2
:1046E000E00417E5FF1F0355A5B5EFD03FAA17E774
:1046F000FF1F2327A7B071D117E6FF1F035646B44B
:104700009305F00FEFB0DFC1814417E9FF1F1309D4
:1047100029AD97E7FF1F83C7C7B20326090263CFFE
:10472000F4003285EFD01FB3014597E7FF1F23A99F
:1047300007AC97E7FF1F23A707AC49B797E5FF1F13
:1047400083D505B0B38795020844585C89818504F8
:104750003E9508C2029775BF411122C417E4FF1F9E
:10476000130444AD1C4426C206C64AC097E4FF1F8A
:10477000938404A791EB885025E9B24022449244E7
:1047800002490145410182805C5CF5D79C5089EF6C
:104790009305E00417E5FF1F035585AAEFD01F9F7F
:1047A00097E7FF1F23AEA7A4885071D517E6FF1F18
:1047B000035606A99305F00FEFB09FB6014997E79E
:1047C000FF1F83C707A89050E357F9FA97E5FF1F2B
:1047D00083D505A7338525031C44898105093E95AA
:1047E0005C5C08C28297E1BFEFD0DFA697E7FF1FAE
:1047F00023A807A097E7FF1F23A607A0BDBF0111AD
:1048000056C297EAFF1F938AEAA283A78A0022CCA6
:104810004AC84EC606CE26CA52C45AC0AA892E8499
:1048200032896383072003A78A03630107141307F0
:10483000F01F636FA71297E4FF1F9384649A03AA83
:10484000040263110A0A9565938515E017E5FF1FB9
:104850000355059FEFD09F9397E7FF1F23A2A79AC9
:104860002A866305051083A78A0303A58A0097E5B6
:10487000FF1F83D5E59C8981829783A78A0003AABD
:10488000040217E7FF1F232FF79689476396F9085D
:10489000C147631DF40C97E5FF1F83D5659A938587
:1048A00005FC9147B3C5F5028A05D295B821930757
:1048B000A0056319F70A9E216396370B4A85228665
:1048C0009105EFB0BFA29C505285639B47130145F1
:1048D000F2406244D2444249B249224A924A024BCF
:1048E00005618280D850E382E7FA9565938525E0DB
:1048F00017E5FF1F0355C594EFD05F892A8A3DC590
:104900002A8683A78A0303A58A0097E5FF1F83D51C
:1049100025938981829795BF8D47639DF900C14793
:104920006316F40497E5FF1F83D58591938545FDB4
:10493000F199A5BF9147639AF9006319340397E58C
:10494000FF1F83D5E58FA115E5B793070010639F7F
:10495000F900A14763EC870097E5FF1F83D5458EDB
:10496000C115F9B79C505285639D470B29458DB7FA
:104970001D6A568B63794509130A05E01947334AC6
:10498000EA0217E7FF1F0357A78B97EAFF1F938AD7
:104990002A85330AEA023E9A83A74A0263954701B1
:1049A00083A40A028DE49305E00417E5FF1F035575
:1049B0002589EFD0AFFDAA8455D983278B0397E5CE
:1049C000FF1F83D5E5872A86898152858297914585
:1049D0001307A005898193972500A697B423639DAB
:1049E000E60296236398360385058A052286A695F6
:1049F0004A85EFB0BF8F83A70A02E38A97EC26852A
:104A0000EFD05F85E9B521677917E361A7F6330A2F
:104A1000454185BFAC337DBF83A70A02E38897F485
:104A20002685EFD03F8399B797D7FF1F9387477BA2
:104A30008C538DDD91479306A0058983139727003A
:104A40002E973023E314D6F21223631A360185071A
:104A50008A072286BE954A85EFB05F898DBD3C33BB
:104A6000E9BF97D7FF1F9387E77C984729C7DC5F8B
:104A7000B9C305476311E504411122C417D4FF1FD0
:104A800013040476105006C61DC2485097D5FF1F68
:104A900083D5057B898182970850EFD0AFFB97D7EC
:104AA000FF1F23AF077497D7FF1F23AD0774B240D2
:104AB0002244410182808280011117D7FF1F130712
:104AC00067774EC68329870022CC26CA4AC806CEFD
:104AD00052C456C2AA842E843289638E091E5C5F3A
:104AE000BA8A99EB2945F2406244D2444249B2491C
:104AF000224A924A056182801C5FEDD79307F01F1E
:104B000063E4A70E97D9FF1F9389896D83A70902D4
:104B1000B1C703A58A0083A74902639FA7048947F9
:104B2000639DF406C147E31FF4FA17D5FF1F035531
:104B300025719147130505FC3345F50293172500B0
:104B400003A509022286CA853E959307A0053CA1CC
:104B500006A11105EFB08FF9014571B79305E00487
:104B600017D5FF1F0355C56DEFD04FE297D7FF1F35
:104B700023A8A76859FDBDB783A78A0303A6090226
:104B800097D5FF1F83D5C56B8981829783A78A003C
:104B900017D7FF1F2328F76659B78D47639EF40088
:104BA000C147E311F4F417D5FF1F035565691305D9
:104BB00045FD9377C5FF69B79147639AF400E31306
:104BC00094F217D5FF1F0355A5672115DDB793078D
:104BD0000010E399F4F0A147E3E687F017D5FF1F33
:104BE000035505664115F1B79D676377F506930791
:104BF00005E01947B3C7E70217D7FF1F03574764FC
:104C000017DAFF1F130ACA5DB387E702BE9983272D
:104C10000A02B1CB83274A026395370703250A02AC
:104C200091461308A0059305F00F93D7260013971C
:104C300027002A973023631B060783580700303369
:104C400063929806B306D64063CD860485078A072B
:104C50002286CA853E95FDBD21677917E364A7E8E2
:104C6000B307F54051BF9305E00417D5FF1F035567
:104C7000255DEFD0AFD197D7FF1F23A3A75859F9D0
:104C800095B583A78A0303260A0297D5FF1F83D50C
:104C9000255B89814E85829797D7FF1F23A43757BD
:104CA000B5BF0EA393160601C18241B7B385860036
:104CB00017D6FF1F0356C6589105130606FCE3F3EB
:104CC000C5E213063400719A1106B296230107015A
:104CD00006A334B3A5BF97D7FF1F9387675094539C
:104CE000BE8995CE03A5090291461308A005930538
:104CF000F00F93D72600139727002A9730236313CA
:104D0000060583580700303363979800B306D640F2
:104D1000E3DE86F20EA393160601C182D9BF5E2799
:104D200017D5FF1F0345E5519305E0043305F50250
:104D300042054181EFD08FC597D7FF1F23A2A74C13
:104D400055F14DB317D6FF1F0356864F97D5FF1F5A
:104D500083C5254FB385C502338686001106E3E37C
:104D6000C5D885B701458280011106CE2EC6EF70E9
:104D7000B02419C5B245F2402A2105616FA0F04C5C
:104D8000F240494505618280A38C0188238C01880B
:104D900023A0018823A2018823A4018823A60188D7
:104DA00023AE018623AC018697D7FF1F9387474F19
:104DB00013064038B2B371761307400B130606B8DA
:104DC000BAA3D2B311671D46930600059305000AE6
:104DD0001305007DDAA3F2B341470546130810F826
:104DE000BAA7DAA7BAABDAABFAAB9AAF9AB72396FF
:104DF000070323900700EEA38EA7F6A796ABAAAFF2
:104E0000239E0700239F070023900702B2B7239732
:104E100007021308F007239807022392E70423935D
:104E2000E704239FE7042390E7062391E7062392F4
:104E3000E706239907031307C01CD2BBF2BB239CD0
:104E40000702239D0702239E0702239F0702239048
:104E500007042391C704239407042395070423968A
:104E6000C7042397D7042398D7042399A704239A28
:104E70000704239B0704239C0704239DD704239E38
:104E8000D7042393A70623940706239507062396A2
:104E900007062397B7062398B70623990706239A90
:104EA000E7067D57239B0706239CE70682800111B6
:104EB00026CAAA84214522CC06CE2E8432C636C408
:104EC0003AC2EFE0DFBD0DC5A24612473246930756
:104ED00000FD1CA1994704B13CA174A178B152A175
:104EE000AA8522856244F240D24405616FE01FBF6B
:104EF000F2406244D2440561828023A0A18882806E
:104F000023A2A188828023A4A188828023A6A188CD
:104F10008280011122CC4AC806CE26CA2A890144C1
:104F2000B30489006368B400F2406244D244424949
:104F3000056182802EC6EFE0BFD193170501C183C2
:104F4000A183B2459CA09307140093F7F70F850443
:104F500063F8B700CA97090488A31374F40FC9B79C
:104F60003E84C9B7C16717D5FF1F0355C531FD176B
:104F70006304F502411117D6FF1F0346E6429385ED
:104F8000018906C6EF702066B240FD5717D7FF1F94
:104F9000231BF72E41018280828009C925151375D4
:104FA000F50F1335850E134515008280014582806B
:104FB00023900500C1C6797122D426D24ECE52CCA0
:104FC0005AC806D64AD056CA5EC63684328AAE89D8
:104FD0002A8B814463F24407B30794009C2313890E
:104FE00014004209939A070193DA0A01135909013F
:104FF00063840A04CA976341FA04B307240183CB8C
:1050000007005E85593F0DC99387FAFF2390F90089
:1050100063906B03130519002295B25022549254E9
:105020000259F249624AD24A424BB24B45618280F0
:10503000D694C204C18079BF0145C5B701458280BD
:10504000411126C2AE8422C497D7FF1F23A4C724D0
:1050500097D7FF1F23AEB72297D7FF1F23A8A722FA
:105060002A8441469305F00F26854AC006C60549A5
:10507000EFB0CFB4631E250397D7FF1F9387472058
:10508000884BC145793541469305F00F2285EFB035
:10509000EFB2854463169502224497D7FF1F93878A
:1050A000271EB24092440249C847C145410195B507
:1050B000414681452685EFB06FB0E31625FD6DBFF3
:1050C000414681452285EFB06FAFE30795FCB240C2
:1050D00022449244024941018280411122C426C2E5
:1050E0002E84AA8413060002814517D5FF1F1305DD
:1050F000251906C6EFB0CFA297D7FF1FA383971835
:1051000097D7FF1F2384872AEFA07016854719C100
:1051100081474945B240224417D7FF1F2302F716A3
:10512000924441018280814791C909C98547631929
:10513000F500DC3193E707FCDCB185473E858280D2
:1051400089476316F500DC3193F7F703F5B70D4790
:105150008547E315E5FED8311377F7031367070496
:10516000D8B1E9BF814785C119CDD8319306000C6C
:1051700085471377070C6308D700930600048D4713
:105180006303D70089473E858280411122C4005DB8
:1051900006C626C21DC0AA84085019C1EFD08F8B45
:1051A000485019C1EFD00F8B085419C1EFD08F8A26
:1051B0002285EFD02F8A23AC0402B24022449244CD
:1051C0004101828009ED97D7FF1F83C7870B17D551
:1051D000FF1F1305650C81CB13850187828017D5CE
:1051E000FF1F1305650B828017D5FF1F0345650957
:1051F000828097D7FF1F9387A708C847828097D7D9
:10520000FF1F9387E707884B828097D7FF1F9387FD
:105210002707DC4B8843828097D7FF1F9387470679
:10522000D84B1C4385071CC317D5FF1F03457505C5
:105230009307F00F6305F50091656FE0FFB582807D
:10524000011122CC06CE2E8432C6EF70A0669147A3
:10525000B245631FF5009387C1889C438DC303A3A8
:105260000700630E030022856244F2400561028359
:10527000938741889C4381C703A34700DDB7F24071
:105280006244054505618280011122CC2A844A21AD
:1052900006CE26CA4AC84EC6EFB00FCE35C12A89FF
:1052A00004218349C500D5354A85EF80C0224A20B4
:1052B000EF70405C83C78189A1CB6397970483C556
:1052C00091892685EFF05FAA19E1238C01884A2095
:1052D000EF70405E9147631EF5005A2097D7FF1F7D
:1052E00083D767FA6317F700FD5717D7FF1F231CF3
:1052F000F7F8F2406244D2444249B24905618280E3
:1053000081499304F00F7DB79307F00FE381F4FC1C
:105310007420522028204E87A685EFF05FB945BF44
:1053200079715EC6AA8B2E8552CC56CA5AC806D64B
:1053300022D426D24AD04ECEAE8A328B368AEFB0F5
:10534000AFC361C9045D2A89E9C49C50614599C312
:10535000130540039C5481C75105420541816305F3
:105360000A00710542054181DC5081C7590542059B
:105370004181EFE0CFF22A8449CD61468145EFA01B
:105380003FFA97D9FF1F83C9A9F4639409008349A1
:105390000900930700FD1CA0A947A30074013CA0CD
:1053A000230364018C50231254011305840181C925
:1053B00008C47146930A4403EFA05FF356858C54EA
:1053C00081C948C45146930A4501EFA03FF2568572
:1053D000630A0A0008C87146D285930AC501EFA086
:1053E000FFF05685CC5089C548C85946EFA01FF03C
:1053F000A2854E85EFE08FEE2254B2509254F249CE
:10540000624AD24A424BB24B4A85025945616FF01B
:10541000DFD7B250225492540259F249624AD24A1A
:10542000424BB24B4561828001114EC6AA892E853E
:105430004AC806CE22CC26CA2E89EFB0EFB339C1B6
:1054400097D4FF1F83C4C4E891E004211945EFE01D
:105450000FE52A8405C981451946EFA07FEC930723
:1054600000FD1CA0B947A30034013CA02312240175
:10547000A2856244F2404249B2492685D244056180
:105480006FE0CFE5F2406244D2444249B24905613F
:10549000828039715ECEAA8B2E8526DA4ED652D402
:1054A00056D25AD006DE22DC4AD8AE84328BB68A77
:1054B0003A8ABE8942C6EFB02FAC39C52A89414528
:1054C000EFE0EFDD2A8429C141468145EFA05FE589
:1054D00017D5FF1F0345C5DF19E1034509009307F1
:1054E00000FD1CA0BD473CA0B247A300740146A02C
:1054F00023046401A304540123054401A3053401DA
:105500005CC4A285EFE08FDDF2506254D254425960
:10551000B259225A925A025BF24B21618280797110
:1055200026D2AA8439454AD04ECE06D622D42EC6DB
:10553000B2893689EFE0AFD61DC9B2459307000D99
:105540001EA1B1472A844EA13CA1CE85190519465A
:10555000EFA0DFD923062401A2852254B2500259BC
:10556000F24913F5F40F925445616FE02FD7B25012
:10557000225492540259F2494561828017D7FF1F85
:10558000034737D09307F00F6307F706411126C290
:10559000AA84394522C406C64AC0EFE04FD02A8407
:1055A00029C5930700FD1CA104B12301050097D56F
:1055B000FF1F938565CE0D051946EFA03FD317D980
:1055C000FF1F1309E9CB83578900A28517D5FF1F59
:1055D000034535CB3EA4834719005CA42244B24066
:1055E0009244024941016FE06FCFB240224492449D
:1055F000024941018280828001115AC02A8B3145C3
:1056000026CA4EC652C456C206CE22CC4AC8AE8462
:10561000B28A368ABA89EFE08FC835C92A842685CE
:10562000EFB08F9509C55825A1476311F70417D925
:10563000FF1F034919C5930700FD1CA09D47A30048
:1056400064013CA046A023135401231444012315F4
:105650003401A2856244F240D244B249224A924ABD
:10566000024B4A85424905616FE04FC717D9FF1FBA
:105670000349D9D3E3110BFC938781949C439C4746
:10568000DDDBCE865286D685268582976DB7F240C1
:105690006244D2444249B249224A924A024B0561CD
:1056A0008280011122CC2A84214506CE2EC6EFE04D
:1056B0000FBF15C5B245930700FD1CA1C5473CA10E
:1056C000BC313CB1DE215EA1FC217CA1FC31AA856C
:1056D0007CB122856244F24005616FE02FC0F24048
:1056E000624405618280397162CC2A8C594526DA80
:1056F0004AD84ED652D456D25AD05ECE06DE22DCDE
:10570000AE8432C636C4BA8B3E8BC28A468A83596F
:10571000010403494104EFE08FB82DC132469307DD
:1057200000FDA2461CA1954730B1A30085013CA114
:105730002A84194611059DCEB685EFA03FBB2306EE
:105740006401230A2401231574012317540123182B
:10575000440123193401A2856254F2504259B259CE
:10576000225A925A025BF24B624C2685D254216136
:105770006FE0CFB68145EFA0BFBAD1B7F250625407
:10578000D2544259B259225A925A025BF24B624C9D
:105790002161828097D7FF1F83C7A7AE9DC74111A4
:1057A000AA8519461385018706C6EFA03FB49385E5
:1057B000018717D5FF1F0345C5ACEFF0DF96B24058
:1057C0001385018741016FA0402B0145828017D7C7
:1057D000FF1F034717AB9307F00F630FF706411145
:1057E00026C2AA84294522C406C6EFE04FAB2A840C
:1057F0001DC9930700FD1CA1A1473CA104B197D787
:10580000FF1F9387E7A7BC23938501871105A30F8B
:10581000F5FE1946EFA09FADA28517D5FF1F0345E2
:1058200055A6EFE0AFAB17D7FF1F034787A58D47FE
:10583000631FF700938781889C4391CB03A3870064
:10584000630703002244B240924441010283B24004
:10585000224492444101828017D7FF1F034767A269
:105860008D47631AF700938781889C4389C703A3F8
:105870008700E31D03FC8280797122D406D626D2EC
:105880004AD04ECE52CC09444DC52A890A212E8ACF
:105890005144EFA07FEEAA8449CD97D7FF1F83C75D
:1058A000E7B0FD1793F7F70F054749446373F7080F
:1058B0005825A1476314F700631D0A069C5C454404
:1058C000ADEB9165938545711305C002EFC01F8C48
:1058D00088DCAA894D4431CD1306C0028145EFA072
:1058E0003FA4835709009386490036852391F90028
:1058F00071469305490036C6EFA05F9F8947238014
:10590000F900C824B24603560900611597D5FF1F58
:1059100083C585A913351500EF90C0302A8463062E
:105920000A00D2852685EF70906101C42685EFF0CC
:10593000DF852285B250225492540259F249624ABC
:105940004561828097D7FF1F83C747A6FD1793F74E
:10595000F70F05476371F70889473DCE011122CC47
:1059600026CA4AC84EC652C406CEAA89368AB2840E
:105970002E89EFA07FE02A84D14731C1485519C153
:10598000EFC05F8DF1452685EFA0FF9B48D4CD4742
:105990001DC5542421478147639DE600630B0A001F
:1059A000382D122993062501AA854E85EF70E05DFA
:1059B000AA875820630E09001367670058A0F240B9
:1059C0006244D2444249B249224A3E8505618280FE
:1059D00013674700E5B7C9473E8582809307B00348
:1059E00063EAA70097D7FF1F9387878B06053E952D
:1059F0000A21828041657D158280011122CC2A8492
:105A00002E8526CA06CEAE84EFA01FD71DC9B74784
:105A10000F009387F723094563E0870281450A85D4
:105A20004146EFA0FF8FA68560800A8541804081B6
:105A3000A3010100EF902002F2406244D2440561CC
:105A400082804945D5BF97D7FF1F2380A7968280C4
:105A50006F904016797152CC2A8A328522D426D290
:105A60004AD04ECE56CA5AC85EC606D662C4AE8B5F
:105A7000B28A368BBA843E89C2894684EFA0DFCFD2
:105A80000DC92A8C63130A0213774B005C2115CFD2
:105A900093E727012302FC008DEC631C0902639A43
:105AA000090205E8ED9B2302FC00832B8C0363991C
:105AB0000B06B250225492540259F249624AD24A19
:105AC000424BB24B224C45618280F59B93E7070124
:105AD000D1B793E747002302FC0011C81C48414698
