:100000006F20203E130000001300000013000000CA
:100010001300000013000000130000001300000094
:100020001300000013000000130000001300000084
:08003000130000007300100032
:100038000000000000000000F8370000FC37000056
:10004800000000006C230000000000000000000019
:100058006E23000070230000000000000000000074
:10006800722300000000000074230000000000005C
:1000780076230000782300007A2300007C23000008
:100088007E230000802300008223000084230000D8
:1000980086230000882300008A2300008C230000A8
:1000A8008E23000090230000922300009423000078
:1000B80096230000982300009A2300009C23000048
:1000C8009E230000A0230000A2230000A423000018
:1000D800A6230000A8230000AA230000AC230000E8
:1000E800AE230000B0230000B2230000B4230000B8
:1000F800B6230000B8230000BA230000BC23000088
:10010800BE230000C0230000C2230000C423000057
:10011800C6230000D8370000CA230000CC23000003
:10012800CE230000D0230000D2230000FE370000B9
:1001380006380000D8230000DA230000DC23000082
:10014800DE230000E02300000000000000000000A3
:100158000000000000000000000000000000000097
:100168000000000000000000000000000000000087
:0801780000000000000000007F
:10018000EFF251319126FDBF23AC05FE1C4181E702
:100190000CC18280BA8703A787FF6DFF23ACB7FE2F
:1001A0008280172700201307A7111C43411122C486
:1001B00026C24AC006C601440149BA8491E7A16536
:1001C000EF40A02A05C809A803C7E7FF631BA702E1
:1001D00015CCA165EF30907A9840832784FF63198E
:1001E000E40217270020232DF70CFD57232C04FED3
:1001F000230FF4FE2285B240224492440249410179
:10020000828011E03E8983A787FF4DBF3E84E5BF12
:10021000232CF9FED9BF972700209387A70F9C4373
:1002200099E33E858280BA236315B7009823E30AD9
:10023000A7FEDC47F5B70111680006CE22CCEF001F
:10024000811FFD576305F508324735CF172400207D
:10025000130444071848630EF7009727002093877C
:1002600027109C43829732471C486373F700BA8774
:100270003E95172400201304E4231C4C81CF9727BC
:1002800000209387A72994433707CDFF7D179C460D
:10029000F98F9CC697270020938707089C57829761
:1002A00019E51C4C8DC3EF60015CEF50514B1C4CA9
:1002B00099CB97270020938767269843B70633008A
:1002C0001C47D58F1CC7F240624405618280172409
:1002D0000020130424FF1C48E387A7FE9727002073
:1002E000938707089C4382971C4859B709CD81CD55
:1002F00019CA81473387F50014233307F5008507B2
:1003000014A3E319F6FE828019C991C909CA91059F
:1003100083A7C5FF11057D16232EF5FEC5BF82807C
:1003200001C919C62A960505A30FB5FEE31DA6FE51
:10033000828081473307F5000307070019E33E85F4
:1003400082808507C5BF01112E8626CAAA8413158F
:1003500006019305F004418122CC06CE32C6EF108F
:1003600090562A8401C53246A68549372285F24037
:100370006244D24405618280854705C199CD11CE82
:100380008147B306F5003387F5009422182363985C
:10039000E6008507E317F6FE85473E8582808147A4
:1003A000EDBF9307F6FFBE952A966313C5008280C2
:1003B000FD159C310505A30FF5FEC5BFAA870145B4
:1003C00081CF09CE3E96850703C7F7FF6317B700B5
:1003D000E39BC7FE05458280828001458280011132
:1003E00097270020938707F322CC804306CE26CAA6
:1003F0004AC84EC652C456C25AC059C437C9C901A8
:100400008144972900209389A9F51309F937172A00
:100410000020130A6AF0972A0020938AAAEA3E2055
:1004200091EF5C44A5EC172700202325F7EE032B62
:10043000C4002285EF10B0555A840DA883A7090087
:1004400082971C443307F540636CE904972700202A
:1004500023A207E82E200820EF30505254405C447D
:10046000F1D21844A284369718C43E844DF89727D9
:100470000020938727E59C4B09476372F704F9171F
:10048000172700202328F7E4F2406244D24442496F
:10049000B249224A924A024B05618280DCC441BFC4
:1004A00003278A0211CB03A70A01898F63F6E700AD
:1004B000172700202320F7E2A284404445BF972756
:1004C000002023A907E0C9B7411122C41724002046
:1004D000130404E21C4006C626C24AC091C7829794
:1004E0009727002023A607E05C4091C382971C4019
:1004F000639B07189727002083C717FC858B9DC730
:1005000097270020A38A07FA172700200347F7FA46
:10051000914763FDE700EF10E0489727002083C76D
:10052000D7F9F9178A07A2979C43829717290020C9
:10053000130949FC8347C900918B99C3EF10502ED2
:100540001C4491C3829797240020938464DC9840D4
:1005500017260020034616D79727002083C787D683
:1005600093961700BA969622C1CA9727002083C790
:1005700067D563EDC70897270020238507D41C4063
:10058000639307109727002083C757F381CF9727DE
:10059000002083C797F299E797270020A38007F2EE
:1005A000EF50F16597270020938787DB9C43E1CFCD
:1005B000FD5717270020232FF7D015359727002048
:1005C000938787D59C57E1C3172700200347F7EE91
:1005D000914763EAE70A8347C900918BCDE79040D2
:1005E0009726002083C616CE63E5D70A2244B24080
:1005F00092440249410181B1850793F7F70F97268D
:1006000000202381F6CCE3E9C7F485B786073E973F
:100610000E232310070097270020239907CE972742
:1006200000209387A7CC9C4317250020034585C94C
:1006300013172500BA979C4382979727002083D7EA
:10064000E7CC172700200347E7C793C7F7FF7D8D47
:100650009317170098403E971E235D8D0AA3972796
:10066000002083C727C691C7850717270020230BC3
:10067000F7C4172700200347E7C49727002083C744
:1006800077C4E37AF7EEB240224492440249410132
:1006900082801397170032971A2375F78507A9B739
:1006A000AD6737470240BD072326F7200100010050
:1006B00097270020938707C1C84F83278726BD66E9
:1006C000BD0693C7F7FF99836A052326D7205D8D62
:1006D00082808280938701939C43172600200346E3
:1006E00076DB01476365C700814636858280BE861A
:1006F000990783D5A7FFE38AA5FE0507E5B793878A
:100700008192984319E3014615A81C4703D8A70016
:10071000636B050183584700B38608016355D50014
:100720008146639416011843F1BF3E86C10703D387
:10073000A7FF6317A30099C123900501328582802A
:100740008506C206C182F1BF972700209387C7D0D4
:100750009843172600200346E6D381476315F60029
:10076000814636858280BA861307C703835567FCA6
:10077000E389A5FE850793F7F70FCDB7032785110A
:100780007DC7411122C406C65C258345C5042A8461
:1007900093F7C70F5CA5143752271395860161851F
:1007A00063F6C50663500506082793F6F60714B7E7
:1007B000054693E627006314C50093E6170054A48A
:1007C0005C4389075CC34CB8032504112E864C4357
:1007D0000905293E832784115038D443DA27B2967D
:1007E000118FD4C3DAA789473CBC0347440397273A
:1007F000002083C787B36371F7045C2493E7070184
:100800005CA41DA893E717005CA475BF9376F60F50
:10081000635905020827854513E627006314B500D0
:1008200013E6170050A454B8A304070085473CBC46
:10083000832784119C43D5FBB240224401454101EA
:10084000828093E717005CA454B8A3040700032533
:1008500004114C430905593C832784115038D44373
:10086000DA27B296118FD4C3DAA78D47C9B70545E9
:100870008280972700209387A7C29C43411122C4FE
:1008800006C6858B2A84DDE34165130525F5EF0057
:10089000712249CD3C253EA583270412B5E32320D0
:1008A000A4122322A41285472310F4042320050058
:1008B0007C2854415EA5583418A5054718B517275C
:1008C0000020130727BF184F1385170215811C43FB
:1008D0007D151375F50F9CC25C43DCC21C479CC69A
:1008E0005C47DCC61C4B9CCA5C4BDCCA1C4F9CCED4
:1008F0005C4FDCCE19CD9386060213070702C1BFF9
:100900008327441288C3835704042322A412850733
:1009100061BF9727002083D7E7C6850717270020E8
:100920002312F7C6B2402244410182805C2423098D
:100930000400054593C747005CA4EDB71C2D93F751
:10094000E70FCDEB1C3DDDE73029542509CA83456F
:100950004503172700200347579D63E7E50013F77A
:10096000060151CB014709C6C18A0357851B81C6C1
:100970008356C51B369741C31307C712172500209E
:100980000355659BB335A70237460F004111130687
:100990000624814622C426C206C67D543305A7021A
:1009A000EFE031739727002083C77798B384A700BF
:1009B00097270020938787BC03A7C70883270709C9
:1009C00063F387003E84184375FB972700209387C5
:1009D00027999C43829781476364A400B307A4408E
:1009E000B2402244B3B7970093C7170092443E85A4
:1009F0004101828081473E85828097260020938630
:100A0000E6B783A7C6086386074203A5460979713E
:100A100037470F0006D622D426D24AD04ECE52CC2B
:100A200056CA5AC85EC662C4172300200353A39057
:100A30000148FD58130EF7231306072403D7470870
:100A400083A507093307670272973357C7023387B5
:100A5000E540637517013E85BA8805489C43F9FF58
:100A6000630608009727002023A4A7BA03A4460919
:100A7000B7490F00938BF923172900201309498EDA
:100A80009724002093844489930A0032130B204E4C
:100A9000054A9389092483270900032C04098297B6
:100AA0009726002083D62689637C852B035744082C
:100AB0009727002083C7B787330CAC403307D70292
:100AC0005E97335737033E97636087237E3CA30FBF
:100AD0000400228585077EBC83470414C5CBD52E30
:100AE0002285EFF0704059E5835744081725002010
:100AF0000355658437470F00B387A7029306F72392
:100B00001307072483290409230A0402B697B3D7DD
:100B1000E7020547B387F9402324F4088327C40874
:100B2000BE993C34232834096394E7060357E4074D
:100B3000363C63EFE6041428639CF6048327841193
:100B4000A1EB8327440AA9E774349D476392F60416
:100B50001E3CB387E7021307204EB387E702032743
:100B60004409B3D7E702171700200347477CBA9719
:100B70002312F408B250225492540259F249624AA4
:100B8000D24A424BB24B224C45618280652489BFD8
:100B90001E309DCB763C5A3037460F0056B0338717
:100BA000E640B387E7023A301306062481468145C2
:100BB000BA97C207C1833385A7023EB0EFE07151F7
:100BC00001C5AA9923283409832709008297AA8995
:100BD000832709008297E30D35FF832709008329C6
:100BE000840882973385A94069C58327C408637246
:100BF000F50C37490F0013090924B3352503F22CEE
:100C0000814633052503EFE0D14C3E301727002005
:100C10001307078C14433E95B567BD07DCC601007A
:100C200001001C432630096798C7130700F8972670
:100C300000202383E68806059719002083D9A96F31
:100C4000E8D3338534033D673D0737460F00D8C7E7
:100C50001306062481468145EFE0B14719CDB3372D
:100C600025034E868146B305B9023305A902BE9518
:100C7000EFE031463385A4402AB0EF500175EF50C4
:100C8000F101383485478145631CF70017450100A1
:100C90001305057CEF30F00E930700FD7CA4D9BD51
:100CA00017150100130505EDEF30B00D930710FC8B
:100CB000F5B73834854703A344036317F700954518
:100CC000E30A03EA154529A0E30603EA9545194519
:100CD0002254B25092540259F249624AD24A424BCB
:100CE000B24B224C4561028363540C047E3C850761
:100CF0007EBC8347041499E322852D2A2285EFF0D8
:100D0000B01E832704090327C408BA972328F408D0
:100D10003C34639547012285EF40E1197C3C8545D1
:100D200085077CBCDC58E38807D615458297A5B3B8
:100D30005E3C130700328E07B387D70293870719EB
:100D4000B3D7E702E3F887E3A1452285EFF0B011BE
:100D50002305A40203A344038945E31503F619BD43
:100D60005E3C330C85418E07B387D7029387071902
:100D7000B3D757036371FC0A8327090082977E3C2F
:100D80002A8C85077EBC8347041499E322855D2065
:100D90002285EFF07015E31F05DC83270409032784
:100DA000C408BA972328F4087C3C13F7070F39CB03
:100DB0002285EFF0A04BA30F040083270409E37DF5
:100DC000FCFA8356E4071E3C03274409B387D70285
:100DD000B3876703B3D7E7021717002003472755E8
:100DE0000607BA972312F4083C34639047033E3C4D
:100DF000E3F3D7CA2285EF40010CDC58E38D07C826
:100E00008D4525B785077CBC4DBFDC58E38507C8F9
:100E10008D45194521BFE34F0CD4A1452285EFF044
:100E200090042305A40203A34403E30503D49145DE
:100E300051BD8280797126D206D622D44AD04ECEB8
:100E400052CC56CA5AC85EC683473503034475134D
:100E5000AA843E941374F40F9307400263F687004C
:100E60001304B4FD1374F40F03AA841383AAC413E8
:100E7000A38B841222865285D685EFE01120058946
:100E800005E503CBD41201498149337B6403930BFD
:100E900050024A865285D685EFE0311E058915C578
:100EA000639169031374F90F238B8412B250225497
:100EB00092540259F249624AD24A424BB24B4561BE
:100EC00082808509E20993D989410509E31379FDF7
:100ED000E1BF83278509723D797193D60701BD8EE5
:100EE000C206C182358E1357764093575640898B80
:100EF000058B5D8F93573640918B5D8F93571640CE
:100F0000A18B5D8F93171600C18B5D8F93173600F1
:100F100093F707025D8F931756009355860093F75A
:100F200007041E065D8F1376F60F518F93D7554039
:100F300013D63540118A898BD18F13D67540D18F46
:100F400013D61540218AD18F13961500418AD18F6F
:100F50001396350013760602D18F1396550013763B
:100F600006049E05D18F93F5F50FCD8FA207454658
:100F70005D8F3307C70222D42A8426D252CC56CAA8
:100F8000032A8413832AC4135AC806D63697420705
:100F9000418393577740135557400989858BC98FF3
:100FA000135537401189C98F135517402189C98FAF
:100FB000131517004189C98F1315370013750502E2
:100FC000C98F1315570093558700137505041E0725
:100FD000C98F1377F70FD98F13D5354013D75540E5
:100FE0001189098B498F13D57540498F13D5154049
:100FF0002189498F139515004189498F1395350033
:1010000013750502498F13955500137505049E0548
:10101000498F93F5F50F4D8F2207D98FB387C702FC
:101020004AD04ECE5EC662C4B697C207C18313D7FC
:10103000774013D557400989058B498F13D5374021
:101040001189498F13D517402189498F13951700AE
:101050004189498F1395370013750502498F139500
:10106000570093D58700137505049E07498F93F7A2
:10107000F70FD98F13D5354013D755401189098BF8
:10108000498F13D57540498F13D515402189498F54
:10109000139515004189498F139535001375050285
:1010A000498F13955500137505049E05498F93F5D7
:1010B000F50F4D8F2207D98FB387C7021306500251
:1010C0005285D685B697BD8E93940601C18033F6BE
:1010D000C402137BF60FEFE0417A05891DE98347CF
:1010E000D41201498149B3849702130C5002C18084
:1010F0004A865285D685EFE041780589937BF90FC2
:1011000011C563863403850993F9F90F0509E311C5
:1011100089FF230B6413B250225492540259F249AE
:10112000624AD24A424BB24B224C456182805E8B6E
:10113000CDB78327C50803568508797193D6070173
:10114000BD8EC206C182358E1357764093575640E6
:10115000898B058B5D8F93573640918B5D8F9357AD
:101160001640A18B5D8F93171600C18B5D8F93176F
:10117000360093F707025D8F93175600935586004C
:1011800093F707041E065D8F1376F60F518F93D7E2
:10119000554013D63540118A898BD18F13D67540AF
:1011A000D18F13D61540218AD18F13961500418A0D
:1011B000D18F1396350013760602D18F1396550002
:1011C000137606049E05D18F93F5F50FCD8FA207F8
:1011D00045465D8F3307C70222D42A8426D252CCDB
:1011E00056CA032A8409832AC4095AC806D63697E0
:1011F0004207418393577740135557400989858BA0
:10120000C98F135537401189C98F1355174021894C
:10121000C98F131517004189C98F1315370013752E
:101220000502C98F131557009355870013750504E0
:101230001E07C98F1377F70FD98F13D5354013D7F2
:1012400055401189098B498F13D57540498F13D5A6
:1012500015402189498F139515004189498F1395B0
:10126000350013750502498F139555001375050454
:101270009E05498F93F5F50F4D8F2207D98FB387C0
:10128000C7024AD04ECE5EC662C4B697C207C183BB
:1012900013D7774013D557400989058B498F13D54C
:1012A00037401189498F13D517402189498F1395EC
:1012B00017004189498F1395370013750502498F2F
:1012C0001395570093D58700137505049E07498F22
:1012D00093F7F70FD98F13D5354013D755401189A0
:1012E000098B498F13D57540498F13D51540218936
:1012F000498F139515004189498F13953500137552
:101300000502498F13955500137505049E05498FF5
:1013100093F5F50F4D8F2207D98FB387C7021306B8
:1013200050025285D685B697BD8E93940601C18032
:1013300033F6C402137BF60FEFE0215405891DE953
:101340008347140801498149B3849702130C500262
:10135000C1804A865285D685EFE021520589937B6C
:10136000F90F11C563863403850993F9F90F05094F
:10137000E31189FF230F6407B2502254925402599B
:10138000F249624AD24A424BB24B224C45618280BA
:101390005E8BCDB78327450903568508797193D6AF
:1013A0000701BD8EC206C182358E13577640935712
:1013B0005640898B058B5D8F93573640918B5D8F9F
:1013C00093571640A18B5D8F93171600C18B5D8FCD
:1013D0009317360093F707025D8F931756009355C6
:1013E000860093F707041E065D8F1376F60F518F64
:1013F00093D7554013D63540118A898BD18F13D698
:101400007540D18F13D61540218AD18F13961500C0
:10141000418AD18F1396350013760602D18F139629
:101420005500137606049E05D18F93F5F50FCD8FE9
:10143000A20745465D8F3307C70222D42A8426D2ED
:1014400052CC56CA032A840A832AC40A5AC806D62A
:101450003697420741839357774013555740098980
:10146000858BC98F135537401189C98F1355174084
:101470002189C98F131517004189C98F13153700AA
:1014800013750502C98F13155700935587001375FF
:1014900005041E07C98F1377F70FD98F13D5354071
:1014A00013D755401189098B498F13D57540498F42
:1014B00013D515402189498F139515004189498F0E
:1014C0001395350013750502498F13955500137553
:1014D00005049E05498F93F5F50F4D8F2207D98F8F
:1014E000B387C7024AD04ECE5EC662C4B697C20763
:1014F000C18313D7774013D557400989058B498F8E
:1015000013D537401189498F13D517402189498F49
:10151000139517004189498F1395370013750502FC
:10152000498F1395570093D58700137505049E07BF
:10153000498F93F7F70FD98F13D5354013D75540FF
:101540001189098B498F13D57540498F13D51540E3
:101550002189498F139515004189498F13953500CD
:1015600013750502498F13955500137505049E05E3
:10157000498F93F5F50F4D8F2207D98FB387C70297
:10158000130650025285D685B697BD8E93940601F8
:10159000C18033F6C402137BF60FEFE0012E0589FC
:1015A0001DE98347F40801498149B3849702130C6C
:1015B0005002C1804A865285D685EFE0012C05890C
:1015C000937BF90F11C563863403850993F9F90FED
:1015D0000509E31189FF230F6407B2502254925486
:1015E0000259F249624AD24A424BB24B224C4561FF
:1015F00082805E8BCDB7011197170020938707F883
:1016000022CC03A4070B26CA06CE2AC42EC68544C4
:1016100019E40145F2406244D244056182809C8411
:101620001830858B6304F7000044DDB71946930535
:10163000A10013052400EFE03FD4E31795FE054514
:10164000D1BF971700209387A7E8984301112AC6B6
:101650002EC432C206CE3C4B93E707083CCBEF408A
:10166000D15697160020938626E49C423245A24527
:1016700023A007001831034825002207420842979B
:10168000034805004297034835006208429798D7FF
:101690005831034865002207420842970348450035
:1016A00042970348750062084297D8D71835034817
:1016B000A500220742084297034885004297034845
:1016C000B5006208429798DB58350348E5002207C9
:1016D000420842970348C5006835429762052A9739
:1016E000D8DB9831A821220742052A9788212A971A
:1016F000A83162052A9798CFD831E8212207420500
:101700002A97C8212A97E83162052A97D8CF9835B9
:10171000A825220742052A9788252A97A835620519
:101720002A9798D3D835E825220742052A97C82555
:10173000EC352A97E2052E97D8D3D843759BD8C3AA
:10174000D84313671700D8C398431367170098C38B
:10175000124698425C43858BADE71C4F01451CA2A5
:101760009C429C4FA1831CB29C429C4FC1833CA2D3
:101770009C429C4FE1833CB29C42D84F58A2D84F28
:10178000218358B2D84F418378A2D84F618378B271
:10179000985318A69853218318B69853418338A6B6
:1017A0009853618338B6D85358A6D853218358B676
:1017B000D853418378A6DC53E1837CB6F2400561BF
:1017C0008280010079B797170020938767D09843EC
:1017D0001605136505083C4B93E707083CCB9717A4
:1017E0000020938767CC9C4303A7450E88C398CB02
:1017F00003A7850E0145D8CB03A7C50B98CF03A738
:10180000050CD8CF03A7450C98D303A7850CD8D3D4
:1018100003A7C50C98D703A7050DD8D703A7450D77
:1018200098DB03A7850DD8DB03A7C50D98C703A7D1
:10183000050ED8C798431367070498C3828097178B
:1018400000209387E7C898431605136505083C4BAD
:1018500093E707083CCB971700209387E7C49C4386
:1018600003A7C50E88C398CB03A7050F0145D8CBA6
:1018700003A7C50B98CF03A7050CD8CF03A7450C2A
:1018800098D303A7850CD8D303A7C50C98D703A773
:10189000050DD8D703A7450D98DB03A7850DD8DB29
:1018A00003A7C50D98C703A7050ED8C798431367AC
:1018B000070498C3930700F817170020230FF7BEFB
:1018C000828017170020130767BE1443411122C4FA
:1018D0009C5E06C626C29983858B3A84A5CB930766
:1018E00000069CDE9717002083C7C7BC93F7070448
:1018F00097140020938404BC95C397170020938706
:1019000027A69C4382979717002023ADA7BA9C2057
:1019100093F7F70B17170020230EF7B8DC2093F787
:1019200007048DE7854717170020A307F7B8971717
:1019300000209387E7B99C43096798C7130700FC09
:1019400097160020238AE6B6D844F8D318401C5FC7
:101950009183858B81CBC1471CDF8547971600207B
:10196000238CF6B41C5F9D83858B89CB930700087D
:101970001CDF8547171700202300F7B497170020B6
:10198000938787B29C43D8430583058B19C7D843F7
:10199000759BD8C3D843799BD8C3B24022449244A4
:1019A0004101828097170020938787B2944397174D
:1019B0000020938727B09823058B11CB9717002021
:1019C000238C07AE97170020A38807AE8280983338
:1019D000058B6DF7F85265F3DC33EDB7171800206F
:1019E0001308C8AC032708001C5F9583858BBDE7EF
:1019F00001C61C5BBD831CA29DC683270800985BA3
:101A00004607935767016356070093E707C0C2076D
:101A1000C18303970600C207C18709C7BA97094760
:101A2000B3C7E7029EA285C11C3191CF3E951C35FC
:101A30000547194593F6F7066393E602E207E18747
:101A4000394563CE07008327080001459C5FED837D
:101A50008D8B17170020A304F7A68280054582808E
:101A6000411122C406C617140020130464A61840AE
:101A70003DE5AE877453FDFE3E85B2859717002085
:101A8000238B07A2EF40E17197170020938707A2ED
:101A90009C43B70680009843558F98C3D857719BD5
:101AA000D8D797170020A38907A097170020A383F2
:101AB00007A01C40094798C31440171700201307BC
:101AC000679F3C23858B81EB3C33858BD9C7971768
:101AD00000202383079EB2402244410182808D472B
:101AE0006310F502971700209387479C9C43B70625
:101AF00080009843558F98C3D857719BD8D76DBF36
:101B00008547E31BF5FAB567BD075CC70100010017
:101B10001C400967094698C7130700F8971600206C
:101B2000238CE69817170020130747981443984210
:101B300031830D8B6319C7001307E043F8D33D676A
:101B40003D07D8C795BF984231830D8B01E7130736
:101B50006019EDB71307E01BD5B7FC52BDF3A5BF65
:101B60005D7152DC171A0020130A4A9403270A00F9
:101B700086C6A2C4A6C2CAC04EDE1C439719002066
:101B80009389C999171900201309899493F7F7E7E6
:101B900093E707081CC383A609003707CEFF7D170C
:101BA0009C46130680022A84F98F9CC6832709006D
:101BB0002800AE8423A8070493051008EFE04FF631
:101BC000EF40B100EF40910D83270A009376F41F98
:101BD0003706330023A40700984B370FFCFF4E88CD
:101BE0001367F70398CBF84FCA88130510F81377DB
:101BF00007E0558FF8CF9843F576FD16758F98C39B
:101C000017170020A30A078A832609001717002048
:101C1000A302078A054798C29843D285B7020400F9
:101C20001377F7E798C398439303401F114913773D
:101C3000F7E71367071098C303A709007D1F8549BD
:101C40001C47930F8002D18F1CC793079005BCCA15
:101C5000014734001353370026938347030013765C
:101C60007700B3D7C740858BDDCF9C41832E08001A
:101C7000239C07042390070603AECE02137EDEFFEB
:101C800023A6CE0383AE0700137EF70793FE0EF85C
:101C900033EECE0123A0C70103AE4702336E5E00D0
:101CA00023A2C70383AE0800014E23A27E0603DAF7
:101CB000070663074E0303AE0703038A0600135E9D
:101CC000FE00620E135E8E416358CA0103AE070325
:101CD000135EFE002380C60103DE0706137EFE0F9F
:101CE00003AA4E0663060A0003DA8705E37F49FB71
:101CF00003AE4702337EEE0123A2C70383870600AB
:101D0000635CF400034E03003396C9001346F6FFEC
:101D10003376C6012300C3003E8663D3A7002A861C
:101D200013158601618505071377F70F8506E31301
:101D3000F7F3B640264496440649F259625A616167
:101D40008280970600209386A6789C42D847131677
:101D500017016355060298471316170163500602D0
:101D60007D57B8D7170700201307C755584F0507E9
:101D7000170600202326E656116798C798470D835B
:101D8000058B1DC3170700200347E7721367170071
:101D9000170600202301E672130700F8170600203B
:101DA000230CE670214798C79847058B09CF170782
:101DB0000020034737701367170017060020A30B96
:101DC000E66E054798C798470983058B09E798474A
:101DD0000583058B21CF9847170600201306866DD3
:101DE000170500201305856C0983058B6301071017
:101DF0001841184331830D8B65EBAC4B184E93F5AE
:101E000005021833C5CD71EF1307D005D8CF1822BE
:101E10001367170017060020230EE668114798C7BE
:101E200018415C57F19B93E717005CD79C42984799
:101E30009316370163D606029706002083C6067BF9
:101E4000C18A1707002013076773DDCA0347070716
:101E50001367070297060020238AE678056798C76C
:101E600098479316270163D10602170700200347FE
:101E7000A76462076187635707000547970600203C
:101E8000238CE662096798C798479316070163D6C3
:101E900006029706002083C67675858A17070020FC
:101EA0001307C76DA5CE03471707136727009706CB
:101EB0000020A38DE672216798C7828031D78545BF
:101EC0006315B7001307100691B789456315B7006E
:101ED0001307500625BF8D456315B70013079006FD
:101EE00035B71307B0061DB71307C00605B738325C
:101EF0001367170017060020A30FE65A094705B716
:101F0000834607070946BD8A6388C600034707075B
:101F10008D463D8BE314D7F411472DBF8346170739
:101F2000918AD1DA034717071367870049B7170764
:101F300000201307275A343F9707002083C7575CB8
:101F4000B69793F7F70FFD4663EAF6044C4B9706F6
:101F50000020A381F6589707002083C7B75705478D
:101F60003317F70097060020A38CF6586D8F1DEFEE
:101F70009706002083C61659B3F6D7021305000250
:101F8000814733D6F500058A13F8F70F09CE639918
:101F9000E60097070020A38F0753828081177DB743
:101FA00005071377F70F8507E39DA7FC8280970746
:101FB00000209387E73A9C43411122C44AC006C6D9
:101FC00026C28297970700209387C752804701490E
:101FD0006301A404018DBE841354550097070020AB
:101FE00083C7E7501379F5016362F402893794449B
:101FF000170700200347A74F93175700BE96198C69
:102000009707002023ACD74EE372E4FE1604336931
:102010002401B24022444A8592440249410182800F
:10202000970700209387C7339C43411122C406C6FB
:1020300026C28297970700209387C74B8047630784
:10204000A404018DBE84135455009707002083C754
:10205000074A636DF402E13D98449707002083C767
:1020600007499396570036971D8C9706002023A7A3
:10207000E648E372F4FE2244B24092441705002081
:1020800003455545814541016F40F101B24022446D
:102090009244410182809707002093872748984304
:1020A000B75702009387079F8326070913965600A8
:1020B00063580600832607091396660063440600EA
:1020C000FD17FDF3828069C1AA870145E1C18D0733
:1020D000C207C183F19BC207C18313074003636F2B
:1020E000F7021707002013072749084317070020A6
:1020F0001307074814436398A60217070020130725
:10210000A721585B014559C34111C20706C60545C1
:10211000DD8D0297B2400145410182801707002002
:1021200013074745D9B77A2131EF5A21636CF70479
:10213000B306F7402146637AD6020328050093864A
:1021400087001D8FAA966117170600200356E61711
:10215000DAA223A006012393060014C15EA113078F
:1021600086FF970600202392E6166EA197050020B1
:1021700083D5A515B387F540170700202317F7145B
:1021800021058280084185BF0145828082800DC182
:10219000970700209387473E03A307009707002077
:1021A0009387073D83A8070081469A8763E3170159
:1021B000828003A807006362F50A6360A80A138798
:1021C0008700E367E5FEF223216705076317E60052
:1021D00003C7419405072382E19497050020938566
:1021E000650ED223FA2123930700329742074183D9
:1021F00017050020231BE50C6387670217050020E5
:102200001305453708416300F502EA2209EDDE2295
:1022100023A0060121073E962106D2A2970700209F
:102220002395E70AB6879843E30417F99706002039
:10223000938646349442E30DD7F67623B5FAD62337
:1022400052231843A106B296D6A398C3FE21A10734
:1022500017070020231BF7068280BE86C287B9B706
:1022600097070020938747319706002093864630D2
:102270009C4390422A87B305B5406314F6003A8523
:1022800029A8938687009C43E369D7FEE377F7FE8E
:102290002E85E3E4D5FEE3F2F5FE82800111970777
:1022A00000209387A72D22CC03A4870B26CA4AC8F7
:1022B0004EC606CEAA8413092500854905C09C3068
:1022C0003830858B6304F700405CCDBF1946930519
:1022D00044004A85EFE04F8AE31835FF2285F2403B
:1022E0006244D2444249B249056182804111970754
:1022F00000209387A72822C403A4870B26C24AC0C4
:1023000006C693042500054901E82285B24022440F
:102310009244024941018280A6851305A402EFD0B0
:102320004111E30425FF405CC5B741119707002028
:102330009387C72422C403A4870B26C24AC006C6BB
:1023400093042500054901E82285B24022449244C5
:10235000024941018280A6851305A401EFD0610DD9
:08236000E30425FF405CC5B752
:1023680001A001A001A001A001A001A001A001A05D
:1023780001A001A001A001A001A001A001A001A04D
:1023880001A001A001A001A001A001A001A001A03D
:1023980001A001A001A001A001A001A001A001A02D
:1023A80001A001A001A001A001A001A001A001A01D
:1023B80001A001A001A001A001A001A001A001A00D
:1023C80001A001A001A001A001A001A001A001A0FD
:1023D80001A001A001A001A001A097F1FF1F938116
:1023E800E18817E10020130161C117F50100130509
:1023F800656797E5FF1F938565C01386818763FA34
:10240800C5008322050023A0550011059105E3EAC4
:10241800C5FE13858187970500209385A5276377D7
:10242800B500232005001105E36DB5FEFD4273904C
:1024380002BC8D42739042809302800873A00230E0
:1024480097E2FFFF938202BF93E23200739052300B
:10245800EF10B010972200009382628D73901234AF
:1024680073002030EFD29102B727014093870740CD
:10247800631CF5008545130500203D2381451305A0
:1024880000201D236FD0D102B73701409387078002
:10249800E31AF5FE854513050040392381451305E8
:1024A8000040C5B75C413707F1E01307F7EF944DDB
:1024B8007D8F9C41D58FD44DD58FD441A206D58F21
:1024C800D98F5CC11C4537F7F1FF1307D77FD44577
:1024D8007D8F9C49D58F94458606D58FD98F1CC58D
:1024E8005C55370710FF7D177D8FDC29FD1793F7A3
:1024F800F70FD207D98F5CD582801C4589C593E731
:1025080017001CC58280F99BEDBF1C4591C5370794
:102518005000D98F1CC582803707B0FF7D17F98F0F
:10252800D5BFA54763F7B7048D47138765FF330702
:10253800F7020328C5009D47B397E70093C7F7FF45
:10254800B3F70701B396E600DD8E54C5994763E3F8
:10255800C70495477D163306F6025859FD47B397C9
:10256800C70093C7F7FFF98F3396C5005D8E50D922
:1025780082800D473387E502032805019D47B397FD
:10258800E70093C7F7FFB3F70701B396E600DD8EC0
:1025980014C96DBFB14763E2C70295476516330694
:1025A800F6021859FD47B397C70093C7F7FFF98F8D
:1025B8003396C5005D8E10D9828095474D16330637
:1025C800F6025855FD47B397C70093C7F7FFF98F31
:1025D800B395C500DD8D4CD58280684542054181A3
:1025E8008280B727014093870740984711C5B706EF
:1025F8008000558F98C78280B70680FFFD16758FBB
:10260800D5BF08416D8D3335A00082805C4191C5EE
:1026180037070004D98F5CC18280370700FC7D171B
:10262800F98FD5BFB707014023AAA7408280372773
:1026380002401C4B93E707081CCB8280B70667450E
:10264800B7270240938636123797EFCDD4C31307C6
:10265800B79AD8C3D4D3D8D38280EFD22163C13FED
:102668006FD00165B7270240984BB7060200137573
:1026780005F0558F98CBC8CB984B1367070498CBB8
:10268800D847058B75FF984B8176FD16758F98CBCB
:102698008280372702401C4BC166137505F0D58F21
:1026A8001CCB5C47858BF5FF372702405C47898B3D
:1026B800F5FF3727024013060010B386F50003A87C
:1026C8000600B306F50023A006015447898AF5FEE3
:1026D8009107E394C7FE1C4BB7062000D58F1CCB8F
:1026E800B7270240D847058B75FF984BC176FD1672
:1026F800758F98CB828037F7FF1F8327877E93D605
:1027080087001CA114B193D60701E18334A13CB121
:102718008327C77E5CA1A1835CB182809C4513F7A7
:10272800070113F8F70001C7D8413368E8008E2184
:1027380013F7F50F39C318418146854E3D4F930F66
:10274800800293028004214E3396DE00B3F8C50060
:10275800631116039398260033131F011343F3FFE5
:102768003377E300B318180133E7E800639FF705F0
:1027780050C98506E39AC6FD18C11307F00F6375A3
:10278800B70454412146854E3D4F930F8002930272
:102798008004414EB398CE0033F715016392E802E6
:1027A8001317260001173313EF001343F3FFB37613
:1027B800D3003317E800D98E639DF701232A15014A
:1027C8000506E319C6FD54C18280E39457FA10C97F
:1027D8004DB7E39757FE23281501DDB7377700403B
:1027E8001C4309C593E707101CC3828093F7F7EFD2
:1027F800E5BFB7160240DC4251777D17F98F5D8D32
:10280800C8C28280B71702402380070223800702CC
:1028180005476306E50011476306E50082802380CB
:10282800A702828015472380E7028280371702407B
:102838005C5309C593E717005CD38280F99BEDBF11
:10284800371702401C535D8D08D3828001C93717A2
:1028580002401C53A166D58F1CD38280B716024054
:102868009C5261777D17F98F9CD28280371702407E
:102878005C439146B18B6387D706A1466389D70627
:10288800B7177A00938707201CC1371602405C42AD
:1028980037070020130707009183BD8BBA9794234D
:1028A8001C41B3D7D7005CC15442A1829D8ABA9615
:1028B8009422B3D6D70014C55442AD829D8A369768
:1028C8001823B3D7E7005CC558423983937637009D
:1028D800370700201307074736971823B3D7E702AF
:1028E8001CC98280B757E8019387078071BF5C4392
:1028F8005843C166C983BD8B758F8907C5466393E5
:10290800D700C94701EF3747024003270780418BAB
:1029180015CB37177A001307072029A8B7160240E6
:10292800D8423706C000718F6319C7003727F400F3
:1029380013070740B387E70281BFD8429316E70021
:10294800E3D906FC37173D0013070790E5B799C58B
:10295800371702405C4B5D8D48CB8280B717024029
:10296800D84B1345F5FF798DC8CB828099C53717A9
:1029780002401C4F5D8D08CF8280B7170240984FE8
:102988001345F5FF798D88CF828099C537170240A6
:102998005C4F5D8D48CF8280B7170240D84F1345F2
:1029A800F5FF798DC8CF828099C5371702405C47FB
:1029B8005D8D48C78280B7170240D8471345F5FF99
:1029C800798DC8C78280B737004003D7478013671F
:1029D80007012392E780828037370040835747807A
:1029E800C207C183BD9BC207C1832312F7808280BF
:1029F800B736004083D7868103D5C68103D7868141
:102A0800C207131605014207C18341834182938699
:102A180006806386E700CA2E4207598D8280139587
:102A28000701518D8280EFD2612641112AC6613F8C
:102A38003245B7370040135705014205239CE7800C
:102A48004181239EA780493F41016FD06126EFD283
:102A5800E12341112AC6853F3245B7370040135755
:102A680005013D8B42052394E78041812396A78089
:102A7800A53741016FD0C1233737004083574780BE
:102A880093F70702E5DF8280B737004003D7478016
:102A98001345F5FF798D2392A7808280EFD2011F1D
:102AA800E5376FD0E120EFD2611B03A40183916A5F
:102AB8003799E4FFB7791B0037CA0D00138B0AE872
:102AC8001309098C93890974130A0ABA334B6403EE
:102AD800B727024003C797044111AA841377070F49
:102AE800A384E70403C79704114DB72C024013775A
:102AF800F70FA384E704916DE17BFD1A094C334974
:102B08002403B3493403334A440303C7FC0413675B
:102B18002700A387EC0403D7CC043367B7012396B7
:102B2800EC0403D7CC04336777014207418323962B
:102B3800EC0403D7CC0442074187E35C07FE03D7C4
:102B4800CC0403C7FC041377D70FA387EC0403C78F
:102B5800FC0413672700A387EC0403D7CC0433676E
:102B6800B7012396EC0403D7CC04336777014207F7
:102B780041832396EC04AD3DAA873EC6953DB247F6
:102B8800E30DF5FE83D7CC04B3E7B7012396FC0425
:102B980083D7CC04C207C187E3CC07FE03D7CC0494
:102BA80042074187E35C07FE03D7CC0483C7EC04E4
:102BB80033F7EA00B387FA023E9733076741635455
:102BC800E900634A37037D1D137DFD0F63050D0280
:102BD80093171700B3C74703635DE000850783D6E3
:102BE8006C03B3C78703B697C207C183239BFC0254
:102BF80029BFFD17EDB7B727024003C79704A166A1
:102C08001377070FA384E70403C797041367270004
:102C1800A384E70403C7F7041377D70FA387E70450
:102C280003C7F70413672700A387E70403D7C7047C
:102C3800558F2396E70403D7C7049166558F2396CB
:102C4800E704B726024003D7C6049387C6024207A3
:102C58004187E35A07FE03D7C60403C7F604137770
:102C6800D70FA387E60403C7F60413672700A387D3
:102C7800E60403D7C604A166558F9AB39A339166C2
:102C8800558F9AB3B5332A89A533E30F25FFB727A4
:102C9800024003D7C7049166558F2396E704372768
:102CA80002408357C704C207C187E3CC07FEB72693
:102CB800024003D7C60442074187E35C07FE03D7F7
:102CC800C60483C6E60437490F009167FD17130948
:102CD8000924334924037D8F2566130606CAB38762
:102CE800D7023E979307803E3344F402B306F902B5
:102CF8009307800C158F9306C02EB306D402B3C673
:102D0800C602B307F702B3C7D7026357E0168507B1
:102D18000947B3C7E70237270240763B9607B697BD
:102D2800C207C1837EBB83479704A16693F7070F49
:102D3800A304F70483479704C58F93F7F70FA304F9
:102D4800F7048347F70493F7D70FA307F7048347DC
:102D5800F70493E72700A307F7048357C704D58F21
:102D68002316F7048357C7049166D58F2316F704F3
:102D7800B726024003D7C6049387C6024207418795
:102D8800E35A07FE03D7C60403C7F6041377D70F21
:102D9800A387E60403C7F60413672700A387E6049E
:102DA80003D7C604A166558F9AB39A339166558F97
:102DB8009AB33D39AA892D39E30F35FFB727024069
:102DC80003D7C7049166558F2396E7043727024037
:102DD8008357C704C207C187E3CC07FEB726024062
:102DE80003D7C60442074187E35C07FE03C7F6041E
:102DF8009167FD171377D70FA387E60403D7C60497
:102E080083C6E6047D8FB387D7023E978967938789
:102E180007F4B397970033892703930700103349C2
:102E2800F9029307800C0E09330927410547B314AB
:102E380097001147B3C4E4022567130707CA338410
:102E480084029304C02E330494023344E402B3078B
:102E5800F902B3C787026353200385070947B3C73D
:102E6800E70237270240763B9607B697C207C18329
:102E78007EBB41016FC05162FD1759BDFD17F9BFF7
:102E8800EFC2D1601629F577FD17F58FF621DA25FF
:102E98007971D58F1EA95625FD779387379FF58FB2
:102EA800D6212A842EC6D58F9625D58FB625D58FBF
:102EB8005EA55E29C207C18393F7F7CFD98F5EA9B4
:102EC80068086D32B747014093870780B245631A97
:102ED800F404A25756246547B387E702C206C186A1
:102EE800984163D20604060752244206B3D7E70284
:102EF800130740064186B3D6E702B3F7E702920606
:102F0800635506028E0793872703B3D7E70213F7A3
:102F18007700B367D700C207C1831EA445616FC09D
:102F28003159925745BF0A07C1B7920793872703BC
:102F3800B3D7E702BD8BD58FF9BF91C55E25096769
:102F4800D98F5EA582805A25F977FD17F98FD5BFED
:102F580093F5F51F4EA182800A216D8D3335A000AF
:102F6800828083A7018337177A0013070720B3D716
:102F7800E70293F7F70F238DF1861307803EB38797
:102F8800E702239CF1868280B7F700E0D8438146A8
:102F9800799BD8C303C7A1873306A70290CBD4CBAC
:102FA80098431367070198C398431367170298C398
:102FB800D843058B75DF9843799B98C38280EFC20D
:102FC800F14C2A8411650111854511054532930795
:102FD80000207C82371501408D473EC44C00E147F4
:102FE800130505803EC6EFF06FF322C83744014051
:102FF800B70708000C08130504803ECC02CA231E3C
:103008000100BD3D854513050480053F05616FC07E
:10301800314AEFC21146B7440140AE8932890144B2
:1030280093840480634524014A856FC0D147930582
:1030380000042685153765DDB38789008385070079
:1030480026850504C205C1812137E9BF1387418060
:103058001C43B7260020938686693E95636BD5008E
:10306800B70601209386060063E5A60008C33E85DF
:103078008280FD57EDBFEFC27141CC41328590315E
:103088008C2122064D8E42068D654186138875A2D5
:103098006304060F6347C804138845A26300060B40
:1030A800634AC800938535A26307B60623900600D5
:1030B800294651A0138855A26301060B938565A282
:1030C800E316B6FEC1451D4663E7E5064546198E7B
:1030D80063F3C7003E86B715020092A293850506E2
:1030E800B9A0138895A26307060D6346060B1388DB
:1030F800A5A26300060F938505A5E319B6FA9945BD
:103108001D4663EAE502198E63F3C7003E8692A264
:103118009385018129A89D451D4663EEE50021465A
:10312800198E63F3C7003E8692A29385C187BA952C
:10313800EFD04F9B014632856FC09137AD451D4694
:10314800E3EBE5FE3146198E63F3C7003E86B715FB
:10315800020092A29385C509D9BFB1451D46E3EC8B
:10316800E5FC3546198E63F3C7003E86B7150200A5
:1031780092A29385C50A65BFC1451D46E3EDE5FAF0
:103188004546198E63F3C7003E86B715020092A222
:103198009385450769BFC1451D46E3EEE5F84546F9
:1031A800198E63F3C7003E86B715020092A2938575
:1031B800C50BB5BFC1451D46E3EFE5F64546198E7B
:1031C80063F3C7003E86B715020092A2938585086F
:1031D800B9BFB5451D46E3E0E5F63946198E63F3F8
:1031E800C7003E86B715020092A29385050581B7F0
:1031F800EFC2D129B70600203705002093860614B0
:103208004146CD4513050501EF70E0736FC0512AA3
:1032180003C88500214513780801631B08062D455E
:1032280025EB882109476311E506EFC2312632856F
:10323800D0414168183210222207518F130628FE08
:103248006308C7026369E600051863030703239050
:103258000600294505A8130648FE630BC700151884
:10326800E31707FF15473E866377F700154621A049
:103278003E8691C30546CC4592A242064182EFD0D4
:103288006F8601456FC0D1222390060005458280D4
:1032980082809C2593F70702CDE3EFC2311F03C953
:1032A800050009432E888547631B690203A345006F
:1032B8003284B6848347130003430300A207B3E7AD
:1032C80067004163130E13FE638EC7010D136384F9
:1032D80067040D6813082890638C0705A9473E8585
:1032E8006FC0111DAD4765FF0547B547E369D7FEB8
:1032F8000325C8000546A285EFC0DFFE014903A7E4
:10330800C189814769DF184379DB2686A2854A850A
:1033180002978147E9B7AD4779F30547B547E360B9
:10332800D7FC0325C8000546A285EFC0BFFBC1BF77
:103338008547EF50F052AA875DB7A1473E85828046
:10334800416779176307E502EFC2511485472A845C
:103358006399F5009385819B2285EF70C0686FC0E3
:1033680031158947E39DF5FE8545EF90A0527DD143
:10337800FDB78280EFC291112A8441659385819BB4
:103388007D15EF7040663735000013058534EF90E2
:1033980080480588014509CCB7060020370500207C
:1033A8009386C6254146C5451305C514EF70A05937
:1033B8006FC0111009C523AEA1880145828045451B
:1033C80082801147636AA706EFC2510C37170200C3
:1033D8001307070D0A053A951841AE87B28502878B
:1033E800054761456398E700054613854188EFC0A6
:1033F8007FEF01456FC0D10B05476145E39CE7FEB0
:10340800054613858188E5B705476145E394E7FEDE
:1034180005461385C188E1BF05476145E39CE7FC84
:10342800054613850189E1B715476145E394E7FC33
:1034380015461385418965BF09458280EFC211058C
:103448002E849385819BAA84EF50B03C058909CDD1
:10345800B707002083D767200146A2851EA02685CE
:10346800EF60C07D6FC0D1044945EDBFEFC21102C6
:103478000D45EFF04FE36FC0B103EFC23101B287E2
:1034880013962500AA853E85EFC0DFE501456FC08C
:103498003102EFC2A17F41112A8432C6EFF00F9AA0
:1034A8002285EFF02F9C32462285B285EFF06F9E81
:1034B800EFF0AF9A0545C93C014541016FC0417F16
:1034C800EFC2417A01111306000281450A85EFC057
:1034D800110A3724014013040440B71702408545F8
:1034E8001305002083AB870103AC4700032B44007E
:1034F800832A8400032AC402832944030329C400BD
:10350800EFF0CFC63165EFF0CFAE2285EFE09FF543
:10351800B7070E003EC68A8585472285230AF10033
:1035280002C002C202C402C8EFE0DFF78545228567
:10353800EFE0BFFC85452285EFF04F8D0545EFF0A4
:103548004F8A9D460546C1452285EFE09FFD85458A
:103558002285EFE09FFBB724014089452285EFF0E3
:103568004F8A65DD13850440EFF02F872A84138581
:103578000440EFE03FEFB717024023AC770123A2E6
:10358800870123A2644123A4544123A6444323AAC8
:10359800344323A62441228505616FC02170EFC200
:1035A800E16E93970501C1872E8463DB0700EFC0A6
:1035B800DFBE19C1EF00F0092165218D6FC0416F91
:1035C80093F7150013C51500F5FB9397250163D0F4
:1035D8000702EF300117593D03C5018A37F602008B
:1035E800130606E08965EF0090480965F9B79397D7
:1035F80015010145E3D407FC371502001305450EF4
:10360800EFC0B11203C5018A130600649165EF008B
:10361800104611655DB7EFC26167B715020037152F
:1036280002005D7155469385850E13058559EFC0D7
:103638003FD401E93715020013050510EFC0F10E5C
:1036480001A0B7270240D857B7060090FD16758F1E
:10365800D8D7D857B706003013060004558FD8D7E7
:10366800D857B70600038145558FD8D70808EFC04B
:10367800BFCAB7070020938787633EC889679387C7
:1036880007C0FC82B7870708938707C03ECC93071B
:103698003050FC87ED472310F10285472301F102E2
:1036A800B737000093872748BEC4B7370000938711
:1036B800A749BEC69167938707E82317F1029307C6
:1036C800803E2318F1028567938797D02312F10271
:1036D800B73700009387874C3EDEB73700009387E3
:1036E80047472800BEC0EFF00F8118088147994668
:1036F80030003E9610228507050770BBE39AD7FE77
:10370800C24789C7B88285676373F70001A00808B4
:10371800EF00B07DAA8501C93715020013054511D0
:10372800EFC0616F01A0854513050004EFF02FA2DB
:10373800B7E700E03707008023A2E710054723A476
:10374800E71061616FC0C156EFC2415437350000C0
:103758001305655AEF00B0751384018A08A019286B
:10376800082037F60200130606E08965EF003030BE
:103778006FC00154EFC28151854537050018EFF03D
:10378800CFA00545EFF08F850545EFF02F8A01455D
:10379800EFF04F8713050020EFF08F8A0545EFF013
:1037A800EF8AEFF06FADEFF02FAD0545EFF02FAAE0
:1037B800EFF08FAC0145EFF00FA7EFF0EFAB7D31E5
:1037C800373500001305859FEF10E0226FC0414E8A
:1037D800EFC0BFEF05473705020023A2E18AEFE0FB
:1037E8007FE40945EFF08FABEFF00FA973002030AD
:1037F8007300203001A0EFE04F8C73002030EFE021
:10380800CFD373002030EFC261482A8637150200F3
:10381800B305B0401305051FEFC0E15F6FC0414914
:10382800EFC2C146411119C58947630FF50041012F
:103838006FC001486800EFC0FFAA371502001305E2
:10384800052CEFC0816EE5B76800EFC0BFA937153A
:1038580002001305C52DF5B7EFC241439387818B4D
:103868009A23631FA70037150200AEA3D2A313053E
:10387800051D2E86BA85F6A3EFC0E1596FC04143F6
:10388800371502001305851EEFC0216AC5BFEFC2B8
:10389800E13F9387818B56219A234111639DE6026C
:1038A8001384418241670820791798C323A207002F
:1038B8008945EF00103B08209145EF00903A854775
:1038C8001306F100854513055030DC87EF8081121F
:1038D80041016FC0E13D371502001305851EEFC099
:1038E800C164FDB73D897D15954763E8A712EFC20E
:1038F800E139B7170200938747130A053E951C4123
:103908002E8482873715020013058520EFC0E161F8
:1039180035A0BC2119476390E7022E858D3F6C20A6
:103928003715020013058521EFC0E14E3715020057
:1039380013054523E1BF0D47E38AE7FE6FC0413712
:10394800B8219547E31CF7FE9387818B962341673F
:103958007917AA25638FE600EF80C1333715020077
:1039680013054524EFC0615C371502001305C52611
:1039780071BFFA2593844182BAA39A298AA3882021
:10398800DAA3BA29130600648945FAA3EF00300EBA
:103998008820096613060690A145EF00500D88207F
:1039A8000566130606C89145EF00700C72242E2494
:1039B8003715020013058525EFC0E14575B7B82115
:1039C8008D47E31DF7F637150200130585273DBF20
:1039D800AC2191476397F5003715020013050529B7
:1039E80035B79947639CF500228555356C20371506
:1039F800020013058521EFC0014289B795476399F5
:103A0800F5001C30F1FB371502001305C52AFDBD72
:103A1800371502001305452BF9BF8280EFC2012735
:103A280093970501C1874111AE8463D4070803C584
:103A38004182EFC08FF62A8421C11C211307000B95
:103A4800638AE7041307000D6396E7023C214547A4
:103A58006389E7026547639FE7000348A5001C35B3
:103A68001825743170214C31371502001305C5141F
:103A7800EFC0613A2285F12E2165258D41016FC085
:103A8800212370216C31371502001305C517EFC0CB
:103A98008138CDB758219307F007E31DF7FC0E25B1
:103AA8003715020013058519A387B182EFC0A13627
:103AB800D1B793F7150091CF03C54182370600208F
:103AC8001306C62C9385018BEF70114413C514009F
:103AD80075B793F72500A5C703C54182130600648F
:103AE8008945EF00C078930780F85C8203C7F182AC
:103AF8008D4763EBE700371502001305C51AEFC0C1
:103B0800C14213C524009DBF1384818B0A208547B9
:103B1800014781460546ED457C85EF50000E2AC6D3
:103B28006DD130854C00EFC0EFFB0A202C00EFF080
:103B3800FF9061D9ED452800EF50E022D9B793F7FF
:103B4800850085C383C7418203D5818B130740064F
:103B58008146130640069945EF70313513C5840038
:103B680031BF93F705019DC303D5818B0147894672
:103B780009468145EF802114AA85371502001305EF
:103B8800C51BEFC0412913C50401CDBD93F74500FE
:103B98000145E38507EE03D5818BEF80610F03C5EF
:103BA80041820566130606C89145EF00406C13C5AF
:103BB8004400E9B5EFC2810D374500000111130536
:103BC80045A2EF00D02E938441829947054488A0EE
:103BD800FC82100893074006854513055030FC8485
:103BE80023088100EF701161370600201306062FA5
:103BF800F14513057030EF70F15F138681829D45A2
:103C080013056030EF70115F5008894513051031B6
:103C1800EF70515E3008894513052031EF70915DD2
:103C2800370600201306862DD5450145EF40103A8A
:103C3800930500050D45EF20E05C9305000511454F
:103C4800EF20405C85457945EF20C05B3008914501
:103C580013057040408440862308810002CC230A63
:103C68000100EF6091203000854513050040EF60AA
:103C7800D11F7000854513051040EF60111F5008D3
:103C8800854513052040EF60511E10088545130532
:103C98005040EF60911D7D55EF4090407D55EF609D
:103CA8007051EFF0EFD47D55EFF0CFEC89475C868B
:103CB8008D472308F1009147230AF10003A70187E4
:103CC80093870187DC233000854501453ACC230ED4
:103CD800F1004084EFF0EFEE700085450545EFF008
:103CE8004FEE100885450945EFF0AFED50088545C2
:103CF8000D45EFF00FED300895451145EFF06FECED
:103D080041679387818B791798C323A2070013858E
:103D18000182EFF02FEA1385818AEF50113988204C
:103D28008545892905616FB0B178EFB23176EFF03A
:103D38004FA3716513050520EFF06FA83715020032
:103D480013058559EFC0611EEFF0FF8CEFF0DF9F80
:103D5800EF70B1768535EFC02FC2B7170240984390
:103D6800B706FFF841111367170098C3D843370601
:103D78000200758FD8C39843B706F7FEFD16758FF6
:103D880098C39843B706FCFFFD16758F98C3D843B0
:103D9800B70681FFFD16758FD8C337079F0098C7F0
:103DA80002C402C69843C166558F98C3B71602402D
:103DB80005679C42F18F3EC6A24785073EC4B247BD
:103DC80081E7A247E397E7FEB71702409C431397A2
:103DD800E700635E070685473EC632478547631698
:103DE800F706B7170240D843B706C000558FD8C3A7
:103DF800D843B706C1FFFD1613670708D8C3D843D1
:103E0800D8C3D84313670740D8C3D843758FD8C3DE
:103E1800D843B7063500558FD8C39843B706000175
:103E2800558F98C3984393166700E3DD06FED84381
:103E3800B7160240719BD8C3D84313672700D8C36D
:103E48002147DC42B18BE39EE7FE4101828002C636
:103E580069B70DC18346E5FF1307F00F9147639CCF
:103E6800E600411106C6EFE00FB2B24081473E8539
:103E78004101828095473E85828001E90145828023
:103E88000145B240224441018280956541119385E4
:103E980005D022C4C98D2A842105C2054205C181E5
:103EA800418106C6EFE0AFA161DDFD572320050083
:103EB80042A17CA12105F1B7B9CD411122C406C6A2
:103EC8002A8497E7FF1F83C7773F2E856375F40021
:103ED800894763E88700B53F0D45B2402244410158
:103EE800828083A785FF99E703C7E5FF9307F00F53
:103EF8006305F700B93F1545CDB7238F85FE17E554
:103F0800FF1F1305653BEFC0AFA722852244B240CF
:103F1800A165410185A41545828097E7FF1F23AD60
:103F280007388280C9C1797122D406D626D24AD0F0
:103F38004ECE01444147B3D78540858BA5C31205B2
:103F4800314722953305E50297E7FF1F93874740DE
:103F580003A907008544B3948400C204C180BE89C4
:103F68002A990327090011C7032549002EC602977D
:103F7800B24531473304E40283A709003E941C4448
:103F880089E72320090023220900B2502254A58D75
:103F980002599254F2492E85456182800504E31C3A
:103FA800E4F88144DDB72E8582804111139705011D
:103FB80022C406C626C24AC041872E84635F070012
:103FC800EFC0AF9D11C17135A1673D8C2285B2400C
:103FD80022449244024941018280EDD9AA870147CF
:103FE8004146B356E440858A8DCE9207BA97B146CA
:103FF800B387D70297E6FF1F9386863503A9060085
:104008008544B394E400C204C1803E998327090023
:104018000325490082972320090023220900258CC3
:1040280075B70507E31FC7FA8144D5BF97E7FF1F98
:104038009387072EDC53411122C406C6138441839B
:1040480099C782971C403E9523AAA18239A097E779
:10405800FF1F938767309C43EDF70840B74703007D
:104068009387D73F3305F502B7A72600938737EC28
:10407800B24022443E9523AAA1824101828065C9AB
:10408800374836FE1308F8C789476363C80E797145
:1040980097E7FF1F9387C72B22D45AC803A80700A6
:1040A8003E8B06D626D24AD04ECE52CC56CA5EC6D3
:1040B80062C40144B148C147B30B1403137CF40F25
:1040C8003303780103230300631E0308AE8AC16526
:1040D800AA84938505F041453A8AB6893289EFD09A
:1040E8001FFE0DE997E7FF1F93878722DC5B99EF97
:1040F8008147B250225492540259F249624AD24A34
:10410800424BB24B224C3E85456182808145114528
:104118008297F9BF97E7FF1F9387471F98431DEFC3
:1041280097E7FF1F23A4A71E2300050083270B0082
:10413800054733148700232605002324250122A1DF
:1041480023224501DE9784C323A2570123A44701F4
:10415800E38009FA2380890161BF36875447F5FE59
:1041680048C7D9B70504E319F4F4A14759B78947F3
:104178003E85828097E7FF1F83C75714637FF5004A
:1041880017E7FF1F130747189317150008433E95B5
:104198001E21DD8D0EA1014582800D45828097E7A5
:1041A800FF1F83C7B7116371F50217E7FF1F1307D6
:1041B800A71593171500084393C5F5FF3E951E21D3
:1041C800FD8D0EA1014582800D45828001114AC8EE
:1041D80006CE22CC26CA4EC652C49307F00209491D
:1041E80063EEA706B146B306D50297E7FF1F93878C
:1041F80027169843094936971C43ADC3135A4500FF
:1042080005443D893315A400131405014180AE848B
:104218005285A285EFB0BFFFAA89014921C1A285B5
:104228005285B53F97E7FF1F938707139C438297F3
:1042380097E7FF1F83D7A70F338797022A841306B0
:1042480000648146B3B7970213050732B335E5001A
:10425800BE95EFB08167229523A4A900F24062447D
:104268004A85D2444249B249224A0561828097E789
:10427800FF1F83C7B7046364F500014582800111FD
:1042880097E7FF1F9387470D4EC683A9070006CE01
:1042980022CC26CA4AC8638C09082E8997E5FF1FD5
:1042A80083D5E508B387C5022A84B2848146B3B5AD
:1042B800C50213850732B337F50013060064BE95AF
:1042C800EFB0A160B74736FE9387F7C763E1A7064B
:1042D800829997E5FF1F83D58505B3879502AA893B
:1042E800130600648146B3B5950213850732B337C8
:1042F800F500BE95EFB0615DAA99CA852285EFB039
:104308001FF109C52324350105451DA0936504F057
:10431800C205C1814145EFD09FDA15E197E7FF1F3C
:10432800938707FFDC5B81C7A2851145829701450A
:10433800F2406244D2444249B2490561828097E71B
:10434800FF1F9387A7FC9C4395E397E7FF1F23AFC5
:10435800A7FA8547232605002324350123112501C3
:1043680000A11CB12322050045B7BA87D84775FFBD
:10437800C8C7C5B751C9797122D426D24AD04ECE02
:1043880052CC56CA5AC85EC662C406D6B689B28A24
:104398002E8A2A899304000C414417EBFF1F130B44
:1043A8002BFB054C930B000383270B00A6979C431C
:1043B800A1E79375F400B315BC00C2055686C18108
:1043C800135544006D350DC983270B000145BE9474
:1043D80023A0240123A244016384090023808900C7
:1043E800B250225492540259F249624AD24A424B7C
:1043F800B24B224C4561828005041374F40FB1045A
:10440800E31474FB2145E9BF09458280411122C4A8
:1044180026C24AC006C62A842E89B284893DCA8526
:104428002285EFB0DFDE05CD97E5FF1F83D525F0A8
:10443800B38795022A84130600648146B3B59502B2
:1044480013850732B337F500BE95EFB0014848C071
:104458000145B240224492440249410182802145EB
:10446800CDBF411122C426C24AC006C62A892E845D
:10447800EFB0FFD9AA8419C123110500A2854A8586
:10448800393B97E7FF1F83C767E3639B270197E7DC
:10449800FF1F83D727E75D8C97E7FF1F239487E6E5
:1044A800014591E01945B240224492440249410134
:1044B80082809307F00263E8A7044111B14722C440
:1044C8003304F50226C297E4FF1F938464E89C40F6
:1044D80006C6A297984389470DC39377F50085458B
:1044E800B395F500C205C1811181A53F9C40A297F3
:1044F80023A0070023A207008147B2402244924428
:104508003E854101828089473E858280411106C6E9
:1045180022C4EFB0DFCF11E50145B240224441018A
:10452800828097E7FF1F938727E39C430045829784
:10453800B74736FE3305A4409387E7C7E3EEA7FCE9
:1045480093070064B335F50217E6FF1F035626DE0E
:1045580081463305F502EFB04137C1B7411106C6B0
:1045680097E7FF1F23A8A7DE0295B24097E7FF1F32
:1045780023A2A7D6014541018280994763E9B70084
:104588008A0597E7FF1F938727D6BE9588C1828043
:1045980041117146814517E5FF1F1305E5D406C68D
:1045A80097E7FF1F23A407D697E7FF1F23A407DA7F
:1045B80097E7FF1F23A207DAEFB01FD61306800282
:1045C800814517E5FF1F130565CFEFB0FFD4EF70E6
:1045D800417897E7FF1F83C7F7D413D527008D8B42
:1045E8003E958D473305F502854539051375F50F59
:1045F80097E7FF1F2385A7CC99473305F5021305D5
:104608000524EFD0DFAB17E7FF1F2323A7D449CD3D
:10461800994717E6FF1F034686CA3306F602814507
:1046280013060624EFB05FCF97E7FF1F938747D2A3
:104638009C439387072417E7FF1F2325F7CA17E72B
:10464800FF1F0347C7C70A07BA9717E7FF1F232D9E
:10465800F7CAEFF09F8C2D2197E7FF1F938787C834
:10466800944397E7FF1F83C777C5139727003697AB
:10467800170600001306468B10C31387170013771D
:10468800F70F0A073697170600001306469210C35D
:1046980013873700890793F7F70F8A0797E5FF1FF6
:1046A800A38EE5C0B69790C3B2404101828097E7D8
:1046B800FF1F83C7B7C017E7FF1F034747C063F350
:1046C800E70217E7FF1F1307E7C118439386170090
:1046D80017E6FF1FA304D6BE93962700369708C394
:1046E8003E8582809307F00FE5BF1C416380071465
:1046F80041777D8FB70600208947631AD7125A2160
:1047080063070712411122C419462A849305F00F42
:10471800610506C6EFB01FCA05478D476303E5105C
:104728001C4481CB185C9947630D070E585C630ADB
:10473800070E13060004814517E5FF1F130545BD45
:10474800EFB09FBD13060004A28517E5FF1F1305F0
:1047580025BCEFB03FB917E7FF1F035727BC97E702
:10476800FF1F9387E7BA19E71307001097E6FF1FA3
:104778002396E6BA17E7FF1F034767BA11E705470D
:1047880097E6FF1F238DE6B817E7FF1F035747B9C2
:1047980011E76D4797E6FF1F2394E6B817E7FF1F59
:1047A8000347F7B711E7154797E6FF1FA389E6B652
:1047B80017E7FF1F0347E7B611E7054797E6FF1F0F
:1047C8002381E6B617E7FF1F0347B7B511E7F837A8
:1047D80097E6FF1FA387E6B417E7FF1F034787B4D1
:1047E80011E7254797E6FF1F238EE6B217E7FF1F5D
:1047F800034777B311E7514797E6FF1FA385E6B252
:10480800782819E71307C00397E6FF1F238DE6B042
:10481800DC5791C7829797E7FF1F2395A7AA8D3B7F
:104828008147B24022443E854101828089473E85C6
:10483800828097E7FF1F938727B29C43411106C6E2
:1048480022C426C24AC0829793070064B335F50292
:1048580017E9FF1F0359A9AD4A8681463305F502BA
:10486800EFB0A10697E7FF1F938747A5804FAA845B
:1048780001456304940233858440636C94004A863E
:1048880081461305009C9305F063EFB00104018D88
:10489800269597E7FF1F23AF97A2B2402244924480
:1048A800024941018280011122CC0A852E844146A9
:1048B80097C501009385857806CEEFB0214018088A
:1048C80006043A94035504FF97E7FF1F83D747A6CA
:1048D800F2406244AA9737450F0013050524335563
:1048E800F5020561828097E7FF1F83D767A45147C8
:1048F8001D45637CF702794719456378F70213076A
:10490800200315456373F7021307B0041145637E4E
:10491800F700130740060D456379F7001307600990
:1049280009456374F70013B5B70F8280011122CCD3
:1049380006CE2A842EC6EFF06FEFB245F240818D85
:1049480033A5A502229562441375F50F056182808F
:10495800011122CC06CE2A842EC6EFF02FEDB245E7
:10496800F240818D33A5A50222956244420541811A
:1049780005618280011122CC06CE2A842EC6EFF072
:10498800EFEAB245F240818D33B5A5022295624423
:104998000561828097E7FF1F93878797D85739CBA0
:1049A800411122C426C206C6BE84029717E7FF1F1C
:1049B800035747912A8415CBBA876373A700AA8740
:1049C800C207C183BA866373E400A286C206C182A5
:1049D800958F5147635BF7009C5891C38297EF10FE
:1049E800515697E7FF1F239F878CB2402244924479
:1049F80041018280828097E7FF1F938767919C5BC4
:104A0800011106CE81C72AC6829732451DC917E70C
:104A1800FF1F0357C79185470DC317E7FF1F0357AC
:104A2800279101CF97E7FF1F23A8A792170500003A
:104A3800130565E0EFF09FB28147F2403E850561BE
:104A4800828097E7FF1F23A90788E17793C727A1EB
:104A580017E7FF1F231DF78C9307200317E7FF1F96
:104A68002318F78C7D57B747024023A4E72697C73A
:104A7800FFFF9387A7C217E7FF1F232FF78C7DB788
:104A8800011122CC17E4FF1F13048488084406CEC2
:104A980026CA4AC801E90545F2406244D24442495F
:104AA800056182801C5CE5DB585C75D77000854524
:104AB80082971844B247E300F7FE9305E00417E530
:104AC800FF1F0355A585EFD08FDF17E7FF1F2327AB
:104AD800A78071D117E6FF1F035646849305F00F90
:104AE800EFB09F83814417D9FF1F1309297D97E7EA
:104AF800FF1F83C7C7820326090263CFF4003285EC
:104B0800EFD06FE8014597D7FF1F23A9077C97D7F8
:104B1800FF1F23A7077C49B797E5FF1F83D50580AB
:104B2800B38795020844585C898185043E9508C27C
:104B3800029775BF411122C417D4FF1F1304447D87
:104B48001C4426C206C64AC097D4FF1F9384047724
:104B580091EB885025E9B24022449244024901452C
:104B6800410182805C5CF5D79C5089EF9305E00495
:104B780017D5FF1F0355857AEFD06FD497D7FF1F3E
:104B880023AEA774885071D517D6FF1F0356067930
:104B98009305F00FEFB04FF8014997D7FF1F83C770
:104BA80007789050E357F9FA97D5FF1F83D5057713
:104BB800338525031C44898105093E955C5C08C240
:104BC8008297E1BFEFD02FDC97D7FF1F23A807708C
:104BD80097D7FF1F23A60770BDBF011156C297DAEA
:104BE800FF1F938AEA7283A78A0022CC4AC84EC65E
:104BF80006CE26CA52C45AC0AA892E843289638333
:104C0800072003A78A03630107141307F01F636FC4
:104C1800A71297D4FF1F9384646A03AA040263113E
:104C28000A0A9565938515E017D5FF1F0355056F8B
:104C3800EFD0EFC897D7FF1F23A2A76A2A8663057C
:104C4800051083A78A0303A58A0097D5FF1F83D57C
:104C5800E56C8981829783A78A0003AA040217D783
:104C6800FF1F232FF76689476396F908C147631D1D
:104C7800F40C97D5FF1F83D5656A938505FC91478A
:104C8800B3C5F5028A05D295B8219307A005631923
:104C9800F70A9E216396370B4A8522869105EFB065
:104CA8006FE49C505285639B47130145F240624470
:104CB800D2444249B249224A924A024B0561828053
:104CC800D850E382E7FA9565938525E017D5FF1F4D
:104CD8000355C564EFD0AFBE2A8A3DC52A8683A78F
:104CE8008A0303A58A0097D5FF1F83D52563898189
:104CF800829795BF8D47639DF900C1476316F404F9
:104D080097D5FF1F83D58561938545FDF199A5BF8B
:104D18009147639AF9006319340397D5FF1F83D528
:104D2800E55FA115E5B793070010639FF900A14758
:104D380063EC870097D5FF1F83D5455EC115F9B78A
:104D48009C505285639D470B29458DB71D6A568B2C
:104D580063794509130A05E01947334AEA0217D768
:104D6800FF1F0357A75B97DAFF1F938A2A55330A59
:104D7800EA023E9A83A74A026395470183A40A027E
:104D88008DE49305E00417D5FF1F03552559EFD08F
:104D98000FB3AA8455D983278B0397D5FF1F83D5D3
:104DA800E5572A8689815285829791451307A00580
:104DB800898193972500A697B423639DE6029623DD
:104DC8006398360385058A052286A6954A85EFB03D
:104DD8006FD183A70A02E38A97EC2685EFD0AFBA92
:104DE800E9B521677917E361A7F6330A454185BF1D
:104DF800AC337DBF83A70A02E38897F42685EFD0FA
:104E08008FB899B797D7FF1F9387474B8C538DDD82
:104E180091479306A0058983139727002E9730237F
:104E2800E314D6F21223631A360185078A0722860D
:104E3800BE954A85EFB00FCB8DBD3C33E9BF97D700
:104E4800FF1F9387E74C984729C7DC5FB9C305471D
:104E58006311E504411122C417D4FF1F130404464B
:104E6800105006C61DC2485097D5FF1F83D5054B65
:104E7800898182970850EFD00FB197D7FF1F23AFD2
:104E8800074497D7FF1F23AD0744B240224441018E
:104E980082808280011117D7FF1F130767474EC60C
:104EA8008329870022CC26CA4AC806CE52C456C2D5
:104EB800AA842E843289638E091E5C5FBA8A99EBB4
:104EC8002945F2406244D2444249B249224A924AB0
:104ED800056182801C5FEDD79307F01F63E4A70E7E
:104EE80097D9FF1F9389893D83A70902B1C703A5F5
:104EF8008A0083A74902639FA7048947639DF40634
:104F0800C147E31FF4FA17D5FF1F03552541914701
:104F1800130505FC3345F5029317250003A509027F
:104F28002286CA853E959307A0053CA106A11105D6
:104F3800EFB04FBB014571B79305E00417D5FF1FCC
:104F48000355C53DEFD0AF9797D7FF1F23A8A738C4
:104F580059FDBDB783A78A0303A6090297D5FF1F8A
:104F680083D5C53B8981829783A78A0017D7FF1FFE
:104F78002328F73659B78D47639EF400C147E311DC
:104F8800F4F417D5FF1F03556539130545FD9377CD
:104F9800C5FF69B79147639AF400E31394F217D5F4
:104FA800FF1F0355A5372115DDB793070010E399B7
:104FB800F4F0A147E3E687F017D5FF1F0355053640
:104FC8004115F1B79D676377F506930705E0194723
:104FD800B3C7E70217D7FF1F0357473417DAFF1F76
:104FE800130ACA2DB387E702BE9983270A02B1CBF9
:104FF80083274A026395370703250A029146130857
:10500800A0059305F00F93D72600139727002A973A
:105018003023631B060783580700303363929806D2
:10502800B306D64063CD860485078A072286CA85DB
:105038003E95FDBD21677917E364A7E8B307F540FE
:1050480051BF9305E00417D5FF1F0355252DEFD059
:105058000F8797D7FF1F23A3A72859F995B583A7CB
:105068008A0303260A0297D5FF1F83D5252B89813A
:105078004E85829797D7FF1F23A43727B5BF0EA366
:1050880093160601C18241B7B385860017D6FF1F64
:105098000356C6289105130606FCE3F3C5E213067A
:1050A8003400719A1106B2962301070106A334B39E
:1050B800A5BF97D7FF1F938767209453BE8995CEC6
:1050C80003A5090291461308A0059305F00F93D78D
:1050D8002600139727002A97302363130605835861
:1050E8000700303363979800B306D640E3DE86F2B4
:1050F8000EA393160601C182D9BF5E2717D5FF1FDD
:105108000345E5219305E0043305F5024205418195
:10511800EFC0FFFA97D7FF1F23A2A71C55F14DB385
:1051280017D6FF1F0356861F97D5FF1F83C5251F58
:10513800B385C502338686001106E3E3C5D885B773
:1051480001458280011106CE2EC6EF70806319C515
:10515800B245F2402A2105616FA0E068F240494556
:1051680005618280A384018E2384018E23A8018C8B
:1051780023AA018C23AC018C23AE018C23A6018CBD
:1051880023A4018C97D7FF1F9387471F1306403826
:10519800B2B371761307400B130606B8BAA3D2B39D
:1051A80011671D46930600059305000A1305007D47
:1051B800DAA3F2B341470546130810F8BAA7DAA7ED
:1051C800BAABDAABFAAB9AAF9AB723960703239038
:1051D8000700EEA38EA7F6A796ABAAAF239E0700FB
:1051E800239F070023900702B2B7239707021308EB
:1051F800F007239807022392E7042393E704239FE9
:10520800E7042390E7062391E7062392E70623990C
:1052180007031307C01CD2BBF2BB239C0702239DC4
:105228000702239E0702239F070223900704239166
:10523800C70423940704239507042396C7042397D8
:10524800D7042398D7042399A704239A0704239BF8
:105258000704239C0704239DD704239ED704239384
:10526800A706239407062395070623960706239780
:10527800B7062398B70623990706239AE7067D57AA
:10528800239B0706239CE7068280011126CAAA846D
:10529800214522CC06CE2E8432C636C43AC2EFE06F
:1052A800DFBD0DC5A24612473246930700FD1CA17B
:1052B800994704B13CA174A178B152A1AA8522856D
:1052C8006244F240D24405616FE01FBFF24062447D
:1052D800D2440561828023A8A18C828023AAA18C54
:1052E800828023ACA18C828023AEA18C82800111A4
:1052F80022CC4AC806CE26CA2A890144B3048900AA
:105308006368B400F2406244D24442490561828035
:105318002EC6EFE0BFD193170501C183A183B24523
:105328009CA09307140093F7F70F850463F8B70060
:10533800CA97090488A31374F40FC9B73E84C9B780
:10534800C16717D5FF1F0355C501FD176304F50293
:10535800411117D6FF1F0346E6129385018E06C634
:10536800EF700025B240FD5717D7FF1F231BF7FE2C
:1053780041018280828009C925151375F50F1335FF
:10538800850E134515008280014582802390050013
:10539800C1C6797122D426D24ECE52CC5AC806D66E
:1053A8004AD056CA5EC63684328AAE892A8B814470
:1053B80063F24407B30794009C231389140042093D
:1053C800939A070193DA0A011359090163840A04BD
:1053D800CA976341FA04B307240183CB07005E85AB
:1053E800593F0DC99387FAFF2390F90063906B0327
:1053F800130519002295B250225492540259F249C9
:10540800624AD24A424BB24B45618280D694C2046A
:10541800C18079BF0145C5B701458280411126C2C7
:10542800AE8422C497D7FF1F23A4C7F497D7FF1FC2
:1054380023AEB7F297D7FF1F23A8A7F22A844146C5
:105448009305F00F26854AC006C60549EFA09FF6CA
:10545800631E250397D7FF1F938747F0884BC145E5
:10546800793541469305F00F2285EFA0BFF48544B6
:1054780063169502224497D7FF1F938727EEB24001
:1054880092440249C847C145410195B54146814505
:105498002685EFA03FF2E31625FD6DBF4146814505
:1054A8002285EFA03FF1E30795FCB24022449244E5
:1054B800024941018280411122C426C22E84AA8455
:1054C80013060002814517D5FF1F130525E906C6F7
:1054D800EFA09FE497D7FF1FA38397E897D7FF1FF5
:1054E800238487FAEFA02032854719C181474945AF
:1054F800B240224417D7FF1F2302F7E69244410126
:105508008280814791C909C985476319F500DC3153
:1055180093E707FCDCB185473E858280894763169F
:10552800F500DC3193F7F703F5B70D478547E31529
:10553800E5FED8311377F70313670704D8B1E9BF3D
:10554800814785C119CDD8319306000C854713775B
:10555800070C6308D700930600048D476303D70040
:1055680089473E858280411122C4005D06C626C255
:105578001DC0AA84085019C1EFC0FFC0485019C106
:10558800EFC07FC0085419C1EFC0FFBF2285EFC02C
:105598009FBF23AC0402B24022449244410182805E
:1055A80009ED97D7FF1F83C787DB17D5FF1F1305A3
:1055B80065DC81CB1385018C828017D5FF1F13050D
:1055C80065DB828017D5FF1F034565D9828097D791
:1055D800FF1F9387A7D8C847828097D7FF1F938755
:1055E800E7D7884B828097D7FF1F938727D7DC4B55
:1055F8008843828097D7FF1F938747D6D84B1C4391
:1056080085071CC317D5FF1F034575D59307F00FF2
:105618006305F50091656FE0FFB58280011122CC2A
:1056280006CE2E8432C6EF7080259147B245631F9F
:10563800F5009387C18D9C438DC303A30700630EB8
:10564800030022856244F240056102839387418DFD
:105658009C4381C703A34700DDB7F2406244054578
:1056680005618280011122CC2A844A2106CE26CAED
:105678004AC84EC6EFB0CF8C35C12A890421834968
:10568800C500D5354A85EF7010664A20EF70201B9B
:1056980083C7818EA1CB6397970483C5918E268596
:1056A800EFF05FAA19E12384018E4A20EF70201DD4
:1056B8009147631EF5005A2097D7FF1F83D767CA03
:1056C8006317F700FD5717D7FF1F231CF7C8F240D1
:1056D8006244D2444249B2490561828081499304B7
:1056E800F00F7DB79307F00FE381F4FC742052208C
:1056F80028204E87A685EFF05FB945BF79715EC651
:10570800AA8B2E8552CC56CA5AC806D622D426D27F
:105718004AD04ECEAE8A328B368AEFB06F8261C9DC
:10572800045D2A89E9C49C50614599C31305400367
:105738009C5481C751054205418163050A007105E2
:1057480042054181DC5081C7590542054181EFE09E
:10575800CFF22A8449CD61468145EFA0FFBB97D996
:10576800FF1F83C9A9C463940900834909009307EB
:1057780000FD1CA0A947A30074013CA023036401F9
:105788008C50231254011305840181C908C4714641
:10579800930A4403EFA01FB556858C5481C948C4A9
:1057A8005146930A4501EFA0FFB35685630A0A00E4
:1057B80008C87146D285930AC501EFA0BFB25685C5
:1057C800CC5089C548C85946EFA0DFB1A2854E859F
:1057D800EFE08FEE2254B2509254F249624AD24A14
:1057E800424BB24B4A85025945616FF0DFD7B25040
:1057F800225492540259F249624AD24A424BB24B5D
:105808004561828001114EC6AA892E854AC806CEF6
:1058180022CC26CA2E89EFA0BFF239C197D4FF1F28
:1058280083C4C4B891E004211945EFE00FE52A8448
:1058380005C981451946EFA03FAE930700FD1CA09E
:10584800B947A30034013CA023122401A285624475
:10585800F2404249B2492685D24405616FE0CFE55E
:10586800F2406244D2444249B249056182803971AA
:105878005ECEAA8B2E8526DA4ED652D456D25AD070
:1058880006DE22DC4AD8AE84328BB68A3A8ABE89D2
:1058980042C6EFA0FFEA39C52A894145EFE0EFDDAE
:1058A8002A8429C141468145EFA01FA717D5FF1FAC
:1058B8000345C5AF19E103450900930700FD1CA086
:1058C800BD473CA0B247A300740146A0230464016D
:1058D800A304540123054401A30534015CC4A28533
:1058E800EFE08FDDF2506254D2544259B259225A35
:1058F800925A025BF24B21618280797126D2AA8486
:1059080039454AD04ECE06D622D42EC6B28936891B
:10591800EFE0AFD61DC9B2459307000D1EA1B147F0
:105928002A844EA13CA1CE8519051946EFA09F9B5C
:1059380023062401A2852254B2500259F24913F5D4
:10594800F40F925445616FE02FD7B250225492540D
:105958000259F2494561828017D7FF1F034737A0D4
:105968009307F00F6307F706411126C2AA84394549
:1059780022C406C64AC0EFE04FD02A8429C593073F
:1059880000FD1CA104B12301050097D5FF1F9385D5
:10599800659E0D051946EFA0FF9417D9FF1F13093F
:1059A800E99B83578900A28517D5FF1F0345359BBF
:1059B8003EA4834719005CA42244B24092440249A1
:1059C80041016FE06FCFB240224492440249410145
:1059D8008280828001115AC02A8B314526CA4EC660
:1059E80052C456C206CE22CC4AC8AE84B28A368A7F
:1059F800BA89EFE08FC835C92A842685EFA05FD41D
:105A080009C55825A1476311F70417D9FF1F034992
:105A18001995930700FD1CA09D47A30064013CA0B5
:105A280046A0231354012314440123153401A285ED
:105A38006244F240D244B249224A924A024B4A8511
:105A4800424905616FE04FC717D9FF1F0349D9A322
:105A5800E3110BFC938741999C439C47DDDBCE8681
:105A68005286D685268582976DB7F2406244D24425
:105A78004249B249224A924A024B05618280011189
:105A880022CC2A84214506CE2EC6EFE00FBF15C5CD
:105A9800B245930700FD1CA1C5473CA1BC313CB1F0
:105AA800DE215EA1FC217CA1FC31AA857CB1228586
:105AB8006244F24005616FE02FC0F2406244056124
:105AC8008280397162CC2A8C594526DA4AD84ED65A
