:100000006F20203E130000001300000013000000CA
:100010001300000013000000130000001300000094
:100020001300000013000000130000001300000084
:08003000130000007300100032
:100038000000000000000000E43E0000E83E000070
:10004800000000006C230000000000000000000019
:100058006E23000070230000000000000000000074
:10006800722300000000000074230000000000005C
:1000780076230000782300007A2300007C23000008
:100088007E230000802300008223000084230000D8
:1000980086230000882300008A2300008C230000A8
:1000A8008E23000090230000922300009423000078
:1000B80096230000982300009A2300009C23000048
:1000C8009E230000A0230000A2230000A423000018
:1000D800A6230000A8230000AA230000AC230000E8
:1000E800AE230000B0230000B2230000B4230000B8
:1000F800B6230000B8230000BA230000BC23000088
:10010800BE230000C0230000C2230000C423000057
:10011800C62300007A3D0000CA230000CC2300005B
:10012800CE230000D0230000D2230000EA3E0000C6
:10013800F23E0000D8230000DA230000DC23000090
:10014800DE230000E02300000000000000000000A3
:100158000000000000000000000000000000000097
:100168000000000000000000000000000000000087
:0801780000000000000000007F
:10018000EF02E2339126FDBF23AC05FE1C4181E75F
:100190000CC18280BA8703A787FF6DFF23ACB7FE2F
:1001A000828017270020130767141C43411122C4C3
:1001B00026C24AC006C601440149BA8491E7A16536
:1001C000EF40B02C05C809A803C7E7FF631BA702CF
:1001D00015CCA165EF40407C9840832784FF6319CC
:1001E000E402172700202323F710FD57232C04FED9
:1001F000230FF4FE2285B240224492440249410179
:10020000828011E03E8983A787FF4DBF3E84E5BF12
:10021000232CF9FED9BF97270020938767129C43B0
:1002200099E33E858280BA236315B7009823E30AD9
:10023000A7FEDC47F5B70111680006CE22CCEF001F
:100240003122FD576305F508324735CF17240020CA
:100250001304040A1848630EF700972700209387B9
:10026000E7129C43829732471C486373F700BA87B2
:100270003E95172400201304A4261C4C81CF9727F9
:1002800000209387672C94433707CDFF7D179C464A
:10029000F98F9CC6972700209387C70A9C5782979F
:1002A00019E51C4C8DC3EF60B15EEF60E14D1C4C55
:1002B00099CB97270020938727299843B7063300C7
:1002C0001C47D58F1CC7F240624405618280172409
:1002D00000201304E4011C48E387A7FE97270020B1
:1002E0009387C70A9C4382971C4859B709CD81CD93
:1002F00019CA81473387F50014233307F5008507B2
:1003000014A3E319F6FE828019C991C909CA91059F
:1003100083A7C5FF11057D16232EF5FEC5BF82807C
:1003200001C919C62A960505A30FB5FEE31DA6FE51
:10033000828081473307F5000307070019E33E85F4
:1003400082808507C5BF01112E8626CAAA8413158F
:1003500006019305F004418122CC06CE32C6EF108F
:1003600090562A8401C53246A68549372285F24037
:100370006244D24405618280854705C199CD11CE82
:100380008147B306F5003387F5009422182363985C
:10039000E6008507E317F6FE85473E8582808147A4
:1003A000EDBF9307F6FFBE952A966313C5008280C2
:1003B000FD159C310505A30FF5FEC5BFAA870145B4
:1003C00081CF09CE3E96850703C7F7FF6317B700B5
:1003D000E39BC7FE05458280828001458280011132
:1003E000972700209387C7F522CC804306CE26CAE4
:1003F0004AC84EC652C456C25AC059C437C9C901A8
:10040000814497290020938969F81309F937172A3D
:100410000020130A2AF3972A0020938A6AED3E20CF
:1004200091EF5C44A5EC17270020232BF7F0032B5A
:10043000C4002285EF10B0555A840DA883A7090087
:1004400082971C443307F540636CE904972700202A
:1004500023A807EA2E200820EF40005454405C44B3
:10046000F1D21844A284369718C43E844DF89727D9
:1004700000209387E7E79C4B09476372F704F9175D
:1004800017270020232EF7E6F2406244D244424967
:10049000B249224A924A024B05618280DCC441BFC4
:1004A00003278A0211CB03A70A01898F63F6E700AD
:1004B000172700202326F7E4A284404445BF97274E
:1004C000002023AF07E2C9B7411122C4172400203E
:1004D0001304C4E41C4006C626C24AC091C78297D2
:1004E0009727002023AC07E25C4091C382971C4011
:1004F000639B07189727002083C7D7FE858B9DC76E
:1005000097270020A38007FE172700200347B7FD89
:10051000914763FDE700EF10E0489727002083C76D
:1005200097FCF9178A07A2979C4382971729002006
:10053000130909FF8347C900918B99C3EF10502E0F
:100540001C4491C3829797240020938424DF984011
:10055000172600200346D6D99727002083C747D9FE
:1005600093961700BA969622C1CA9727002083C790
:1005700027D863EDC70897270020238B07D61C4098
:10058000639307109727002083C717F681CF97271B
:10059000002083C757F599E797270020A38607F423
:1005A000EF60816897270020938747DE9C43E1CF67
:1005B000FD57172700202325F7D41535972700204E
:1005C000938747D89C57E1C3172700200347B7F10B
:1005D000914763EAE70A8347C900918BCDE79040D2
:1005E0009726002083C6D6D063E5D70A2244B240BE
:1005F00092440249410181B1850793F7F70F97268D
:1006000000202387F6CEE3E9C7F485B786073E9737
:100610000E232310070097270020239F07D097273A
:100620000020938767CF9C4317250020034545CCC6
:1006300013172500BA979C4382979727002083D7EA
:10064000A7CF172700200347A7CA93C7F7FF7D8DC1
:100650009317170098403E971E235D8D0AA3972796
:10066000002083C7E7C891C785071727002023010B
:10067000F7C8172700200347A7C79727002083C77D
:1006800037C7E37AF7EEB24022449244024941016F
:1006900082801397170032971A2375F78507A9B739
:1006A000AD6737470240BD072326F7200100010050
:1006B000972700209387C7C3C84F83278726BD6627
:1006C000BD0693C7F7FF99836A052326D7205D8D62
:1006D00082808280938741939C43172600200346A3
:1006E00036DE01476365C700814636858280BE8657
:1006F000990783D5A7FFE38AA5FE0507E5B793878A
:10070000C192984319E3014615A81C4703D8A700D6
:10071000636B050183584700B38608016355D50014
:100720008146639416011843F1BF3E86C10703D387
:10073000A7FF6317A30099C123900501328582802A
:100740008506C206C182F1BF97270020938787D311
:100750009843172600200346A6D681476315F60066
:10076000814636858280BA861307C703835567FCA6
:10077000E389A5FE850793F7F70FCDB7032785110A
:100780007DC7411122C406C65C258345C5042A8461
:1007900093F7C70F5CA5143752271395860161851F
:1007A00063F6C50663500506082793F6F60714B7E7
:1007B000054693E627006314C50093E6170054A48A
:1007C0005C4389075CC34CB8032504112E864C4357
:1007D0000905293E832784115038D443DA27B2967D
:1007E000118FD4C3DAA789473CBC0347440397273A
:1007F000002083C747B66371F7045C2493E70701C1
:100800005CA41DA893E717005CA475BF9376F60F50
:10081000635905020827854513E627006314B500D0
:1008200013E6170050A454B8A304070085473CBC46
:10083000832784119C43D5FBB240224401454101EA
:10084000828093E717005CA454B8A3040700032533
:1008500004114C430905593C832784115038D44373
:10086000DA27B296118FD4C3DAA78D47C9B70545E9
:10087000828097270020938767C59C43411122C43B
:1008800006C6858B2A84DDE34165130525F5EF1047
:10089000012549CD3C253EA583270412B5E323203D
:1008A000A4122322A41285472310F4042320050058
:1008B0007C2854415EA5583418A5054718B517275C
:1008C00000201307E7C1184F1385170215811C4339
:1008D0007D151375F50F9CC25C43DCC21C479CC69A
:1008E0005C47DCC61C4B9CCA5C4BDCCA1C4F9CCED4
:1008F0005C4FDCCE19CD9386060213070702C1BFF9
:100900008327441288C3835704042322A412850733
:1009100061BF9727002083D7E7C9850717270020E5
:10092000231AF7C8B2402244410182805C24230983
:100930000400054593C747005CA4EDB71C2D93F751
:10094000E70FCDEB1C3DDDE73029542509CA83456F
:10095000450317270020034717A063E7E50013F7B7
:10096000060151CB014709C6C18A0357851B81C6C1
:100970008356C51B369741C31307C712172500209E
:100980000355259EB335A70237460F0041111306C4
:100990000624814622C426C206C67D543305A7021A
:1009A000EFF0C1759727002083C7379BB384A7005A
:1009B00097270020938787BF03A7C70883270709C6
:1009C00063F387003E84184375FB972700209387C5
:1009D000E79B9C43829781476364A400B307A440CC
:1009E000B2402244B3B7970093C7170092443E85A4
:1009F0004101828081473E85828097260020938630
:100A0000E6BA83A7C6086386074203A5460979713B
:100A100037470F0006D622D426D24AD04ECE52CC2B
:100A200056CA5AC85EC662C4172300200353639394
:100A30000148FD58130EF7231306072403D7470870
:100A400083A507093307670272973357C7023387B5
:100A5000E540637517013E85BA8805489C43F9FF58
:100A6000630608009727002023ACA7BC03A446090F
:100A7000B7490F00938BF923172900201309099117
:100A8000972400209384048C930A0032130B204E89
:100A9000054A9389092483270900032C04098297B6
:100AA0009726002083D6E68B637C852B035744086A
:100AB0009727002083C7778A330CAC403307D702CF
:100AC0005E97335737033E97636087237E3CA30FBF
:100AD0000400228585077EBC83470414C5CBD52E30
:100AE0002285EF00014359E583574408172500206C
:100AF0000355258737470F00B387A7029306F723CF
:100B00001307072483290409230A0402B697B3D7DD
:100B1000E7020547B387F9402324F4088327C40874
:100B2000BE993C34232834096394E7060357E4074D
:100B3000363C63EFE6041428639CF6048327841193
:100B4000A1EB8327440AA9E774349D476392F60416
:100B50001E3CB387E7021307204EB387E702032743
:100B60004409B3D7E702171700200347077FBA9756
:100B70002312F408B250225492540259F249624AA4
:100B8000D24A424BB24B224C45618280652489BFD8
:100B90001E309DCB763C5A3037460F0056B0338717
:100BA000E640B387E7023A301306062481468145C2
:100BB000BA97C207C1833385A7023EB0EFF0015454
:100BC00001C5AA9923283409832709008297AA8995
:100BD000832709008297E30D35FF832709008329C6
:100BE000840882973385A94069C58327C408637246
:100BF000F50C37490F0013090924B3352503F22CEE
:100C0000814633052503EFF0614F3E301727002062
:100C10001307C78E14433E95B567BD07DCC60100B8
:100C200001001C432630096798C7130700F8972670
:100C300000202389E68A06059719002083D9697266
:100C4000E8D3338534033D673D0737460F00D8C7E7
:100C50001306062481468145EFF0414A19CDB3378A
:100C600025034E868146B305B9023305A902BE9518
:100C7000EFF0C1483385A4402AB0EF50B177EF6060
:100C80008104383485478145631CF70017550100FE
:100C90001305A5FEEF400011930700FD7CA4D9BD0C
:100CA000171501001305A56FEF40C00F930710FC47
:100CB000F5B73834854703A344036317F700954518
:100CC000E30A03EA154529A0E30603EA9545194519
:100CD0002254B25092540259F249624AD24A424BCB
:100CE000B24B224C4561028363540C047E3C850761
:100CF0007EBC8347041499E322852D2A2285EF00C8
:100D00004121832704090327C408BA972328F4083C
:100D10003C34639547012285EF40911C7C3C85451E
:100D200085077CBCDC58E38807D615458297A5B3B8
:100D30005E3C130700328E07B387D70293870719EB
:100D4000B3D7E702E3F887E3A1452285EF0041141A
:100D50002305A40203A344038945E31503F619BD43
:100D60005E3C330C85418E07B387D7029387071902
:100D7000B3D757036371FC0A8327090082977E3C2F
:100D80002A8C85077EBC8347041499E322855D2065
:100D90002285EF000118E31F05DC832704090327E0
:100DA000C408BA972328F4087C3C13F7070F39CB03
:100DB0002285EFF0504EA30F040083270409E37D42
:100DC000FCFA8356E4071E3C03274409B387D70285
:100DD000B3876703B3D7E702171700200347E75726
:100DE0000607BA972312F4083C34639047033E3C4D
:100DF000E3F3D7CA2285EF40B10EDC58E38D07C874
:100E00008D4525B785077CBC4DBFDC58E38507C8F9
:100E10008D45194521BFE34F0CD4A1452285EF0034
:100E200021072305A40203A34403E30503D491454A
:100E300051BD8280797126D206D622D44AD04ECEB8
:100E400052CC56CA5AC85EC683473503034475134D
:100E5000AA843E941374F40F9307400263F687004C
:100E60001304B4FD1374F40F03AA841383AAC413E8
:100E7000A38B841222865285D685EFF0A1220589A4
:100E800005E503CBD41201498149337B6403930BFD
:100E900050024A865285D685EFF0C120058915C5D6
:100EA000639169031374F90F238B8412B250225497
:100EB00092540259F249624AD24A424BB24B4561BE
:100EC00082808509E20993D989410509E31379FDF7
:100ED000E1BF83278509723D797193D60701BD8EE5
:100EE000C206C182358E1357764093575640898B80
:100EF000058B5D8F93573640918B5D8F93571640CE
:100F0000A18B5D8F93171600C18B5D8F93173600F1
:100F100093F707025D8F931756009355860093F75A
:100F200007041E065D8F1376F60F518F93D7554039
:100F300013D63540118A898BD18F13D67540D18F46
:100F400013D61540218AD18F13961500418AD18F6F
:100F50001396350013760602D18F1396550013763B
:100F600006049E05D18F93F5F50FCD8FA207454658
:100F70005D8F3307C70222D42A8426D252CC56CAA8
:100F8000032A8413832AC4135AC806D63697420705
:100F9000418393577740135557400989858BC98FF3
:100FA000135537401189C98F135517402189C98FAF
:100FB000131517004189C98F1315370013750502E2
:100FC000C98F1315570093558700137505041E0725
:100FD000C98F1377F70FD98F13D5354013D75540E5
:100FE0001189098B498F13D57540498F13D5154049
:100FF0002189498F139515004189498F1395350033
:1010000013750502498F13955500137505049E0548
:10101000498F93F5F50F4D8F2207D98FB387C702FC
:101020004AD04ECE5EC662C4B697C207C18313D7FC
:10103000774013D557400989058B498F13D5374021
:101040001189498F13D517402189498F13951700AE
:101050004189498F1395370013750502498F139500
:10106000570093D58700137505049E07498F93F7A2
:10107000F70FD98F13D5354013D755401189098BF8
:10108000498F13D57540498F13D515402189498F54
:10109000139515004189498F139535001375050285
:1010A000498F13955500137505049E05498F93F5D7
:1010B000F50F4D8F2207D98FB387C7021306500251
:1010C0005285D685B697BD8E93940601C18033F6BE
:1010D000C402137BF60FEFE0F17C05891DE983471D
:1010E000D41201498149B3849702130C5002C18084
:1010F0004A865285D685EFE0F17A0589937BF90F10
:1011000011C563863403850993F9F90F0509E311C5
:1011100089FF230B6413B250225492540259F249AE
:10112000624AD24A424BB24B224C456182805E8B6E
:10113000CDB78327C50803568508797193D6070173
:10114000BD8EC206C182358E1357764093575640E6
:10115000898B058B5D8F93573640918B5D8F9357AD
:101160001640A18B5D8F93171600C18B5D8F93176F
:10117000360093F707025D8F93175600935586004C
:1011800093F707041E065D8F1376F60F518F93D7E2
:10119000554013D63540118A898BD18F13D67540AF
:1011A000D18F13D61540218AD18F13961500418A0D
:1011B000D18F1396350013760602D18F1396550002
:1011C000137606049E05D18F93F5F50FCD8FA207F8
:1011D00045465D8F3307C70222D42A8426D252CCDB
:1011E00056CA032A8409832AC4095AC806D63697E0
:1011F0004207418393577740135557400989858BA0
:10120000C98F135537401189C98F1355174021894C
:10121000C98F131517004189C98F1315370013752E
:101220000502C98F131557009355870013750504E0
:101230001E07C98F1377F70FD98F13D5354013D7F2
:1012400055401189098B498F13D57540498F13D5A6
:1012500015402189498F139515004189498F1395B0
:10126000350013750502498F139555001375050454
:101270009E05498F93F5F50F4D8F2207D98FB387C0
:10128000C7024AD04ECE5EC662C4B697C207C183BB
:1012900013D7774013D557400989058B498F13D54C
:1012A00037401189498F13D517402189498F1395EC
:1012B00017004189498F1395370013750502498F2F
:1012C0001395570093D58700137505049E07498F22
:1012D00093F7F70FD98F13D5354013D755401189A0
:1012E000098B498F13D57540498F13D51540218936
:1012F000498F139515004189498F13953500137552
:101300000502498F13955500137505049E05498FF5
:1013100093F5F50F4D8F2207D98FB387C7021306B8
:1013200050025285D685B697BD8E93940601C18032
:1013300033F6C402137BF60FEFE0D15605891DE9A1
:101340008347140801498149B3849702130C500262
:10135000C1804A865285D685EFE0D1540589937BBA
:10136000F90F11C563863403850993F9F90F05094F
:10137000E31189FF230F6407B2502254925402599B
:10138000F249624AD24A424BB24B224C45618280BA
:101390005E8BCDB78327450903568508797193D6AF
:1013A0000701BD8EC206C182358E13577640935712
:1013B0005640898B058B5D8F93573640918B5D8F9F
:1013C00093571640A18B5D8F93171600C18B5D8FCD
:1013D0009317360093F707025D8F931756009355C6
:1013E000860093F707041E065D8F1376F60F518F64
:1013F00093D7554013D63540118A898BD18F13D698
:101400007540D18F13D61540218AD18F13961500C0
:10141000418AD18F1396350013760602D18F139629
:101420005500137606049E05D18F93F5F50FCD8FE9
:10143000A20745465D8F3307C70222D42A8426D2ED
:1014400052CC56CA032A840A832AC40A5AC806D62A
:101450003697420741839357774013555740098980
:10146000858BC98F135537401189C98F1355174084
:101470002189C98F131517004189C98F13153700AA
:1014800013750502C98F13155700935587001375FF
:1014900005041E07C98F1377F70FD98F13D5354071
:1014A00013D755401189098B498F13D57540498F42
:1014B00013D515402189498F139515004189498F0E
:1014C0001395350013750502498F13955500137553
:1014D00005049E05498F93F5F50F4D8F2207D98F8F
:1014E000B387C7024AD04ECE5EC662C4B697C20763
:1014F000C18313D7774013D557400989058B498F8E
:1015000013D537401189498F13D517402189498F49
:10151000139517004189498F1395370013750502FC
:10152000498F1395570093D58700137505049E07BF
:10153000498F93F7F70FD98F13D5354013D75540FF
:101540001189098B498F13D57540498F13D51540E3
:101550002189498F139515004189498F13953500CD
:1015600013750502498F13955500137505049E05E3
:10157000498F93F5F50F4D8F2207D98FB387C70297
:10158000130650025285D685B697BD8E93940601F8
:10159000C18033F6C402137BF60FEFE0B13005894A
:1015A0001DE98347F40801498149B3849702130C6C
:1015B0005002C1804A865285D685EFE0B12E05895A
:1015C000937BF90F11C563863403850993F9F90FED
:1015D0000509E31189FF230F6407B2502254925486
:1015E0000259F249624AD24A424BB24B224C4561FF
:1015F00082805E8BCDB7011197170020938707FB80
:1016000022CC03A4070B26CA06CE2AC42EC68544C4
:1016100019E40145F2406244D244056182809C8411
:101620001830858B6304F7000044DDB71946930535
:10163000A10013052400EFE03FD4E31795FE054514
:10164000D1BF97170020938767EB984301112AC6F3
:101650002EC432C206CE3C4B93E707083CCBEF507A
:101660006159971600209386E6E69C423245A245D2
:1016700023A007001831034825002207420842979B
:10168000034805004297034835006208429798D7FF
:101690005831034865002207420842970348450035
:1016A00042970348750062084297D8D71835034817
:1016B000A500220742084297034885004297034845
:1016C000B5006208429798DB58350348E5002207C9
:1016D000420842970348C5006835429762052A9739
:1016E000D8DB9831A821220742052A9788212A971A
:1016F000A83162052A9798CFD831E8212207420500
:101700002A97C8212A97E83162052A97D8CF9835B9
:10171000A825220742052A9788252A97A835620519
:101720002A9798D3D835E825220742052A97C82555
:10173000EC352A97E2052E97D8D3D843759BD8C3AA
:10174000D84313671700D8C398431367170098C38B
:10175000124698425C43858BADE71C4F01451CA2A5
:101760009C429C4FA1831CB29C429C4FC1833CA2D3
:101770009C429C4FE1833CB29C42D84F58A2D84F28
:10178000218358B2D84F418378A2D84F618378B271
:10179000985318A69853218318B69853418338A6B6
:1017A0009853618338B6D85358A6D853218358B676
:1017B000D853418378A6DC53E1837CB6F2400561BF
:1017C0008280010079B797170020938727D3984329
:1017D0001605136505083C4B93E707083CCB9717A4
:1017E0000020938727CF9C4303A7450E88C398CB3F
:1017F00003A7850E0145D8CB03A7C50B98CF03A738
:10180000050CD8CF03A7450C98D303A7850CD8D3D4
:1018100003A7C50C98D703A7050DD8D703A7450D77
:1018200098DB03A7850DD8DB03A7C50D98C703A7D1
:10183000050ED8C798431367070498C3828097178B
:1018400000209387A7CB98431605136505083C4BEA
:1018500093E707083CCB971700209387A7C79C43C3
:1018600003A7C50E88C398CB03A7050F0145D8CBA6
:1018700003A7C50B98CF03A7050CD8CF03A7450C2A
:1018800098D303A7850CD8D303A7C50C98D703A773
:10189000050DD8D703A7450D98DB03A7850DD8DB29
:1018A00003A7C50D98C703A7050ED8C798431367AC
:1018B000070498C3930700F8171700202305F7C201
:1018C000828017170020130727C11443411122C437
:1018D0009C5E06C626C29983858B3A84A5CB930766
:1018E00000069CDE9717002083C787BF93F7070485
:1018F000971400209384C4BE95C397170020938744
:10190000E7A89C4382979717002023A3A7BE9C209B
:1019100093F7F70B171700202304F7BCDC2093F78D
:1019200007048DE7854717170020A30DF7BA97170F
:1019300000209387A7BC9C43096798C7130700FC46
:10194000971600202380E6BAD844F8D318401C5FCD
:101950009183858B81CBC1471CDF8547971600207B
:101960002382F6B81C5F9D83858B89CB9307000883
:101970001CDF8547171700202306F7B697170020AE
:10198000938747B59C43D8430583058B19C7D84334
:10199000759BD8C3D843799BD8C3B24022449244A4
:1019A0004101828097170020938747B5944397178A
:1019B00000209387E7B29823058B11CB971700205F
:1019C000238207B297170020A38E07B08280983336
:1019D000058B6DF7F85265F3DC33EDB7171800206F
:1019E000130888AF032708001C5F9583858BBDE72C
:1019F00001C61C5BBD831CA29DC683270800985BA3
:101A00004607935767016356070093E707C0C2076D
:101A1000C18303970600C207C18709C7BA97094760
:101A2000B3C7E7029EA285C11C3191CF3E951C35FC
:101A30000547194593F6F7066393E602E207E18747
:101A4000394563CE07008327080001459C5FED837D
:101A50008D8B17170020A30AF7A882800545828086
:101A6000411122C406C617140020130424A91840EB
:101A70003DE5AE877453FDFE3E85B2859717002085
:101A8000238107A6EF409174971700209387C7A47E
:101A90009C43B70680009843558F98C3D857719BD5
:101AA000D8D797170020A38F07A297170020A389E4
:101AB00007A21C40094798C31440171700201307BA
:101AC00027A23C23858B81EB3C33858BD9C79717A5
:101AD0000020238907A0B2402244410182808D4723
:101AE0006310F502971700209387079F9C43B70662
:101AF00080009843558F98C3D857719BD8D76DBF36
:101B00008547E31BF5FAB567BD075CC70100010017
:101B10001C400967094698C7130700F8971600206C
:101B20002382E69C171700201307079B1443984253
:101B300031830D8B6319C7001307E043F8D33D676A
:101B40003D07D8C795BF984231830D8B01E7130736
:101B50006019EDB71307E01BD5B7FC52BDF3A5BF65
:101B60005D7152DC171A0020130A0A9703270A0036
:101B700086C6A2C4A6C2CAC04EDE1C439719002066
:101B80009389899C171900201309499793F7F7E760
:101B900093E707081CC383A609003707CEFF7D170C
:101BA0009C46130680022A84F98F9CC6832709006D
:101BB0002800AE8423A8070493051008EFE04FF631
:101BC000EF504103EF50211083270A009376F41F52
:101BD0003706330023A40700984B370FFCFF4E88CD
:101BE0001367F70398CBF84FCA88130510F81377DB
:101BF00007E0558FF8CF9843F576FD16758F98C39B
:101C000017170020A300078E83260900171700204E
:101C1000A308078C054798C29843D285B7020400F1
:101C20001377F7E798C398439303401F114913773D
:101C3000F7E71367071098C303A709007D1F8549BD
:101C40001C47930F8002D18F1CC793079005BCCA15
:101C5000014734001353370026938347030013765C
:101C60007700B3D7C740858BDDCF9C41832E08001A
:101C7000239C07042390070603AECE02137EDEFFEB
:101C800023A6CE0383AE0700137EF70793FE0EF85C
:101C900033EECE0123A0C70103AE4702336E5E00D0
:101CA00023A2C70383AE0800014E23A27E0603DAF7
:101CB000070663074E0303AE0703038A0600135E9D
:101CC000FE00620E135E8E416358CA0103AE070325
:101CD000135EFE002380C60103DE0706137EFE0F9F
:101CE00003AA4E0663060A0003DA8705E37F49FB71
:101CF00003AE4702337EEE0123A2C70383870600AB
:101D0000635CF400034E03003396C9001346F6FFEC
:101D10003376C6012300C3003E8663D3A7002A861C
:101D200013158601618505071377F70F8506E31301
:101D3000F7F3B640264496440649F259625A616167
:101D40008280970600209386667B9C42D8471316B4
:101D500017016355060298471316170163500602D0
:101D60007D57B8D71707002013078758584F050726
:101D700017060020232CE658116798C798470D8353
:101D8000058B1DC3170700200347A77513671700AE
:101D9000170600202307E674130700F81706002033
:101DA0002302E674214798C79847058B09CF170788
:101DB00000200347F7721367170017060020A301DE
:101DC000E672054798C798470983058B09E7984746
:101DD0000583058B21CF9847170600201306467010
:101DE000170500201305456F0983058B6301071054
:101DF0001841184331830D8B65EBAC4B184E93F5AE
:101E000005021833C5CD71EF1307D005D8CF1822BE
:101E100013671700170600202304E66C114798C7C4
:101E200018415C57F19B93E717005CD79C42984799
:101E30009316370163D606029706002083C6067EF6
:101E4000C18A1707002013076776DDCA0347070713
:101E500013670702970600202382E67C056798C770
:101E600098479316270163D10602170700200347FE
:101E70006767620761876357070005479706002079
:101E80002382E666096798C798479316070163D6C9
:101E900006029706002083C67678858A17070020F9
:101EA0001307C770A5CE03471707136727009706C8
:101EB0000020A385E676216798C7828031D78545C3
:101EC0006315B7001307100691B789456315B7006E
:101ED0001307500625BF8D456315B70013079006FD
:101EE00035B71307B0061DB71307C00605B738325C
:101EF0001367170017060020A305E65E094705B71C
:101F0000834607070946BD8A6388C600034707075B
:101F10008D463D8BE314D7F411472DBF8346170739
:101F2000918AD1DA034717071367870049B7170764
:101F300000201307E75C343F9707002083C7175F33
:101F4000B69793F7F70FFD4663EAF6044C4B9706F6
:101F50000020A387F65A9707002083C7775A0547C2
:101F60003317F70097060020A382F65C6D8F1DEFF4
:101F70009706002083C6D65BB3F6D702130500028E
:101F8000814733D6F500058A13F8F70F09CE639918
:101F9000E60097070020A3850757828081177DB749
:101FA00005071377F70F8507E39DA7FC8280970746
:101FB00000209387A73D9C43411122C44AC006C616
:101FC00026C282979707002093878755804701494B
:101FD0006301A404018DBE841354550097070020AB
:101FE00083C7A7531379F5016362F40289379444D8
:101FF000170700200347675293175700BE96198CA6
:102000009707002023A2D752E372E4FE1604336937
:102010002401B24022444A8592440249410182800F
:1020200097070020938787369C43411122C406C638
:1020300026C28297970700209387874E80476307C1
:10204000A404018DBE84135455009707002083C754
:10205000C74C636DF402E13D98449707002083C7A5
:10206000C74B9396570036971D8C9706002023ADDB
:10207000E64AE372F4FE2244B2409244170500207F
:1020800003451548814541016F508104B240224407
:10209000924441018280970700209387E74A984342
:1020A000B75702009387079F8326070913965600A8
:1020B00063580600832607091396660063440600EA
:1020C000FD17FDF3828069C1AA870145E1C18D0733
:1020D000C207C183F19BC207C18313074003636F2B
:1020E000F702170700201307E74B084317070020E4
:1020F0001307C74A14436398A60217070020130763
:102100006724585B014559C34111C20706C60545FE
:10211000DD8D0297B2400145410182801707002002
:1021200013070748D9B77A2131EF5A21636CF704B6
:10213000B306F7402146637AD6020328050093864A
:1021400087001D8FAA966117170600200356A61A4E
:10215000DAA223A006012393060014C15EA113078F
:1021600086FF970600202398E6186EA197050020A9
:1021700083D56518B387F54017070020231DF71690
:1021800021058280084185BF0145828082800DC182
:10219000970700209387074103A3070097070020B4
:1021A0009387C73F83A8070081469A8763E3170197
:1021B000828003A807006362F50A6360A80A138798
:1021C0008700E367E5FEF223216705076317E60052
:1021D00003C7819405072384E19497050020938524
:1021E0002511D223FA212393070032974207418316
:1021F000170500202311E5106387670217050020EB
:102200001305053A08416300F502EA2209EDDE22D2
:1022100023A0060121073E962106D2A2970700209F
:10222000239BE70CB6879843E30417F99706002031
:10223000938606379442E30DD7F67623B5FAD62374
:1022400052231843A106B296D6A398C3FE21A10734
:10225000170700202311F70A8280BE86C287B9B70C
:10226000970700209387073497060020938606334C
:102270009C4390422A87B305B5406314F6003A8523
:1022800029A8938687009C43E369D7FEE377F7FE8E
:102290002E85E3E4D5FEE3F2F5FE82800111970777
:1022A00000209387A73022CC03A4870B26CA4AC8F4
:1022B0004EC606CEAA8413092500854905C09C3068
:1022C0003830858B6304F700405CCDBF1946930519
:1022D00044004A85EFE04F8AE31835FF2285F2403B
:1022E0006244D2444249B249056182804111970754
:1022F00000209387A72B22C403A4870B26C24AC0C1
:1023000006C693042500054901E82285B24022440F
:102310009244024941018280A6851305A402EFD0B0
:10232000F113E30425FF405CC5B741119707002076
:102330009387C72722C403A4870B26C24AC006C6B8
:1023400093042500054901E82285B24022449244C5
:10235000024941018280A6851305A401EFD0111026
:08236000E30425FF405CC5B752
:1023680001A001A001A001A001A001A001A001A05D
:1023780001A001A001A001A001A001A001A001A04D
:1023880001A001A001A001A001A001A001A001A03D
:1023980001A001A001A001A001A001A001A001A02D
:1023A80001A001A001A001A001A001A001A001A01D
:1023B80001A001A001A001A001A001A001A001A00D
:1023C80001A001A001A001A001A001A001A001A0FD
:1023D80001A001A001A001A001A097F1FF1F938116
:1023E800E18817E10020130161C1170502001305F8
:1023F800A5F397E5FF1F938565C01386018863FAE7
:10240800C5008322050023A0550011059105E3EAC4
:10241800C5FE13850188970500209385A52A637753
:10242800B500232005001105E36DB5FEFD4273904C
:1024380002BC8D42739042809302800873A00230E0
:1024480097E2FFFF938202BF93E23200739052300B
:10245800EF204012972200009382E20E739012340C
:1024680073002030EFE22105B7270140938707402A
:10247800631CF5008545130500201D2B81451305B8
:1024880000203D236FE06105B7370140938707803F
:10249800E31AF5FE854513050040192B8145130500
:1024A8000040C5B75C413707F1E01307F7EF944DDB
:1024B8007D8F9C41D58FD44DD58FD441A206D58F21
:1024C800D98F5CC11C4537F7F1FF1307D77FD44577
:1024D8007D8F9C49D58F94458606D58FD98F1CC58D
:1024E8005C55370710FF7D177D8FDC29FD1793F7A3
:1024F800F70FD207D98F5CD582801C4589C593E731
:1025080017001CC58280F99BEDBF1C4591C5370794
:102518005000D98F1CC582803707B0FF7D17F98F0F
:10252800D5BFA54763F7B7048D47138765FF330702
:10253800F7020328C5009D47B397E70093C7F7FF45
:10254800B3F70701B396E600DD8E54C5994763E3F8
:10255800C70495477D163306F6025859FD47B397C9
:10256800C70093C7F7FFF98F3396C5005D8E50D922
:1025780082800D473387E502032805019D47B397FD
:10258800E70093C7F7FFB3F70701B396E600DD8EC0
:1025980014C96DBFB14763E2C70295476516330694
:1025A800F6021859FD47B397C70093C7F7FFF98F8D
:1025B8003396C5005D8E10D9828095474D16330637
:1025C800F6025855FD47B397C70093C7F7FFF98F31
:1025D800B395C500DD8D4CD58280684542054181A3
:1025E8008280B727014093870740984711C5B706EF
:1025F8008000558F98C78280B70680FFFD16758FBB
:10260800D5BF08416D8D3335A00082805C4191C5EE
:1026180037070004D98F5CC18280370700FC7D171B
:10262800F98FD5BFB707014023AAA7408280372773
:1026380002401C4B93E707081CCB8280B70667450E
:10264800B7270240938636123797EFCDD4C31307C6
:10265800B79AD8C3D4D3D8D38280EFD2D165C13F3B
:102668006FD0B167B7270240984BB70602001375C1
:1026780005F0558F98CBC8CB984B1367070498CBB8
:10268800D847058B75FF984B8176FD16758F98CBCB
:102698008280372702401C4BC166137505F0D58F21
:1026A8001CCB5C47858BF5FF372702405C47898B3D
:1026B800F5FF3727024013060010B386F50003A87C
:1026C8000600B306F50023A006015447898AF5FEE3
:1026D8009107E394C7FE1C4BB7062000D58F1CCB8F
:1026E800B7270240D847058B75FF984BC176FD1672
:1026F800758F98CB828037F7FF1F8327877E93D605
:1027080087001CA114B193D60701E18334A13CB121
:102718008327C77E5CA1A1835CB182809C4513F7A7
:10272800070113F8F70001C7D8413368E8008E2184
:1027380013F7F50F39C318418146854E3D4F930F66
:10274800800293028004214E3396DE00B3F8C50060
:10275800631116039398260033131F011343F3FFE5
:102768003377E300B318180133E7E800639FF705F0
:1027780050C98506E39AC6FD18C11307F00F6375A3
:10278800B70454412146854E3D4F930F8002930272
:102798008004414EB398CE0033F715016392E802E6
:1027A8001317260001173313EF001343F3FFB37613
:1027B800D3003317E800D98E639DF701232A15014A
:1027C8000506E319C6FD54C18280E39457FA10C97F
:1027D8004DB7E39757FE23281501DDB70CC9828052
:1027E8004CC98280377700401C4309C593E707101E
:1027F8001CC3828093F7F7EFE5BFB7160240DC42AF
:1028080051777D17F98F5D8DC8C28280B717024056
:10281800238007022380070205476306E500114766
:102828006306E50082802380A70282801547238003
:10283800E7028280371702405C5309C593E7170007
:102848005CD38280F99BEDBF371702401C535D8D26
:1028580008D3828001C9371702401C53A166D58F5F
:102868001CD38280B71602409C5261777D17F98F7E
:102878009CD28280371702405C439146B18B6387B4
:10288800D706A1466389D706B7177A00938707202A
:102898001CC1371602405C423707002013070700A7
:1028A8009183BD8BBA9794231C41B3D7D7005CC1E1
:1028B8005442A1829D8ABA969422B3D6D70014C5F1
:1028C8005442AD829D8A36971823B3D7E7005CC57A
:1028D8005842398393763700370700201307074794
:1028E80036971823B3D7E7021CC98280B757E80187
:1028F8009387078071BF5C435843C166C983BD8B0A
:10290800758F8907C5466393D700C94701EF3747D5
:10291800024003270780418B15CB37177A0013072E
:10292800072029A8B7160240D8423706C000718F81
:102938006319C7003727F40013070740B387E70276
:1029480081BFD8429316E700E3D906FC37173D004C
:1029580013070790E5B799C5371702405C4B5D8DA3
:1029680048CB8280B7170240D84B1345F5FF798DC5
:10297800C8CB828099C5371702401C4F5D8D08CFA0
:102988008280B7170240984F1345F5FF798D88CF9D
:10299800828099C5371702405C4F5D8D48CF828091
:1029A800B7170240D84F1345F5FF798DC8CF8280FD
:1029B80099C5371702405C475D8D48C78280B717B5
:1029C8000240D8471345F5FF798DC8C78280B737CD
:1029D800004003D74780136707012392E78082806E
:1029E8003737004083574780C207C183BD9BC20762
:1029F800C1832312F7808280B736004083D786814F
:102A080003D5C68103D78681C2071316050142077D
:102A1800C18341834182938606806386E700CA2E7C
:102A28004207598D828013950701518D8280EFD21C
:102A3800912841112AC6613F3245B73700401357E4
:102A480005014205239CE7804181239EA780493FD9
:102A580041016FD09128EFD2112641112AC6853F36
:102A68003245B7370040135705013D8B4205239483
:102A7800E78041812396A780A53741016FD0F125D2
:102A8800373700408357478093F70702E5DF828096
:102A9800B737004003D747801345F5FF798D239258
:102AA800A7808280EFD23121E5376FD01123EFD292
:102AB800911D03A44183916A3799E4FFB7791B00FC
:102AC80037CA0D00138B0AE81309098C9389097416
:102AD800130A0ABA334B6403B727024003C79704A3
:102AE8004111AA841377070FA384E70403C7970447
:102AF800114DB72C02401377F70FA384E704916DAB
:102B0800E17BFD1A094C33492403B3493403334AA2
:102B1800440303C7FC0413672700A387EC0403D707
:102B2800CC043367B7012396EC0403D7CC0433678E
:102B38007701420741832396EC0403D7CC0442076C
:102B48004187E35C07FE03D7CC0403C7FC04137773
:102B5800D70FA387EC0403C7FC0413672700A387D8
:102B6800EC0403D7CC043367B7012396EC0403D7EE
:102B7800CC0433677701420741832396EC04AD3DCB
:102B8800AA873EC6953DB247E30DF5FE83D7CC0430
:102B9800B3E7B7012396FC0483D7CC04C207C187E7
:102BA800E3CC07FE03D7CC0442074187E35C07FE6A
:102BB80003D7CC0483C7EC0433F7EA00B387FA02DF
:102BC8003E97330767416354E900634A37037D1D25
:102BD800137DFD0F63050D0293171700B3C7470355
:102BE800635DE000850783D66C03B3C78703B69798
:102BF800C207C183239BFC0229BFFD17EDB7B72786
:102C0800024003C79704A1661377070FA384E7045C
:102C180003C7970413672700A384E70403C7F704CF
:102C28001377D70FA387E70403C7F70413672700B1
:102C3800A387E70403D7C704558F2396E70403D770
:102C4800C7049166558F2396E704B726024003D739
:102C5800C6049387C60242074187E35A07FE03D793
:102C6800C60403C7F6041377D70FA387E60403C780
:102C7800F60413672700A387E60403D7C604A166F2
:102C8800558F9AB39A339166558F9AB3B5332A897B
:102C9800A533E30F25FFB727024003D7C704916682
:102CA800558F2396E704372702408357C704C20786
:102CB800C187E3CC07FEB726024003D7C604420704
:102CC8004187E35C07FE03D7C60483C6E604374999
:102CD8000F009167FD1713090924334924037D8FD9
:102CE8002566130606CAB387D7023E979307803E28
:102CF8003344F402B306F9029307800C158F930648
:102D0800C02EB306D402B3C6C602B307F702B3C7D0
:102D1800D7026357E01685070947B3C7E702372785
:102D28000240763B9607B697C207C1837EBB8347AE
:102D38009704A16693F7070FA304F7048347970442
:102D4800C58F93F7F70FA304F7048347F70493F7A6
:102D5800D70FA307F7048347F70493E72700A307D0
:102D6800F7048357C704D58F2316F7048357C7047E
:102D78009166D58F2316F704B726024003D7C604F9
:102D88009387C60242074187E35A07FE03D7C60462
:102D980003C7F6041377D70FA387E60403C7F6041F
:102DA80013672700A387E60403D7C604A166558FD7
:102DB8009AB39A339166558F9AB33D39AA892D39BA
:102DC800E30F35FFB727024003D7C7049166558F35
:102DD8002396E704372702408357C704C207C187F1
:102DE800E3CC07FEB726024003D7C6044207418753
:102DF800E35C07FE03C7F6049167FD171377D70F47
:102E0800A387E60403D7C60483C6E6047D8FB38789
:102E1800D7023E978967938707F4B397970033895A
:102E28002703930700103349F9029307800C0E0912
:102E3800330927410547B31497001147B3C4E40287
:102E48002567130707CA338484029304C02E33040A
:102E580094023344E402B307F902B3C78702635309
:102E6800200385070947B3C7E70237270240763BA7
:102E78009607B697C207C1837EBB41016FD06164D4
:102E8800FD1759BDFD17F9BF1E213737014013073C
:102E980007C0C207C1836304E50237070040630027
:102EA800E50213070740630CE50037170040930657
:102EB80007806306D500130707C06316E500BA212B
:102EC80093F7F7F8D98FFA2193F7F7CFC207C183A1
:102ED800D98F1EA1DE215EB59E211EB5B7370140F0
:102EE800938707C06314F5009C251EB985475EA922
:102EF80082801E31922103D82500C207C183F99B25
:102F0800C207C1831EB11E3156211A2DC207C183C3
:102F1800420741831377C7F8518F9225F59BC20664
:102F280033660601D18F37360140130606C0C182C9
:102F38006310C502B225DD9B03D8E500D18FD221ED
:102F4800ED9B93F6F6CFD18FD22533660601D18E4D
:102F580056A11AADFA215AB91EB182801E31657781
:102F68001307F7CFC207C183BD9BC207C1831EB138
:102F78001E31562103D88500C20713960601162D67
:102F8800C18393F7F7FD758F96214182A206558F6D
:102F9800B62142074183B3E606019206D58FB736BC
:102FA8000140C207938606C0C183631ED502B625B9
:102FB80093F7F7F703D8C5009206D58FD621C20735
:102FC800C183920693F7F7FBD58FFD769386F63F7C
:102FD800F18EF225C207C183336606010A06D18E37
:102FE80013960601418252A11AADFA211ABD1EB1EB
:102FF80082801E2189C593E717001EA18280C2071F
:10300800C183F99BC207C183CDBF8357450491C5CE
:103018002167D98F2312F5048280C607C583DDBFD7
:103028001E2189C593E707081EA18280C207C183B4
:1030380093F7F7F7C207C183C5BF1E2DC207C18327
:10304800DD9BDD8D0EAD82801A2DFD779387F77F8E
:10305800F98FA205CD8FC207C1831EAD82801E31B4
:10306800C207C183F59BDD8D0EB182801E319205AA
:10307800C207C18393F7F7FDCD8FC207C1831EB185
:1030880082804EB982800EBD8280EFD2C14216295D
:10309800F577FD17F58FF621DA257971D58F1EA9F9
:1030A8005625FD779387379FF58FD6212A842EC61C
:1030B800D58F9625D58FB625D58F5EA55E29C207F3
:1030C800C18393F7F7CFD98F5EA96808EFF08FFA1D
:1030D800B747014093870780B245631AF404A257A3
:1030E80056246547B387E702C206C186984163D272
:1030F8000604060752244206B3D7E7021307400620
:103108004186B3D6E702B3F7E70292066355060293
:103118008E0793872703B3D7E70213F77700B367C0
:10312800D700C207C1831EA445616FD0013B9257E7
:1031380045BF0A07C1B7920793872703B3D7E702AA
:10314800BD8BD58FF9BF91C55E250967D98F5EA55F
:1031580082805A25F977FD17F98FD5BF93F5F51FAA
:103168004EA182800A216D8D3335A000828083A70D
:10317800418337177A0013070720B3D7E70293F77D
:10318800F70F2381F1881307803EB387E702239066
:10319800F1888280B7F700E0D8438146799BD8C38D
:1031A80003C721883306A70290CBD4CB9843136773
:1031B800070198C398431367170298C3D843058B30
:1031C80075DF9843799B98C38280EFD2C12E011195
:1031D8002A84854537050200EFF0AFFB8545114588
:1031E800EFF04FF991477C82371501408D473EC477
:1031F8004C00E147130505803EC6EFF02FD222C8E8
:1032080037440040B70708000C08130504403ECCBB
:1032180002CA231E0100953D854513050440253744
:1032280005616FD0812BEFD26127B7440040AE898A
:103238003289014493840440634524014A856FD050
:103248002129930500042685313F65DDB387890070
:103258008385070026850504C205C1810137E9BFBA
:10326800138741801C43B72600209386866C3E95C1
:10327800636BD500B70601209386060063E5A600B8
:1032880008C33E858280FD57EDBFEFD2C122CC41F5
:10329800328590318C2122064D8E42068D654186FD
:1032A800138875A26304060F6347C804138845A2F0
:1032B8006300060B634AC800938535A26307B60608
:1032C80023900600294651A0138855A26301060BD6
:1032D800938565A2E316B6FEC1451D4663E7E5067C
:1032E8004546198E63F3C7003E86B725020092A2B1
:1032F80093858588B9A0138895A26307060D634650
:10330800060B1388A5A26300060F938505A5E3198C
:10331800B6FA99451D4663EAE502198E63F3C700BC
:103328003E8692A29385018129A89D451D4663EE9C
:10333800E5002146198E63F3C7003E8692A2938565
:103348004188BA95EFC01FFA014632856FD0E1185F
:10335800AD451D46E3EBE5FE3146198E63F3C70024
:103368003E86B725020092A29385458CD9BFB14508
:103378001D46E3ECE5FC3546198E63F3C7003E862F
:10338800B725020092A29385458D65BFC1451D46AC
:10339800E3EDE5FA4546198E63F3C7003E86B72587
:1033A800020092A29385C58969BFC1451D46E3EE17
:1033B800E5F84546198E63F3C7003E86B725020037
:1033C80092A29385458EB5BFC1451D46E3EFE5F64C
:1033D8004546198E63F3C7003E86B725020092A2C0
:1033E8009385058BB9BFB5451D46E3E0E5F639463B
:1033F800198E63F3C7003E86B725020092A2938513
:10340800858781B7EFD2210BB7060020370500204A
:10341800938606144146CD4513050501EF705055B6
:103428006FD0A10B03C88500214513780801631CE0
:1034380008062D452DEB882109476312E506C8418A
:10344800183108212207498F7D074207418311451A
:103458006363E504EFD2210632853726020013069E
:10346800868F0A0732971843CC453E860287514714
:103478006373F700514692A242064182EFC09FE66D
:1034880001456FD08105E5DB0546F5B71547E374BF
:10349800F7FE1546CDB72390060029458280239074
:1034A80006000545828082809C2593F70702CDE3BC
:1034B800EFD2610003C9050009432E888547631BC5
:1034C800690203A345003284B6848347130003438B
:1034D8000300A207B3E767004163130E13FE638E70
:1034E800C7010D13638467040D6813082890638C63
:1034F8000705A9473E856FC0517EAD4765FF514717
:10350800B547E369D7FE0325C8005146A285EFC039
:103518007FDD014903A7C189814769DF184379DB4A
:103528002686A2854A8502978147E9B7AD4779F390
:103538005147B547E360D7FC0325C8005146A2852B
:10354800EFC05FDAC1BF8547EF602034AA875DB757
:10355800A1473E858280416779176307E502EFC27C
:10356800917585472A846399F5009385419E228544
:10357800EF70104A6FC071768947E39DF5FE854567
:10358800EF90F0337DD1FDB78280EFC2D1722A84EB
:1035980041659385419E7D15EF7090473735000052
:1035A8001305E555EF90D0290588014509CCB706E4
:1035B8000020370500209386C6254146C5451305DA
:1035C800C514EF70F03A6FC0517109C523AEA188D8
:1035D80001458280454582801147636AA706EFC28C
:1035E800916D372702001307C7900A053A951841CD
:1035F800AE87B2850287514761456398E700514617
:103608001385C19BEFC01FCE01456FC0116D0547E3
:103618006145E39CE7FE05461385C188E5B7514738
:103628006145E394E7FE51461385019DE1BF0547D7
:103638006145E39CE7FC054613850189E1B7154719
:103648006145E394E7FC15461385418965BF094543
:103658008280EFC251662E849385419EAA84EF60D2
:10366800E01D058909CDB707002083D767200146EB
:10367800A2851EA02685EF60105F6FC011664945C0
:10368800EDBFEFC2516341118545114502C202C425
:1036980002C6EFF02FAE93070004371401407C8276
:1036A8008D473EC44C00C147130504803EC6EFF069
:1036B800EF869305000413050480EFF06F92410133
:1036C8006FC0B161EFC2315F854793050004631A8B
:1036D800F5003715014013050580EFF02F906FC0F6
:1036E800D15F3715014013050580EFF06F8FC5BF17
:1036F800EFC2715C0D45EFF08FBB6FC0115EEFC27A
:10370800915BB28713962500AA853E85EFC09FBDC1
:1037180001456FC0915CEFC2115A41112A8432C62B
:10372800EFE0DFF12285EFE0FFF332462285B28534
:10373800EFE03FF6EFE07FF20545A93C0145410186
:103748006FC0B159EFC2B15401111306000281458F
:103758000A85EFC071643724014013040440B71789
:10376800024085451305002083AB870103AC470061
:10377800032B4400832A8400032AC40283294403B8
:103788000329C400EFF00F9F3165EFF00F87228502
:10379800EFE05FCDB7070E003EC68A8585472285D4
:1037A800230AF10002C002C202C402C8EFE09FCFA0
:1037B80085452285EFE07FD485452285EFE01FE52A
:1037C8000545EFE01FE29D460546C1452285EFE02D
:1037D8005FD585452285EFE05FD3B7240140894551
:1037E8002285EFE01FE265DD13850440EFE0FFDE90
:1037F8002A8413850440EFE0FFC6B717024023ACC4
:10380800770123A2870123A2644123A4544123A65C
:10381800444323AA344323A62441228505616FC06B
:10382800914AEFC2514993970501C1872E8463DB02
:103838000700EFC09F9619C1EF0050632165218DE5
:103848006FC0B14993F7150013C51500F5FB9397A1
:10385800250163D00702EF306171593D03C5018A24
:1038680037F60200130606E08965EF1000220965A5
:10387800F9B79397150163D107023725020013059D
:103888000592EFC0316D03C5018A13060064916586
:10389800EF10A01F116565B793F745000145CDD31B
:1038A80015351345440069BFEFC2F140B725020042
:1038B800372502005D715546938545921305C5E588
:1038C800EFC01FAB01E9372502001305C593EFC010
:1038D800716801A0B7270240D857B7060090FD16B7
:1038E800758FD8D7D857B706003013060004558F00
:1038F800D8D7D857B70600038145558FD8D70808B9
:10390800EFC09FA1B7070020938747663EC8896725
:10391800938707C0FC82B7870708938707C03ECC08
:1039280093073050FC87ED472310F10285472301A8
:10393800F102B737000093876770BEC4B73700003D
:103948009387E771BEC69167938707E82317F1024B
:103958009307803E2318F1028567938797D0231237
:10396800F102B73700009387C7743EDEB73700000F
:103978009387876F2800BEC0EFE0FFD718088147FC
:10398800994630003E9610228507050770BBE39ADA
:10399800D7FEC24789C7B88285676373F70001A05D
:1039A8000808EF10A056AA8501C93725020013059B
:1039B8000595EFC0F14801A0854513050004EFE027
:1039C8009FF9B7E700E03707008023A2E710054713
:1039D80023A4E71061616FC05130EFC2D12D374584
:1039E80000001305A582EF10A04E1384018A08A0D9
:1039F8001526DD2889217131552C082037F602005B
:103A0800130606E08965EF1040086FC0112D0947BD
:103A18002392E18A8280EFC2112AAA84056579710E
:103A28002E84130545808545328902CA02CC02CE10
:103A380002D002D202D402D602C402C62318010060
:103A4800EFE05FF393070030FC82371501408D47A4
:103A58003ECC4C08E147130505803ECEEFE01FCC75
:103A68006084373401402C00130504C06486231792
:103A7800010023150100C164EFF00FC1938404060F
:103A88000C10130504C02313210326D023140102AC
:103A980023160102EFF0EFC50C10130504C0231321
:103AA800210326D02314010223160102EFF00FCBC5
:103AB800130504C08145EFF04FD5130504C08145B7
:103AC800EFF0AFD7130504C08145EFF0EFD713052A
:103AD80004C08545EFF0CFD48545130504C0EFF049
:103AE8004FD145616FC0711FEFC2F11C411185456F
:103AF800114502C202C402C6EFE0DFE7856793877B
:103B08000740371401407C828D473EC44C00C147B2
:103B1800130504803EC6EFE07FC085651305048069
:103B280093850540EFE0DFCB83A54183B7272600C7
:103B38009387075AB3D5F502014613054006FD15CC
:103B4800C205C181C93DE135372502001305059736
:103B5800EFC0514041016FC05118EFC2D115373540
:103B680001408145130505C0EFF02FCA856537155B
:103B780001409385054013050580EFE07FC609479E
:103B88002392E18A6FC071159307400663EFB7105F
:103B9800EFC2D1102E862E842A89AA8537250200E5
:103BA80013054598EFC0D1299384418A9C20631F4F
:103BB8000908A9E39C30638D8702373901408145A4
:103BC800130509C093190401EFF02FC493D9090113
:103BD800CE85130509C0EFF0CFCACE85130509C0FD
:103BE800EFF06FCA8545130509C0EFF00FC280B02A
:103BF8006FC0110E9319040137390140B93F93D9A9
:103C08000901CE85130509C0EFF0AFC7CE851305AE
:103C180009C0EFF04FC78145130509C0EFF02FC465
:103C28008145130509C0EFF06FC48545130509C028
:103C3800EFF0AFBD85653715014093850540130545
:103C48000580EFE0FFB92380040055B78549E38379
:103C580037F7131A0401373901400137135A0A019B
:103C6800D285130509C0EFF0CFC1D285130509C06D
:103C7800EFF06FC18945130509C0EFF04FBE8945C4
:103C8800130509C0EFF08FBE8545130509C0EFF095
:103C9800CFB7856537150140938505401305058025
:103CA800EFE0DFB32380340199B78280EFC2B1001F
:103CB80041118545414502C202C402C6EFE09FCBCF
:103CC8009D477C828D473EC44C00C1473715014053
:103CD8003EC6EFE0BFA4854537150140EFE05FB071
:103CE800994537150140EFE07FAF41016FC0E17E94
:103CF800EFC2617C85476399F500AA8537150140B5
:103D0800EFE01FAE6FC0617DAA8537150140EFE077
:103D1800FFACCDBFEFC2217A854537050018EFE02B
:103D28005FC70545EFE01FAC0545EFE0BFB00145B3
:103D3800EFE0DFAD13050020EFE01FB10545EFE030
:103D48007FB1EFE0FFD3EFE0BFD30545EFE0BFD091
:103D5800EFE01FD30145EFE09FCDEFE07FD2EFF01A
:103D68003F9937350000130505A0EF10004B6FC0D1
:103D7800C176EFC09F9505473705020023A4E18A65
:103D8800EFE05F8A0945EFE0FFD1EFE07FCF7300F6
:103D98002030EFC2417239712E84AA8485450545C9
:103DA80032C602D202D402D602D802DA02DC02DE1D
:103DB80002CC02CE23100102EFE0BFBD85451145BC
:103DC800EFE05FBB85472312F102371501408D47AD
:103DD8003ED44C10E147130505803ED6EFE01F9412
:103DE8002C0837050040E486E084231F0100231DCA
:103DF8000100EFF06F893246C167938707060C18F8
:103E080037050040231BC1023ED8231C0102EFF0F6
:103E18004F8E814537050040EFF02FA285453705C5
:103E28000040EFF0EF9F854537050040EFF06F9CAD
:103E380021616FC0816AEFC2016883A54183E16790
:103E48009387076AB3D5F50201461305007DFD1572
:103E5800C205C1813D3F372502001305459CEFC0CF
:103E6800710F6FC08167EFC2016585479305C00870
:103E78006303F500814537050040EFF08FA06FC060
:103E8800C1659307400663EAB704EFC2C1620DED4E
:103E98001304C003338485029307C0F93344F40242
:103EA8001304C408420441802E86AA8537250200DF
:103EB800A2861305C599EFC0A178A28537050040F1
:103EC800EFF02F9C6FC06161130480023384850278
:103ED8003344F4021304C408C1BF82807300203045
:103EE80001A0EFD09F9D73002030EFD01FE5730035
:103EF8002030EFC2415C2A8637250200B305B04066
:103F0800130545A9EFC0C1736FC0215D3C21143171
:103F18002A87A207B697C207C1836398B7041021FE
:103F28009306500505456313D604B306F70003C688
:103F3800F6FF9306A00A631BD602F917C207C183CE
:103F480001468146050693150601C18163E8F5001F
:103F5800BA978823158D3335A0008280B305C70032
:103F6800882136959376F50FF1BF05458280EFC21B
:103F7800815401112E84B28401C989472A896305B5
:103F8800F50805616FC061556800EFC0AFB537250A
:103F98000200130545B6EFC0E17BA147E3F397FEA6
:103FA800A6852285A53771FD3C30054793F7F707AD
:103FB800E399E7FC642013840182639BF4023725AC
:103FC8000200130505B8EFC0E17804A0EFF0FFB8D0
:103FD8000145513D81451145213B0545EFF08FEEE7
:103FE80003C5018A130600329145EF00102A51BF1C
:103FF80037250200130505B9EFC0C1750545230033
:10400800040095358545C1BF6800EFC0AFAD3725C1
:104018000200130505BAEFC0E173A147E3F397F671
:10402800A6852285E53531FD3C3093F7F707E39AFD
:1040380027F583C70182E39607F4682060309375FB
:10404800F5071D813D3D9375F40713557400EFF096
:10405800BFB305BFEFC221469387C18B9A23631F65
:10406800A70037250200AEA3D2A3130545A72E86C5
:10407800BA85F6A3EFC0C15C6FC0214637250200A0
:104088001305C5A8EFC0016DC5BFEFC2C142938734
:10409800C18B56219A234111639BE60413848182C4
:1040A80008204167791798C323A207008945EF00C4
:1040B800503D082091450544EF00B03C23808182A3
:1040C800EFF0BFA90145453381450945EFF05FC2CF
:1040D80081451145EFF0DFC11306F1008545130551
:1040E8005030C087EF80A11341016FC0013F3725D1
:1040F80002001305C5A8EFC0E165FDB73D897D1530
:10410800954763E6A710EFC2013BB72702009387E4
:10411800879D0A053E951C412E848287372502001B
:104128001305C5AAEFC0016335A0BC2119476390E8
:10413800E7022E85993F6C20372502001305C5AB91
:10414800EFC0015037250200130585ADE1BF0D47CB
:10415800E38AE7FE6FC06138B8219547E31CF7FE94
:104168009387C18B962341677917AA25638FE60049
:10417800EF80E13437250200130585AEEFC0815D7D
:1041880037250200130505B171BFFA258AA3094531
:10419800BAA39A29DAA3BA298545FAA3EFF05FB53D
:1041A80072242E24372502001305C5AFEFC04149FC
:1041B800C1BFB8218D47E31FF7F837250200130563
:1041C800C5B18DB7AC2191476397F500372502003B
:1041D800130545B381BF9947639CF5002285753562
:1041E8006C20372502001305C5ABEFC061459DB7AC
:1041F80095476399F5001C30F1FB3725020013053C
:1042080005B50DB737250200130585B5F9BF8280BE
:10421800EFC2612A93970501C1874111AE8463D427
:10422800070803C58182EFB05FF72A8421C11C21EA
:104238001307000B638AE7041307000D6396E70270
:104248003C2145476389E7026547639FE7000348C8
:10425800A5001C351825743170214C313725020012
:104268001305059FEFC0C13D228509212165258DD4
:1042780041016FC0812670216C313725020013057A
:1042880005A2EFC0E13BCDB758219307F007E31D26
:10429800F7FC0E25372502001305C5A3A389B182B3
:1042A800EFC0013AD1B793F7150091CF03C58182CA
:1042B800370600201306C62C9385418BEF70714793
:1042C80013C5140075B793F72500A5C703C58182E8
:1042D800130600648945EF00407B930780F85C82F1
:1042E80003C731838D4763EBE700372502001305C9
:1042F80005A5EFC0214613C524009DBF1384C18BBB
:104308000A208547014781460546ED457C85EF50E3
:1043180060112AC66DD130854C00EFB0BFFC0A2071
:104328002C00EFF00FB361D9ED452800EF5040267F
:10433800D9B793F7850085C383C7818203D5C18B1D
:10434800130740068146130600039945EF7091381C
:1043580013C5840031BF93F705019DC303D5C18BF5
:104368000147894609468145EF808117AA85372587
:104378000200130505A6EFC0A12C13C50401CDBD8D
:1043880093F745000145E38507EE03D5C18BEF8020
:10439800C11203C581820566130606C89145EF0060
:1043A800C06E13C54400E9B5EFC2E11037450000FF
:1043B800397113058521EF00B031938481829947C3
:1043C800054488A0FC847000930700038545130505
:1043D80050302316F102408623088100EF703164C3
:1043E800370600201306062FED4513057030EF70D1
:1043F80011631386C1829D4513056030EF703162E9
:104408003008894513051031EF70716170108945C6
:1044180013052031EF70B160100885451305B030E1
:10442800EF70F15F370600201306862DD54501454C
:10443800EF40703C930500050D45EF20405F930564
:1044480000051145EF20A05E81457945EF20205EEB
:104458007010914513057040408440862308810000
:1044680002D6230C0100EF60F122300085451305C8
:104478000040EF6031227000854513051040EF6061
:1044880071213008854513052040EF60B1201008E0
:10449800854513055040EF60F11F7D55EF40F04210
:1044A8007D55EF60D053EFE0FFF57D55EFF0EF8DD0
:1044B80089475C8402D68D472306F10291475C86C2
:1044C80003A7818793878187DC2302CC3008D145F5
:1044D80001453AC8230AF100230C810002CE02D01C
:1044E80002D202D402D802DA02DC02DEEFF0CF8E6A
:1044F800300085450545EFF02F8E7010D1450945F0
:10450800EFF08F8D700085450D45EFF0EF8C1008AA
:1045180095451145EFF04F8C41679387C18B79170B
:1045280098C323A2070013854182EFF00F8A1385F1
:10453800C18AEF50313A88208545992921616FB0A9
:10454800D179EFB25177EFE09FC27165130505206D
:10455800EFE0BFC7372502001305C5E5EFC0811F8F
:10456800EFF08FB4EFF06FC7EF70D177EFF0DFE3C4
:10457800EFB09FC0B71702409843B706FFF8411144
:104588001367170098C3D84337060200758FD8C33E
:104598009843B706F7FEFD16758F98C39843B7067C
:1045A800FCFFFD16758F98C3D843B70681FFFD162B
:1045B800758FD8C337079F0098C702C402C69843AF
:1045C800C166558F98C3B716024005679C42F18FA4
:1045D8003EC6A24785073EC4B24781E7A247E39794
:1045E800E7FEB71702409C431397E700635E070690
:1045F80085473EC6324785476316F706B717024018
:10460800D843B706C000558FD8C3D843B706C1FFF3
:10461800FD1613670708D8C3D843D8C3D843136710
:104628000740D8C3D843758FD8C3D843B7063500D9
:10463800558FD8C39843B7060001558F98C3984340
:1046480093166700E3DD06FED843B7160240719B58
:10465800D8C3D84313672700D8C32147DC42B18B9E
:10466800E39EE7FE4101828002C669B70DC1834619
:10467800E5FF1307F00F9147639CE600411106C65A
:10468800EFD07FB0B24081473E8541018280954797
:104698003E85828001E9014582800145B24022447D
:1046A8004101828095654111938505D022C4C98D49
:1046B8002A842105C2054205C181418106C6EFD081
:1046C8001FA061DDFD572320050042A17CA1210523
:1046D800F1B7B9CD411122C406C62A8497E7FF1F56
:1046E80083C797C02E856375F400894763E8870000
:1046F800B53F0D45B24022444101828083A785FF22
:1047080099E703C7E5FF9307F00F6305F700B93F83
:104718001545CDB7238F85FE17E5FF1F130585BC0B
:10472800EFB01FA622852244B240A16541018DA4A5
:104738001545828097E7FF1F23A607BA8280C9C163
:10474800797122D406D626D24AD04ECE01444147AA
:10475800B3D78540858BA5C312053147229533050C
:10476800E50297E7FF1F938767C103A90700854400
:10477800B3948400C204C180BE892A990327090022
:1047880011C7032549002EC60297B24531473304A5
:10479800E40283A709003E941C4489E7232009000A
:1047A80023220900B2502254A58D02599254F2498D
:1047B8002E85456182800504E31CE4F88144DDB759
:1047C8002E85828041111397050122C406C626C290
:1047D8004AC041872E8463500702EFB01F9C19C15D
:1047E800EFF0DFE8A1673D8C2285B2402244924475
:1047F800024941018280EDD9AA8701474146B35653
:10480800E440858A8DCE9207BA97B146B387D7021E
:1048180097E6FF1F938686B603A906008544B394DE
:10482800E400C204C1803E9983270900032549009A
:1048380082972320090023220900258C75B70507D4
:10484800E31FC7FA8144D5BF97E7FF1F938707AFD8
:10485800DC53411122C406C61384818399C7829709
:104868001C403E9523ACA18239A097E7FF1F938790
:1048780067B19C43EDF70840B74703009387D73FDC
:104888003305F502B7A72600938737ECB2402244D8
:104898003E9523ACA1824101828065C9374836FE26
:1048A8001308F8C789476363C80E797197E7FF1F34
:1048B8009387C7AC22D45AC803A807003E8B06D6F4
:1048C80026D24AD04ECE52CC56CA5EC662C40144E5
:1048D800B148C147B30B1403137CF40F33037801B9
:1048E80003230300631E0308AE8AC165AA84938567
:1048F80005F041453A8AB6893289EFD04FFC0DE977
:1049080097E7FF1F938787A3DC5B99EF8147B25036
:10491800225492540259F249624AD24A424BB24B4B
:10492800224C3E8545618280814511458297F9BFB9
:1049380097E7FF1F938747A098431DEF97E7FF1F4F
:1049480023ACA79E2300050083270B0005473314DB
:104958008700232605002324250122A123224501BF
:10496800DE9784C323A2570123A44701E38009FAF1
:104978002380890161BF36875447F5FE48C7D9B7F8
:104988000504E319F4F4A14759B789473E858280A5
:1049980097E7FF1F83C75795637FF50017E7FF1F4A
:1049A800130747999317150008433E951E21DD8D7F
:1049B8000EA1014582800D45828097E7FF1F83C7BE
:1049C800B7926371F50217E7FF1F1307A7969317AE
:1049D8001500084393C5F5FF3E951E21FD8D0EA1D8
:1049E800014582800D45828001114AC806CE22CC3D
:1049F80026CA4EC652C49307F002094963EEA706B9
:104A0800B146B306D50297E7FF1F938727979843C8
:104A1800094936971C43ADC3135A450005443D89DF
:104A28003315A400131405014180AE845285A28574
:104A3800EFB0EFFDAA89014921C1A2855285B53F92
:104A480097E7FF1F938707949C43829797E7FF1F79
:104A580083D7A790338797022A8413060064814678
:104A6800B3B7970213050732B335E500BE95EFB02B
:104A78006168229523A4A900F24062444A85D24481
:104A88004249B249224A0561828097E7FF1F83C7DE
:104A9800B7856364F50001458280011197E7FF1F20
:104AA8009387478E4EC683A9070006CE22CC26CA16
:104AB8004AC8638C09082E8997E5FF1F83D5E589C5
:104AC800B387C5022A84B2848146B3B5C50213856B
:104AD8000732B337F50013060064BE95EFB0816165
:104AE800B74736FE9387F7C763E1A706829997E52C
:104AF800FF1F83D58586B3879502AA8913060064AC
:104B08008146B3B5950213850732B337F500BE95D4
:104B1800EFB0415EAA99CA852285EFB04FEF09C56B
:104B28002324350105451DA0936504F0C205C18104
:104B38004145EFD0CFD815E197E7FF1F938707804E
:104B4800DC5B81C7A285114582970145F24062442A
:104B5800D2444249B2490561828097D7FF1F9387A3
:104B6800A77D9C4395E397D7FF1F23A7A77C85477D
:104B780023260500232435012311250100A11CB19A
:104B88002322050045B7BA87D84775FFC8C7C5B7F8
:104B980059C9797122D426D24AD04ECE52CC56CA9F
:104BA8005AC85EC662C406D6B689B28A2E8A2A89CF
:104BB8009304000C414417DBFF1F130B2B7C054C9F
:104BC800930B000383270B00A6979C43A9E79375D3
:104BD800F400B315BC00C2055686C18113554400C4
:104BE800EFF0BFEA0DC983270B000145BE9423A04F
:104BF800240123A244016384090023808900B25060
:104C0800225492540259F249624AD24A424BB24B58
:104C1800224C4561828005041374F40FB104E31338
:104C280074FB2145E9BF09458280411122C426C28F
:104C38004AC006C62A842E89B284EFF01FE5CA85C9
:104C48002285EFB0CFDC05CD97D5FF1F83D5E57062
:104C5800B38795022A84130600648146B3B595028A
:104C680013850732B337F500BE95EFB0A14848C0A9
:104C78000145B240224492440249410182802145C3
:104C8800CDBF411122C426C24AC006C62A892E8435
:104C9800EFB0EFD7AA8419C123110500A2854A8570
:104CA800EFF0BFD197D7FF1F83C70764639B270126
:104CB80097D7FF1F83D7C7675D8C97D7FF1F2399A7
:104CC8008766014591E01945B24022449244024961
:104CD800410182809307F00263E8A7044111B147BC
:104CE80022C43304F50226C297D4FF1F93840469B3
:104CF8009C4006C6A297984389470DC39377F50051
:104D08008545B395F500C205C18111819D3F9C4041
:104D1800A29723A0070023A207008147B24022449C
:104D280092443E854101828089473E8582804111B7
:104D380006C622C4EFB0AFCD11E50145B24022440A
:104D48004101828097D7FF1F9387C7639C43004523
:104D58008297B74736FE3305A4409387E7C7E3EE4B
:104D6800A7FC93070064B335F50217D6FF1F035657
:104D7800C65E81463305F502EFB0C137C1B74111B0
:104D880006C697D7FF1F23ADA75E0295B24097D7F7
:104D9800FF1F23A7A756014541018280994763E970
:104DA800B7008A0597D7FF1F9387C756BE9588C156
:104DB800828041117146814517D5FF1F130585551E
:104DC80006C697D7FF1F23A9075697D7FF1F23A902
:104DD800075A97D7FF1F23A7075AEFB0EFD3130639
:104DE8008002814517D5FF1F13050550EFB0CFD2BC
:104DF800EF70C17897D7FF1F83C7975513D5270042
:104E08008D8B3E958D473305F5028545390513751C
:104E1800F50F97D7FF1F238AA74C99473305F5024B
:104E280013050524EFD0AFA917D7FF1F2328A754D0
:104E380049CD994717D6FF1F0346264B3306F6027E
:104E4800814513060624EFB02FCD97D7FF1F938710
:104E5800E7529C439387072417D7FF1F232AF74A53
:104E680017D7FF1F034767480A07BA9717D7FF1FC7
:104E78002322F74CEFF01F8C352197D7FF1F93871C
:104E88002749944397D7FF1F83C7174613972700CF
:104E98003697170600001306C68A10C31387170033
:104EA8001377F70F0A073697170600001306C691FF
:104EB80010C313873700890793F7F70F8A0797D529
:104EC800FF1FA383E542B69790C3B2404101828099
:104ED80097D7FF1F83C7574117D7FF1F0347E740DF
:104EE80063F3E70217D7FF1F130787421843938618
:104EF800170017D6FF1FA309D63E939627003697AB
:104F080008C33E8582809307F00FE5BF1C4163818B
:104F1800071441777D8FB70600208947631BD71296
:104F28005A2163080712411122C419462A8493059D
:104F3800F00F610506C6EFB0EFC705478D4763045C
:104F4800E5101C4481CB185C9947630E070E585C2A
:104F5800630B070E13060004814517D5FF1F1305C1
:104F6800E53DEFB06FBB13060004A28517D5FF1F00
:104F78001305C53CEFB00FB717D7FF1F0357C73C42
:104F880097D7FF1F9387873B19E71307001097D61A
:104F9800FF1F239BE63A17D7FF1F0347073B11E77D
:104FA800054797D6FF1F2382E63A17D7FF1F0357F7
:104FB800E73911E76D4797D6FF1F2399E63817D7CA
:104FC800FF1F0347973811E7154797D6FF1FA38E92
:104FD800E63617D7FF1F0347873711E7054797D6E8
:104FE800FF1F2386E63617D7FF1F0347573611E7FB
:104FF800F83797D6FF1FA38CE63417D7FF1F034750
:10500800273511E7254797D6FF1F2383E63417D79F
:10501800FF1F0347173411E7514797D6FF1FA38A8D
:10502800E632782819E71307C00397D6FF1F2382B3
:10503800E632DC5791C7829797D7FF1F239AA72A92
:10504800EFF03FD78147B24022443E85410182803C
:1050580089473E85828097D7FF1F9387A7329C4355
:10506800411106C622C426C24AC08297930700642B
:10507800B335F50217D9FF1F0359292E4A868146F1
:105088003305F502EFB0010797D7FF1F9387C725B0
:10509800804FAA8401456304940233858440636C7D
:1050A80094004A8681461305009C9305F063EFB08F
:1050B8006104018D269597D7FF1F23A39724B2403B
:1050C80022449244024941018280011122CC0A857E
:1050D8002E84414697C501009385C57806CEEFB06A
:1050E8008140180806043A94035504FF97D7FF1F18
:1050F80083D7C726F2406244AA9737450F001305A5
:1051080005243355F5020561828097D7FF1F83D7A1
:10511800E72451471D45637CF702794719456378B1
:10512800F7021307200315456373F7021307B0044A
:105138001145637EF700130740060D456379F700B4
:105148001307600909456374F70013B5B70F828028
:10515800011122CC06CE2A842EC6EFF0EFEEB2451E
:10516800F240818D33A5A502229562441375F50F8F
:1051780005618280011122CC06CE2A842EC6EFF06A
:10518800AFECB245F240818D33A5A5022295624469
:105198004205418105618280011122CC06CE2A8414
:1051A8002EC6EFF06FEAB245F240818D33B5A50205
:1051B800229562440561828097D7FF1F938707185D
:1051C800D85739CB411122C426C206C6BE840297DD
:1051D80017D7FF1F0357C7112A8415CBBA876373E4
:1051E800A700AA87C207C183BA866373E400A286B0
:1051F800C206C182958F5147635BF7009C5891C3E3
:105208008297EF10B15697D7FF1F2393870EB240AE
:105218002244924441018280828097D7FF1F93875E
:10522800E7119C5B011106CE81C72AC682973245D9
:105238001DC917D7FF1F0357471285470DC317D737
:10524800FF1F0357A71101CF97D7FF1F23ACA71242
:1052580017050000130565E0EFF07FB28147F240C3
:105268003E850561828097D7FF1F23AD0708E17748
:1052780093C727A117D7FF1F2311F70E9307200302
:1052880017D7FF1F231CF70C7D57B747024023A4ED
:10529800E72697B7FFFF9387674017D7FF1F23239A
:1052A800F70E7DB7011122CC17D4FF1F1304040990
:1052B800084406CE26CA4AC801E90545F2406244B8
:1052C800D2444249056182801C5CE5DB585C75D795
:1052D8007000854582971844B247E300F7FE9305AE
:1052E800E00417D5FF1F03552506EFC05FDD17D76C
:1052F800FF1F232BA70071D117D6FF1F0356C60423
:105308009305F00FEFB04F81814417D9FF1F1309A0
:10531800A9FD97D7FF1F83C747030326090263CF59
:10532800F4003285EFC03FE6014597D7FF1F23AD54
:1053380007FC97D7FF1F23AB07FC49B797D5FF1F7B
:1053480083D58500B38795020844585C8981850414
:105358003E9508C2029775BF411122C417D4FF1F9A
:105368001304C4FD1C4426C206C64AC097D4FF1FB6
:10537800938484F791EB885025E9B2402244924403
:1053880002490145410182805C5CF5D79C5089EF58
:105398009305E00417D5FF1F035505FBEFC03FD267
:1053A80097D7FF1F23A2A7F6885071D517D6FF1FDE
:1053B800035686F99305F00FEFA01FF6014997D71A
:1053C800FF1F83C787F89050E357F9FA97D5FF1F57
:1053D80083D585F7338525031C44898105093E95C6
:1053E8005C5C08C28297E1BFEFC0FFD997D7FF1F67
:1053F80023AC07F097D7FF1F23AA07F0BDBF011101
:1054080056C297DAFF1F938A6AF383A78A0022CCD1
:105418004AC84EC606CE26CA52C45AC0AA892E8485
:1054280032896383072003A78A03630107141307DC
:10543800F01F636FA71297D4FF1F9384E4EA03AAAF
:10544800040263110A0A9565938515E017D5FF1FB5
:10545800035585EFEFC0BFC697D7FF1F23A6A7EA5E
:105468002A866305051083A78A0303A58A0097D5B2
:10547800FF1F83D565ED8981829783A78A0003AAD8
:10548800040217D7FF1F2323F7E889476396F90813
:10549800C147631DF40C97D5FF1F83D5E5EA9385B3
:1054A80005FC9147B3C5F5028A05D295B821930743
:1054B800A0056319F70A9E216396370B4A85228651
:1054C8009105EFA03FE29C505285639B471301452D
:1054D800F2406244D2444249B249224A924A024BBB
:1054E80005618280D850E382E7FA9565938525E0C7
:1054F80017D5FF1F035545E5EFC07FBC2A8A3DC578
:105508002A8683A78A0303A58A0097D5FF1F83D518
:10551800A5E38981829795BF8D47639DF900C147AF
:105528006316F40497D5FF1F83D505E2938545FDDF
:10553800F199A5BF9147639AF9006319340397D588
:10554800FF1F83D565E0A115E5B793070010639F9A
:10555800F900A14763EC870097D5FF1F83D5C5DE07
:10556800C115F9B79C505285639D470B29458DB7E6
:105578001D6A568B63794509130A05E01947334AB2
:10558800EA0217D7FF1F035727DC97DAFF1F938A12
:10559800AAD5330AEA023E9A83A74A0263954701CD
:1055A80083A40A028DE49305E00417D5FF1F035571
:1055B800A5D9EFC0DFB0AA8455D983278B0397D527
:1055C800FF1F83D565D82A868981528582979145A0
:1055D8001307A005898193972500A697B423639D97
:1055E800E60296236398360385058A052286A695E2
:1055F8004A85EFA03FCF83A70A02E38A97EC268566
:10560800EFC07FB8E9B521677917E361A7F6330AD8
:10561800454185BFAC337DBF83A70A02E38897F471
:105628002685EFC05FB699B797D7FF1F9387C7CB7B
:105638008C538DDD91479306A00589831397270026
:105648002E973023E314D6F21223631A3601850706
:105658008A072286BE954A85EFA0DFC88DBD3C33F8
:10566800E9BF97D7FF1F938767CD984729C7DC5FA6
:10567800B9C305476311E504411122C417D4FF1FBC
:10568800130484C6105006C61DC2485097D5FF1F84
:1056980083D585CB898182970850EFC0DFAE97D735
:1056A800FF1F23A307C697D7FF1F23A107C6B24032
:1056B8002244410182808280011117D7FF1F1307FE
:1056C800E7C74EC68329870022CC26CA4AC806CE19
:1056D80052C456C2AA842E843289638E091E5C5F26
:1056E800BA8A99EB2945F2406244D2444249B24908
:1056F800224A924A056182801C5FEDD79307F01F0A
:1057080063E4A70E97D9FF1F938909BE83A70902EF
:10571800B1C703A58A0083A74902639FA7048947E5
:10572800639DF406C147E31FF4FA17D5FF1F03551D
:10573800A5C19147130505FC3345F50293172500CC
:1057480003A509022286CA853E959307A0053CA1B8
:1057580006A11105EFA01FB9014571B79305E00433
:1057680017D5FF1F035545BEEFC07F9597D7FF1F7D
:1057780023ACA7B859FDBDB783A78A0303A60902BE
:1057880097D5FF1F83D545BC8981829783A78A0057
:1057980017D7FF1F232CF7B659B78D47639EF40020
:1057A800C147E311F4F417D5FF1F0355E5B91305F5
:1057B80045FD9377C5FF69B79147639AF400E313F2
:1057C80094F217D5FF1F035525B82115DDB79307A8
:1057D8000010E399F4F0A147E3E687F017D5FF1F1F
:1057E800035585B64115F1B79D676377F5069307AD
:1057F80005E01947B3C7E70217D7FF1F0357C7B418
:1058080017DAFF1F130A4AAEB387E702BE99832748
:105818000A02B1CB83274A026395370703250A0298
:1058280091461308A0059305F00F93D72600139708
:1058380027002A973023631B060783580700303355
:1058480063929806B306D64063CD860485078A0717
:105858002286CA853E95FDBD21677917E364A7E8CE
:10586800B307F54051BF9305E00417D5FF1F035553
:10587800A5ADEFC0DF8497D7FF1F23A7A7A859F9C5
:1058880095B583A78A0303260A0297D5FF1F83D5F8
:10589800A5AB89814E85829797D7FF1F23A837A785
:1058A800B5BF0EA393160601C18241B7B385860022
:1058B80017D6FF1F035646A99105130606FCE3F306
:1058C800C5E213063400719A1106B2962301070146
:1058D80006A334B3A5BF97D7FF1F9387E7A09453B8
:1058E800BE8995CE03A5090291461308A005930524
:1058F800F00F93D72600139727002A9730236313B6
:10590800060583580700303363979800B306D640DE
:10591800E3DE86F20EA393160601C182D9BF5E2785
:1059280017D5FF1F034565A29305E0043305F5026B
:1059380042054181EFC0AFF897D7FF1F23A6A79C68
:1059480055F14DB317D6FF1F035606A097D5FF1F75
:1059580083C5A59FB385C502338686001106E3E398
:10596800C5D885B701458280011106CE2EC6EF70D5
:10597800E06319C5B245F2402A2105616FA040696C
:10598800F240494505618280A386018E2386018EF7
:1059980023AA018C23AC018C23AE018C23A0018E99
:1059A80023A8018C23A6018C97D7FF1F9387C79F35
:1059B80013064038B2B371761307400B130606B8C6
:1059C800BAA3D2B311671D46930600059305000AD2
:1059D8001305007DDAA3F2B341470546130810F812
:1059E800BAA7DAA7BAABDAABFAAB9AAF9AB72396EB
:1059F800070323900700EEA38EA7F6A796ABAAAFDE
:105A0800239E0700239F070023900702B2B723971E
:105A180007021308F007239807022392E704239349
:105A2800E704239FE7042390E7062391E7062392E0
:105A3800E706239907031307C01CD2BBF2BB239CBC
:105A48000702239D0702239E0702239F0702239034
:105A580007042391C7042394070423950704239676
:105A6800C7042397D7042398D7042399A704239A14
:105A78000704239B0704239C0704239DD704239E24
:105A8800D7042393A706239407062395070623968E
:105A980007062397B7062398B70623990706239A7C
:105AA800E7067D57239B0706239CE70682800111A2
:105AB80026CAAA84214522CC06CE2E8432C636C4F4
:105AC8003AC2EFE03FBD0DC5A246124732469307E2
