:100000006F004034130000001300000013000000D4
:100010001300000013000000130000001300000094
:100020001300000013000000130000001300000084
:08003000130000007300100032
:100038000000000000000000A0010000A401000072
:1000480000000000DC0200000000000000000000CA
:10005800DE020000E00200000000000000000000D6
:10006800E202000000000000E402000000000000BE
:10007800E6020000E8020000EA020000EC020000CC
:10008800EE020000F0020000F2020000F40200009C
:10009800F6020000F8020000FA020000FC0200006C
:1000A800FE02000000030000020300000403000039
:1000B80006030000080300000A0300000C03000008
:1000C8000E030000100300001203000014030000D8
:1000D80016030000180300001A0300001C030000A8
:1000E8001E03000020030000220300002403000078
:1000F80026030000280300002A0300002C03000048
:100108002E03000030030000320300003403000017
:1001180036030000380300003A0300003C030000E7
:100128003E030000400300004203000000000000FE
:080138000000000000000000BF
:10014000397101436EC619A0397141536AC866CA34
:1001500062CC5ECE19A0397101535AD056D252D416
:100160004ED64AD826DA22DC06DE3301614082828E
:1001700041114AC026C222C406C68282B24D410144
:10018000024D924C224CB24B4101024B924A224A00
:10019000B2494101024992442244B2404101828065
:1001A0007300203001A0EFF2BFFC37140140592644
:1001B0000149892E8144130404801305A00F4526AC
:1001C0008DC0014681442285854509261305A00F6F
:1001D0007926630B09000146014989452285FD24E2
:1001E000E9BF05468544C5B705460549FDB7B717BC
:1001F00002409843B706FFF841111367170098C3F0
:10020000D84337060200758FD8C39843B706F7FE68
:10021000FD16758F98C39843B706FCFFFD16758FC2
:1002200098C3D843B70681FFFD16758FD8C337072B
:100230009F0098C702C402C69843C166558F98C3F1
:10024000B716024005679C42F18F3EC6A24785075C
:100250003EC4B24781E7A247E397E7FEB7170240E3
:100260009C431397E7006357070685473EC632470E
:100270008547631FF704B7170240D843B706C1FF8D
:10028000FD16D8C3D843D8C3D84313670740D8C393
:10029000D843758FD8C3D843B7061D00558FD8C330
:1002A0009843B7060001558F98C39843931667008B
:1002B000E3DD06FED843B7160240719BD8C3D8438E
:1002C00013672700D8C32147DC42B18BE39EE7FECA
:1002D0004101828002C661BF01A001A001A001A06E
:1002E00001A001A001A001A001A001A001A001A006
:1002F00001A001A001A001A001A001A001A001A0F6
:1003000001A001A001A001A001A001A001A001A0E5
:1003100001A001A001A001A001A001A001A001A0D5
:1003200001A001A001A001A001A001A001A001A0C5
:1003300001A001A001A001A001A001A001A001A0B5
:1003400001A001A0970100209381C14B175100200B
:10035000130141CB1305405997050020938585CAA9
:100360001386818063FAC5008322050023A055000F
:1003700011059105E3EAC5FE13858180938501810E
:100380006377B500232005001105E36DB5FEFD423E
:10039000739002BC8D42739042809302800873A0D8
:1003A000023097020000938262C993E23200739098
:1003B0005230EFF0DFE397020000938202DF739088
:1003C0001234730020309C4513F7070113F8F7002F
:1003D00001C7D8413368E80037270240145B37076C
:1003E000000F758F4DEB85462384D1803717014070
:1003F0006315E5009A2135839AA18E2113F7F50F35
:1004000039C318418146854E3D4F930F80029302B8
:100410008004214E3396DE00B3F8C5006311160345
:100420009398260033131F011343F3FF3377E30040
:10043000B318180133E7E8006397F70750C985063A
:10044000E39AC6FD18C11307F00F6375B704544152
:100450002146854E3D4F930F800293028004414E0A
:10046000B398CE0033F715016392E8021317260004
:1004700001173313EF001343F3FFB376D3003317A1
:10048000E800D98E6395F703232A15010506E319C1
:10049000C6FD54C1828037170140E310E5F603C75B
:1004A000818021DF81BFE39C57F810C949BFE39FDA
:1004B00057FC23281501D9BFB71701406316F50073
:1004C00083C7818091C3B5810CC98280B717014071
:1004D0006316F50083C7818091C3B58119C20CC929
:1004E00082804CC9828099C5371702401C4F5D8DB0
:1004F00008CF8280B7170240984F1345F5FF798DDA
:1005000088CF8280EFF2DFC6411185451145E13F7A
:100510008D47371401407C82C1473EC64C008D4751
:10052000130504803EC445358D45130504806937A5
:1005300041018DB1B707002083A7070037177A0064
:1005400013070720B3D7E70293F7F70F2386F1804D
:100550001307803EB387E7022395F1808280B7F7C7
:1005600000E0D8438146799BD8C303D7A1803306E6
:10057000A70290CBD4CB98431367070198C3984345
:100580001367170298C3D843058B75DF9843799B8F
:0405900098C382800A
:0805940000A24A04000000006F
:00000001FF
