:100000006F20A04A1300000013000000130000003E
:100010001300000013000000130000001300000094
:100020001300000013000000130000001300000084
:08003000130000007300100032
:1000380000000000000000002441000028410000EA
:100048000000000034240000000000000000000050
:1000580036240000382400000000000000000000E2
:100068003A240000000000003C24000000000000CA
:100078003E240000402400004224000044240000E4
:1000880046240000482400004A2400004C240000B4
:100098004E24000050240000522400005424000084
:1000A80056240000582400005A2400005C24000054
:1000B8005E24000060240000622400006424000024
:1000C80066240000682400006A2400006C240000F4
:1000D8006E240000702400007224000074240000C4
:1000E80076240000782400007A2400007C24000094
:1000F8007E24000080240000822400008424000064
:1001080086240000882400008A2400008C24000033
:100118008E2400004236000092240000942400003F
:1001280096240000982400009A2400002A41000028
:1001380032410000A0240000A2240000A4240000F2
:10014800A6240000A8240000000000000000000011
:100158000000000000000000000000000000000097
:100168000000000000000000000000000000000087
:0801780000000000000000007F
:10018000EF12523F9126FDBF23AC05FE1C4181E7D3
:100190000CC18280BA8703A787FF6DFF23ACB7FE2F
:1001A0008280172700201307E7041C43411122C453
:1001B00026C24AC006C601440149BA8491E7A16536
:1001C000EF40806805C809A803C7E7FF631BA702C3
:1001D00015CCA165EF4020389840832784FF631930
:1001E000E402172700202327F700FD57232C04FEE5
:1001F000230FF4FE2285B240224492440249410179
:10020000828011E03E8983A787FF4DBF3E84E5BF12
:10021000232CF9FED9BF972700209387E7029C4340
:1002200099E33E858280BA236315B7009823E30AD9
:10023000A7FEDC47F5B70111680006CE22CCEF001F
:10024000D15AFD576305F508324735CF17240020F2
:10025000130484FA1848630EF70097270020938749
:1002600067039C43829732471C486373F700BA8741
:100270003E9517240020130424171C4C81CF972788
:1002800000209387E71C94433707CDFF7D179C46DA
:10029000F98F9CC697270020938747FB9C5782972E
:1002A00019E51C4C8DC3EF903103EF8071721C4C2B
:1002B00099CB972700209387A7199843B706330057
:1002C0001C47D58F1CC7F240624405618280172409
:1002D0000020130464F21C48E387A7FE9727002040
:1002E000938747FB9C4382971C4859B709CD81CD22
:1002F00019CA81473387F50014233307F5008507B2
:1003000014A3E319F6FE828019C991C909CA91059F
:1003100083A7C5FF11057D16232EF5FEC5BF82807C
:1003200001C919C62A960505A30FB5FEE31DA6FE51
:10033000828081473307F5000307070019E33E85F4
:1003400082808507C5BF01112E8626CAAA8413158F
:1003500006019305F004418122CC06CE32C6EF108F
:10036000F0622A8401C53246A68549372285F240CB
:100370006244D24405618280854705C199CD11CE82
:100380008147B306F5003387F5009422182363985C
:10039000E6008507E317F6FE85473E8582808147A4
:1003A000EDBF9307F6FFBE952A966313C5008280C2
:1003B000FD159C310505A30FF5FEC5BFAA870145B4
:1003C00081CF09CE3E96850703C7F7FF6317B700B5
:1003D000E39BC7FE05458280828001458280011132
:1003E00097270020938747E622CC804306CE26CA73
:1003F0004AC84EC652C456C25AC059C437C9C901A8
:100400008144972900209389E9E81309F937172ACD
:100410000020130AAAE3972A0020938AEADD3E20EF
:1004200091EF5C44A5EC17270020232FF7E0032B66
:10043000C4002285EF1010625A840DA883A709001A
:1004400082971C443307F540636CE904972700202A
:1004500023AC07DA2E200820EF40E00F54405C4424
:10046000F1D21844A284369718C43E844DF89727D9
:100470000020938767D89C4B09476372F704F917EC
:10048000172700202322F7D8F2406244D244424981
:10049000B249224A924A024B05618280DCC441BFC4
:1004A00003278A0211CB03A70A01898F63F6E700AD
:1004B00017270020232AF7D4A284404445BF97275A
:1004C000002023A307D4C9B7411122C41724002058
:1004D000130444D51C4006C626C24AC091C7829761
:1004E0009727002023A007D45C4091C382971C402B
:1004F000639B07189727002083C757EF858B9DC7FD
:1005000097270020A38407EE17270020034737EE24
:10051000914763FDE700EF1040559727002083C700
:1005200017EDF9178A07A2979C4382971729002095
:10053000130989EF8347C900918B99C3EF10B03A33
:100540001C4491C38297972400209384A4CF9840A1
:1005500017260020034656CA9727002083C7C7C91D
:1005600093961700BA969622C1CA9727002083C790
:10057000A7C863EDC70897270020238F07C61C4034
:10058000639307109727002083C797E681CF9727AB
:10059000002083C7D7E599E797270020A38A07E4BF
:1005A000EF90010D972700209387C7CE9C43E1CFA2
:1005B000FD57172700202329F7C41535972700205A
:1005C0009387C7C89C57E1C317270020034737E22A
:1005D000914763EAE70A8347C900918BCDE79040D2
:1005E0009726002083C656C163E5D70A2244B2404D
:1005F00092440249410181B1850793F7F70F97268D
:100600000020238BF6BEE3E9C7F485B786073E9743
:100610000E232310070097270020239307C2972754
:1006200000209387E7BF9C43172500200345C5BCE6
:1006300013172500BA979C4382979727002083D7EA
:1006400027C017270020034727BB93C7F7FF7D8DDF
:100650009317170098403E971E235D8D0AA3972796
:10066000002083C767B991C7850717270020230596
:10067000F7B817270020034727B89727002083C71C
:10068000B7B7E37AF7EEB2402244924402494101FF
:1006900082801397170032971A2375F78507A9B739
:1006A000AD6737470240BD072326F7200100010050
:1006B00097270020938747B4C84F83278726BD66B6
:1006C000BD0693C7F7FF99836A052326D7205D8D62
:1006D000828082809387C18D98431726002003462D
:1006E000A6CE81476315F600814636858280BA869C
:1006F00013078702835587FDE389A5FE850793F7D6
:10070000F70FCDB79387818F9C43172600200346B0
:10071000B6CB01476365C700814636858280BE86B9
:10072000990783D5A7FFE38AA5FE0507E5B7938759
:10073000018F984319E3014615A81C4703D8A70069
:10074000636B050183584700B38608016355D500E4
:100750008146639416011843F1BF3E86C10703D357
:10076000A7FF6317A30099C12390050132858280FA
:100770008506C206C182F1BF97270020938707C173
:10078000984317260020034626C481476315F600C8
:10079000814636858280BA861307C703835567FC76
:1007A000E389A5FE850793F7F70FCDB703278511DA
:1007B0007DC7411122C406C65C258345C5042A8431
:1007C00093F7C70F5CA514375227139586016185EF
:1007D00063F6C50663500506082793F6F60714B7B7
:1007E000054693E627006314C50093E6170054A45A
:1007F0005C4389075CC34CB8032504112E864C4327
:100800000905ED34832784115038D443DA27B29692
:10081000118FD4C3DAA789473CBC03474403972709
:10082000002083C7C7A36371F7045C2493E7070123
:100830005CA41DA893E717005CA475BF9376F60F20
:10084000635905020827854513E627006314B500A0
:1008500013E6170050A454B8A304070085473CBC16
:10086000832784119C43D5FBB240224401454101BA
:10087000828093E717005CA454B8A3040700032503
:1008800004114C4309059D34832784115038D44307
:10089000DA27B296118FD4C3DAA78D47C9B70545B9
:1008A0008280972700209387E7B29C43411122C49E
:1008B00006C6858B2A84DDE34165130525F5EF1017
:1008C000A15A49CD3C253EA583270412B5E3232038
:1008D000A4122322A41285472310F4042320050028
:1008E0007C2854415EA5583418A5054718B517272C
:1008F0000020130767AF184F1385170215811C439B
:100900007D151375F50F9CC25C43DCC21C479CC669
:100910005C47DCC61C4B9CCA5C4BDCCA1C4F9CCEA3
:100920005C4FDCCE19CD9386060213070702C1BFC8
:100930008327441288C3835704042322A412850703
:1009400061BF9727002083D767B785071727002047
:100950002316F7B6B2402244410182805C24230969
:100960000400054593C747005CA4EDB71C2D93F721
:10097000E70FCDEB1C3DDDE73029542509CA83453F
:100980004503172700200347978D63E7E50013F71A
:10099000060151CB014709C6C18A0357851B81C691
:1009A0008356C51B369741C31307C712172500206E
:1009B0000355A58BB335A70237460F004111130627
:1009C0000624814622C426C206C67D543305A702EA
:1009D000EF00327E9727002083C7B788B384A70033
:1009E00097270020938707AD03A7C7088327070928
:1009F00063F387003E84184375FB97270020938795
:100A000067899C43829781476364A400B307A4402D
:100A1000B2402244B3B7970093C7170092443E8573
:100A20004101828081473E858280972600209386FF
:100A300066A883A7C6086386074203A5460979719D
:100A400037470F0006D622D426D24AD04ECE52CCFB
:100A500056CA5AC85EC662C4172300200353E380F7
:100A60000148FD58130EF7231306072403D7470840
:100A700083A507093307670272973357C702338785
:100A8000E540637517013E85BA8805489C43F9FF28
:100A9000630608009727002023A8A7AA03A44609F5
:100AA000B7490F00938BF923171900201309897E8A
:100AB0009714002093848479930A0032130B204EFC
:100AC000054A9389092483270900032C0409829786
:100AD0009716002083D66679637C852B03574408DC
:100AE0009717002083C7F777330CAC403307D70242
:100AF0005E97335737033E97636087237E3CA30F8F
:100B00000400228585077EBC83470414C5CBD52EFF
:100B10002285EF00A17859E5835744081715002076
:100B20000355A57437470F00B387A7029306F72331
:100B30001307072483290409230A0402B697B3D7AD
:100B4000E7020547B387F9402324F4088327C40844
:100B5000BE993C34232834096394E7060357E4071D
:100B6000363C63EFE6041428639CF6048327841163
:100B7000A1EB8327440AA9E774349D476392F604E6
:100B80001E3CB387E7021307204EB387E702032713
:100B90004409B3D7E702171700200347876CBA97B9
:100BA0002312F408B250225492540259F249624A74
:100BB000D24A424BB24B224C45618280652489BFA8
:100BC0001E309DCB763C5A3037460F0056B03387E7
:100BD000E640B387E7023A30130606248146814592
:100BE000BA97C207C1833385A7023EB0EF00725C9B
:100BF00001C5AA9923283409832709008297AA8965
:100C0000832709008297E30D35FF83270900832995
:100C1000840882973385A94069C58327C408637215
:100C2000F50C37490F0013090924B3352503F22CBD
:100C3000814633052503EF00D2573E3017170020B9
:100C40001307477C14433E95B567BD07DCC601001A
:100C500001001C432630096798C7130700F8971650
:100C600000202385E67806059719002083D9E95FDF
:100C7000E8D3338534033D673D0737460F00D8C7B7
:100C80001306062481468145EF00B25219CDB337D1
:100C900025034E868146B305B9023305A902BE95E8
:100CA000EF0032513385A4402AB0EF803119EF8034
:100CB0001126383485478145631CF70017850100EC
:100CC000130505A3EF30F049930700FD7CA4D9BDBF
:100CD00017250100130545A5EF30B048930710FC18
:100CE000F5B73834854703A344036317F7009545E8
:100CF000E30A03EA154529A0E30603EA95451945E9
:100D00002254B25092540259F249624AD24A424B9A
:100D1000B24B224C4561028363540C047E3C850730
:100D20007EBC8347041499E322852D2A2285EF0097
:100D3000E156832704090327C408BA972328F40837
:100D40003C34639547012285EF70E1407C3C85454A
:100D500085077CBCDC58E38807D615458297A5B388
:100D60005E3C130700328E07B387D70293870719BB
:100D7000B3D7E702E3F887E3A1452285EF00E14915
:100D80002305A40203A344038945E31503F619BD13
:100D90005E3C330C85418E07B387D70293870719D2
:100DA000B3D757036371FC0A8327090082977E3CFF
:100DB0002A8C85077EBC8347041499E322855D2035
:100DC0002285EF00A14DE31F05DC832704090327DB
:100DD000C408BA972328F4087C3C13F7070F39CBD3
:100DE0002285EF00E103A30F040083270409E37DBC
:100DF000FCFA8356E4071E3C03274409B387D70255
:100E0000B3876703B3D7E702171700200347674587
:100E10000607BA972312F4083C34639047033E3C1C
:100E2000E3F3D7CA2285EF700133DC58E38D07C89E
:100E30008D4525B785077CBC4DBFDC58E38507C8C9
:100E40008D45194521BFE34F0CD4A1452285EF0004
:100E5000C13C2305A40203A34403E30503D4914545
:100E600051BD8280797126D206D622D44AD04ECE88
:100E700052CC56CA5AC85EC683473503034475131D
:100E8000AA843E941374F40F9307400263F687001C
:100E90001304B4FD1374F40F03AA841383AAC413B8
:100EA000A38B841222865285D685EF00122B0589EA
:100EB00005E503CBD41201498149337B6403930BCD
:100EC00050024A865285D685EF003229058915C51C
:100ED000639169031374F90F238B8412B250225467
:100EE00092540259F249624AD24A424BB24B45618E
:100EF00082808509E20993D989410509E31379FDC7
:100F0000E1BF83278509723D797193D60701BD8EB4
:100F1000C206C182358E1357764093575640898B4F
:100F2000058B5D8F93573640918B5D8F935716409D
:100F3000A18B5D8F93171600C18B5D8F93173600C1
:100F400093F707025D8F931756009355860093F72A
:100F500007041E065D8F1376F60F518F93D7554009
:100F600013D63540118A898BD18F13D67540D18F16
:100F700013D61540218AD18F13961500418AD18F3F
:100F80001396350013760602D18F1396550013760B
:100F900006049E05D18F93F5F50FCD8FA207454628
:100FA0005D8F3307C70222D42A8426D252CC56CA78
:100FB000032A8413832AC4135AC806D636974207D5
:100FC000418393577740135557400989858BC98FC3
:100FD000135537401189C98F135517402189C98F7F
:100FE000131517004189C98F1315370013750502B2
:100FF000C98F1315570093558700137505041E07F5
:10100000C98F1377F70FD98F13D5354013D75540B4
:101010001189098B498F13D57540498F13D5154018
:101020002189498F139515004189498F1395350002
:1010300013750502498F13955500137505049E0518
:10104000498F93F5F50F4D8F2207D98FB387C702CC
:101050004AD04ECE5EC662C4B697C207C18313D7CC
:10106000774013D557400989058B498F13D53740F1
:101070001189498F13D517402189498F139517007E
:101080004189498F1395370013750502498F1395D0
:10109000570093D58700137505049E07498F93F772
:1010A000F70FD98F13D5354013D755401189098BC8
:1010B000498F13D57540498F13D515402189498F24
:1010C000139515004189498F139535001375050255
:1010D000498F13955500137505049E05498F93F5A7
:1010E000F50F4D8F2207D98FB387C7021306500221
:1010F0005285D685B697BD8E93940601C18033F68E
:10110000C402137BF60FEF00520505891DE98347E2
:10111000D41201498149B3849702130C5002C18053
:101120004A865285D685EF0052030589937BF90FD5
:1011300011C563863403850993F9F90F0509E31195
:1011400089FF230B6413B250225492540259F2497E
:10115000624AD24A424BB24B224C456182805E8B3E
:10116000CDB78327C50803568508797193D6070143
:10117000BD8EC206C182358E1357764093575640B6
:10118000898B058B5D8F93573640918B5D8F93577D
:101190001640A18B5D8F93171600C18B5D8F93173F
:1011A000360093F707025D8F93175600935586001C
:1011B00093F707041E065D8F1376F60F518F93D7B2
:1011C000554013D63540118A898BD18F13D675407F
:1011D000D18F13D61540218AD18F13961500418ADD
:1011E000D18F1396350013760602D18F13965500D2
:1011F000137606049E05D18F93F5F50FCD8FA207C8
:1012000045465D8F3307C70222D42A8426D252CCAA
:1012100056CA032A8409832AC4095AC806D63697AF
:101220004207418393577740135557400989858B6F
:10123000C98F135537401189C98F1355174021891C
:10124000C98F131517004189C98F131537001375FE
:101250000502C98F131557009355870013750504B0
:101260001E07C98F1377F70FD98F13D5354013D7C2
:1012700055401189098B498F13D57540498F13D576
:1012800015402189498F139515004189498F139580
:10129000350013750502498F139555001375050424
:1012A0009E05498F93F5F50F4D8F2207D98FB38790
:1012B000C7024AD04ECE5EC662C4B697C207C1838B
:1012C00013D7774013D557400989058B498F13D51C
:1012D00037401189498F13D517402189498F1395BC
:1012E00017004189498F1395370013750502498FFF
:1012F0001395570093D58700137505049E07498FF2
:1013000093F7F70FD98F13D5354013D7554011896F
:10131000098B498F13D57540498F13D51540218905
:10132000498F139515004189498F13953500137521
:101330000502498F13955500137505049E05498FC5
:1013400093F5F50F4D8F2207D98FB387C702130688
:1013500050025285D685B697BD8E93940601C18002
:1013600033F6C402137BF60FEF00225F05891DE9F7
:101370008347140801498149B3849702130C500232
:10138000C1804A865285D685EF00225D0589937B10
:10139000F90F11C563863403850993F9F90F05091F
:1013A000E31189FF230F6407B2502254925402596B
:1013B000F249624AD24A424BB24B224C456182808A
:1013C0005E8BCDB78327450903568508797193D67F
:1013D0000701BD8EC206C182358E135776409357E2
:1013E0005640898B058B5D8F93573640918B5D8F6F
:1013F00093571640A18B5D8F93171600C18B5D8F9D
:101400009317360093F707025D8F93175600935595
:10141000860093F707041E065D8F1376F60F518F33
:1014200093D7554013D63540118A898BD18F13D667
:101430007540D18F13D61540218AD18F1396150090
:10144000418AD18F1396350013760602D18F1396F9
:101450005500137606049E05D18F93F5F50FCD8FB9
:10146000A20745465D8F3307C70222D42A8426D2BD
:1014700052CC56CA032A840A832AC40A5AC806D6FA
:101480003697420741839357774013555740098950
:10149000858BC98F135537401189C98F1355174054
:1014A0002189C98F131517004189C98F131537007A
:1014B00013750502C98F13155700935587001375CF
:1014C00005041E07C98F1377F70FD98F13D5354041
:1014D00013D755401189098B498F13D57540498F12
:1014E00013D515402189498F139515004189498FDE
:1014F0001395350013750502498F13955500137523
:1015000005049E05498F93F5F50F4D8F2207D98F5E
:10151000B387C7024AD04ECE5EC662C4B697C20732
:10152000C18313D7774013D557400989058B498F5D
:1015300013D537401189498F13D517402189498F19
:10154000139517004189498F1395370013750502CC
:10155000498F1395570093D58700137505049E078F
:10156000498F93F7F70FD98F13D5354013D75540CF
:101570001189098B498F13D57540498F13D51540B3
:101580002189498F139515004189498F139535009D
:1015900013750502498F13955500137505049E05B3
:1015A000498F93F5F50F4D8F2207D98FB387C70267
:1015B000130650025285D685B697BD8E93940601C8
:1015C000C18033F6C402137BF60FEF0002390589A0
:1015D0001DE98347F40801498149B3849702130C3C
:1015E0005002C1804A865285D685EF0002370589B0
:1015F000937BF90F11C563863403850993F9F90FBD
:101600000509E31189FF230F6407B2502254925455
:101610000259F249624AD24A424BB24B224C4561CE
:1016200082805E8BCDB7011122CC604126CA4AC8A8
:101630004EC652C406CEAA841D4A130965058549C3
:10164000BC446364F400054591A0D8345C20631762
:10165000470503C784026304F7000040D5B758303C
:1016600083C75405E31BF7FE1946CA8513056400BA
:10167000EFE09FD0E31335FF582483C79402E31EA5
:10168000F7FC7A24BE34E31AF7FC0145F2406244C9
:10169000D2444249B249224A05618280E31FF7FAE7
:1016A000583083C75405E31AF7FA1946CA8513055B
:1016B0006400EFE07FCCE31235FBC1BF0111971747
:1016C0000020938727DF22CC03A4070B26CA06CE6F
:1016D0002AC42EC6854419E40145F2406244D2442E
:1016E000056182809C841830858B6304F700004478
:1016F000DDB719469305A10013052400EFE0DFC70D
:10170000E31795FE0545D1BF97170020938787CF34
:10171000984301112AC62EC432C206CE3C4B93E731
:1017200007083CCBEF70917197160020938606CB8B
:101730009C423245A24523A00700183103482500EA
:1017400022074208429703480500429703483500A4
:101750006208429798D7583103486500220742082B
:101760004297034845004297034875006208429734
:10177000D8D718350348A5002207420842970348E6
:10178000850042970348B5006208429798DB5835B8
:101790000348E5002207420842970348C500683520
:1017A000429762052A97D8DB9831A8212207420583
:1017B0002A9788212A97A83162052A9798CFD8318D
:1017C000E821220742052A97C8212A97E8316205B5
:1017D0002A97D8CF9835A825220742052A97882529
:1017E0002A97A83562052A9798D3D835E825220785
:1017F00042052A97C825EC352A97E2052E97D8D3BB
:10180000D843759BD8C3D84313671700D8C39843F0
:101810001367170098C3124698425C43858BADE767
:101820001C4F01451CA29C429C4FA1831CB29C42B0
:101830009C4FC1833CA29C429C4FE1833CB29C42A2
:10184000D84F58A2D84F218358B2D84F418378A29D
:10185000D84F618378B2985318A69853218318B64D
:101860009853418338A69853618338B6D85358A605
:10187000D853218358B6D853418378A6DC53E183EB
:101880007CB6F24005618280010079B7971700208D
:10189000938747B798431605136505083C4B93E7B4
:1018A00007083CCB97170020938747B39C4303A7B7
:1018B000450E88C398CB03A7850E0145D8CB03A757
:1018C000C50B98CF03A7050CD8CF03A7450C98D319
:1018D00003A7850CD8D303A7C50C98D703A7050D7C
:1018E000D8D703A7450D98DB03A7850DD8DB03A741
:1018F000C50D98C703A7050ED8C7984313670704FB
:1019000098C38280971700209387C7AF9843160526
:10191000136505083C4B93E707083CCB971700205D
:101920009387C7AB9C4303A7C50E88C398CB03A777
:10193000050F0145D8CB03A7C50B98CF03A7050C0E
:10194000D8CF03A7450C98D303A7850CD8D303A7FA
:10195000C50C98D703A7050DD8D703A7450D98DB6D
:1019600003A7850DD8DB03A7C50D98C703A7050EF0
:10197000D8C798431367070498C3930700F817174D
:1019800000202306F7A6828017170020130747A51B
:101990001443411122C49C5E06C626C29983858BDE
:1019A0003A84A5CB930700069CDE9717002083C7D7
:1019B000A7A393F70704971400209384E4A295C388
:1019C000971700209387078D9C43829797170020D5
:1019D00023A4A7A29C2093F7F70B17170020230539
:1019E000F7A0DC2093F707048DE785471717002041
:1019F000A30EF79E971700209387C7A09C43096703
:101A000098C7130700FC971600202381E69ED84450
:101A1000F8D318401C5F9183858B81CBC1471CDFB5
:101A20008547971600202383F69C1C5F9D83858B3A
:101A300089CB930700081CDF854717170020230771
:101A4000F79A97170020938767999C43D84305839B
:101A5000058B19C7D843759BD8C3D843799BD8C386
:101A6000B24022449244410182809717002093871C
:101A70006799944397170020938707979823058BBE
:101A800011CB971700202383079697170020A38F69
:101A9000079482809833058B6DF7F85265F3DC3339
:101AA000EDB7171800201308A893032708001C5F40
:101AB0009583858BBDE701C61C5BBD831CA29DC6BB
:101AC00083270800985B4607935767016356070012
:101AD00093E707C0C207C18303970600C207C18707
:101AE00009C7BA970947B3C7E7029EA285C11C314F
:101AF00091CF3E951C350547194593F6F70663933C
:101B0000E602E207E187394563CE07008327080034
:101B100001459C5FED838D8B17170020A30BF78C7D
:101B2000828005458280411122C406C61714002018
:101B30001304448D18403DE5AE877453FDFE3E8589
:101B4000B285971700202382078AEF70B10C971790
:101B500000209387E7889C43B70680009843558F01
:101B600098C3D857719BD8D797170020A3800788B0
:101B700097170020A38A07861C40094798C3144082
:101B800017170020130747863C23858B81EB3C33D6
:101B9000858BD9C797170020238A0784B240224437
:101BA000410182808D476310F502971700209387CB
:101BB00027839C43B70680009843558F98C3D85716
:101BC000719BD8D76DBF8547E31BF5FAB567BD0795
:101BD0005CC7010001001C400967094698C713074C
:101BE00000F8971600202383E680170700201307CC
:101BF000277F1443984231830D8B6319C700130765
:101C0000E043F8D33D673D07D8C795BF984231837D
:101C10000D8B01E713076019EDB71307E01BD5B76C
:101C2000FC52BDF3A5BF5D7152DC170A0020130AF8
:101C30002A7B03270A0086C6A2C4A6C2CAC04EDEFB
:101C40001C43971900209389A980170900201309C4
:101C5000697B93F7F7E793E707081CC383A609009E
:101C60003707CEFF7D179C46130680022A84F98F22
:101C70009CC6832709002800AE8423A80704930587
:101C80001008EFE0EFE9EF70711BEF705128832728
:101C90000A009376F41F3706330023A40700984BFD
:101CA000370FFCFF4E881367F70398CBF84FCA88AD
:101CB000130510F8137707E0558FF8CF9843F576A2
:101CC000FD16758F98C317070020A301077283269E
:101CD000090017070020A3090770054798C2984319
:101CE000D285B70204001377F7E798C398439303AC
:101CF000401F11491377F7E71367071098C303A72D
:101D000009007D1F85491C47930F8002D18F1CC796
:101D100093079005BCCA014734001353370026933C
:101D20008347030013767700B3D7C740858BDDCF99
:101D30009C41832E0800239C07042390070603AED2
:101D4000CE02137EDEFF23A6CE0383AE0700137EF2
:101D5000F70793FE0EF833EECE0123A0C70103AEC2
:101D60004702336E5E0023A2C70383AE0800014E14
:101D700023A27E0603DA070663074E0303AE0703BA
:101D8000038A0600135EFE00620E135E8E416358E6
:101D9000CA0103AE0703135EFE002380C60103DE03
:101DA0000706137EFE0F03AA4E0663060A0003DA37
:101DB0008705E37F49FB03AE4702337EEE0123A292
:101DC000C70383870600635CF400034E0300339669
:101DD000C9001346F6FF3376C6012300C3003E86D2
:101DE00063D3A7002A86131586016185050713773B
:101DF000F70F8506E313F7F3B640264496440649E9
:101E0000F259625A61618280970600209386865F4C
:101E10009C42D847131617016355060298471316BC
:101E20001701635006027D57B8D717070020130724
:101E3000A73C584F050717060020232DE63C1167E5
:101E400098C798470D83058B1DC3170700200347CC
:101E5000C75913671700170600202308E658130711
:101E600000F8170600202303E658214798C7984733
:101E7000058B09CF17070020034717571367170073
:101E800017060020A302E656054798C7984709831E
:101E9000058B09E798470583058B21CF98471706DF
:101EA00000201306665417050020130565530983A7
:101EB000058B630107101841184331830D8B65EBC7
:101EC000AC4B184E93F505021833C5CD71EF1307CF
:101ED000D005D8CF18221367170017060020230556
:101EE000E650114798C718415C57F19B93E71700DC
:101EF0005CD79C4298479316370163D60602970633
:101F0000002083C62662C18A170700201307875A5C
:101F1000DDCA0347070713670702970600202383DC
:101F2000E660056798C798479316270163D10602B4
:101F3000170700200347874B620761876357070035
:101F40000547970600202383E64A096798C7984704
:101F50009316070163D606029706002083C6965C97
:101F6000858A170700201307E754A5CE03471707F4
:101F70001367270097060020A386E65A216798C7B3
:101F8000828031D785456315B7001307100691B7D6
:101F900089456315B7001307500625BF8D456315A6
:101FA000B7001307900635B71307B0061DB7130720
:101FB000C00605B738321367170017060020A306BE
:101FC000E642094705B7834607070946BD8A638885
:101FD000C600034707078D463D8BE314D7F411472E
:101FE0002DBF83461707918AD1DA03471707136776
:101FF000870049B71707002013070741343F9707A9
:10200000002083C73743B69793F7F70FFD4663EA7F
:10201000F6044C4B97060020A388F63E9707002055
:1020200083C7973E05473317F70097060020A38321
:10203000F6406D8F1DEF9706002083C6F63FB3F67E
:10204000D70213050002814733D6F500058A13F83D
:10205000F70F09CE6399E60097070020A386073B98
:10206000828081177DB705071377F70F8507E39DFA
:10207000A7FC8280970700209387C7219C434111CA
:1020800022C44AC006C626C28297970700209387BB
:10209000A739804701496301A404018DBE8413540C
:1020A00055009707002083C7C7371379F50163628E
:1020B000F4028937944417070020034787369317A3
:1020C0005700BE96198C9707002023A3D736E372DA
:1020D000E4FE160433692401B24022444A85924446
:1020E000024941018280970700209387A71A9C43E9
:1020F000411122C406C626C2829797070020938703
:10210000A73280476307A404018DBE841354550091
:102110009707002083C7E730636DF402E13D9844E0
:102120009707002083C7E72F9396570036971D8C9B
:102130009706002023AEE62EE372F4FE2244B2405E
:102140009244170500200345352C814541016F70ED
:10215000B11CB24022449244410182809707002082
:102160009387072F9843B75702009387079F8326CB
:10217000070913965600635806008326070913962D
:10218000660063440600FD17FDF3828069C1AA87DB
:102190000145E1C18D07C207C183F19BC207C1831D
:1021A00013074003636FF702170700201307073078
:1021B0000843170700201307E72E14436398A6026D
:1021C0001707002013078708585B014559C34111C1
:1021D000C20706C60545DD8D0297B24001454101A3
:1021E0008280170700201307272CD9B77A2131EFF7
:1021F0005A21636CF704B306F7402146637AD6028E
:1022000003280500938687001D8FAA96611717067D
:1022100000200356C6FEDAA223A00601239306007F
:1022200014C15EA1130786FF970600202399E6FCE0
:102230006EA19705002083D585FCB387F54017076D
:102240000020231EF7FA21058280084185BF014541
:10225000828082800DC1970700209387272503A3E2
:102260000700970700209387E72383A8070081468C
:102270009A8763E31701828003A807006362F50A67
:102280006360A80A13878700E367E5FEF2232167EE
:1022900005076317E60003C7C19005072386E19091
:1022A00097050020938545F5D223FA212393070053
:1022B000329742074183170500202312E5F4638714
:1022C0006702170500201305251E08416300F5026B
:1022D000EA2209EDDE2223A0060121073E9621060F
:1022E000D2A297070020239CE7F0B6879843E30427
:1022F00017F9970600209386261B9442E30DD7F624
:102300007623B5FAD62352231843A106B296D6A354
:1023100098C3FE21A107170700202312F7EE828041
:10232000BE86C287B9B797070020938727189706FC
:102330000020938626179C4390422A87B305B54018
:102340006314F6003A8529A8938687009C43E369C5
:10235000D7FEE377F7FE2E85E3E4D5FEE3F2F5FE44
:1023600082800111970700209387C71422CC03A411
:10237000870B26CA4AC84EC606CEAA841309250072
:10238000854905C09C303830858B6304F700405C7C
:10239000CDBF1946930544004A85EFD0FFFDE318F1
:1023A00035FF2285F2406244D2444249B249056178
:1023B00082804111970700209387C70F22C403A48E
:1023C000870B26C24AC006C693042500054901E8CA
:1023D0002285B24022449244024941018280A6856E
:1023E0001305A402EFF06117E30425FF405CC5B7B5
:1023F0004111970700209387E70B22C403A4870BA2
:1024000026C24AC006C693042500054901E8228574
:10241000B24022449244024941018280A6851305BC
:10242000A401EFF08113E30425FF405CC5B7000071
:1024300001A001A001A001A001A001A001A001A094
:1024400001A001A001A001A001A001A001A001A084
:1024500001A001A001A001A001A001A001A001A074
:1024600001A001A001A001A001A001A001A001A064
:1024700001A001A001A001A001A001A001A001A054
:1024800001A001A001A001A001A001A001A001A044
:1024900001A001A001A001A001A001A001A001A034
:1024A00001A001A001A001A001A097E1FF1F93815D
:1024B000614D17E100201301E1B417150200130567
:1024C000656E97E5FF1F9385E5B31386818563FAF3
:1024D000C5008322050023A0550011059105E3EAFC
:1024E000C5FE13858185970500209385A50E63772A
:1024F000B500232005001105E36DB5FEFD42739084
:1025000002BC8D42739042809302800873A0023017
:1025100097E2FFFF938282B293E2320073905230CF
:10252000EF10B041972200009382C2BB7390123427
:1025300073002030EFF21104B72701409387074062
:10254000631CF500854513050020412581451305D1
:102550000020A52D6FF05104B73701409387078005
:10256000E31AF5FE854513050040852581451305D1
:102570000040C5B75C413707F1E01307F7EF944D12
:102580007D8F9C41D58FD44DD58FD441A206D58F58
:10259000D98F5CC11C4537F7F1FF1307D77FD445AE
:1025A0007D8F9C49D58F94458606D58FD98F1CC5C4
:1025B0005C55370710FF7D177D8FDC29FD1793F7DA
:1025C000F70FD207D98F5CD582801C4589C593E768
:1025D00017001CC58280F99BEDBF1C4593E787005F
:1025E0001CC5828008450D81058982801C4593E7C2
:1025F00047001CC5828008450981058982801C45E9
:1026000091C537075000D98F1CC582803707B0FFAE
:102610007D17F98FD5BFA54763F7B7048D4713879B
:1026200065FF3307F7020328C5009D47B397E7000E
:1026300093C7F7FFB3F70701B396E600DD8E54C5E5
:10264000994763E3C70495477D163306F602585948
:10265000FD47B397C70093C7F7FFF98F3396C500BF
:102660005D8E50D982800D473387E502032805012E
:102670009D47B397E70093C7F7FFB3F70701B396FA
:10268000E600DD8E14C96DBFB14763E2C70295470E
:1026900065163306F6021859FD47B397C70093C76E
:1026A000F7FFF98F3396C5005D8E10D9828095476C
:1026B0004D163306F6025855FD47B397C70093C72A
:1026C000F7FFF98FB395C500DD8D4CD58280684545
:1026D000420541818280B727014093870740984790
:1026E00011C5B7068000558F98C78280B70680FF56
:1026F000FD16758FD5BF08416D8D3335A0008280E2
:102700005C4191C537070004D98F5CC182803707CF
:1027100000FC7D17F98FD5BFEFF2C16501112A8446
:1027200023040100A5441C8463F9F404230401007C
:10273000A54621461C8463FDF606231501002304EB
:10274000010095461C8463FFF60C38853C8599464C
:102750000D46B3F7D702056513050580B3D7C70249
:102760003357D702BA97C207C1837C853C85056180
:102770001D8D420541856FF021621C4493E787005F
:102780001CC42285853575FD1C4493E747001CC495
:102790002285953575FD78441C8414108607B697FC
:1027A0002396E7FE1C84850793F7F70F5C84A5BF8B
:1027B000A30401009C846378F6001C84850793F7CA
:1027C000F70F5C8485BF98849C840C1006078507EE
:1027D00086072E97AE970357C7FE83D7C7FE63FDC4
:1027E000E7029C848607AE9783D7C7FE7C859C84CE
:1027F000988485078607AE9783D5C7FE9317170081
:102800001810BA972396B7FE9C8438850C1085075C
:102810008607AE972396E7FE9C84850793F7F70F0C
:10282000DC8449BF1C841010388589078607B2975D
:1028300083D7C7FEBA97C207C1837C851C848507EE
:1028400093F7F70F5C84FDBDB707014023AAA740AB
:102850008280372702401C4B93E707081CCB8280FD
:10286000B7066745B7270240938636123797EFCDF4
:10287000D4C31307B79AD8C3D4D3D8D38280EFF286
:10288000614FC13F6FF04151B7270240984BB706E7
:102890000200137505F0558F98CBC8CB984B136782
:1028A000070498CBD847058B75FF984B8176FD16AA
:1028B000758F98CB8280372702401C4BC1661375F9
:1028C00005F0D58F1CCB5C47858BF5FF3727024081
:1028D0005C47898BF5FF3727024013060010B3864B
:1028E000F50003A80600B306F50023A0060154472F
:1028F000898AF5FE9107E394C7FE1C4BB7062000BA
:10290000D58F1CCBB7270240D847058B75FF984B56
:10291000C176FD16758F98CB828037F7FF1F83270E
:10292000877E93D687001CA114B193D60701E1835B
:1029300034A13CB18327C77E5CA1A1835CB18280B6
:102940009C4513F7070113F8F70001C7D841336816
:10295000E8008E2113F7F50F39C318418146854EE3
:102960003D4F930F800293028004214E3396DE0088
:10297000B3F8C500631116039398260033131F01A3
:102980001343F3FF3377E300B318180133E7E8008C
:10299000639FF70550C98506E39AC6FD18C1130762
:1029A000F00F6375B70454412146854E3D4F930F98
:1029B000800293028004414EB398CE0033F7150194
:1029C0006392E8021317260001173313EF00134335
:1029D000F3FFB376D3003317E800D98E639DF70178
:1029E000232A15010506E319C6FD54C18280E3942C
:1029F00057FA10C94DB7E39757FE23281501DDB7E5
:102A000008456D8D3335A00082800CC982804CC989
:102A10008280377700401C4309C593E707101CC329
:102A2000828093F7F7EFE5BFB7160240DC4251779B
:102A30007D17F98F5D8DC8C28280B7170240238051
:102A400007022380070205476306E5001147630676
:102A5000E50082802380A702828015472380E70259
:102A60008280371702401C535D8D08D3828001C9D4
:102A7000371702401C53A166D58F1CD38280B7162E
:102A800002409C5261777D17F98F9CD28280371764
:102A900002405C439146B18B6387D706A1466389A8
:102AA000D706B7177A00938707201CC13716024054
:102AB0005C4237070020130707009183BD8BBA974C
:102AC00094231C41B3D7D7005CC15442A1829D8A94
:102AD000BA969422B3D6D70014C55442AD829D8ACB
:102AE00036971823B3D7E7005CC5584239839376ED
:102AF0003700370700201307071836971823B3D776
:102B0000E7021CC98280B757E8019387078071BF2D
:102B10005C435843C166C983BD8B758F8907C54621
:102B20006393D700C94701EF374702400327078067
:102B3000418B15CB37177A001307072029A8B71642
:102B40000240D8423706C000718F6319C70037278B
:102B5000F40013070740B387E70281BFD8429316FA
:102B6000E700E3D906FC37173D0013070790E5B7E8
:102B700099C5371702405C4B5D8D48CB8280B717F3
:102B80000240D84B1345F5FF798DC8CB828099C59B
:102B9000371702401C4F5D8D08CF8280B717024067
:102BA000984F1345F5FF798D88CF828099C53717E7
:102BB00002405C4F5D8D48CF8280B7170240D84FEE
:102BC0001345F5FF798DC8CF828099C5371702402C
:102BD0005C475D8D48C78280B7170240D8471345D0
:102BE000F5FF798DC8C782809357550005476399D3
:102BF000E700B71702409C4333D5A70005898280C0
:102C000009476396E700B71702409C53F5B7B7171B
:102C10000240DC53D5B7B737004003D7478013676E
:102C200007012392E780828037370040835747802F
:102C3000C207C183BD9BC207C1832312F780828074
:102C4000B736004083D7868103D5C68103D78681F6
:102C5000C207131605014207C1834183418293864F
:102C600006806386E700CA2E4207598D828013953D
:102C70000701518D8280EFF2E10F41112AC6613FB9
:102C80003245B7370040135705014205239CE780C2
:102C90004181239EA780493F41016FF0E10FEFF290
:102CA000610D41112AC6853F3245B73700401357A1
:102CB00005013D8B42052394E78041812396A7803F
:102CC000A53741016FF0410D3737004083574780EA
:102CD00093F70702E5DF8280B737004003D74780CC
:102CE0001345F5FF798D2392A7808280EFF281084A
:102CF000E5376FF0610AEFF2E1071629F577FD1766
:102D0000F58FF621DA257971D58F1EA95625FD7725
:102D10009387379FF58FD6212A842EC6D58F962587
:102D2000D58FB625D58F5EA55E29C207C18393F7DF
:102D3000F7CFD98F5EA96808993BB74701409387C1
:102D40000780B245631AF404A25756246547B38737
:102D5000E702C206C186984163D2060406075224E0
:102D60004206B3D7E702130740064186B3D6E7020F
:102D7000B3F7E7029206635506028E07938727038F
:102D8000B3D7E70213F77700B367D700C207C18351
:102D90001EA445616FF04100925745BF0A07C1B7B5
:102DA000920793872703B3D7E702BD8BD58FF9BF6F
:102DB00091C55E250967D98F5EA582805A25F9776E
:102DC000FD17F98FD5BF93F5F51F4EA182800A211B
:102DD0006D8D3335A000828083A7C18137177A00BB
:102DE00013070720B3D7E70293F7F70F238DF1847A
:102DF0001307803EB387E702239CF1848280B7F7F4
:102E000000E0D8438146799BD8C303C7A185330628
:102E1000A70290CBD4CB98431367070198C398437C
:102E20001367170298C3D843058B75DF9843799BC6
:102E300098C38280B7F700E0D8438146799BD8C316
:102E400003D781853306A70290CBD4CB9843136771
:102E5000070198C398431367170298C3D843058B9B
:102E600075DF9843799B98C38280EFE2B1702A8422
:102E70001165011185451105193B930700207C82DE
:102E8000371501408D473EC44C00E14713050580CE
:102E90003EC67D3422C837440140B70708000C08FD
:102EA000130504803ECC02CA231E0100A9358545C6
:102EB00013050480F53D05616FE0116EEFE2F169E5
:102EC000B7440140AE89328901449384048063454C
:102ED00024014A856FE0B16B930500042685C53D4A
:102EE00065DDB38789008385070026850504C20553
:102EF000C181D13DE9BF138741801C43B726002023
:102F00009386065D3E95636BD500B70601209386D8
:102F1000060063E5A60008C33E858280FD57EDBF2D
:102F2000EFE251657971130600028145080802C27B
:102F300002C402C6EFE03172854513054020813995
:102F40002165DD3437150140A9474C001305058084
:102F5000372401407C8202C6E53213050440EFF0BD
:102F60006FDDB7070E003ECE0C0885471305044001
:102F70002302F10202C802CA02CC02D0EFF08FDFB6
:102F8000854513050440EFF04FE4814513050440E7
:102F9000EFF00FF713050440EFF02FE49304044023
:102FA0002685EFF02FE46DFD130504403724014022
:102FB000EFF0CFE3930404402685EFF0CFE36DFDFF
:102FC00013050440EFF04FF5239EA18485451305BA
:102FD0000440EFF0EFF245616FE0115C8397C1852B
:102FE0000147AA9763CE070005669306F6FF36876A
:102FF00063D8C7002A876305D5001397070141836B
:103000003A858280EFE2115737240140AA8599461C
:10301000054613050440EFF00FE085451305044015
:10302000EFF0EFDD9304044089452685EFF0AFEC27
:1030300065DD13050440EFF08FE942054185793FD6
:103040006FE09155EFE2115341112A890144814407
:103050006319B40033D584024101420541816FE018
:10306000B1534A852EC60504713FAA941374F40F18
:10307000B245F9BFEFE21150653523A001866FE03C
:10308000B151EFE2314FA14505456D3F9307807F78
:103090001384018663EFA70685471CA09307907FE2
:1030A000898F1305803EB387A7021305707F2947D8
:1030B000A145B3C7A7020D459507B3C7E7021CB0EA
:1030C00051379307307F63F2A70685473CA09307EB
:1030D000D5801305803EB387A70205651305A5803B
:1030E000294710300C20B3C7A7023735020013055B
:1030F00005139507B3C7E7023CB0EFE051603030ED
:103100002C203735020013058514EFE0515F6FE086
:10311000B148930775801305803EB387A702056504
:10312000230004001305458059B7898F1305803E9D
:10313000B387A702230104001305107F55B7EFE200
:103140007143137735008D47631AF7003735020056
:1031500013050516EFE0F16B6FE01144937715004E
:1031600085C73735020013058517EFE0916A93870D
:103170008186982375F3054798A303C56188930555
:103180000040EF10403DC9BF098979D537350200AD
:103190001305C518EFE0F1679387818698234DFFEB
:1031A0000947D9BFEFE2113D23820186B7370000FE
:1031B0009387E713411123A6F18685451305000285
:1031C00023840186E932930700067C82371501408B
:1031D0008D473EC44C0093078004130505403EC64E
:1031E000EFF00FF641016FE0313BEFE2B138B71479
:1031F00001409305000213850440EFF07F801334F3
:1032000015009305000413850440EFF06FFF19E1EA
:10321000136424009387418698236309870080A361
:1032200011C483A7C18699C3228582976FE0D136E6
:10323000EFE25134B28713962500AA853E85EFD080
:10324000EF8A01456FE05135EFE2D13241112A8416
:1032500032C6EFF0EFE02285EFF00FE33246228531
:10326000B285EFF04FE5EFF08FE10545493E0145AE
:1032700041016FE07132EFE2712D0111130600027E
:1032800081450A85EFE0313D3724014013040440B5
:10329000B717024085451305002083AB870103ACB7
:1032A0004700032B4400832A8400032AC402832995
:1032B00044030329C400EFF09F8D3165EFF0CFF692
:1032C0002285EFF02FA7B7070E003EC68A858547F7
:1032D0002285230AF10002C002C202C402C8EFF034
:1032E0006FA985452285EFF04FAE85452285EFF029
:1032F0002FC10545EFF02FBE9D460546C1452285ED
:10330000EFF06FB185452285EFF06FAFB724014034
:1033100089452285EFF02FBE65DD13850440EFF06F
:103320000FBB2A8413850440EFF0CFA0B7170240EB
:1033300023AC770123A2870123A2644123A4544133
:1033400023A6444323AA344323A6244122850561AE
:103350006FE05123EFE2112293970501C1872E847C
:1033600063DA0700EFC0FFE319C1EF00906C21653D
:10337000218D1DA093F7150013C5150091EF93F74C
:10338000250089CF9D3503C50187130600058945B2
:10339000EF10002C134524006FE0112093972501B6
:1033A00063DF0700EF60816103C5018737F6020024
:1033B000130606E08965EF10A029096555BF9397AC
:1033C000150163D10702373502001305451AEFE0F6
:1033D000514403C50187130600649165EF1040272F
:1033E000116579B793F745000145DDD7593903C514
:1033F0000187130600059145EF1080251345440011
:1034000061BFEFE23117B7350200373502005D7159
:1034100055469385851A1305857AEFC0FFF501E9B6
:10342000373502001305051CEFE0B13E01A0B727B8
:103430000240D857B7060090FD16758FD8D7D857D9
:10344000B706003013060004558FD8D7D857B706F3
:1034500000038145558FD8D70808EFC07FECB70728
:1034600000209387C7583EC88967938707C0FC82AE
:10347000B7870708938707C03ECC93073050FC8777
:10348000ED472310F10285472301F102B737000011
:1034900093870723BEC4B737000093878724BEC62F
:1034A00091672317F102930720032318F102856720
:1034B000938797D02312F102B737000093876727CD
:1034C00028003EDEEFF06FC51808814799463000AE
:1034D0003E9610228507050770BBE39AD7FEC247C8
:1034E00089C7B88285676373F70001A00808EF10E9
:1034F000405EAA8501C9373502001305451DEFE07E
:10350000112001A0854513050004EFF06FE6B7E731
:1035100000E03707008023A2E710054723A4E71047
:1035200061616FE07107EFE2F104373500001305C8
:103530004535EF1040561384018708A051201D3EE9
:1035400021288D31082037F60200130606E0896530
:10355000EF1000106FE05104EFE2D10141118545F9
:10356000414502C202C402C6EFF06FE28D477C8281
:103570008D473EC44C00C147371501403EC6EFF0B1
:103580002FBC854537150140EFF06FC889453715C9
:103590000140EFF08FC741016FE01100EFE2817D44
:1035A00085476399F500AA8537150140EFF02FC6CE
:1035B0006FE0817EAA8537150140EFF00FC5CDBFC2
:1035C000EFE2417B854537050018EFF02FDE05451A
:1035D000EFF02FC40545EFF04FC60144130510046A
:1035E000EFF08FE021C99307900F63F8870037351C
:1035F00002001305451FEFE0D12113050010EFF085
:103600004FC60545EFF0AFC6EFF00FECEFF0CFEB94
:103610000545EFF0CFE8EFF02FEB0145EFF0AFE518
:10362000EFF08FEA37350000130505C4EF10407B3B
:103630006FE081760504420429454180EFF08FFF59
:1036400071BFEFD00F8905473705020023AAE18635
:10365000EFF08F9F0945EFF06FE9EFF0EFE67300B1
:103660002030EFE2217137350200B305B040130579
:103670008553EFE0D1086FE02172EFE2A16F4111B5
:103680003284708603C661886C00EF50202637357F
:103690000200A2851305454AEFE071060547A38F96
:1036A000E18641016FE0416FEFE2C16C411136C626
:1036B0002E84EF00D055B24637460F00130606247D
:1036C0003376C50291CA37350200B285130585529B
:1036D00032C6EFE0D102324681452285EFA0914CFF
:1036E00041016FE0616BEFE2E16889E93735020083
:1036F000B2851305854BEFE0910019A885476390CB
:10370000F50209EA373502001305C54CEFE07110E8
:103710006FE08168373502001305C54DC5BF894785
:103720006398F50075F6373502001305C54EF9BFED
:103730008D47E39FF5FC11E6373502001305C54FB1
:10374000F1B737350200B285130505516DB7EFE2C9
:10375000C1602A8AAE8981441384C1981389018883
:103760000345090063E9A4040E0509051946D2853D
:103770002295EFC0BFB78345090037350200130516
:10378000C53A93973500850593F5F50F1386F5FF38
:103790000E062296A297A38037018348760003483D
:1037A00066005C325822343230222300B900EFE048
:1037B00001756FE0C15D9395340089051946A295A6
:1037C0005285EFC07FBB75F5850493F4F40F79B78C
:1037D000EFE2A15893970501C1870111AE8463D12F
:1037E000072603C5618893896188EFC09F9B2A845F
:1037F00005C518219307000B631DF70083C71188C7
:1038000009474C21130A8500638DE7005285EF506C
:1038100020632285EF00F0212165258D05616FE091
:1038200001570D47638FE5000547639EE5001825A6
:103830006317F7024C253735020013050525EFE025
:10384000016CA38F018658209307F0076319F700D6
:103850000E243735020013058526EFE0416A5C200F
:103860002D476384E70205476398E7021824A946B9
:10387000631ED7024C243735020013054527EFE0BD
:103880000168A38F01864C2051B75C443735020094
:10389000130545288C23E5B74D476392E70237357A
:1038A00002001305852AEFE0C176E1BFC946631324
:1038B000D702373502004C2413054529C9B76D4797
:1038C000639AE7002E24373502001305852BEFE0BD
:1038D000016355BF03C7E1871389E1874DD785464B
:1038E000631CD7061D476397E7021E2485C75C4407
:1038F000373502001305C52C8C33B0339823BC2315
:10390000A2052206D98D5D8E2392B1882391C188AC
:10391000EFE0E15E5C201D47639EE7021830E94757
:10392000E393E7F683D74188B9DF7C8483D7218886
:1039300009472300E9007C85F977938727107C8667
:10394000FD575C8703C6090003D581812C00EF5029
:10395000200415BF0547E9B78946631BD7042547EF
:103960006391E7021E2491CF5C44373502001305B2
:10397000852F8C339C23A205DD8D239DB186EFE03E
:1039800001585C2025476393E7021830E947E39C20
:10399000E7EE8D472300F90083D741887C8483D7E5
:1039A00021887C85F9779387273051BF0547C5B7B4
:1039B0008D46631DD70425476391E7021E2491CFEE
:1039C0005C4437350200130505328C339C23A20575
:1039D000DD8D239EB186EFE081525C202547639503
:1039E000E7021830E947E390E7EA91472300F9003E
:1039F00083D741887C8483D721887C8593072020C6
:103A00007C869307900235BF0547F1BF9146E31CC2
:103A1000D7E625476393E7021E2485C35C44373508
:103A20000200130585348C339C23A205DD8D239C75
:103A3000B186A38F0186EFE0814C23000900A1B578
:103A400093F7150091CF03C5618837060020130650
:103A5000060193850181EF90814313C514007DBB5E
:103A600093F7052081CB41657D15EFB0410913C562
:103A700004206DB393F785008DCB81577C84239E02
:103A80000186239D018623910188239201880547A1
:103A9000238FE18683C6618803D5818109462C0086
:103AA000EF50A00E13C5840095BB93F7050191CF8D
:103AB00003D581811307400681461306000399450B
:103AC000EFB0610313C5040191BB93F705029DC3D9
:103AD00003D581810147894609468145EFB04104FC
:103AE000AA853735020013050538EFE0414113C5BB
:103AF00004022DB393F70504CDC383C7F18713895F
:103B0000F187ADE783C6A18103D7A18703D5818162
:103B1000138A81811384A181B5C2788485470147C6
:103B200081460546C945231801007C85EF40907108
:103B30002AC60DCD9307A0051CA19389618803C6F1
:103B4000090003550A002C00EF4010651DE1854770
:103B50002300F9001C2003C509001306006493B775
:103B60001700930500041CA0EF00902E13C5040459
:103B700075B1C9452800EF50A02CCDBF03C66188A0
:103B80002C007884EF40906075F185472300F900A0
:103B90001C2093B717001CA0D1BF93F70508A5C33D
:103BA00003C7F1871384F18739E383D7818703D56E
:103BB00081817C84814689470946C94523180100D3
:103BC0007C85EF4030682AC6138981810DC1854903
:103BD00023003501B247035509002C00A3800700DC
:103BE00003C66188EF40505B11E52300340113C523
:103BF00004082DB1C9452800EF508024CDBF93F7AC
:103C000005108DC303D58181EFA0B16E03C5618816
:103C100005661306069693050010EF00702313C582
:103C20000410EDBE93F70540638D071203CAF187B8
:103C30009389F18763100A1237350200130545395D
:103C4000EFE0213D83D7A18703D581812549014735
:103C500081462546C9457C8423180100231521018E
:103C6000EF40505E2AC69387818159CD1485254740
:103C70006394E6041307500518A1054738B158A10D
:103C800003C78186A300250123010500A3020500C7
:103C90008546631ED70678A105471D46B306E50095
:103CA00094220507D29613FAF60FE319C7FE1307FD
:103CB000A0FAA303450118A51384618810208A2364
:103CC0002C00EF40704D3DE985472380F90003C784
:103CD000818685463E896312D70403C501879145D5
:103CE000EF00903603C5018791458569EF005009C3
:103CF000082093850980EF003035082093850980DE
:103D0000EF0010082384018613C5044001BE8946D4
:103D1000E314D7F82303050041B78947E314F7FEFE
:103D200003C501879145EF00100308208565130640
:103D3000000A93850580EF00B011E9B7C945280056
:103D4000EF50001008201306000593050040EF0017
:103D500030105DBF130600059305004003C5618860
:103D6000FDB7939745010145E3DA07AA83C9F187B7
:103D7000639D090883D7C18703D5818129490147FC
:103D80008146294693052005231801007C842315CC
:103D90002101EF40304B2AC6138481813DC518852F
:103DA000A947631BF704930750051CA189473CB141
:103DB0005CA1A300250103C7018693870186943384
:103DC0001E0723010500558F78A1B823BC33A30239
:103DD00005001E07D98F7CB1A14685473307F50042
:103DE000182385074E979379F70FE399D7FE93072A
:103DF000A0FA230435011CB50A202C00EF40D03A6C
:103E000009C5C9452800EF50A00303C561880564B2
:103E1000930504801306000513040480EF0050038B
:103E2000A18C139504014181D5BA3C2149476365B2
:103E3000F720EFD29172373702008A071307472025
:103E4000BA979C432A84828705041374F40F83C7AE
:103E5000018813890188637CF40093153400890577
:103E60001946A69513858180EFC00FD171DD834778
:103E70000900639A8702373502001305453EEFE0DB
:103E80004119014685450D4523000900EF900108C1
:103E9000373502001305453DEFE0A117F9A00144B5
:103EA0009384C1986DB7373502001305853FEFE065
:103EB00041169387C1980E04930624003E94103057
:103EC000BE9681450145EF90E10103C56188056615
:103ED000130606C893050020EF00807737350200EF
:103EE0001305854055BF9384618888209305002081
:103EF000EF0090150C30B9E50947A380E1883A241A
:103F00008545239CE18009450547A38FE186EFF0B5
:103F1000EFE8882013060064A145EF006073882055
:103F20000566130606C8C145EF00807203C5018708
:103F3000130600328945EF00A071373502001305E2
:103F4000854199BF3735020013058542EFD0317B9B
:103F5000373502001305453DEFE0A10B23800188B2
:103F6000014685450D45EF80717A6FD051627957D2
:103F7000A3800188239CE18093846188238F01863C
:103F8000239D01868820239E018623800188930536
:103F90000010A38F0186EF00300B03C50187894510
:103FA000EF00900A03C501878945D92B03C5018716
:103FB0009145EF00700903C5018791450569C92343
:103FC000882093050980EF00300888209305098038
:103FD000452B81450945EFF06FDC6C203735020039
:103FE00013054544EFD0B171373502001305453D47
:103FF000EFE02102B5B7373502001305054669BD6C
:10400000373502001305054741BD3735020013055A
:104010000548EFE0010003C701889307F004E3E6D9
:10402000E7F44C2013055400EFF06FF23DBF373535
:10403000020013050549F1BF8280EFD2B153373535
:10404000000041111305057DEF00F0241384618801
:10405000856508A0938505960945EF20C059D1458F
:104060001D45EF204059930540062145EF20A058FB
:10407000930540063545EF20005885470D477000F1
:1040800091451305F0405C84DC845885DC8502C6CC
:10409000EF9051503000854513058040EF90914FCF
:1040A00013069100854513059040EF90B14E13061D
:1040B000A10085451305A040EF90D14D1306B10036
:1040C00085451305D040EF90F14CEF50C0750820A6
:1040D000EF50002908208545BD2941016FD0D14B03
:1040E000EFD25149EFE05FCF716513050520EFE096
:1040F000DFD7B735020037350200938585541305A5
:104100004555EFD0D15F373502001305857AEFD0E2
:104110005170EFF00FAFEFF00FC1EFA0B120313FC2
:10412000EFC00F867300203001A0EFD0FF85730031
:104130002030EFD07FCD73002030B7170240984376
:10414000B706FFF841111367170098C3D843370625
:104150000200758FD8C39843B706F7FEFD16758F1A
:1041600098C39843B706FCFFFD16758F98C3D843D4
:10417000B70681FFFD16758FD8C337079F0098C714
:1041800002C402C69843C166558F98C3B716024051
:1041900005679C42F18F3EC6A24785073EC4B247E1
:1041A00081E7A247E397E7FEB71702409C431397C6
:1041B000E700635E070685473EC6324785476316BC
:1041C000F706B7170240D843B706C000558FD8C3CB
:1041D000D843B706C1FFFD1613670708D8C3D843F5
:1041E000D8C3D84313670740D8C3D843758FD8C303
:1041F000D843B7063500558FD8C39843B70600019A
:10420000558F98C3984393166700E3DD06FED843A5
:10421000B7160240719BD8C3D84313672700D8C391
:104220002147DC42B18BE39EE7FE4101828002C65A
:1042300069B70DC18346E5FF1307F00F9147639CF3
:10424000E600411106C6EFE0EF80B24081473E85AF
:104250004101828095473E85828001E90145828047
:104260000145B24022444101828095654111938508
:1042700005D022C4C98D2A842105C2054205C18109
:10428000418106C6EFD09FF061DDFD572320050078
:1042900042A17CA12105F1B7B9CD411122C406C6C6
:1042A0002A8497E7FF1F83C737F52E856375F400CF
:1042B000894763E88700B53F0D45B240224441017C
:1042C000828083A785FF99E703C7E5FF9307F00F77
:1042D0006305F700B93F1545CDB7238F85FE17E578
:1042E000FF1F130525F1EFB03FEA22852244B240BB
:1042F000A16541018DA41545828097E7FF1F23AB7F
:1043000007EE8280C9C1797122D406D626D24AD05E
:104310004ECE01444147B3D78540858BA5C31205D6
:10432000314722953305E50297E7FF1F938707F68C
:1043300003A907008544B3948400C204C180BE89E8
:104340002A990327090011C7032549002EC60297A1
:10435000B24531473304E40283A709003E941C446C
:1043600089E72320090023220900B2502254A58D99
:1043700002599254F2492E85456182800504E31C5E
:10438000E4F88144DDB72E85828041111397050141
:1043900022C406C626C24AC041872E846350070243
:1043A000EFB03FE019C1EFF0DFE8A1673D8C228557
:1043B000B24022449244024941018280EDD9AA8749
:1043C00001474146B356E440858A8DCE9207BA979D
:1043D000B146B387D70297E6FF1F938626EB03A962
:1043E00006008544B394E400C204C1803E9983274B
:1043F0000900032549008297232009002322090090
:10440000258C75B70507E31FC7FA8144D5BF97E729
:10441000FF1F9387A7E3DC53411122C406C6138410
:10442000018299C782971C403E9523A0A18239A0A2
:1044300097E7FF1F938707E69C43EDF70840B747D0
:1044400003009387D73F3305F502B7A7260093876C
:1044500037ECB24022443E9523A0A18241018280E4
:1044600065C9374836FE1308F8C789476363C80E25
:10447000797197E7FF1F938767E122D45AC803A891
:1044800007003E8B06D626D24AD04ECE52CC56CA14
:104490005EC662C40144B148C147B30B1403137C28
:1044A000F40F3303780103230300631E0308AE8A6D
:1044B000C165AA84938505F041453A8AB689328957
:1044C000EFD0DFCC0DE997E7FF1F938727D8DC5BA0
:1044D00099EF8147B250225492540259F249624AEC
:1044E000D24A424BB24B224C3E8545618280814587
:1044F00011458297F9BF97E7FF1F9387E7D4984349
:104500001DEF97E7FF1F23A1A7D4230005008327F2
:104510000B000547331487002326050023242501BB
:1045200022A123224501DE9784C323A2570123A49D
:104530004701E38009FA2380890161BF3687544728
:10454000F5FE48C7D9B70504E319F4F4A14759B7F4
:1045500089473E85828097E7FF1F83C7F7C9637F3E
:10456000F50017E7FF1F1307E7CD93171500084362
:104570003E951E21DD8D0EA1014582800D45828074
:1045800097E7FF1F83C757C76371F50217E7FF1F40
:10459000130747CB93171500084393C5F5FF3E95C6
:1045A0001E21FD8D0EA1014582800D4582800111E5
:1045B0004AC806CE22CC26CA4EC652C49307F00281
:1045C000094963EEA706B146B306D50297E7FF1F78
:1045D0009387C7CB9843094936971C43ADC3135AF9
:1045E000450005443D893315A4001314050141809D
:1045F000AE845285A285EFB01FC2AA89014921C1AC
:10460000A2855285B53F97E7FF1F9387A7C89C43B4
:10461000829797E7FF1F83D747C5338797022A847E
:10462000130600648146B3B7970213050732B3350A
:10463000E500BE95EFD0E137229523A4A900F24012
:1046400062444A85D2444249B249224A0561828085
:1046500097E7FF1F83C757BA6364F500014582805F
:10466000011197E7FF1F9387E7C24EC683A9070092
:1046700006CE22CC26CA4AC8638C09082E8997E543
:10468000FF1F83D585BEB387C5022A84B2848146C5
:10469000B3B5C50213850732B337F50013060064BE
:1046A000BE95EFD00131B74736FE9387F7C763E178
:1046B000A706829997E5FF1F83D525BBB38795028F
:1046C000AA89130600648146B3B5950213850732A3
:1046D000B337F500BE95EFD0C12DAA99CA852285C2
:1046E000EFB07FB309C52324350105451DA09365AF
:1046F00004F0C205C1814145EFD05FA915E197E7FC
:10470000FF1F9387A7B4DC5B81C7A2851145829701
:104710000145F2406244D2444249B2490561828077
:1047200097E7FF1F938747B29C4395E397E7FF1FE7
:1047300023ACA7B085472326050023243501231188
:10474000250100A11CB12322050045B7BA87D8472F
:1047500075FFC8C7C5B759C9797122D426D24AD0C6
:104760004ECE52CC56CA5AC85EC662C406D6B68968
:10477000B28A2E8A2A899304000C414417EBFF1F4A
:10478000130BCBB0054C930B000383270B00A697AC
:104790009C43A9E79375F400B315BC00C205568687
:1047A000C18113554400EFF0BFEA0DC983270B0008
:1047B0000145BE9423A0240123A24401638409007F
:1047C00023808900B250225492540259F249624A1D
:1047D000D24A424BB24B224C45618280050413748D
:1047E000F40FB104E31374FB2145E9BF094582804E
:1047F000411122C426C24AC006C62A842E89B28428
:10480000EFF01FE5CA852285EFB0FFA005CD97E543
:10481000FF1F83D585A5B38795022A8413060064FC
:104820008146B3B5950213850732B337F500BE95BF
:10483000EFD0211848C00145B240224492440249B9
:10484000410182802145CDBF411122C426C24AC008
:1048500006C62A892E84EFB01F9CAA8419C1231191
:104860000500A2854A85EFF0BFD197E7FF1F83C7F8
:10487000A798639B270197E7FF1F83D7679C5D8CF1
:1048800097E7FF1F239E879A014591E01945B240A3
:10489000224492440249410182809307F00263E876
:1048A000A7044111B14722C43304F50226C297E49C
:1048B000FF1F9384A49D9C4006C6A29798438947F6
:1048C0000DC39377F5008545B395F500C205C18109
:1048D00011819D3F9C40A29723A0070023A20700BF
:1048E0008147B240224492443E85410182808947FB
:1048F0003E858280411106C622C4EFB0DF9111E5EA
:104900000145B24022444101828097E7FF1F93870F
:1049100067989C4300458297B74736FE3305A4400D
:104920009387E7C7E3EEA7FC93070064B335F5026E
:1049300017E6FF1F0356669381463305F502EFD055
:104940004107C1B7411106C697E7FF1F23A2A794ED
:104950000295B24097E7FF1F23ACA78A01454101AA
:104960008280994763E9B7008A0597E7FF1F93871D
:10497000678BBE9588C1828041117146814517E5DC
:10498000FF1F1305258A06C697E7FF1F23AE078A78
:1049900097E7FF1F23AE078E97E7FF1F23AC078E15
:1049A000EFB01F9813068002814517E5FF1F13051E
:1049B000A584EFB0FF96EFA0812197E7FF1F83C783
:1049C000378A13D527008D8B3E958D473305F50229
:1049D000854539051375F50F97E7FF1F238FA780CE
:1049E00099473305F50213050524EFD02FFA17E791
:1049F000FF1F232DA78849CD994717D6FF1F0346D0
:104A0000C67F3306F602814513060624EFB05F9198
:104A100097E7FF1F938787879C439387072417D7C0
:104A2000FF1F232FF77E17D7FF1F0347077D0A07B6
:104A3000BA9717E7FF1F2327F780EFF01F8C352168
:104A400097D7FF1F9387C77D944397D7FF1F83C7CF
:104A5000B77A139727003697170600001306C68A01
:104A600010C3138717001377F70F0A073697170637
:104A700000001306C69110C313873700890793F708
:104A8000F70F8A0797D5FF1FA388E576B69790C3DF
:104A9000B2404101828097D7FF1F83C7F77517D7B0
:104AA000FF1F0347877563F3E70217D7FF1F13073D
:104AB000277718439386170017D6FF1FA30ED672C9
:104AC00093962700369708C33E8582809307F00FA0
:104AD000E5BF1C416381071441777D8FB706002035
:104AE0008947631BD7125A2163080712411122C458
:104AF00019462A849305F00F610506C6EFB01F8C96
:104B000005478D476304E5101C4481CB185C994729
:104B1000630E070E585C630B070E130600048145F5
:104B200017D5FF1F13058572EFB08FFF1306000422
:104B3000A28517D5FF1F13056571EFB02FFB17D79F
:104B4000FF1F0357677197D7FF1F9387277019E7D8
:104B50001307001097D6FF1F2390E67017D7FF1F8B
:104B60000347A76F11E7054797D6FF1F2387E66E18
:104B700017D7FF1F0357876E11E76D4797D6FF1FA3
:104B8000239EE66C17D7FF1F0347376D11E71547C4
:104B900097D6FF1FA383E66C17D7FF1F0347276C29
:104BA00011E7054797D6FF1F238BE66A17D7FF1F2C
:104BB0000347F76A11E7F83797D6FF1FA381E66A24
:104BC00017D7FF1F0347C76911E7254797D6FF1F70
:104BD0002388E66817D7FF1F0347B76811E75147D7
:104BE00097D6FF1FA38FE666782819E71307C0033F
:104BF00097D6FF1F2387E666DC5791C7829797D722
:104C0000FF1F239FA75EEFF03FD78147B2402244AA
:104C10003E854101828089473E85828097D7FF1F6C
:104C2000938747679C43411106C622C426C24AC0E7
:104C3000829793070064B335F50217D9FF1F035914
:104C4000C9624A8681463305F502EFC0915697D76F
:104C5000FF1F9387675A804FAA840145630494021B
:104C600033858440636C94004A8681461305009C1A
:104C70009305F063EFC0F153018D269597D7FF1F81
:104C800023A89758B24022449244024941018280AD
:104C9000011122CC0A852E84414697E501009385B7
:104CA000654806CEEFD00110180806043A94035563
:104CB00004FF97D7FF1F83D7675BF2406244AA9730
:104CC00037450F00130505243355F5020561828031
:104CD00097D7FF1F83D7875951471D45637CF7023C
:104CE000794719456378F702130720031545637365
:104CF000F7021307B0041145637EF700130740065F
:104D00000D456379F7001307600909456374F700DF
:104D100013B5B70F8280011122CC06CE2A842EC68D
:104D2000EFF0EFEEB245F240818D33A5A50222955A
:104D300062441375F50F05618280011122CC06CE05
:104D40002A842EC6EFF0AFECB245F240818D33A538
:104D5000A5022295624442054181056182800111CC
:104D600022CC06CE2A842EC6EFF06FEAB245F2407E
:104D7000818D33B5A502229562440561828097D763
:104D8000FF1F9387A74CD85739CB411122C426C2A5
:104D900006C6BE84029717D7FF1F035767462A84AB
:104DA00015CBBA876373A700AA87C207C183BA86E7
:104DB0006373E400A286C206C182958F5147635B8C
:104DC000F7009C5891C38297EF40513F97D7FF1F40
:104DD00023988742B24022449244410182808280DB
:104DE00097D7FF1F938787469C5B011106CE81C72B
:104DF0002AC6829732451DC917D7FF1F0357E746BA
:104E000085470DC317D7FF1F0357474601CF97D7D5
:104E1000FF1F23A1A74817050000130565E0EFF069
:104E20007FB28147F2403E850561828097D7FF1FA0
:104E300023A2073EE17793C727A117D7FF1F2316A9
:104E4000F7429307200317D7FF1F2311F7427D571F
:104E5000B747024023A4E72697C7FFFF93878784BD
:104E600017D7FF1F2328F7427DB7011122CC17D493
:104E7000FF1F1304A43D084406CE26CA4AC801E910
:104E80000545F2406244D2444249056182801C5C7F
:104E9000E5DB585C75D77000854582971844B247AA
:104EA000E300F7FE9305E00417D5FF1F0355C53A4D
:104EB000EFD0CFAD17D7FF1F2320A73671D117D65C
:104EC000FF1F035666399305F00FEFB06FC581449D
:104ED00017D9FF1F1309493297D7FF1F83C7E73739
:104EE0000326090263CFF4003285EFD0AFB6014547
:104EF00097D7FF1F23A2073297D7FF1F23A00732A0
:104F000049B797D5FF1F83D52535B3879502084448
:104F1000585C898185043E9508C2029775BF41118E
:104F200022C417D4FF1F130464321C4426C206C6D1
:104F30004AC097D4FF1F9384242C91EB885025E915
:104F4000B2402244924402490145410182805C5CA6
:104F5000F5D79C5089EF9305E00417D5FF1F035543
:104F6000A52FEFD0AFA297D7FF1F23A7A72A88505E
:104F700071D517D6FF1F0356262E9305F00FEFB0FD
:104F80002FBA014997D7FF1F83C7272D9050E357AA
:104F9000F9FA97D5FF1F83D5252C338525031C44AB
:104FA000898105093E955C5C08C28297E1BFEFD01C
:104FB0006FAA97D7FF1F23A1072697D7FF1F23AFFD
:104FC0000724BDBF011156C297DAFF1F938A0A2832
:104FD00083A78A0022CC4AC84EC606CE26CA52C42F
:104FE0005AC0AA892E8432896383072003A78A03C3
:104FF000630107141307F01F636FA71297D4FF1FF5
:105000009384841F03AA040263110A0A9565938599
:1050100015E017D5FF1F03552524EFD02F9797D7FD
:10502000FF1F23ABA71E2A866305051083A78A03EB
:1050300003A58A0097D5FF1F83D505228981829712
:1050400083A78A0003AA040217D7FF1F2328F71C8F
:1050500089476396F908C147631DF40C97D5FF1F74
:1050600083D5851F938505FC9147B3C5F5028A0555
:10507000D295B8219307A0056319F70A9E2163967C
:10508000370B4A8522869105EFB04FA69C5052857A
:10509000639B47130145F2406244D2444249B249FE
:1050A000224A924A024B05618280D850E382E7FA95
:1050B0009565938525E017D5FF1F0355E519EFD0BA
:1050C000EF8C2A8A3DC52A8683A78A0303A58A0016
:1050D00097D5FF1F83D545188981829795BF8D4746
:1050E000639DF900C1476316F40497D5FF1F83D56C
:1050F000A516938545FDF199A5BF9147639AF900DF
:105100006319340397D5FF1F83D50515A115E5B79E
:1051100093070010639FF900A14763EC870097D5C0
:10512000FF1F83D56513C115F9B79C505285639D48
:10513000470B29458DB71D6A568B63794509130ABC
:1051400005E01947334AEA0217D7FF1F0357C71074
:1051500097DAFF1F938A4A0A330AEA023E9A83A724
:105160004A026395470183A40A028DE49305E00493
:1051700017D5FF1F0355450EEFD04F81AA8455D98F
:1051800083278B0397D5FF1F83D5050D2A86898139
:105190005285829791451307A00589819397250031
:1051A000A697B423639DE60296236398360385058C
:1051B0008A052286A6954A85EFB04F9383A70A02F7
:1051C000E38A97EC2685EFD0EF88E9B52167791758
:1051D000E361A7F6330A454185BFAC337DBF83A7A2
:1051E0000A02E38897F42685EFD0CF8699B797D740
:1051F000FF1F938767008C538DDD91479306A005B1
:105200008983139727002E973023E314D6F21223B5
:10521000631A360185078A072286BE954A85EFB054
:10522000EF8C8DBD3C33E9BF97D7FF1F93870702F3
:10523000984729C7DC5FB9C305476311E5044111ED
:1052400022C417D4FF1F130424FB105006C61DC22E
:10525000485097D5FF1F83D5250089818297085034
:10526000EFC05FFF97D7FF1F23A807FA97D7FF1F4D
:1052700023A607FAB24022444101828082800111B4
:1052800017D7FF1F130787FC4EC68329870022CC40
:1052900026CA4AC806CE52C456C2AA842E8432896F
:1052A000638E091E5C5FBA8A99EB2945F24062441D
:1052B000D2444249B249224A924A056182801C5F27
:1052C000EDD79307F01F63E4A70E97D9FF1F9389CB
:1052D000A9F283A70902B1C703A58A0083A74902DF
:1052E000639FA7048947639DF406C147E31FF4FA4F
:1052F00017D5FF1F035545F69147130505FC3345A8
:10530000F5029317250003A509022286CA853E955A
:105310009307A0053CA106A11105EFA03FFD0145A3
:1053200071B79305E00417D5FF1F0355E5F2EFC0F1
:10533000FFE597D7FF1F23A1A7EE59FDBDB783A7B0
:105340008A0303A6090297D5FF1F83D5E5F089815B
:10535000829783A78A0017D7FF1F2321F7EC59B73D
:105360008D47639EF400C147E311F4F417D5FF1F86
:10537000035585EE130545FD9377C5FF69B7914742
:10538000639AF400E31394F217D5FF1F0355C5EC9D
:105390002115DDB793070010E399F4F0A147E3E688
:1053A00087F017D5FF1F035525EB4115F1B79D6712
:1053B0006377F506930705E01947B3C7E70217D7E8
:1053C000FF1F035767E917DAFF1F130AEAE2B387E3
:1053D000E702BE9983270A02B1CB83274A0263956D
:1053E000370703250A0291461308A0059305F00F1D
:1053F00093D72600139727002A973023631B0607AD
:1054000083580700303363929806B306D64063CDC5
:10541000860485078A072286CA853E95FDBD2167D9
:105420007917E364A7E8B307F54051BF9305E0049B
:1054300017D5FF1F035545E2EFC05FD597D7FF1F74
:1054400023ACA7DC59F995B583A78A0303260A0282
:1054500097D5FF1F83D545E089814E85829797D7E1
:10546000FF1F23AD37DBB5BF0EA393160601C18224
:1054700041B7B385860017D6FF1F0356E6DD9105B9
:10548000130606FCE3F3C5E213063400719A110615
:10549000B2962301070106A334B3A5BF97D7FF1F18
:1054A000938787D59453BE8995CE03A5090291466B
:1054B0001308A0059305F00F93D726001397270034
:1054C0002A97302363130605835807003033639708
:1054D0009800B306D640E3DE86F20EA393160601CB
:1054E000C182D9BF5E2717D5FF1F034505D7930596
:1054F000E0043305F50242054181EFC03FC997D76B
:10550000FF1F23ABA7D055F14DB317D6FF1F03568E
:10551000A6D497D5FF1F83C545D4B385C50233866E
:1055200086001106E3E3C5D885B7014582800111E5
:1055300006CE2EC6EF70D02819C5B245F2402A21FA
:1055400005616FA01051F240494505618280A38832
:10555000018A2388018A23AC018823AE018823A015
:10556000018A23A2018A23AA018823A8018897D748
:10557000FF1F938767D413064038B2B371761307C1
:10558000400B130606B8BAA3D2B311671D469306A3
:1055900000059305000A1305007DDAA3F2B3414725
:1055A0000546130810F8BAA7DAA7BAABDAABFAAB1C
:1055B0009AAF9AB72396070323900700EEA38EA70E
:1055C000F6A796ABAAAF239E0700239F0700239060
:1055D0000702B2B7239707021308F00723980702C0
:1055E0002392E7042393E704239FE7042390E7062D
:1055F0002391E7062392E706239907031307C01CAC
:10560000D2BBF2BB239C0702239D0702239E070205
:10561000239F0702239007042391C70423940704C0
:10562000239507042396C7042397D7042398D70408
:105630002399A704239A0704239B0704239C0704A8
:10564000239DD704239ED7042393A70623940706FC
:1056500023950706239607062397B7062398B706D0
:1056600023990706239AE7067D57239B0706239C69
:10567000E7068280011126CAAA84214522CC06CEE3
:105680002E8432C636C43AC2EFE03FBD0DC5A246F5
:1056900012473246930700FD1CA1994704B13CA173
:1056A00074A178B152A1AA8522856244F240D24405
:1056B00005616FE07FBEF2406244D24405618280A2
:1056C00023ACA188828023AEA188828023A0A18AF6
:1056D000828023A2A18A8280011122CC4AC806CEF0
:1056E00026CA2A890144B30489006368B400F240E1
:1056F0006244D2444249056182802EC6EFE03FD128
:1057000093170501C183A183B2459CA093071400A0
:1057100093F7F70F850463F8B700CA97090488A3C5
:105720001374F40FC9B73E84C9B7C16717D5FF1FFB
:105730000355E5B6FD176304F502411117D6FF1FA7
:10574000034606C89385818A06C6EF70406AB24058
:10575000FD5717D7FF1F2314F7B4410182808280C1
:1057600009C925151375F50F1335850E1345150059
:1057700082800145828023900500C9C6797122D4B8
:1057800026D24ECE52CC5AC806D64AD056CA5EC68B
:105790003684328AAE892A8B814463F34407B30787
:1057A00094009C23138914004209939A070193DA09
:1057B0000A011359090163850A04CA976342FA046E
:1057C000B307240183CB07005E85EFF07FF90DC995
:1057D0009387FAFF2390F90063906B031305190078
:1057E0002295B250225492540259F249624AD24A46
:1057F000424BB24B45618280D694C204C18071BFD6
:105800000145C5B701458280411126C2AE8422C43C
:1058100097D7FF1F23ACC7A897D7FF1F23A6B7A80A
:1058200097D7FF1F23A0A7A82A8441469305F00F0E
:1058300026854AC006C60549EFA05FB86310250556
:1058400097D7FF1F938747A5884BC145EFF0DFE847
:1058500041469305F00F2285EFA05FB6854463179C
:105860009502224497D7FF1F938707A3B240924423
:105870000249C847C14541016FF01FE641468145D5
:105880002685EFA0BFB3E31525FD5DBF41468145E9
:105890002285EFA0BFB2E30695FCB24022449244B9
:1058A000024941018280411122C426C22E84AA8469
:1058B00013060002814517D5FF1F1305E59D06C697
:1058C000EFA01FA697D7FF1FA389979C97D7FF1F0D
:1058D000238A87AEEFA0301A854719C18147494511
:1058E000B240224417D7FF1F2308F79A9244410180
:1058F0008280814791C909C985476319F500DC3168
:1059000093E707FCDCB185473E85828089476316B3
:10591000F500DC3193F7F703F5B70D478547E3153D
:10592000E5FED8311377F70313670704D8B1E9BF51
:10593000814785C119CDD8319306000C854713776F
:10594000070C6308D700930600048D476303D70054
:1059500089473E858280411122C4005D06C626C269
:105960001DC0AA84085019C1EFC0DF8E485019C16C
:10597000EFC05F8E085419C1EFC0DF8D2285EFC0E4
:105980007F8D23AC0402B2402244924441018280C4
:1059900009ED97D7FF1F83C7479017D5FF1F130542
:1059A000259181CB13858188828017D5FF1F130530
:1059B0002590828017D5FF1F0345258E828097D7BB
:1059C000FF1F9387678DC847828097D7FF1F9387F4
:1059D000A78C884B828097D7FF1F9387E78BDC4B80
:1059E0008843828097D7FF1F9387078BD84B1C4330
:1059F00085071CC317D5FF1F0345358A9307F00F92
:105A00006305F50091656FE01FB58280011122CC1E
:105A100006CE2E8432C6EF70606A9147B245631F8E
:105A2000F5009387418A9C438DC303A30700630E4F
:105A3000030022856244F240056102839387C18995
:105A40009C4381C703A34700DDB7F240624405458C
:105A500005618280011122CC2A844A2106CE26CA01
:105A60004AC84EC6EFA05FD13DC12A8904218349AF
:105A7000C500EFF05FEE4A85EF8060264A20EF70A8
:105A8000E05F83C7018BA1CB6397970483C5118B1C
:105A90002685EFF0DFA919E12388018A4A20EF70FB
:105AA000E0619147631EF5005A2097C7FF1F83D717
:105AB000077F6317F700FD5717C7FF1F2311F77EF6
:105AC000F2406244D2444249B24905618280814930
:105AD0009304F00F7DB79307F00FE381F4FC74207B
