:100000006F00C04513000000130000001300000043
:100010001300000013000000130000001300000094
:100020001300000013000000130000001300000084
:08003000130000007300100032
:100038000000000000000000480200004C02000020
:1000480000000000F40300000000000000000000B1
:10005800F6030000F80300000000000000000000A4
:10006800FA03000000000000FC030000000000008C
:10007800FE03000000040000020400000404000065
:1000880006040000080400000A0400000C04000034
:100098000E04000010040000120400001404000004
:1000A80016040000180400001A0400001C040000D4
:1000B8001E040000200400002204000024040000A4
:1000C80026040000280400002A0400002C04000074
:1000D8002E04000030040000320400003404000044
:1000E80036040000380400003A0400003C04000014
:1000F8003E040000400400004204000044040000E4
:1001080046040000480400004A0400004C040000B3
:100118004E04000050040000520400005404000083
:1001280056040000580400005A04000000000000B3
:080138000000000000000000BF
:10014000397101436EC619A0397141536AC866CA34
:1001500062CC5ECE19A0397101535AD056D252D416
:100160004ED64AD826DA22DC06DE3301614082828E
:1001700041114AC026C222C406C68282B24D410144
:10018000024D924C224CB24B4101024B924A224A00
:10019000B2494101024992442244B2404101828065
:1001A0003D432A876373C3029377F700BDEFADE544
:1001B000937606FF3D8ABA960CC34CC30CC74CC756
:1001C0004107E36BD7FE11E28280B306C3408A0683
:1001D0009702000096966780A6002307B700A30643
:1001E000B7002306B700A305B7002305B700A30493
:1001F000B7002304B700A303B7002303B700A3028B
:10020000B7002302B700A301B7002301B700A30082
:10021000B7002300B700828093F5F50F9396850011
:10022000D58D93960501D58D61B7939627009702DA
:10023000000096968682E78086FA9680C1171D8F09
:100240003E96E374C3F8A5B77300203001A04111B6
:100250002AC6B24799E341018280B247FD173EC6E4
:10026000CDBFEFF2FFF0411185451145A12B93075A
:1002700000107C8237150140E1473EC64C008D4797
:10028000130505803EC4B12C410129B7EFF25FEEA2
:100290004111854511453D238D47371401407C822E
:1002A000C1473EC64C008D47130504803EC4152C43
:1002B0008D4513050480392E4101E9BDEFF25FEB56
:1002C0007165130505207D25693FC9373715000085
:1002D0001305C54DEF00700237051C00A12511451F
:1002E000B714014037041000ED29938404807D1475
:1002F0008D452685C5242285993F26858D45ED248B
:100300002285B137F5B7B71702409843B706FFF813
:1003100041111367170098C3D84337060200758F41
:10032000D8C39843B706F7FEFD16758F98C3984358
:10033000B706FCFFFD16758F98C3D843B70681FF3B
:10034000FD16758FD8C337079F0098C702C402C631
:100350009843C166558F98C3B716024005679C4203
:10036000F18F3EC6A24785073EC4B24781E7A24748
:10037000E397E7FEB71702409C431397E7006357E4
:10038000070685473EC632478547631FF704B71700
:100390000240D843B706C1FFFD16D8C3D843D8C31F
:1003A000D84313670740D8C3D843758FD8C3D84301
:1003B000B7061D00558FD8C39843B7060001558F67
:1003C00098C3984393166700E3DD06FED843B7163B
:1003D0000240719BD8C3D84313672700D8C3214775
:1003E000DC42B18BE39EE7FE4101828002C661BF21
:1003F00001A001A001A001A001A001A001A001A0F5
:1004000001A001A001A001A001A001A001A001A0E4
:1004100001A001A001A001A001A001A001A001A0D4
:1004200001A001A001A001A001A001A001A001A0C4
:1004300001A001A001A001A001A001A001A001A0B4
:1004400001A001A001A001A001A001A001A001A0A4
:1004500001A001A001A001A001A001A0970100201E
:1004600093814141175100201301C1B917150000B4
:100470001305C50E970500209385C5B81386018125
:1004800063FAC5008322050023A0550011059105DC
:10049000E3EAC5FE13850181938501826377B50088
:1004A000232005001105E36DB5FEFD42739002BCEB
:1004B0008D42739042809302800873A002309702AD
:1004C00000009382A2B793E2320073905230EFF0B3
:1004D0009FE3970200009382A2DE739012347300B0
:1004E00020309C4513F7070113F8F70001C7D841E6
:1004F0003368E80037270240145B3707000F758F19
:100500004DEB85462388D180371701406315E50000
:100510009A2135839AA18E2113F7F50F39C318411B
:100520008146854E3D4F930F800293028004214EF9
:100530003396DE00B3F8C5006311160393982600C6
:1005400033131F011343F3FF3377E300B31818018C
:1005500033E7E8006397F70750C98506E39AC6FDBD
:1005600018C11307F00F6375B70454412146854E37
:100570003D4F930F800293028004414EB398CE000A
:1005800033F715016392E80213172600011733139E
:10059000EF001343F3FFB376D3003317E800D98E8F
:1005A0006395F703232A15010506E319C6FD54C117
:1005B000828037170140E310E5F603C7018121DF90
:1005C00081BFE39C57F810C949BFE39F57FC23281C
:1005D0001501D9BFB71701406316F50083C7018124
:1005E00091C3B5810CC98280B71701406316F5002D
:1005F00083C7018191C3B5814CC98280B71702407E
:100600009843B706FFF81367170098C3D843758F50
:10061000D8C39843B706F7FEFD16758F98C3984365
:10062000B706FCFFFD16758F98C3D843B70681FF48
:10063000FD16758FD8C337079F0098C78280B717FC
:1006400002409843C176FD16758F98C39843B7064C
:10065000FCFFFD16758F98C341676307E5003707F8
:1006600004006307E50082809843498F98C3828025
:100670009843B7060500558FD5BFB7160240DC4238
:100680003707C1FF7D17F98FDD8DC98DCCC2828000
:1006900009C9371702401C43B7060001D58F1CC398
:1006A0008280B71602409C42370700FF7D17F98F02
:1006B0009CC28280371702405C43F19B5D8D48C32A
:1006C0008280B7170240C8433189828037170240C1
:1006D0005C4393F7F7F05D8D48C382803717024083
:1006E0005C4393F7F78F5D8D48C38280B716024055
:1006F000DC4271771307F77FF98F0E055D8DC8C255
:100700008280371702405C439146B18B6385D700E6
:10071000A1466384D706B7177A00938707201CC1C8
:10072000371602405C423707002013070700918309
:10073000BD8BBA9794231C41B3D7D7005CC15442F8
:10074000A1829D8ABA969422B3D6D70014C554428A
:10075000AD829D8A36971823B3D7E7005CC558420F
:10076000398393763700370700201307070736973A
:100770001823B3D7E7021CC982805C435843C16683
:10078000C983BD8B758F8907C5466393D700C94759
:1007900001EF3747024003270780418B09CF371706
:1007A0007A001307072021A83717024058439316F1
:1007B000E700E3D606FE37173D0013070790B3871F
:1007C000E702B1BF99C5371702401C4F5D8D08CFB6
:1007D0008280B7170240984F1345F5FF798D88CF77
:1007E0008280B7170240E8B38280935755000547CF
:1007F0006399E700B71702409C4333D5A7000589EA
:10080000828009476396E700B71702409C53F5B70B
:10081000B7170240DC53D5B7EFF29F95411102C6DE
:10082000056413051003D137B24785073EC6B247AA
:10083000638387007DD513051003453F3335A00042
:10084000410189BAEFF2DF921629F577FD17F58F8E
:10085000F621DA257971D58F1EA95625FD77938764
:10086000379FF58FD6212A842EC6D58F9625D58F12
:10087000B625D58F5EA55E29C207C18393F7F7CF52
:10088000D98F5EA96808B53DB747014093870780B7
:10089000B2456319F404A25756246547B387E702AB
:1008A000C206C186984163D1060406075224420657
:1008B000B3D7E702130740064186B3D6E702B3F782
:1008C000E7029206635406028E0793872703B3D785
:1008D000E70213F77700B367D700C207C1831EA4EE
:1008E00045614DB892574DBF0A07C9B79207938724
:1008F0002703B3D7E702BD8BD58FC5B791C55E255A
:100900000967D98F5EA582805A25F977FD17F98F7F
:10091000D5BF93F5F51F4EA182800A216D8D333529
:10092000A0008280EFF2DF8441112A8402C6F931EF
:1009300041653133D5352AC632478547631BF702F7
:100940000145693301455D3313050040413B416575
:10095000A285253305452D3B1305900379356DDDC3
:100960000945893B2144B13BE31F85FE41016FF0FE
:100970007F8201A0EFF2CFFF2A8411650111854526
:1009800011058935930700207C82371501408D477A
:100990003EC44C00E147130505803EC6993622C887
:1009A00037440140B70708000C08130504803ECC0B
:1009B00002CA231E010079358545130504803D3F99
:1009C00005616FF02FFDEFF20FF9B7440140AE89DA
:1009D0003289014493840480634524014A856FF081
:1009E000CFFA9305000426850D3F65DDB3878900A6
:1009F0008385070026850504C205C181193FE9BF2B
:100A0000138741801C43938601823E95636BD5001A
:100A1000B75600209386068063E5A60008C33E858E
:100A20008280FD57EDBF011126CA4AC806CE22CCEE
:100A30004EC652C4AA842E8901C51C4D91E3E12102
:100A40009C4C804499E326857D2997170000938765
:100A5000E7AC631BF402C0405E24A18BB1C71C4805
:100A6000A1C7FD59294A1C4483450900FD17B1E976
:100A70001CC463DD07062286A94526856120FD5733
:100A80006308F502294535A097170000938707AB47
:100A90006314F4008044C9B797170000938707A632
:100AA000E31CF4FAC0444DBFA2852685112A55D90E
:100AB0007D55F2406244D2444249B249224A05611E
:100AC00082801CC4050963D70700184C63CAE7007D
:100AD000638845011C401387170018C08CA361B7B9
:100AE000228626850520E31035F9D9B71C401387E7
:100AF000170018C0294798A371B793878180AA85EA
:100B0000884315B7011122CC26CA4AC806CE4EC664
:100B1000AA842E89328401C51C4D91E3ED269717D6
:100B200000009387A79F6317F406C0401C4C1CC4A9
:100B30005E24A18BC1C31C48B5CF1C4808409379E3
:100B4000F90F1379F90F1D8D5C486346F500A285F6
:100B50002685692C25E51C440505FD171CC41C4091
:100B60001387170018C0238037015C486388A700EB
:100B70005E24858B81CBA9476316F900A285268563
:100B8000B5240DEDF24062444A85D2444249B2494F
:100B900005618280971700009387479A6314F400D9
:100BA000804469B79717000093874795E310F4F8DE
:100BB000C044ADBFA2852685212041D17D59D9B73A
:100BC00041119387818026C2844322C44AC006C64D
:100BD0002A892E8489C49C4C99E326852D26971753
:100BE00000009387A793631BF402C0400317C4005F
:100BF00093170701C18393F68700ADEA93F60701C7
:100C000095EEA5472320F900136707045AA47D55E4
:100C1000B240224492440249410182809717000069
:100C20009387C7916314F4008044C9B797170000F5
:100C30009387C78CE31CF4FAC0444DBF918B9DC3CE
:100C40004C5889C9930744046384F5004A852123DD
:100C5000232A04025E242322040093F7B7FD5EA436
:100C60001C481CC05E2493E787005EA41C4899EBD7
:100C70005E241307002093F707286385E700A28509
:100C80004A8599215E2413F717001DC35C4823246D
:100C90000400B307F0401CCC1C480145B5FB83178A
:100CA000C40013F707082DD793E707045EA485B7A0
:100CB000898B014791E3584818C4F9BFDE2501111B
:100CC00022CC26CA06CE4AC84EC613F78700AA848D
:100CD0002E8479EBD841634DE000B841634AE000CF
:100CE0000145F2406244D2444249B24905618280E2
:100CF00058547DD703A904009396370123A004001C
:100D000063DB060670485E24918B99C75C401D8E9C
:100D10005C5899C33C401D8E5C540C50814626851E
:100D20008297FD575A24631DF5009440F54763E808
:100D3000D706B70740208507B3D7D700858BA5C353
:100D40001C48232204001CC09317370163D80700F6
:100D5000FD576314F5009C4091E368C84C5823A0EC
:100D60002401BDDD930744046384F5002685E52650
:100D7000232A0402B5B70C50014685462685029702
:100D8000FD572A86E311F5F89C40B5DF754763856A
:100D9000E70059476393E70423A0240191B7136741
:100DA00007045AA47D5535BF83A90501E38A09F2DA
:100DB00003A905008D8B23A0350133093941014773
:100DC00091E3D84918C4E35D20F11C540C50CA8645
:100DD0004E86268582976347A0005E2493E707042A
:100DE0005EA4C9B7AA993309A940F1BF9C49B9CFFC
:100DF000011122CC06CE2A8411C51C4D81E72EC6D6
:100E00001922B2459707000093874771639BF5004D
:100E10004C408397C50095C722856244F240056126
:100E200071BD97070000938767716394F5000C44C8
:100E3000CDB7970700009387676CE39CF5FC4C44A3
:100E4000C9BFF2406244014505618280014582804C
:100E5000411122C406C62A844EA572A5232005008E
:100E6000232205002324050023220506232805004C
:100E7000232A0500232C0500214681451305C505BD
:100E8000EFF00FB2970700009387E7465CD0970713
:100E90000000938707491CD4970700009387E74C0D
:100EA0005CD4970700009387474F00D01CD8B2400E
:100EB00022444101828097050000938565F3A9A231
:100EC000411126C2130680069384F5FFB384C40241
:100ED0004AC02E8922C406C693854407392E2A8427
:100EE00001CD2320050023222501310508C41386E6
:100EF00084068145EFF0CFAA2285B2402244924475
:100F00000249410182801C4DADE3411106C622C455
:100F100097070000938767FA1CD59387C1809C438D
:100F20002324050423260504232805046314F5005F
:100F300085471CCD2A841D2848C02285052808C461
:100F400022852D2048C44840014691451137084468
:100F50000546A545F53D48440946C945D53D854763
:100F60001CCCB2402244410182808280411193878F
:100F7000C18026C284434AC006C69C4C22C42A892A
:100F800099E326854937938484048044DC40FD1727
:100F900063D607009C40B9CF8440C5BF0317C40087
:100FA00039E7C17785072322040623200400232282
:100FB0000400232404005CC423280400232A040022
:100FC000232C0400214681451305C405EFF04F9DF5
:100FD000232A0402232C04022324040423260404C9
:100FE0002285B24022449244024941018280130486
:100FF000840671BF91454A85E13588C051FDB147EE
:101000002320F9000144E9BF797122D44AD052CC9F
:1010100056CA5AC85EC606D626D24ECE2A8AAE8A8E
:10102000130485040149054BFD5B09ECB2502254C1
:101030004A8592540259F249624AD24A424BB24B13
:1010400045618280044483294400FD1963D409006A
:101050000040E1BFDE24637BFB008397E4006387ED
:101060007701A6855285829A3369A9009384840604
:10107000E9BF1971A6DAAE848395E500A2DC86DEAD
:10108000328463DB0500DE2423A0060093F7070803
:101090009DE39307004015A0300836C6992EB2464E
:1010A000E34305FE7247BD67F98F7977BA9793B727
:1010B00017009CC2F9BF930700041CC0F650665489
:1010C000D654014509618280DE25011122CC06CE6D
:1010D00026CA4AC8898B2E8489CF930774041CC002
:1010E0001CC885475CC8F2406244D244424905614D
:1010F000828074003000AA84AD3FA2452A892685EB
:10110000ED2819E98317C40013F7072069FFF19B45
:1011100093E727005EA4D1B7970700009387E7D92C
:101120009CD45E2408C008C893E707085EA4A247C1
:101130005CC8B24799CB8315E4002685C52411C548
:101140005E24F19B93E717005EA45E243369F900E7
:101150002316240149BFCDC183A7C5FF411122C475
:1011600006C626C21384C5FF63D307003E94AA8433
:101170000126938741819C4399EB2322040023AAF3
:1011800081802244B240268592444101DDA4637EE1
:10119000F40014403307D4006396E7009843DC431F
:1011A000369718C05CC0E1BFBA87D84319C3E37D46
:1011B000E4FE94433386D700631F86001040B29646
:1011C00094C33386D700E31EC7FA10435843B29640
:1011D00094C3D8C37DB76375C400B1479CC055B7ED
:1011E0001040B306C4006316D70014435843B296A8
:1011F00014C058C0C0C371B78280011126CA93843D
:101200003500F19806CE22CC4AC84EC6A104B1479B
:1012100063F1F404B14463E0B4042A89912C938708
:10122000418198433A8431E0938781819C4391E7DF
:1012300081454A85512823ACA180A6854A8569202D
:10124000FD5963173507B1472320F9004A85152456
:1012500029A0E3D204FCB1471CC10145F24062441D
:10126000D2444249B249056182801C40858F63CED9
:101270000702AD4663F6F6001CC03E9404C031A0E0
:101280005C406312870223AAF1804A85DD221305A0
:10129000B4009307440061993307F54061D33A9451
:1012A000898F1CC065BF5CC3CDB722874040A5BFF6
:1012B000130435007198E30385FCB305A4404A8507
:1012C0002120E31D35FB41B7411122C42A842E851C
:1012D00023AE018006C6EFF0AFF2FD576317F500AD
:1012E0009387C1819C4391C31CC0B24022444101F9
:1012F0008280411122C42E848395E50006C69D2A72
:10130000634905007C48AA977CC8B2402244410149
:1013100082805E247D777D17F98F5EA4FDB7DE2580
:10132000011122CC26CA4AC84EC606CE93F7071032
:10133000AA842E843289B68991C78395E5008946AF
:10134000014609225E247D777D17F98F5EA48315FF
:10135000E4006244F240CE864A86B249424926857C
:10136000D244056125A8411122C42E848395E5004D
:1013700006C6C928FD575A24631AF500FD77FD17E4
:10138000F98F5EA4B2402244410182808567D98FE3
:101390005EA468C8C5BF8395E50005A8411122C4B5
:1013A0002A842E85B285368623AE018006C6EFF0EC
:1013B0008FE1FD576317F5009387C1819C4391C36B
:1013C0001CC0B240224441018280411122C42A84BF
:1013D0002E8523AE018006C6E120FD576317F50078
:1013E0009387C1819C4391C31CC0B24022444101F8
:1013F0008280411122C42A842E85B28523AE0180C9
:1014000006C66D20FD576317F5009387C1819C4385
:1014100091C31CC0B240224441018280411122C4C8
:101420002A842E8523AE018006C67920FD576317D6
:10143000F5009387C1819C4391C31CC0B2402244F4
:1014400041018280411122C42A842E85B2853686CC
:1014500023AE018006C6BD20FD576317F5009387B4
:10146000C1819C4391C31CC0B2402244410182808F
:1014700082808280411122C42A842E85B2853686DC
:1014800023AE018006C6A920FD576317F500938798
:10149000C1819C4391C31CC0B2402244410182805F
:1014A0009307800523AEF1807D55828093078005E8
:1014B00023AEF1807D5582809307800523AEF180B5
:1014C000014582809307800523AEF1807D5582809F
:1014D0009307800523AEF1807D558280546869733F
:1014E0002069732048534526485349206578616D2B
:1014F000706C650D0000000000000000000000009E
:1015000000000000000000000000000000000000DB
:1015100000000000000000000000000000000000CB
:1015200000000000000000000000000000000000BB
:1015300000000000000000000000000000000000AB
:10154000000000000000000000000000000000009B
:08155000000000000000000093
:101558000000000001020304010203040607080951
:10156800000000001815000038150000F8140000ED
:101578000000000000000000000000000000000063
:101588000000000000000000000000000000000053
:101598000000000000000000000000000000000043
:1015A8000000000000000000000000000000000033
:1015B8000000000000000000000000000000000023
:1015C80002040608900000201000002010000020EF
:00000001FF
