:100000006F106012130000001300000013000000C6
:100010001300000013000000130000001300000094
:100020001300000013000000130000001300000084
:08003000130000007300100032
:1000380000000000000000004021000044210000F2
:1000480000000000B01000000000000000000000E8
:10005800B2100000B4100000000000000000000012
:10006800B610000000000000B810000000000000FA
:10007800BA100000BC100000BE100000C010000044
:10008800C2100000C4100000C6100000C810000014
:10009800CA100000CC100000CE100000D0100000E4
:1000A800D2100000D4100000D6100000D8100000B4
:1000B800DA100000DC100000DE100000E010000084
:1000C800E2100000E4100000E6100000E810000054
:1000D800EA100000EC100000EE100000F010000024
:1000E800F2100000F4100000F6100000F8100000F4
:1000F800FA100000FC100000FE10000000110000C3
:10010800021100000411000006110000081100008F
:100118000A110000202100000E110000101100003B
:1001280012110000141100001611000046210000F1
:100138004E2100001C1100001E11000020110000BB
:10014800221100002411000000000000000000003F
:100158000000000000000000000000000000000097
:100168000000000000000000000000000000000087
:0801780000000000000000007F
:10018000EF42B0099126FDBF23AC05FE1C4181E77B
:100190000CC18280BA8703A787FF6DFF23ACB7FE2F
:1001A000828017270020130727AF1C43411122C468
:1001B00026C24AC006C601440149BA8491E7A16536
:1001C000EF20603405C809A803C7E7FF631BA70237
:1001D00015CCA165EF20401D9840832784FF63194B
:1001E000E402172700202329F7AAFD57232C04FE39
:1001F000230FF4FE2285B240224492440249410179
:10020000828011E03E8983A787FF4DBF3E84E5BF12
:10021000232CF9FED9BF97270020938727AD9C4355
:1002200099E33E858280BA236315B7009823E30AD9
:10023000A7FEDC47F5B70111680006CE22CCEF20FF
:100240006078FD576305F508324735CF1724002045
:100250001304C4A41848630EF7009727002093875F
:10026000A7AD9C43829732471C486373F700BA8757
:100270003E9517240020130424AD1C4C81CF9727F2
:1002800000209387E7B294433707CDFF7D179C4644
:10029000F98F9CC697270020938787A59C57829744
:1002A00019E51C4C8DC3EF20506BEF20F01D1C4C4A
:1002B00099CB972700209387A7AF9843B7063300C1
:1002C0001C47D58F1CC7F240624405618280172409
:1002D00000201304A49C1C48E387A7FE9727002056
:1002E000938787A59C4382971C4859B709CD81CD38
:1002F00019CA81473387F50014233307F5008507B2
:1003000014A3E319F6FE828019C991C909CA91059F
:1003100083A7C5FF11057D16232EF5FEC5BF82807C
:1003200001C919C62A960505A30FB5FEE31DA6FE51
:10033000828081473307F5000307070019E33E85F4
:1003400082808507C5BF01112E8626CAAA8413158F
:1003500006019305F004418122CC06CE32C6EF009F
:1003600070372A8401C53246A68549372285F24076
:100370006244D24405618280854705C199CD11CE82
:100380008147B306F5003387F5009422182363985C
:10039000E6008507E317F6FE85473E8582808147A4
:1003A000EDBF9307F6FFBE952A966313C5008280C2
:1003B000FD159C310505A30FF5FEC5BFAA870145B4
:1003C00081CF09CE3E96850703C7F7FF6317B700B5
:1003D000E39BC7FE05458280828001458280011132
:1003E000972700209387879022CC804306CE26CA89
:1003F0004AC84EC652C456C25AC059C437C9C901A8
:10040000814497290020938929931309F937172AE2
:100410000020130AEA8D972A0020938A2A883E201A
:1004200091EF5C44A5EC172700202321F78C032BC8
:10043000C4002285EF0090365A840DA883A70900D6
:1004400082971C443307F540636CE904972700202A
:1004500023AE07842E200820EF10107554405C4412
:10046000F1D21844A284369718C43E844DF89727D9
:1004700000209387A7829C4B09476372F704F91702
:10048000172700202324F782F2406244D2444249D5
:10049000B249224A924A024B05618280DCC441BFC4
:1004A00003278A0211CB03A70A01898F63F6E700AD
:1004B00017170020232CF77EA284404445BF9717CE
:1004C000002023A5077EC9B7411122C417140020BC
:1004D0001304847F1C4006C626C24AC091C7829777
:1004E0009717002023A2077E5C4091C382971C408F
:1004F000639A07189727002083C75785858B95C770
:1005000097270020A38407841727002003473784F8
:10051000914763FCE700792C9727002083C7378336
:10052000F9178A07A2979C4382971729002013097D
:10053000A9858347C900918B99C3EF00500F1C44D4
:1005400091C38297971400209384047A98401716D9
:1005500000200346B6749717002083C7277493962C
:100560001700BA969622C1CA9717002083C707734F
:1005700063EDC70897170020238207721C4063931E
:1005800007109717002083C7B77C81CF97170020EB
:1005900083C7F77B99E797170020A38B077AEF2093
:1005A000D01D97170020938727799C43E1CFFD57F3
:1005B00017170020232CF76E1D35971700209387FF
:1005C00027739C57E1C317170020034757789147BB
:1005D00063EAE70A8347C900918BCDE790409716FD
:1005E000002083C6B66B63E5D70A2244B24092442A
:1005F0000249410189B1850793F7F70F971600204B
:10060000238EF668E3E9C7F485B786073E970E2385
:1006100023100700971700202396076C97170020D8
:100620009387476A9C4317150020034525671317D6
:100630002500BA979C4382979717002083D7876A33
:10064000171700200347876593C7F7FF7D8D931722
:10065000170098403E971E235D8D0AA39717002030
:1006600083C7C76391C78507171700202308F76260
:1006700017170020034787629717002083C7176268
:10068000E37AF7EEB240224492440249410182806B
:100690001397170032971A2375F78507A9B7AD6727
:1006A00037470240BD072326F720010001009717B6
:1006B00000209387A75EC84F83278726BD66BD06A7
:1006C00093C7F7FF99836A052326D7205D8D828023
:1006D0008280171700201307A7661443411122C414
:1006E0009C5E06C626C29983858B3A84A5CB930768
:1006F00000069CDE9717002083C7076593F7070461
:10070000971400209384446495C39717002093871F
:10071000A7629C4382979717002023AFA7629C2073
:1007200093F7F70B171700202300F762DC2093F7ED
:1007300007048DE7854717170020A309F76097176F
:100740000020938727629C43096798C7130700FC22
:1007500097160020238CE65ED844F8D318401C5F1F
:100760009183858B81CBC1471CDF8547971600207D
:10077000238EF65C1C5F9D83858B89CB93070008D5
:100780001CDF8547171700202302F75C971700200E
:100790009387C75A9C43D8430583058B19C7D84311
:1007A000759BD8C3D843799BD8C3B24022449244A6
:1007B00041018280971700209387C75A9443971767
:1007C0000020938767589823058B11CB971700203B
:1007D000238E075697170020A38A075682809833E6
:1007E000058B6DF7F85265F3DC33EDB71718002071
:1007F00013080855032708001C5F9583858BBDE708
:1008000001C61C5BBD831CA29DC683270800985BA4
:100810004607935767016356070093E707C0C2076F
:10082000C18303970600C207C18709C7BA97094762
:10083000B3C7E7029EA285C11C3191CF3E951C35FE
:100840000547194593F6F7066393E602E207E18749
:10085000394563CE07008327080001459C5FED837F
:100860008D8B17170020A306F74E828005458280E6
:10087000411122C406C6171400201304A44E1840C8
:100880003DE5AE877453FDFE3E85B2859717002087
:10089000238D074AEF20A048971700209387474AE7
:1008A0009C43B70680009843558F98C3D857719BD7
:1008B000D8D797170020A38B074897170020A38548
:1008C00007481C40094798C3144017170020130716
:1008D000A7473C23858B81EB3C33858BD9C7971782
:1008E000002023850746B2402244410182808D4783
:1008F0006310F50297170020938787449C43B7063F
:1009000080009843558F98C3D857719BD8D76DBF37
:100910008547E31BF5FAB567BD075CC70100010019
:100920001C400967094698C7130700F8971600206E
:10093000238EE64017170020130787401443984280
:1009400031830D8B6319C7001307E043F8D33D676C
:100950003D07D8C795BF984231830D8B01E7130738
:100960006019EDB71307E01BD5B7FC52BDF3A5BF67
:100970005D7152DC171A0020130A8A3C03270A0013
:1009800086C6A2C4A6C2CAC04EDE1C439719002068
:1009900093890942171900201309C93C93F7F7E717
:1009A00093E707081CC383A609003707CEFF7D170E
:1009B0009C46130680022A84F98F9CC6832709006F
:1009C0002800AE8423A8070493051008913AEF206D
:1009D0008057EF20406483270A009376F41F370680
:1009E000330023A40700984B370FFCFF4E88136792
:1009F000F70398CBF84FCA88130510F8137707E070
:100A0000558FF8CF9843F576FD16758F98C3171755
:100A10000020A30D07328326090017170020A30525
:100A20000732054798C29843D285B702040013776E
:100A3000F7E798C398439303401F11491377F7E7EB
:100A40001367071098C303A709007D1F85491C473A
:100A5000930F8002D18F1CC793079005BCCA014732
:100A6000340013533700269383470300137677002F
:100A7000B3D7C740858BDDCF9C41832E0800239CD4
:100A800007042390070603AECE02137EDEFF23A6E3
:100A9000CE0383AE0700137EF70793FE0EF833EE06
:100AA000CE0123A0C70103AE4702336E5E0023A22E
:100AB000C70383AE0800014E23A27E0603DA0706B1
:100AC00063074E0303AE0703038A0600135EFE00AE
:100AD000620E135E8E416358CA0103AE0703135EB4
:100AE000FE002380C60103DE0706137EFE0F03AA65
:100AF0004E0663060A0003DA8705E37F49FB03AE6F
:100B00004702337EEE0123A2C70383870600635C9E
:100B1000F400034E03003396C9001346F6FF337604
:100B2000C6012300C3003E8663D3A7002A8613159F
:100B30008601618505071377F70F8506E313F7F341
:100B4000B640264496440649F259625A6161828051
:100B500097160020938606219C42D847131617014A
:100B600063550602984713161701635006027D5716
:100B7000B8D71717002013076712584F0507171625
:100B80000020232BE612116798C798470D83058B29
:100B90001DC3171700200347471B136717001716BD
:100BA00000202304E61A130700F817160020230F6D
:100BB000E618214798C79847058B09CF17170020DB
:100BC000034797181367170017160020A30EE616A1
:100BD000054798C798470983058B09E79847058318
:100BE000058B21CF9847171600201306E615171519
:100BF00000201305E5140983058B630107101841D4
:100C0000184331830D8B65EBAC4B184E93F5050201
:100C10001833C5CD71EF1307D005D8CF182213674D
:100C20001700171600202301E612114798C7184134
:100C30005C57F19B93E717005CD79C42984793164B
:100C4000370163D606029716002083C6A61EC18A06
:100C50001717002013070717DDCA03470707136795
:100C60000702971600202387E61C056798C7984758
:100C70009316270163D10602171700200347070DBB
:100C80006207618763570700054797160020238F87
:100C9000E60A096798C798479316070163D60602C4
:100CA0009716002083C61619858A17170020130788
:100CB0006711A5CE03471707136727009716002073
:100CC000A38AE616216798C7828031D785456315C8
:100CD000B7001307100691B789456315B7001307CE
:100CE000500625BF8D456315B7001307900635B72D
:100CF0001307B0061DB71307C00605B738321367D0
:100D0000170017160020A302E604094705B783461B
:100D100007070946BD8A6388C600034707078D4653
:100D20003D8BE314D7F411472DBF83461707918AF3
:100D3000D1DA034717071367870049B71717002051
:100D400013078702343F9717002083C7B704B6976D
:100D500093F7F70FFD4663EAF6044C4B9716002015
:100D6000A384F6009717002083C7170005473317A1
:100D7000F70097160020A38FF6006D8F1DEF9716D2
:100D8000002083C67601B3F6D7021305000281471F
:100D900033D6F500058A13F8F70F09CE6399E600FC
:100DA00097170020A38207FD828081177DB7050772
:100DB0001377F70F8507E39DA7FC82809717002024
:100DC000938787F79C43411122C44AC006C626C2B6
:100DD000829797170020938727FB8047014963017B
:100DE000A404018DBE84135455009717002083C7B7
:100DF00047F91379F5016362F402893794441717B0
:100E00000020034707F893175700BE96198C9717D1
:100E1000002023AFD7F6E372E4FE16043369240101
:100E2000B24022444A859244024941018280971788
:100E30000020938767F09C43411122C406C626C256
:100E4000829797170020938727F480476307A404AD
:100E5000018DBE84135455009717002083C767F295
:100E6000636DF402E13D98449717002083C767F152
:100E70009396570036971D8C9716002023AAE6F00C
:100E8000E372F4FE2244B240924417150020034559
:100E9000B5ED814541016F204030B240224492447B
:100EA0004101828097170020938787F09843B757B6
:100EB00002009387079F83260709139656006358FD
:100EC0000600832607091396660063440600FD1793
:100ED000FDF3828069C1AA870145E1C18D07C20780
:100EE000C183F19BC207C18313074003636FF702FD
:100EF000171700201307C7EC084317170020130724
:100F0000A7EB14436398A60217170020130747DEC8
:100F1000585B014559C34111C20706C60545DD8D21
:100F20000297B24001454101828017170020130744
:100F3000E7E8D9B77A2131EF5A21636CF704B30699
:100F4000F7402146637AD60203280500938687007E
:100F50001D8FAA96611717160020035686D4DAA2B1
:100F600023A006012393060014C15EA1130786FF88
:100F7000971600202397E6D26EA19715002083D5FF
:100F800045D2B387F54017170020231CF7D0210561
:100F90008280084185BF0145828082800DC19717FC
:100FA00000209387E7E103A30700971700209387AA
:100FB000A7E083A8070081469A8763E31701828030
:100FC00003A807006362F50A6360A80A1387870015
:100FD000E367E5FEF223216705076317E60003C711
:100FE00081810507238CE18097150020938505CB2F
:100FF000D223FA2123930700329742074183171522
:1010000000202310E5CA6387670217150020130527
:10101000E5DA08416300F502EA2209EDDE2223A0A9
:10102000060121073E962106D2A297170020239A97
:10103000E7C6B6879843E30417F99716002093860E
:10104000E6D79442E30DD7F67623B5FAD62352239A
:101050001843A106B296D6A398C3FE21A10717177D
:1010600000202310F7C48280BE86C287B9B79717C5
:1010700000209387E7D4971600209386E6D39C43FD
:1010800090422A87B305B5406314F6003A8529A833
:10109000938687009C43E369D7FEE377F7FE2E85AE
:0C10A000E3E4D5FEE3F2F5FE82800000E0
:1010AC0001A001A001A001A001A001A001A001A02C
:1010BC0001A001A001A001A001A001A001A001A01C
:1010CC0001A001A001A001A001A001A001A001A00C
:1010DC0001A001A001A001A001A001A001A001A0FC
:1010EC0001A001A001A001A001A001A001A001A0EC
:1010FC0001A001A001A001A001A001A001A001A0DC
:10110C0001A001A001A001A001A001A001A001A0CB
:10111C0001A001A001A001A001A097F1FF1F9381E4
:10112C00A17417F10020130121ED175500001305D0
:10113C00E5DC97F5FF1F938525EC1386018163FA97
:10114C00C5008322050023A0550011059105E3EA93
:10115C00C5FE13850181971500209385A5D763776C
:10116C00B500232005001105E36DB5FEFD4273901B
:10117C0002BC8D42739042809302800873A00230AF
:10118C0097F2FFFF9382C2EA93E2320073905230DF
:10119C00EF00B07D97120000938262FB73901234C3
:1011AC0073002030EF32B006B72701409387074019
:1011BC00631CF5008545130500203D23814513056F
:1011CC0000201D236F30F006B7370140938707804E
:1011DC00E31AF5FE854513050040392381451305B7
:1011EC000040C5B75C413707F1E01307F7EF944DAA
:1011FC007D8F9C41D58FD44DD58FD441A206D58FF0
:10120C00D98F5CC11C4537F7F1FF1307D77FD44545
:10121C007D8F9C49D58F94458606D58FD98F1CC55B
:10122C005C55370710FF7D177D8FDC29FD1793F771
:10123C00F70FD207D98F5CD582801C4589C593E7FF
:10124C0017001CC58280F99BEDBF1C4591C5370763
:10125C005000D98F1CC582803707B0FF7D17F98FDE
:10126C00D5BFA54763F7B7048D47138765FF3307D1
:10127C00F7020328C5009D47B397E70093C7F7FF14
:10128C00B3F70701B396E600DD8E54C5994763E3C7
:10129C00C70495477D163306F6025859FD47B39798
:1012AC00C70093C7F7FFF98F3396C5005D8E50D9F1
:1012BC0082800D473387E502032805019D47B397CC
:1012CC00E70093C7F7FFB3F70701B396E600DD8E8F
:1012DC0014C96DBFB14763E2C70295476516330663
:1012EC00F6021859FD47B397C70093C7F7FFF98F5C
:1012FC003396C5005D8E10D9828095474D16330606
:10130C00F6025855FD47B397C70093C7F7FFF98FFF
:10131C00B395C500DD8D4CD5828068454205418171
:10132C008280B727014093870740984711C5B706BD
:10133C008000558F98C78280B70680FFFD16758F89
:10134C00D5BF08416D8D3335A00082805C4191C5BD
:10135C0037070004D98F5CC18280370700FC7D17EA
:10136C00F98FD5BFB707014023AAA7408280372742
:10137C0002401C4B93E707081CCB8280B7066745DD
:10138C00B7270240938636123797EFCDD4C3130795
:10139C00B79AD8C3D4D3D8D38280EF324067C13F39
:1013AC006F302069B7270240984BB70602001375BF
:1013BC0005F0558F98CBC8CB984B1367070498CB87
:1013CC00D847058B75FF984B8176FD16758F98CB9A
:1013DC008280372702401C4BC166137505F0D58FF0
:1013EC001CCB5C47858BF5FF372702405C47898B0C
:1013FC00F5FF3727024013060010B386F50003A84B
:10140C000600B306F50023A006015447898AF5FEB1
:10141C009107E394C7FE1C4BB7062000D58F1CCB5D
:10142C00B7270240D847058B75FF984BC176FD1640
:10143C00758F98CB828037F7FF1F8327877E93D6D3
:10144C0087001CA114B193D60701E18334A13CB1F0
:10145C008327C77E5CA1A1835CB182809C4513F776
:10146C00070113F8F70001C7D8413368E8008E2153
:10147C0013F7F50F39C318418146854E3D4F930F35
:10148C00800293028004214E3396DE00B3F8C5002F
:10149C00631116039398260033131F011343F3FFB4
:1014AC003377E300B318180133E7E800639FF705BF
:1014BC0050C98506E39AC6FD18C11307F00F637572
:1014CC00B70454412146854E3D4F930F8002930241
:1014DC008004414EB398CE0033F715016392E802B5
:1014EC001317260001173313EF001343F3FFB376E2
:1014FC00D3003317E800D98E639DF701232A150119
:10150C000506E319C6FD54C18280E39457FA10C94D
:10151C004DB7E39757FE23281501DDB73777004009
:10152C001C4309C593E707101CC3828093F7F7EFA0
:10153C00E5BFB7160240DC4251777D17F98F5D8D00
:10154C00C8C28280B717024023800702238007029B
:10155C0005476306E50011476306E500828023809A
:10156C00A702828015472380E7028280371702404A
:10157C005C5309C593E717005CD38280F99BEDBFE0
:10158C00371702401C535D8D08D3828001C9371771
:10159C0002401C53A166D58F1CD38280B716024023
:1015AC009C5261777D17F98F9CD28280371702404D
:1015BC005C439146B18B6387D706A1466389D706F6
:1015CC00B7177A00938707201CC1371602405C427C
:1015DC0037070020130707009183BD8BBA9794231C
:1015EC001C41B3D7D7005CC15442A1829D8ABA96E4
:1015FC009422B3D6D70014C55442AD829D8A369737
:10160C001823B3D7E7005CC558423983937637006B
:10161C00370700201307070736971823B3D7E702BD
:10162C001CC98280B757E8019387078071BF5C4360
:10163C005843C166C983BD8B758F8907C5466393B3
:10164C00D700C94701EF3747024003270780418B7A
:10165C0015CB37177A001307072029A8B7160240B5
:10166C00D8423706C000718F6319C7003727F400C2
:10167C0013070740B387E70281BFD8429316E700F0
:10168C00E3D906FC37173D0013070790E5B799C55A
:10169C00371702405C4B5D8D48CB8280B7170240F8
:1016AC00D84B1345F5FF798DC8CB828099C5371778
:1016BC0002401C4F5D8D08CF8280B7170240984FB7
:1016CC001345F5FF798D88CF828099C53717024075
:1016DC005C4F5D8D48CF8280B7170240D84F1345C1
:1016EC00F5FF798DC8CF828099C5371702405C47CA
:1016FC005D8D48C78280B7170240D8471345F5FF68
:10170C00798DC8C78280B737004003D747801367ED
:10171C0007012392E7808280373700408357478048
:10172C00C207C183BD9BC207C1832312F78082808D
:10173C00B736004083D7868103D5C68103D786810F
:10174C00C207131605014207C18341834182938668
:10175C0006806386E700CA2E4207598D8280139556
:10176C000701518D8280EF32802A41112AC6613FD8
:10177C003245B7370040135705014205239CE780DB
:10178C004181239EA780493F41016F30802AEF326F
:10179C00002841112AC6853F3245B7370040135700
:1017AC0005013D8B42052394E78041812396A78058
:1017BC00A53741016F30E02737370040835747800A
:1017CC0093F70702E5DF8280B737004003D74780E5
:1017DC001345F5FF798D2392A7808280EF32202369
:1017EC00E5376F300025EF32801F03A48180916AAA
:1017FC003799E4FFB7791B0037CA0D00138B0AE841
:10180C001309098C93890974130A0ABA334B6403BC
:10181C00B727024003C797044111AA841377070F17
:10182C00A384E70403C79704114DB72C0240137728
:10183C00F70FA384E704916DE17BFD1A094C334942
:10184C002403B3493403334A440303C7FC0413672A
:10185C002700A387EC0403D7CC043367B701239686
:10186C00EC0403D7CC0433677701420741832396FA
:10187C00EC0403D7CC0442074187E35C07FE03D793
:10188C00CC0403C7FC041377D70FA387EC0403C75E
:10189C00FC0413672700A387EC0403D7CC0433673D
:1018AC00B7012396EC0403D7CC04336777014207C6
:1018BC0041832396EC04AD3DAA873EC6953DB247C5
:1018CC00E30DF5FE83D7CC04B3E7B7012396FC04F4
:1018DC0083D7CC04C207C187E3CC07FE03D7CC0463
:1018EC0042074187E35C07FE03D7CC0483C7EC04B3
:1018FC0033F7EA00B387FA023E9733076741635424
:10190C00E900634A37037D1D137DFD0F63050D024E
:10191C0093171700B3C74703635DE000850783D6B1
:10192C006C03B3C78703B697C207C183239BFC0222
:10193C0029BFFD17EDB7B727024003C79704A1666F
:10194C001377070FA384E70403C7970413672700D3
:10195C00A384E70403C7F7041377D70FA387E7041F
:10196C0003C7F70413672700A387E70403D7C7044B
:10197C00558F2396E70403D7C7049166558F23969A
:10198C00E704B726024003D7C6049387C602420772
:10199C004187E35A07FE03D7C60403C7F60413773F
:1019AC00D70FA387E60403C7F60413672700A387A2
:1019BC00E60403D7C604A166558F9AB39A33916691
:1019CC00558F9AB3B5332A89A533E30F25FFB72773
:1019DC00024003D7C7049166558F2396E704372737
:1019EC0002408357C704C207C187E3CC07FEB72662
:1019FC00024003D7C60442074187E35C07FE03D7C6
:101A0C00C60483C6E60437490F009167FD17130916
:101A1C000924334924037D8F2566130606CAB38730
:101A2C00D7023E979307803E3344F402B306F90283
:101A3C009307800C158F9306C02EB306D402B3C641
:101A4C00C602B307F702B3C7D7026357E016850780
:101A5C000947B3C7E70237270240763B9607B6978C
:101A6C00C207C1837EBB83479704A16693F7070F18
:101A7C00A304F70483479704C58F93F7F70FA304C8
:101A8C00F7048347F70493F7D70FA307F7048347AB
:101A9C00F70493E72700A307F7048357C704D58FF0
:101AAC002316F7048357C7049166D58F2316F704C2
:101ABC00B726024003D7C6049387C6024207418764
:101ACC00E35A07FE03D7C60403C7F6041377D70FF0
:101ADC00A387E60403C7F60413672700A387E6046D
:101AEC0003D7C604A166558F9AB39A339166558F66
:101AFC009AB33D39AA892D39E30F35FFB727024038
:101B0C0003D7C7049166558F2396E7043727024005
:101B1C008357C704C207C187E3CC07FEB726024030
:101B2C0003D7C60442074187E35C07FE03C7F604EC
:101B3C009167FD171377D70FA387E60403D7C60465
:101B4C0083C6E6047D8FB387D7023E978967938758
:101B5C0007F4B39797003389270393070010334991
:101B6C00F9029307800C0E09330927410547B3147A
:101B7C0097001147B3C4E4022567130707CA3384DF
:101B8C0084029304C02E330494023344E402B3075A
:101B9C00F902B3C787026353200385070947B3C70C
:101BAC00E70237270240763B9607B697C207C183F8
:101BBC007EBB41016F207066FD1759BDFD17F9BF43
:101BCC00EF22F0641629F577FD17F58FF621DA254B
:101BDC007971D58F1EA95625FD779387379FF58F81
:101BEC00D6212A842EC6D58F9625D58FB625D58F8E
:101BFC005EA55E29C207C18393F7F7CFD98F5EA983
:101C0C0068086D32B747014093870780B245631A65
:101C1C00F404A25756246547B387E702C206C1866F
:101C2C00984163D20604060752244206B3D7E70252
:101C3C00130740064186B3D6E702B3F7E7029206D4
:101C4C00635506028E0793872703B3D7E70213F772
:101C5C007700B367D700C207C1831EA445616F200C
:101C6C00505D925745BF0A07C1B792079387270368
:101C7C00B3D7E702BD8BD58FF9BF91C55E25096738
:101C8C00D98F5EA582805A25F977FD17F98FD5BFBC
:101C9C0093F5F51F4EA182800A216D8D3335A0007E
:101CAC00828083A7818037177A0013070720B3D768
:101CBC00E70293F7F70F2389F1801307803EB38770
:101CCC00E7022398F1808280B7F700E0D843814681
:101CDC00799BD8C303C721813306A70290CBD4CB01
:101CEC0098431367070198C398431367170298C367
:101CFC00D843058B75DF9843799B98C38280EF227C
:101D0C0010512A841165011185451105453293073F
:101D1C0000207C82371501408D473EC44C00E147C2
:101D2C00130505803EC6EFF06FF322C8374401401F
:101D3C00B70708000C08130504803ECC02CA231E0A
:101D4C000100BD3D854513050480053F05616F20ED
:101D5C00504EEF22304AB7440140AE8932890144DB
:101D6C0093840480634524014A856F20F04B9305CE
:101D7C0000042685153765DDB38789008385070048
:101D8C0026850504C205C1812137E9BF138741802F
:101D9C001C43B72600209386C6ED3E95636BD50099
:101DAC00B70601209386060063E5A60008C33E85AE
:101DBC008280FD57EDBFEF2290450D452D346F20ED
:101DCC005047EF22D044B28713962500AA853E8552
:101DDC00EFE00FD101456F20D045EF225043411168
:101DEC002A8432C6EFF08FD92285EFF0AFDB324672
:101DFC002285B285EFF0EFDDEFF02FDA0545E935FE
:101E0C00014541016F20F042EF22F03D0111130614
:101E1C00000281450A85EF209042372401401304CB
:101E2C000440B717024085451305002083AB87019A
:101E3C0003AC4700032B4400832A8400032AC4020A
:101E4C00832944030329C400EFF05F863165EFF06A
:101E5C004FEE2285EFF00FB5B7070E003EC68A8510
:101E6C0085472285230AF10002C002C202C402C8BF
:101E7C00EFF04FB785452285EFF02FBC85452285C5
:101E8C00EFF0CFCC0545EFF0CFC99D460546C145D7
:101E9C002285EFF00FBD85452285EFF00FBBB724EF
:101EAC00014089452285EFF0CFC965DD13850440DB
:101EBC00EFF0AFC62A8413850440EFF0AFAEB7172E
:101ECC00024023AC770123A2870123A2644123A4FF
:101EDC00544123A6444323AA344323A624412285F8
:101EEC0005616F20D033EF22903293970501C187A3
:101EFC002E8463DA0700EFE00FAA11C19D2621653D
:101F0C00218D6F20103393F7150013C51500F5FBC9
:101F1C009397250163DF0700EF10C017693D03C5D8
:101F2C00318137F60200130606E08965E121096567
:101F3C00C1BF939715010145E3D507FC3765000038
:101F4C001305C5CFEF20704B03C531811306006418
:101F5C0091654D2111656DB7EF22702BB7650000AF
:101F6C0019655D715546938505D01305C5D4EFE011
:101F7C00EFBF01E937650000130585D1EF20F0476D
:101F8C0001A0B7270240D857B7060090FD16758FF1
:101F9C00D8D7D857B706003013060004558FD8D7BA
:101FAC00D857B70600038145558FD8D70808EFE0FE
:101FBC006FB6B7070020938747093EC88967938798
:101FCC0007C0FC82B7870708938707C03ECC9307EE
:101FDC003050FC87ED472310F10285472301F102B5
:101FEC00B72700009387E7DCBEC4B72700009387B0
:101FFC0067DEBEC69167938707E82317F102930744
:10200C00803E2318F1028567938797D02312F10243
:10201C00B7270000938747E13EDEB7270000938780
:10202C0027DC2800BEC0EFF00FC118088147994685
:10203C0030003E9610228507050770BBE39AD7FE49
:10204C00C24789C7B88285676373F70001A0080887
:10205C00852DAA8501C9376500001305C5D2EF206F
:10206C00902801A0854513050004EFF04FE2B7E777
:10207C0000E03707008023A2E710054723A4E710F0
:10208C0061616F20101BEF2290183725000013059B
:10209C0025EFCD2B1384318108A03928082037F681
:1020AC000200130606E08965B126082013060064B9
:1020BC00916589266F20F017EF227015854537053D
:1020CC000018EFF08FE00545EFF04FC50545EFF038
:1020DC00EFC90145EFF00FC713050020EFF04FCA11
:1020EC000545EFF0AFCAEFF02FEDEFF0EFEC054543
:1020FC00EFF0EFE9EFF04FEC0145EFF0CFE6EFF04A
:10210C00AFEB5539371500001305C573EF00007799
:10211C006F203012EFE00FDB05473705020023AAD2
:10212C00E180EFF02FA40945EFF04FEBEFF0CFE893
:10213C00730020307300203001A0EFE0CFD8730083
:10214C002030EFE03FA073002030EF22500C913E86
:10215C00716513050520653619651305C5D4EF2087
:10216C00D029DD3B0D37EFE0EF80B71702409843E5
:10217C00B706FFF841111367170098C3D843370609
:10218C000200758FD8C39843B706F7FEFD16758FFE
:10219C0098C39843B706FCFFFD16758F98C3D843B8
:1021AC00B70681FFFD16758FD8C337079F0098C7F8
:1021BC0002C402C69843C166558F98C3B716024035
:1021CC0005679C42F18F3EC6A24785073EC4B247C5
:1021DC0081E7A247E397E7FEB71702409C431397AA
:1021EC00E700635E070685473EC6324785476316A0
:1021FC00F706B7170240D843B706C000558FD8C3AF
:10220C00D843B706C1FFFD1613670708D8C3D843D8
:10221C00D8C3D84313670740D8C3D843758FD8C3E6
:10222C00D843B7063500558FD8C39843B70600017D
:10223C00558F98C3984393166700E3DD06FED84389
:10224C00B7160240719BD8C3D84313672700D8C375
:10225C002147DC42B18BE39EE7FE4101828002C63E
:10226C0069B70DC18346E5FF1307F00F9147639CD7
:10227C00E600411106C6EFE0BFD1B24081473E8572
:10228C004101828095473E8582809707002023AFCD
:10229C00079E8280C9C1797122D406D626D24AD033
:1022AC004ECE01444147B3D78540858BA5C312055B
:1022BC00314722953305E50297070020938787A6BF
:1022CC0003A907008544B3948400C204C180BE896D
:1022DC002A990327090011C7032549002EC6029726
:1022EC00B24531473304E40283A709003E941C44F1
:1022FC0089E72320090023220900B2502254A58D1E
:10230C0002599254F2492E85456182800504E31CE2
:10231C00E4F88144DDB72E858280411113970501C5
:10232C0022C406C626C24AC041872E84635F0700BA
:10233C00EFD07FE611C13537A1673D8C2285B240C5
:10234C0022449244024941018280EDD9AA87014777
:10235C004146B356E440858A8DCE9207BA97B14672
:10236C00B387D702970600209386C69B03A9060065
:10237C008544B394E400C204C1803E9983270900CC
:10238C000325490082972320090023220900258C6C
:10239C0075B70507E31FC7FA8144D5BF970700201F
:1023AC0083C7178F637FF500170700201307079368
:1023BC009317150008433E951E21DD8D0EA1014596
:1023CC0082800D4582809707002083C7778C6371CC
:1023DC00F5021707002013076790931715000843A1
:1023EC0093C5F5FF3E951E21FD8D0EA10145828002
:1023FC000D4582809707002083C797896364F50099
:10240C0001458280011197070020938727924EC6C1
:10241C0083A9070006CE22CC26CA4AC8638C0908B9
:10242C002E899705002083D5C58DB387C5022A84D4
:10243C00B2848146B3B5C50213850732B337F500B4
:10244C0013060064BE95EF206020B74736FE9387D5
:10245C00F7C763E1A70682999705002083D5658AA3
:10246C00B3879502AA89130600648146B3B5950219
:10247C0013850732B337F500BE95EF20201DAA99BE
:10248C00CA852285EFD07FD809C52324350105459F
:10249C001DA0936504F0C205C1814145EFE0DFA2A8
:1024AC0015E1970700209387E783DC5B81C7A28542
:1024BC00114582970145F2406244D2444249B249E7
:1024CC000561828097070020938787819C4395E361
:1024DC009707002023A6A7808547232605002324E1
:1024EC0035012311250100A11CB12322050045B79C
:1024FC00BA87D84775FFC8C7C5B7411122C426C2D1
:10250C004AC006C62A892E84EFD03FD0AA8419C1AE
:10251C0023110500A2854A857D3597F7FF1F83C7D8
:10252C002777639B270197F7FF1F83D7E77A5D8C8B
:10253C0097F7FF1F2392877A014591E01945B24026
:10254C0022449244024941018280411106C697F708
:10255C00FF1F23ABA77C0295B24097F7FF1F23A563
:10256C00A77401454101828041117146814517F5DF
:10257C00FF1F1305A57406C697F7FF1F23A2077646
:10258C0097F7FF1F23A2077A97F7FF1F23A0077A5D
:10259C00EFD05FD813068002814517F5FF1F130596
:1025AC00256FEFD03FD7EF10F06C97F7FF1F83C765
:1025BC00B77413D527008D8B3E958D473305F502E7
:1025CC00854539051375F50F97F7FF1F2383A76C06
:1025DC0099473305F50213050524EFE0FF8E17F735
:1025EC00FF1F2321A77441CD994717F6FF1F034600
:1025FC00466A3306F602814513060624EFD09FD1B6
:10260C0097F7FF1F938707729C439387072417F74D
:10261C00FF1F2323F76A17F7FF1F034787670A0774
:10262C00BA9717F7FF1F232BF76A8531E12C97F721
:10263C00FF1F93876768944397F7FF1F83C75765FE
:10264C00139727003697170600001306E6C410C32D
:10265C00138717001377F70F0A0736971706000032
:10266C001306E6CB10C313873700890793F7F70FD0
:10267C008A0797F5FF1FA38DE560B69790C3B2400C
:10268C004101828097F7FF1F83C7976017F7FF1FE1
:10269C000347276063F3E70217F7FF1F1307C761B0
:1026AC0018439386170017F6FF1FA303D65E939665
:1026BC002700369708C33E8582809307F00FE5BF4D
:1026CC001C416380071441777D8FB7060020894732
:1026DC00631AD7125A2163070712411122C41946F3
:1026EC002A849305F00F610506C6EFD07FCC054711
:1026FC008D476303E5101C4481CB185C9947630D2F
:10270C00070E585C630A070E13060004814517F583
:10271C00FF1F1305255DEFD0FFBF13060004A28534
:10272C0017F5FF1F1305055CEFD09FBB17F7FF1FB5
:10273C000357075C97F7FF1F9387C75A19E71307CF
:10274C00001097F6FF1F2395E65A17F7FF1F034754
:10275C00475A11E7054797F6FF1F238CE65817F7E2
:10276C00FF1F0357275911E76D4797F6FF1F239358
:10277C00E65817F7FF1F0347D75711E7154797F68A
:10278C00FF1FA388E65617F7FF1F0347C75611E72D
:10279C00054797F6FF1F2380E65617F7FF1F0347E1
:1027AC00975511E7F83797F6FF1FA386E65417F7EE
:1027BC00FF1F0347675411E7254797F6FF1F238D2B
:1027CC00E65217F7FF1F0347575311E7514797F688
:1027DC00FF1FA384E652782819E71307C00397F666
:1027EC00FF1F238CE650DC5791C7829797F7FF1F8A
:1027FC002394A74A953B8147B24022443E85410130
:10280C00828089473E85828097F7FF1F9387075206
:10281C009C43411106C622C426C24AC08297930724
:10282C000064B335F50217F9FF1F0359894D4A8629
:10283C0081463305F502EF10706197F7FF1F938700
:10284C002745804FAA840145630494023385844054
:10285C00636C94004A8681461305009C9305F063D3
:10286C00EF10D05E018D269597F7FF1F23AE974290
:10287C00B2402244924402494101828097F7FF1FE3
:10288C00938747469C5B011106CE81C72AC6829767
:10289C00324515C917F7FF1F0357A746854705C3D0
:1028AC0017F7FF1F0357074619CB97F7FF1F23AFE7
:1028BC00A74617050000130565F541398147F2401D
:1028CC003E850561828097F7FF1F23A1073EE177C4
:1028DC0093C727A117F7FF1F2315F7429307200370
:1028EC0017F7FF1F2310F7427D57B747024023A469
:1028FC00E72697E7FFFF938707DA17F7FF1F2327D2
:10290C00F74245BF011122CC17F4FF1F1304843D7D
:10291C00084406CE26CA4AC801E90545F24062447D
:10292C00D2444249056182801C5CE5DB585C75D75A
:10293C007000854582971844B247E300F7FE930573
:10294C00E00417F5FF1F0355A53AEFE0EFD717F793
:10295C00FF1F232FA73471D117F6FF1F03564639DB
:10296C009305F00FEFD01F9B814417F9FF1F13093C
:10297C00293297F7FF1F83C7C7370326090263CF96
:10298C00F4003285EFE0CFE0014597F7FF1F23A15C
:10299C00073297F7FF1F23AF073049B797F5FF1F93
:1029AC0083D50535B38795020844585C8981850425
:1029BC003E9508C2029775BF97F7FF1F83C7772D07
:1029CC00638F07145D7152DC86C62A8AA2C4A6C224
:1029DC00CAC04EDE56DA5AD85ED662D466D26AD0F7
:1029EC006ECE7D5563070A0E97F7FF1F9387C73C82
:1029FC0003A4C70879CCB74B0F0037490F00138DD0
:102A0C00FB2317FCFF1F035CCC2F97FDFF1F83CD0F
:102A1C00CD2E7D5B854C938B0B249D471307204E4D
:102A2C00130909248149343403280409639B96074C
:102A3C000355E407835AA403637C550B142863994C
:102A4C00960B83268411CDE68326440AD5E2743492
:102A5C006390F60AB38AAA400A3C832444094A8646
:102A6C0033055503CE8642C63305E502B3549502B1
:102A7C00EE94C204C18023129408B3848403EA94B4
:102A8C00B3D47403B335AC023305AC02EF10103C75
:102A9C0032481307204E9D47B30A5841AA9A3388EF
:102AAC009A4063736801428B004035FC97F7FF1F17
:102ABC009387C7279C4382976366AB04B307AB40ED
:102ACC002320FA0083270A0029476364F704232094
:102ADC000A00B640264496440649F259625AD25A24
:102AEC00425BB25B225C925C025DF24D6161828062
:102AFC0083564408B3868603EA96B3D67603330826
:102B0C00D84045B7B3076541E3CA07FA23200A004A
:102B1C0055BFD9172320FA0013056BFF5DBF7D55F8
:102B2C008280411197F7FF1F9387072926C297F4DC
:102B3C00FF1F9384642222C4E05B9C4006C64AC0FB
:102B4C0098430D8B05C3B84B619BB8CB9843136767
:102B5C00870098C39C438D83858B89C70100010036
:102B6C000100010097F7FF1F9387C71C944337C7D9
:102B7C00898E130767ED98C63757550013075755BD
:102B8C00D8C2034724029306F00F3E896307D7008F
:102B9C00FD57A300E4022301F40203451402894704
:102BAC006303F500014598405C4393E717005CC351
:102BBC00930710FA3CA497F7FF1F83C7B71881CF70
:102BCC0017F7FF1F0347071895476316F70097F78A
:102BDC00FF1FA389071617F7FF1F034797169D477B
:102BEC006318F7009307701017F7FF1F231CF714D7
:102BFC00954717F7FF1FA306F714014697F7FF1F1A
:102C0C00238E07129305F00F97F7FF1F238A0712E5
:102C1C00152C904097F7FF1FA384071297F7FF1FFF
:102C2C00A38E071085471CC283270900B705330004
:102C3C0098431377F7E798C398431377F7E713672D
:102C4C00071098C317F7FF1F1307C715184314472E
:102C5C00CD8E14C79306900534CA5457F59A54D7A1
:102C6C0018349376F7079843137707F8558F98C362
:102C7C00B2402244924402494101828017F6FF1F60
:102C8C001306460B1C42B7068000B715018098430B
:102C9C00938585EC558F98C39843B7060010558FD4
:102CAC0098C31307001DD8DB17F7FF1F0347C70492
:102CBC0093169701CD8ED4D7D457B70500821377CE
:102CCC00F703FD15ED8E6607558FD8D737170040E3
:102CDC00930770052300F704930780FA2300F70489
:102CEC0097F6FF1F83C64601A54763FDD7003E3309
:102CFC0093E707013EB31842B707090093873708DB
:102D0C001CD382803E33C207C183BD9BC207C183E3
:102D1C00D5B797F7FF1F938727029C4399CB944B0A
:102D2C00D04B9842518F98C294439C479842D98F6C
:102D3C009CC297F7FF1F9387E7FF17F6FF1F130639
:102D4C00A6019376250098430328060097F7FF1FEA
:102D5C0083C767FFD9C61443F578FD18B3F616017F
:102D6C000963B3E6660014C3D1769388F6FF144367
:102D7C0089050D4E8E059387E70BB3F61601631E7E
:102D8C00C5031165C98E14C335673D072326E800BA
:102D9C00010001001842930600F89385750D232459
:102DAC00670017F6FF1F230DD6F88605BE9586051E
:102DBC00BD676CD3BD075CC7828014C335673D0704
:102DCC002326E800010001001842930600F89385C1
:102DDC00A5042324670017F6FF1F2303D6F68E05E0
:102DEC00F1B7F5769388F6FF144305899387E709C5
:102DFC00B3F6160105C514C335673D072326E80055
:102E0C000100010018428966AD0514C7930600F84D
:102E1C0017F6FF1F2306D6F28A0549BF0565C98E32
:102E2C0014C335673D072326E80001000100184252
:102E3C008966A90514C7930600F817F6FF1F23012E
:102E4C00D6F071BF97F7FF1F938707EF9C4389CF8D
:102E5C00D44303A8870098423367070198C2D4472C
:102E6C00DC4B9842D98F9CC297F7FF1F938787EC56
:102E7C00137725009C4335C39843F576FD16758F63
:102E8C008966558F98C3370709001307670898D3CD
:102E9C0037A734001307F74D98CB37273008451761
:102EAC00D8CB371703001307976198CF0D6713071B
:102EBC00E78D98D737670001130707319E05D8D3E4
:102ECC009385453697F7FF1F23A0B7E811C6060672
:102EDC0097F7FF1F23AAC7E682803707090013075D
:102EEC00370898D3372732001307072D98CB37278D
:102EFC00100813071790D8CB371703001307476236
:102F0C0098CF0D671307E78B98D737670001130726
:102F1C000731D8D375779306F7FF98430548950585
:102F2C00758F6317050198C38E059385C50359BF2B
:102F3C008566558F98C39205CDBF97F7FF1F83C742
:102F4C0077E08DE717F7FF1F0347B7DF9307B7FF4E
:102F5C0093F7F70F894663EBF60097F7FF1F238370
:102F6C00E7DE854717F7FF1FA30EF7DC82804111C0
:102F7C0006C617F7FF1F0347E7DC9D47631FF702E1
:102F8C0097F7FF1F83C787DD858B17F6FF1F034657
:102F9C0016DF97F6FF1F83C686DEB5C397F7FF1FB4
:102FAC009387C7DDC84321CD0C310905292E11C5E6
:102FBC00854717F7FF1FA307F7D817F7FF1F03471E
:102FCC0067D89547631AF70097F7FF1F9387C7DEFB
:102FDC00FC5BBC3785CBB13617F7FF1F034787D691
:102FEC0099476311F70297F7FF1F9387E7DC83A7D5
:102FFC004708FC3381CBB24041016F10E04E814554
:10300C0001456DB7B2404101828017F7FF1F1307CE
:10301C00A7D41C4394438D8A85C2B44BE19AB4CB9C
:10302C00944393E6860094C39C438D83858B89C718
:10303C00010001000100010097F7FF1F938787CF64
:10304C0094439C4293F7F7E793E707089CC297F7E2
:10305C00FF1F938727D59043B706CEFFFD161C465E
:10306C00F58F1CC61C4323A8070497F7FF1F9387F3
:10307C00A7CC9C4399CBD44390479842518F98C28C
:10308C00944BDC4B9842D98F9CC297F7FF1FA38AB5
:10309C0007CA828097F7FF1F938787C99843B74762
:1030AC000240938707306313F70A411106C622C406
:1030BC0026C24AC0692817F9FF1F1309A9C7352171
:1030CC00753E83270900F576FD16984397F4FF1F8C
:1030DC00938444CD17F4FF1F130404C8758F98C351
:1030EC009843B70633001377F7E798C398431377E1
:1030FC00F7E71367071098C398401C47D58F1CC778
:10310C001C401307D005B8CB012DEF10E032812BFA
:10311C00F923032709001C4393F7F7E793E7070804
:10312C001CC394403707CEFF7D179C46F98F9CC675
:10313C001C4023A807041135B240224497F7FF1F07
:10314C00A38107C09244024941018280828097F793
:10315C00FF1F938767C09C431307C0089306C006E4
:10316C00D8CBD4CFD8D31306C003D0D7D8DBD0DF7D
:10317C00F8C317F7FF1F130767BC184FF4C7F8DB2A
:10318C0041677D1798C73D673D07D8C7828097F781
:10319C00FF1F938727C1944397F7FF1F938787B926
:1031AC009C436387051037B724001307F7E9636660
:1031BC00A7089843137707F81367570298C313F7B8
:1031CC00150001CB93F5050341476390E50E1305FC
:1031DC000583D856370810FE7D1813672700D8D6FC
:1031EC004167130707A03356E5023375E502130751
:1031FC00A00F7D8A93154601F042337606014D8E61
:10320C00F0C23706FCFF2A053355E502F842718FF0
:10321C003A053981598DE8C217F7FF1F034707B4E8
:10322C00098B19CB98431377F707936607049843D8
:10323C00137707F8558F98C382803707250013063C
:10324C00F7486363A6023767DBFF130707932A97D8
:10325C001306007D3357C7027D1790431377F7078A
:10326C00137606F8518F99BF130707496318E500C9
:10327C009843137707F81367670289B737D7250088
:10328C001307F777636DA7003767DBFF1307079307
:10329C002A971306007D3357C70279177DBF9843D1
:1032AC00137707F81367770211BF130585C115B79C
:1032BC00D8561375F507759BD8D69843137707F82E
:1032CC00598D88C391BF97F7FF1F9387E7AE83A7EC
:1032DC00870991CF054582800545F2406244D2446E
:1032EC004249B249224A924A024B0561828001113D
:1032FC0026CA97F4FF1F938464A69C4406CE22CC66
:10330C004AC84EC652C456C25AC0F9D717F9FF1F45
:10331C00130989A48327090098430D8B05C3B84B67
:10332C00619BB8CB98431367870098C39C438D83EC
:10333C00858B89C7010001000100010017F4FF1FF4
:10334C001304C4A35C24B68A328B918BAE892A8A6F
:10335C0089EB97F5FF1F83C565A093F7050463936D
:10336C000714814517F5FF1F0345559F0D3517F5BC
:10337C00FF1F0345A59E1185014697F5FF1F83C5C9
:10338C00A59F0D89EFF01FAC17F7FF1F1307879A46
:10339C0094441C4394C7D444D4C39C208326090072
:1033AC00BA84858BDCC297F7FF1FA38A679D97F7BA
:1033BC00FF1F2386579DDC42858BA9CB5C4091EF88
:1033CC0017F5FF1F0345559B930590040905EFD096
:1033DC00BFAF97F7FF1F23A5A79A5C40E38E07EEBC
:1033EC0017F7FF1F0347A79998A35C4063020A0CC9
:1033FC006380090CA380370148404E86D2850905AD
:10340C00EFC01FEE832709005840B8DB3D367C2403
:10341C0093E7470017F7FF1F2309F796930700045C
:10342C0017F7FF1F230CF79097F7FF1F238A0790BE
:10343C009D4717F7FF1FA306F79097F7FF1F93877A
:10344C00678ADC5791CB13060064C14517F5FF1F43
:10345C000345C593EFE01FFA97F7FF1FA382078E72
:10346C008326090097F7FF1FA38A078C984085478E
:10347C009CC21C4337063300014593F7F7E71CC386
:10348C001C4393F7F7E793E707101CC397F7FF1F4D
:10349C009387479198431C47D18F1CC7930790057E
:1034AC00BCCA25BD93F5050393E51500C8407DBD49
:1034BC00A380070081BF97F7FF1F9387A78E9443C4
:1034CC00056713071710D8C6514701007D1775FF04
:1034DC00984323260700514701007D1775FF984339
:1034EC008567938717105CC78280411106C6E13748
:1034FC0097F7FF1F9387078B9C43130700483703ED
:10350C00009098D7B8477D13370E002033776700AB
:10351C003367C701B8C7B847B70600F9FD16758FF2
:10352C0037060004518FB8C7B8473706F9FF7D1628
:10353C00419B13679700B8C7B847B7080080B70E10
:10354C000002718FB8C7B847370600FF7D16336786
:10355C001701B8C7F84745757D1E619B1367370087
:10356C00F8C7F8471377F7F813670703F8C7EC4762
:10357C0093F5F58F93E50530ECC7F847718FF8C7D5
:10358C00F84711663367D701F8C703A80705130777
:10359C00F5FF7D753378E8003368C80023A807056C
:1035AC0003A847057D15137808FF1368C80023AAE4
:1035BC000705F04B13660608F0CBF04B698EF0CB89
:1035CC00C85F798D2167598DC8DFCC5F3707004004
:1035DC00F58DB3E5D501CCDFD05FB7057000337640
:1035EC00C601598ED0DFD05709674D8ED0D7D05732
:1035FC00F18ED4D7D45775767D16F18ED98ED4D75B
:10360C00D4573706FDFF7D1637070200F18ED98E91
:10361C00D4D7945BC19A94DB945B93F6F6F094DB6D
:10362C00945B93F6F68F94DB985BB70600504D8F46
:10363C0098DB985B33776700558F98DB985FB706FC
:10364C0008FFFD16758FB7061000558F98DF985F31
:10365C00B368170123AC1703B2404101828017E70E
:10366C00FF1F130727741C4341767D16B44BF18E54
:10367C00B4CB944737062000D18E94C7D44793E639
:10368C000601D4C7D447BD9AD4C70100010001007C
:10369C00010014430566DC4693E70701DCC6DC42F7
:1036AC00D18FDCC283A7C609A183858BE5DF01001E
:1036BC000100010001001C43416603A7C709B44B7C
:1036CC00D18EB4CB9376F701B84B019B558FB8CB09
:1036DC009847B706E0FFFD16758F98C7828097E76D
:1036EC00FF1F9387276C9C4341777D17B44F41662E
:1036FC00F98EB4CF9447D18E94C7D44793F6F6EF96
:10370C00D4C7D443758FD8C3D44793E60610D4C717
:10371C00D843518FD8C38280397122DC17E4FF1F44
:10372C00130444681C4006DE26DA4AD84ED652D41E
:10373C0056D25AD05ECE62CC66CA6AC86EC6D84320
:10374C00FD76FD161377F7EFD8C39857758F98D77A
:10375C00D857B70602003D9BD8D79847558F98C7C6
:10376C00D84313670701D8C317E7FF1F1307076375
:10377C0014433757341213078767E389E64AD84353
:10378C0081749384F40F799BD8C3985FB166938648
:10379C0006F0658F558F98DFD84313671700D8C391
:1037AC00EFD08FEF1C4003A707091377F703A38C07
:1037BC00E18003A7470929831377F707238DE1805D
:1037CC00D843B96693860670799BD8C3985F658F8A
:1037DC00558F98DFD84313671700D8C3EFD0CFEBC2
:1037EC001C4003A707091377F70397E6FF1FA38D68
:1037FC00E65A03A7470929831377F70797E6FF1FB4
:10380C002380E65AD843B56693860630799BD8C395
:10381C00985F658F558F98DFD84313671700D8C30F
:10382C00EFD08FE718408327070993F7F70397E644
:10383C00FF1F238BF65683274709A98393F7F707B6
:10384C0017E7FF1F230AF7541C4017ECFF1F034C0C
:10385C00AC5583C6918103A7070AB386864113F63C
:10386C00F600419B518F23A0E70A130760023387B0
:10387C00E6021306700283A5070A7D7E130EFE0F67
:10388C0093F5F5F01305400245737D1313043002D4
:10389C003347C702B708F1FFFD1813082002930E37
:1038AC0010027D4FF94FF542F1436D4DD14B454B15
:1038BC00BD443949314AAD4AB5493D8B12074D8F4C
:1038CC009305500223A0E70A3387B60283A5070AA3
:1038DC00B3F5C5013347C7023D8B22074D8F23A09B
:1038EC00E70A3387A60283A5070A370500F17D1581
:1038FC00B3F565003347C7023D8B32074D8F23A0CC
:10390C00E70A3387860283A5070A6144B3F51501DC
:10391C003347C7023D8B42074D8F23A0E70A3387FD
:10392C00060383A5070A370810FF7D18B3F50501B8
:10393C003347C7023D8B52074D8F23A0E70A3387CD
:10394C00D60383A5070AB70E0010FD1EE98D334779
:10395C00C7023D8B62074D8F23A0E70A13975600D1
:10396C003347C7029315C70103A7070A3377D7015B
:10397C004D8F23A0E70A3387E6035D4F3347C70219
:10398C009375F70003A7470A419B4D8F23A2E70AC3
:10399C003387F60383A5470AD94F93F5F5F03347E0
:1039AC00C7023D8B12074D8F23A2E70A33875602BD
:1039BC0083A5470AD542B3F5C5013347C7023D8BF2
:1039CC0022074D8F23A2E70A3387760283A5470A85
:1039DC00CD43B3F565003347C7023D8B32074D8F9E
:1039EC0023A2E70A3387A60383A5470A494DB3F5FB
:1039FC0015013347C7023D8B42074D8F23A2E70ABF
:103A0C0069473387E60283A5470AB3F505013347B7
:103A1C00C7023D8B52074D8FE54523A2E70A33873A
:103A2C00B60283A5470AE98D3347C7023D8B62076F
:103A3C004D8F23A2E70A338786020D443347C70212
:103A4C009315C70103A7470A3377D7014D8F23A2DC
:103A5C00E70A3387E603254F3347C7029375F70010
:103A6C0003A7870A419B4D8F23A4E70A3387F603EC
:103A7C0083A5870A9D4F93F5F5F03347C7023D8B1D
:103A8C0012074D8F23A4E70A3387560283A5870AB2
:103A9C009942B3F5C5013347C7023D8B22074D8FC1
:103AAC0023A4E70A3387760383A5870AB3F5650059
:103ABC003347C7023D8B32074D8F23A4E70A338768
:103ACC00760283A5870A9543B3F515013347C702E0
:103ADC003D8B42074D8F23A4E70A3387A60383A5AA
:103AEC00870A294DB3F505013347C7023D8B5207B1
:103AFC004D8F23A4E70A3387660383A5870AE98DD4
:103B0C003347C7023D8B62074D8F93954600B3C573
:103B1C00C50223A4E70A03A7870A3377D701F20566
:103B2C004D8FB385960223A4E70A03A7C70A419BCE
:103B3C00B3C5C502BD894D8F23A6E70A338726037B
:103B4C0083A5C70A93F5F5F03347C7023D8B1207DF
:103B5C004D8FB3C5860223A6E70A03A7C70A33779E
:103B6C00C701BD89A2054D8F23A6E70A33874603FB
:103B7C0083A5C70AB3F565003347C7023D8B3207EF
:103B8C004D8F23A6E70A3387560383A5C70AB3F5DF
:103B9C0015013347C7023D8B42074D8F23A6E70A19
:103BAC003387A60383A5C70AB3F505013347C702BC
:103BBC003D8B52074D8F23A6E70A3387E60383A577
:103BCC00C70AE98D3347C7023D8B62074D8F93952A
:103BDC003600B3C5C50223A6E70A03A7C70A337785
:103BEC00D701F2054D8FB385F60323A6E70A03A789
:103BFC00070B419BB3C5C502BD894D8F23A8E70AAE
:103C0C003387560283A5070B93F5F5F03347C702AC
:103C1C003D8B12074D8F23A8E70A3387760283A5C5
:103C2C00070BB3F5C5013347C7023D8B22074D8FF8
:103C3C0023A8E70A139726003347C70283A5070B6F
:103C4C00B3F565003D8B32074D8FB3C5360323A802
:103C5C00E70A03A7070B33771701BD89C2054D8F00
:103C6C0023A8E70A139716003347C70283A5070B4F
:103C7C00B3F505013D8B52074D8FB3C5C60223A882
:103C8C00E70A03A7070B698FBD89E2054D8F23A8AF
:103C9C00E70A03A7070B930580023377D70123A804
:103CAC00E70A17E7FF1F034737103307EC40B34D04
:103CBC00B70283AC470B93FC0CFFB34B770393FD1C
:103CCC00FD00B3ECBC0123AA970B83AC470BCD4D85
:103CDC0093FCFCF093FBFB00920BB3EB7C0123AA4F
:103CEC00770BB30B870283AC470BB3FCCC01B3CB84
:103CFC00BB0293FBFB00A20BB3EB7C01B34CA70301
:103D0C0023AA770B83AB470BB3FB6B0093FCFC0034
:103D1C00B20CB3EB9B0123AA770BA14BB34B7703EC
:103D2C0083AC470BB3FC1C0193FBFB00C20BB3EB46
:103D3C007C0123AA770BB30B570283AC470BB3FC64
:103D4C000C01B3CBBB0293FBFB00D20BB3EB7C019E
:103D5C0023AA770BB30BF70383AC470BB3FCAC0074
:103D6C00B3CBBB0293FBFB00E20BB3EB7C01B34C7C
:103D7C00770223AA770B83AB470BB3FBDB01F20C67
:103D8C00B3EB9B01B30CE70323AA770B83AB870B35
:103D9C0093FB0BFFB3CCBC02B30A570393FCFC00A0
:103DAC00B3EB9B0123AC770B914B83AC870B93FC50
:103DBC00FCF0B34B7703330A470393FBFB00920BE6
:103DCC00B3EB7C0123AC770B83AB870BD54CB3FBEC
:103DDC00CB01B3CABA02B309370393FAFA00A20AA9
:103DEC00B3EA5B0123AC570B83AA870BD94BB3FA0D
:103DFC006A00334ABA0233092703137AFA00320AEB
:103E0C0033EA4A0123AC470B03AA870BE14A337A06
:103E1C001A01B3C9B902B304970293F9F900C209A4
:103E2C00B3693A0123AC370B83A9870B654AB3F905
:103E3C0009013349B902B3C4B4021379F900520928
:103E4C0033E9290123AC270B03A9870BE949337903
:103E5C00A900330B6703BD88E204B36499001319FE
:103E6C00470023AC970A83A4870BB3F4D4013349DE
:103E7C00B902334BBB027209B3E4240123AC970A99
:103E8C0083A4C70BC198137BFB0033EB6401C944BB
:103E9C00B304970223AE670B03A9C70B5D4B1379D1
:103EAC00F9F0B3C4B402BD889204B364990023AE94
:103EBC00970AB304B70303A9C70BF54D3379C901AE
:103ECC00B3C4B402BD88A204B364990023AE970AAC
:103EDC008944B344970203A9C70B33796900BD88A1
:103EEC00B204B364990023AE970AB304970303A9F1
:103EFC00C70BF94C33791901B3C4B402BD88C204A1
:103F0C00B364990023AE970AB304770303A9C70BD4
:103F1C00FD4B33790901B3C4B402BD88D204B36438
:103F2C00990023AE970AB304670303A9C70B130BBD
:103F3C0010023379A900B3C4B402BD88E204B3649F
:103F4C00990023AE970AB304570303A9C70B930A2E
:103F5C0020023379D901B3C4B402F204B3649900DA
:103F6C0023AE970AB304470303A9070C130A3002C4
:103F7C00137909FFB3C4B402BD88B364990023A0BC
:103F8C00970CB304370303A9070C93094002137968
:103F9C00F9F0B3C4B402BD889204B36499006D49BE
:103FAC0023A0970CB304270303A9070C3379C90189
:103FBC00B3C4B402BD88A204B364990023A0970CC7
:103FCC00F144B304970203A9070C33796900B3C415
:103FDC00B402BD88B204B364990023A0970CB30457
:103FEC00B70303A9070C33791901B3C4B402BD8814
:103FFC00C204B364990023A0970CB304970303A9DC
:10400C00070C33790901B3C4B402BD88D204B3647C
:10401C00990023A0970CB304770303A9070C3379F9
:10402C00A900B3C4B402BD88E204B364990023A010
:10403C00970C93145700B3C4B4021399C40183A40E
:10404C00070C3306C702B3F4D401B3E4240123A054
:10405C00970C03A9470C137909FFB3046703B3C486
:10406C00B402BD88B364990023A2970CB304570320
:10407C0003A9470C1379F9F0B3C4B402BD889204B8
:10408C00B364990023A2970CB304470303A9470C0C
:10409C003379C901B3C4B402BD88A204B3649900D6
:1040AC0023A2970CB304370303A9470C3379690097
:1040BC00B3C4B402BD88B204B364990013095002AE
:1040CC0023A2970CB304270303A9470C33791901D6
:1040DC00B3C4B402BD88C204B364990023A2970C84
:1040EC0093046002B304970203A9470C33790901C6
:1040FC00B3C4B4023346B602BD88D204B36499008B
:10410C0023A2970C83A4470CE98C3D8A6206458E4A
:10411C0023A2C70C03A6470C9314C7013376D60110
:10412C00458E23A2C70C130690023306C70283A444
:10413C00870CC1983346B6023D8A458E23A4C70C22
:10414C001306A0023306C702B345B60203A6870CBA
:10415C001376F6F0BD899205D18D23A4B70C97E5A3
:10416C00FF1F83C565C317E6FF1F034666C333866F
:10417C00C540B304A60303A9870C3379C901B3C4A2
:10418C00E40293E48400BD88A204B364990023A4E0
:10419C00970CB304E60303A9870C33796900B3C405
:1041AC00E40293E48400BD88B204B364990023A4B0
:1041BC00970C93143600B3C4E40203A9870C33792B
:1041CC00190193E48400BD88C204B364990023A44C
:1041DC00970CB304F60303A9870C33790901B3C414
:1041EC00E40293E48400BD88D204B364990023A450
:1041FC00970CB304560203A9870C3379A900B3C4F6
:10420C00E40293E48400BD88E204B364990023A41F
:10421C00970CB304760203A9870C3379D901B3C484
:10422C00E40293E48400F204B364990023A4970C91
:10423C0093142600B3C4E40203A9C70C137909FF35
:10424C0093E48400BD88B364990023A6970CB3044F
:10425C00860203A9C70C1379F9F0B3C4E40293E402
:10426C008400BD889204B364990023A6970C931420
:10427C001600B3C4E40203A9C70C3379C901334750
:10428C00E60293E48400BD88A204B364990023A6DB
:10429C00970C03A6C70C33766600136787003D8B1B
:1042AC003207518F23A6E70C03A7C70C33771701EE
:1042BC0023A6E70C03C7A1810D8F3346D70293F5D4
:1042CC00F507E2053D8A9314460103A6C70C330497
:1042DC00870233760601458E23A6C70C13161700EA
:1042EC0083A4C70CE98C3346D6023D8A6206458E00
:1042FC0023A6C70C03A6C70C3344D402B37ED60145
:10430C0013162700B3037702720433E48E0023A63E
:10431C00870C3346D602B3025702937EF60003A6EF
:10432C00070D419A3366D60123A8C70C03A6070DC7
:10433C00B3C3D3021376F6F0B3C2D20293F3F300F5
:10434C009203B363760023A8770C03A6070D337E84
:10435C00C601B30FF70393F2F200A202B3625E0040
:10436C0023A8570C03A6070D3373660013163700EA
:10437C00B3CFDF02330FE70393FFFF00B20FB36F2E
:10438C00F30123A8F70D03A3070DB37813013346EC
:10439C00D602330DA7033D8A420633E6C80023A894
:1043AC00C70C03A6070D33780601334FDF02B34663
:1043BC00DD02137FFF00520F336FE80123A8E70DD6
:1043CC0003A7070D798DBD8AE206C98E23A8D70CE9
:1043DC00D84385663D9BD8C3D843799BD8C398579F
:1043EC00558F98D7D857B7060081FD16136707016C
:1043FC00D8D71377FC0303AC8703137C0CFC336C0A
:10440C00EC0023AC8703985F758FD98D8CDF6254D9
:10441C00F250D2544259B259225A925A025BF24B80
:10442C00624CD24C424DB24D2161828097E7FF1F06
:10443C0023A607966FF04FC197E7FF1F93878796C8
:10444C0098435C4393E707105CC3828097E7FF1F98
:10445C009387479617E7FF1F130747959C4318430D
:10446C0001456313F7008280F62399E2D623369533
:10447C009C43C5BF97E7FF1F9387C7868C4317E7FD
:10448C00FF1F0357678641111386052297E7FF1F0D
:10449C0023A2C792938785FFBA97056597E6FF1FFE
:1044AC0023A6F69006C61D05935637006374E500E7
:1044BC00930600203307D60017E5FF1F232AE58E4D
:1044CC0023A0E522E11656A2231306001CC3998FE4
:1044DC00E1175EA323130700953FB24097D7FF1F48
:1044EC00239BA77A41018280411197E7FF1F938795
:1044FC00A78C26C297E4FF1F9384048622C403A4CE
:10450C0047089C4006C64AC098430D8B05C3B84B60
:10451C00619BB8CB98431367870098C39C438D83EA
:10452C00858B89C7010001000100010097E7FF1F7F
:10453C0093874780944337C7898E130767ED98C6D6
:10454C003757550013075755D8C20347A403930692
:10455C00F00F3E896307D700FD57A30CE402230D2F
:10456C00F4020345940389476306F5008547A30CC1
:10457C00F402014598405C4393E717005CC3930732
:10458C0020FB7CA097D7FF1F83C7D77B81CF17D782
:10459C00FF1F0347277B8D476316F70097D7FF1F35
:1045AC00A382077A17D7FF1F0347B7799D47631874
:1045BC00F7009307701017D7FF1F2315F77899474B
:1045CC0017D7FF1FA30FF776014697D7FF1F238737
:1045DC0007769305500297D7FF1F23830776EFE0EA
:1045EC007F86904097D7FF1FA38C077497D7FF1F28
:1045FC00A386077485471CC283270900B7053300BF
:10460C0098431377F7E798C398431377F7E7136743
:10461C00071098C317D7FF1F1307C7781843144701
:10462C00CD8E14C79306900534CA5457F59A54D7B7
:10463C0058309376F7079843137707F8558F98C33C
:10464C00B24022449244024941018280B687B2882A
:10465C002A832E88639B061463F8C50A4167636B33
:10466C00E61AB70700016360F63493568601E147FA
:10467C00171700001307876E36971823BA9713077E
:10468C0000021D8F19CB3398E500B357F500B31812
:10469C00E60033E807013313E50013D60801335560
:1046AC00C80293960801C182935703013377C8025D
:1046BC00B385A60242073368F700637AB8004698C0
:1046CC009307F5FF636418016365B8303E853308C2
:1046DC00B8403357C8024203135303013378C8025E
:1046EC00B386E602420833686800637BD8004698BC
:1046FC009307F7FF6365180179176363D8003E874A
:10470C004205598D8145828001E60547B358C702A1
:10471C00416763E8E80EB707000163EAF82893D60F
:10472C008801E147171700001307476336971423D6
:10473C00BE9693070002958FFDE7939E0801338781
:10474C00154113DF080193DE0E01854593570301D4
:10475C003355E7033377E703B306D5034207D98F05
:10476C0063FAD700C6971307F5FF63E4170163E5F7
:10477C00D7263A85958F33D7E703420313530301AA
:10478C00B3F7E703B30ED703C207B3E7670063FBC6
:10479C00D701C6979306F7FF63E51701791763E313
:1047AC00D70136874205598D828063E1D504C167F4
:1047BC0063E1F604B707000163E3F61E13D7860125
:1047CC0061489717000093876759BA979823130E7F
:1047DC0000024297330EEE40631A0E0C63EDB61CCA
:1047EC003335C5001345150081458280814501454F
:1047FC0082809307F00F63F3D71C13D786002148F0
:10480C00C9B71307F00FC686E37E17F193D688005D
:10481C00A14709BF1307F00FB286E37BC7E4935699
:10482C008600A147B1B5B398F80033D6D50013DF95
:10483C000801335EE6033397F500B356D500558F68
:10484C00939E080193DE0E013313F5009355070177
:10485C00B376E603B387CE03C206CD8E63FBF600B8
:10486C00C6961306FEFF63E4161763F2F616791E5E
:10487C00C6969D8E33D6E60393170701C183B3F614
:10488C00E6033385CE02139706015D8F637BA70089
:10489C0046979307F6FF636817136376A71279168A
:1048AC00469793150E01098FD18D4DB5B357E60080
:1048BC00B396C601DD8E33D3E50013DF0601B35783
:1048CC00E303939E060193DE0E013398C501335723
:1048DC00E50033680701935808013316C60133739A
:1048EC00E303B385FE024203B368130163FBB80014
:1048FC00B6981387F7FF63EAD80C63F8B80CF9176E
:10490C00B698B388B84033D7E80342081358080167
:10491C00B3F8E8033383EE02C208B3E5080163FB86
:10492C006500B6951308F7FF63EDD50863FB6508C2
:10493C007917B695C207416FD98F1307FFFFB3F6EE
:10494C00E70093D80701718F4182B38EE602B385DD
:10495C006540B386C60213D80E013387E802BA96B7
:10496C00C2963386C80263F3E6007A9693D80601A2
:10497C00469663E2C5026385C5003E85814582800B
:10498C0041677D17F98EC206B3FEEE003315C501E3
:10499C00F696E374D5FE1385F7FF8145828013D715
:1049AC000601414839BD93560601C147D1B193D692
:1049BC000801C14785BB8145054582803687014882
:1049CC0009B5428785BF3E86E9BDBA871DBF328EC9
:1049DC004DB579154698E5B97915C69761BB39710E
:1049EC0001436EC619A0397141536AC866CA62CCBC
:1049FC005ECE19A0397101535AD056D252D44ED62C
:104A0C004AD826DA22DC06DE33016140828241116B
:104A1C004AC026C222C406C68282B24D4101024D52
:104A2C00924C224CB24B4101024B924A224AB2495F
:104A3C004101024992442244B240410182803D43EB
:104A4C002A876373C3029377F700BDEFADE59376C6
:104A5C0006FF3D8ABA960CC34CC30CC74CC7410722
:104A6C00E36BD7FE11E28280B306C3408A0697023D
:104A7C00000096966780A6002307B700A306B70030
:104A8C002306B700A305B7002305B700A304B7009E
:104A9C002304B700A303B7002303B700A302B70096
:104AAC002302B700A301B7002301B700A300B7008E
:104ABC002300B700828093F5F50F93968500D58D72
:104ACC0093960501D58D61B7939627009702000048
:104ADC0096968682E78086FA9680C1171D8F3E9641
:104AEC00E374C3F8A5B739713EDA2ED232D436D678
:104AFC003AD842DC46DE9387C18022CC804326CA5A
:104B0C0006CEAA8409C41C4C99E32285ED290C44D9
:104B1C0054102686228536C6EF00F012F24062440D
:104B2C00D24421618280011126CA4AC806CE22CC09
:104B3C004EC652C4AA842E8901C51C4D91E3E121B5
:104B4C009C4C804499E326857D2997170000938718
:104B5C00E732631BF402C0405E24A18BB1C71C4832
:104B6C00A1C7FD59294A1C4483450900FD17B1E929
:104B7C001CC463DD07062286A94526856120FD57E6
:104B8C006308F502294535A0971700009387073174
:104B9C006314F4008044C9B7971700009387072C5F
:104BAC00E31CF4FAC0444DBFA2852685112A55D9C1
:104BBC007D55F2406244D2444249B249224A0561D1
:104BCC0082801CC4050963D70700184C63CAE70030
:104BDC00638845011C401387170018C08CA361B76C
:104BEC00228626850520E31035F9D9B71C4013879A
:104BFC00170018C0294798A371B79387C180AA855D
:104C0C00884315B7011122CC26CA4AC806CE4EC617
:104C1C00AA842E89328401C51C4D91E3ED26971789
:104C2C0000009387A7256317F406C0401C4C1CC4D6
:104C3C005E24A18BC1C31C48B5CF1C480840937996
:104C4C00F90F1379F90F1D8D5C486346F500A285A9
:104C5C002685692C25E51C440505FD171CC41C4044
:104C6C001387170018C0238037015C486388A7009E
:104C7C005E24858B81CBA9476316F900A285268516
:104C8C00B5240DEDF24062444A85D2444249B24902
:104C9C000561828097170000938747206314F40006
:104CAC00804469B7971700009387471BE310F4F80B
:104CBC00C044ADBFA2852685212041D17D59D9B7ED
:104CCC0041119387C18026C2844322C44AC006C6C0
:104CDC002A892E8489C49C4C99E326852D26971706
:104CEC0000009387A719631BF402C0400317C4008C
:104CFC0093170701C18393F68700ADEA93F607017A
:104D0C0095EEA5472320F900136707045AA47D5597
:104D1C00B24022449244024941018280971700001C
:104D2C009387C7176314F4008044C9B79717000022
:104D3C009387C712E31CF4FAC0444DBF918B9DC3FB
:104D4C004C5889C9930744046384F5004A85112B98
:104D5C00232A04025E242322040093F7B7FD5EA4E9
:104D6C001C481CC05E2493E787005EA41C4899EB8A
:104D7C005E241307002093F707286385E700A285BC
:104D8C004A8581295E2413F717001DC35C48232430
:104D9C000400B307F0401CCC1C480145B5FB83173D
:104DAC00C40013F707082DD793E707045EA485B753
:104DBC00898B014791E3584818C4F9BFDE250111CE
:104DCC0022CC26CA06CE4AC84EC613F78700AA8440
:104DDC002E8479EBD841634DE000B841634AE00082
:104DEC000145F2406244D2444249B2490561828095
:104DFC0058547DD703A904009396370123A00400CF
:104E0C0063DB060670485E24918B99C75C401D8E4F
:104E1C005C5899C33C401D8E5C540C5081462685D1
:104E2C008297FD575A24631DF5009440F54763E8BB
:104E3C00D706B70740208507B3D7D700858BA5C306
:104E4C001C48232204001CC09317370163D80700A9
:104E5C00FD576314F5009C4091E368C84C5823A09F
:104E6C002401BDDD930744046384F5002685D52E0B
:104E7C00232A0402B5B70C500146854626850297B5
:104E8C00FD572A86E311F5F89C40B5DF754763851D
:104E9C00E70059476393E70423A0240191B71367F4
:104EAC0007045AA47D5535BF83A90501E38A09F28D
:104EBC0003A905008D8B23A0350133093941014726
:104ECC0091E3D84918C4E35D20F11C540C50CA86F8
:104EDC004E86268582976347A0005E2493E70704DD
:104EEC005EA4C9B7AA993309A940F1BF9C49B9CFAF
:104EFC00011122CC06CE2A8411C51C4D81E72EC689
:104F0C001922B24597170000938747F7639BF5006A
:104F1C004C408397C50095C722856244F2400561D9
:104F2C0071BD97170000938767F76394F5000C44E5
:104F3C00CDB797170000938767F2E39CF5FC4C44C0
:104F4C00C9BFF240624401450561828001458280FF
:104F5C00411122C406C62A844EA572A52320050041
:104F6C0023220500232405002322050623280500FF
:104F7C00232A0500232C0500214681451305C50570
:104F8C00EFF0FFAB97170000938767B25CD09717D1
:104F9C000000938787B41CD497170000938767B8D9
:104FAC005CD4971700009387C7BA00D01CD8B240C6
:104FBC0022444101828097050000938565F389AAFC
:104FCC00411126C2130680069384F5FFB384C402F4
:104FDC004AC02E8922C406C6938544073D262A84DE
:104FEC0001CD2320050023222501310508C4138699
:104FFC0084068145EFF0BFA42285B240224492443E
:10500C000249410182801C4DBDE3411106C622C4F8
:10501C0097070000938767FA1CD5971700009387B2
:10502C00A7ED9C432324050423260504232805040B
:10503C006314F50085471CCD2A841D2848C02285A1
:10504C00052808C422852D2048C4484001469145B6
:10505C00013708440546A545E53D48440946C94580
:10506C00C53D85471CCCB2402244410182808280E0
:10507C00411197170000938727E826C284434AC042
:10508C0006C69C4C22C42A8999E32685AD3F93849D
:10509C0084048044DC40FD1763D607009C40B9CFE4
:1050AC008440C5BF0317C40039E7C17785072322A5
:1050BC0004062320040023220400232404005CC4DF
:1050CC0023280400232A0400232C040021468145B4
:1050DC001305C405EFF0BF96232A0402232C040207
:1050EC0023240404232604042285B240224492443F
:1050FC000249410182801304840671BF91454A859F
:10510C00C13588C051FDB1472320F9000144E9BFE6
:10511C00797122D44AD052CC56CA5AC85EC606D629
:10512C0026D24ECE2A8AAE8A130485040149054B39
:10513C00FD5B09ECB25022544A8592540259F24953
:10514C00624AD24A424BB24B456182800444832965
:10515C004400FD1963D409000040E1BFDE24637BE9
:10516C00FB008397E40063877701A6855285829ABA
:10517C003369A90093848406E9BF1971A6DAAE8459
:10518C008395E500A2DC86DE328463DB0500DE2439
:10519C0023A0060093F7070885E7930700401DA09E
:1051AC00300836C6EF007021B246E34205FE724766
:1051BC00BD67F98F7977BA9793B717009CC2F1BF87
:1051CC00930700041CC0F6506654D654014509617F
:1051DC008280DE25011122CC06CE26CA4AC8898BD4
:1051EC002E8489CF930774041CC01CC885475CC8E7
:1051FC00F2406244D244424905618280740030001E
:10520C00AA84A53FA2452A892685012219E983177C
:10521C00C40013F7072069FFF19B93E727005EA4F6
:10522C00D1B797070000938747D99CD45E2408C058
:10523C0008C893E707085EA4A2475CC8B24781CFB1
:10524C008315E4002685EF00701A11C55E24F19BCE
:10525C0093E717005EA45E243369F900231624013A
:10526C0041BFDDC183A7C5FF411122C406C626C2BA
:10527C001384C5FF63D307003E94AA84EF00D01EAD
:10528C009387C1819C4381EF2322040023AE81804C
:10529C002244B2402685924441016F00101D637E6A
:1052AC00F40014403307D4006396E7009843DC43C2
:1052BC00369718C05CC0D9BFBA87D84319C3E37DF1
:1052CC00E4FE94433386D700631F86001040B296E9
:1052DC0094C33386D700E31DC7FA10435843B296E4
:1052EC0094C3D8C375B76375C400B1479CC04DB7A0
:1052FC001040B306C4006316D70014435843B2964B
:10530C0014C058C0C0C369B78280011126CA9384E7
:10531C003500F19806CE22CC4AC84EC6A104B1473E
:10532C0063F3F404B14463E2B4042A89EF00D013AC
:10533C009387C18198433A8439E0938701829C43D7
:10534C0091E781454A850D2F23A0A182A6854A8528
:10535C002527FD5963193507B1472320F9004A85E4
:10536C00EF00B01029A0E3D004FCB1471CC10145EB
:10537C00F2406244D2444249B249056182801C40E9
:10538C00858F63CF0702AD4663F6F6001CC03E94D2
:10539C0004C031A05C406313870223AEF1804A85C0
:1053AC00EF00B00C1305B400930744006199330768
:1053BC00F5405DDF3A94898F1CC05DBF5CC3C5B7F7
:1053CC002287404095BF130435007198E30285FC99
:1053DC00B305A4404A854D25E31C35FBB5BF1C46DF
:1053EC00FD171CC663DA0700184E63C5E700A94712
:1053FC006394F5006FF01F811C422E8513871700F4
:10540C0018C28CA38280011122CC26CA4AC84EC66F
:10541C0052C406CE2A89AE893284B304D6007D5A92
:10542C0063149400014501A80C204E864A85453F23
:10543C000504E31745FFF2406244D2444249B249A5
:10544C00224A05618280357122CD26CB4AC94EC7CE
:10545C0006CF52C556C35AC1DEDEE2DCE6DAAA89B3
:10546C00AE843289368409C51C4D99E3EFF0BFB97F
:10547C0097170000938787A06397F40C83A44900C7
:10548C00DE24A18BFDC39C48EDC393070002A3044B
:10549C00F1029307000302D22305F10222C6930BFB
:1054AC005002971A0000938A6AA1054C294B4A8432
:1054BC001C2099C3639E770DB30C2441638D0C00A3
:1054CC00E6864A86A6854E853D3FFD57630FF51C43
:1054DC009256E69636D21C206389071CFD57130999
:1054EC00140002C802CE3ECA02CCA309010482D425
:1054FC008345090015465685A12F13041900C24790
:10550C0051E913F7070109C713070002A309E104C6
:10551C0013F7870009C71307B002A309E1048346F8
:10552C0009001307A002638FE606F2474A848146FE
:10553C002546182093051400130707FD6377E60A28
:10554C00B5CA3ECE85A8971700009387279563951B
:10555C00F40083A489002DB7971700009387079058
:10556C00E390F4F283A4C90021BFA6854E85EFF029
:10557C002FF501DD7D55FA406A44DA444A49BA49AF
:10558C002A4A9A4A0A4BF65B665CD65C0D618280AD
:10559C00050439BF330555413315AC00C98F3EC8DE
:1055AC002289B9B7324793064700184336C663477A
:1055BC0007023ACE18209307E002631DF704183057
:1055CC009307A002631BF702B24709041387470035
:1055DC009C433AC663C107023ECA2DA83307E0407C
:1055EC0093E727003ACE3EC8F1B7B38767038546E9
:1055FC002E84BA973DBFFD57C5B7050402CA814634
:10560C0081472546182093051400130707FD637482
:10561C00E606F9F20C200D46171500001305858AD5
:10562C00052D11CD971700009387C7891D8D930702
:10563C000004B397A700424505045D8D2AC80C20D1
:10564C0019461715000013052588130914002304A7
:10565C00B102FD2B35C197B7FFFF9387E79995E70B
:10566C004247B2471377071009CF91073EC69257AE
:10567C00D2973ED22DBDB387670385462E84BA9749
:10568C0051B79D07E19BA107D5B77800970600009D
:10569C009386A6D726860C084E8597000000E70057
:1056AC000000FD572A8AE314F5FCDE2493F7070467
:1056BC00E39207EC1255C1B578009706000093866B
:1056CC00C6D426860C084E85012AE1BF797156CACC
:1056DC009C49BA8A984522D426D24ECE52CC06D6B4
:1056EC004AD05AC85EC6AA892E84B284368A63D33D
:1056FC00E700BA879CC00347340419C385079CC0D4
:10570C001C4093F7070281C79C4089079CC0032962
:10571C00040013796900631A0900130B9401FD5BF3
:10572C005C449840998F634CF9041C4083463404C4
:10573C0093F70702B336D000A5EB13063404D285D9
:10574C004E85829AFD576303F5041C401146984020
:10575C00998B544481446397C700B384E64063D368
:10576C00040081441C4418486354F700998FBE947C
:10577C00014969047D5B63982405014509A88546A8
:10578C005A86D2854E85829A631E75017D55B2501C
:10579C00225492540259F249624AD24A424BB24BB9
:1057AC00456182800509ADBF3307D40013060003A1
:1057BC00A301C7040347540493871600A2978906D4
:1057CC00A381E7049DBF85462286D2854E85829AA9
:1057DC00E30E65FB050945B7797122D426D24AD070
:1057EC004ECE06D652CC56CA5AC8B689942D9307BB
:1057FC0090063289AA842E8413863504638DF602B2
:10580C0063E2D706930780056385F61863EDD7002E
:10581C00638D062093073004638EF60A930A2404E2
:10582C002301D404C9A0930730066385F60A9307B5
:10583C004006E395F6FE1C40084393F607089305D3
:10584C004500C5C61C410CC363D807001307D00222
:10585C00B307F040A301E404970600009386466763
:10586C00294765A8930700076381F61663E5D702FD
:10587C009307E0066388F6189307F006E390F6FAB0
:10588C000C401C4313F805081385470063070806F2
:10589C0008C39C4385A893075007E383F6FE930740
:1058AC0080076388F61293073007E399F6F61C43DA
:1058BC00D04181459386470014C383AA07005685BF
:1058CC00412E01C53305554148C05C401CC8A3019D
:1058DC00040461A81C43930A2404938647009C4348
:1058EC0014C32301F4048547D5B793F607041C4170
:1058FC000CC3B9DAC207C18781BF93F5050408C38D
:10590C00C9D99E231307F0066386E60E970600009E
:10591C009386065C2947A30104044C400CC463C560
:10592C00050008406D9908C099E3B28A89CDB28A06
:10593C00B3F5E702FD1AB6958C212380BA00B3D5D6
:10594C00E70263FFE70AA147631EF7001C40858B43
:10595C0091CB58401C4863C7E70093070003A38F03
:10596C00FAFEFD1A3306564110C84E87CA867000DF
:10597C00A2852685A13B7D5A631D450B7D55B250F2
:10598C00225492540259F249624AD24A424B45611E
:10599C008280A382D50497060000938666530C4040
:1059AC00084313F805081C411105630D080208C3D0
:1059BC0013F7150001C793E505020CC04147A1FF81
:1059CC000C4093F5F5FD0CC0B9B79C4193E7070269
:1059DC009CC193078007A302F404970600009386EA
:1059EC00665075BF13F8050408C3E30308FCC2072F
:1059FC00C1837DBF970600009386864D214721BF4A
:105A0C00AE873DB794411C43CC4913F80608138567
:105A1C0047006306080008C39C438CC339A008C325
:105A2C0093F606049C43F5DA8EA323280400B28A6D
:105A3C002DBF14485686CA8526858299E30045F504
:105A4C001C40898B8DE7B2474844E35AF5F23E85FA
:105A5C003DB785465686CA8526858299E30065F34F
:105A6C00050A5C443247998FE345FAFEE9BF014AC7
:105A7C00930A94017D5BF5B7411122C42A842E85CB
:105A8C0097C7FF1F23A6074406C6EFC02FB0FD57CC
:105A9C006319F50097C7FF1F938787439C4391C3F6
:105AAC001CC0B240224441018280411122C42E8488
:105ABC008395E50006C65D2A634905007C48AA97D4
:105ACC007CC8B2402244410182805E247D777D17E0
