:100000006F00605E1300000013000000130000008A
:100010001300000013000000130000001300000094
:100020001300000013000000130000001300000084
:08003000130000007300100032
:100038000000000000000000080300000C0300009E
:10004800000000002C050000000000000000000077
:100058002E05000030050000000000000000000030
:100068003205000000000000340500000000000018
:1000780036050000380500003A0500003C05000080
:100088003E05000040050000420500004405000050
:1000980046050000480500004A0500004C05000020
:1000A8004E050000500500005205000054050000F0
:1000B8005605000058050000FA0300005C05000022
:1000C8005E05000060050000620500006405000090
:1000D80066050000680500006A0500006C05000060
:1000E8006E05000070050000720500007405000030
:1000F80076050000780500007A0500007C05000000
:100108007E050000800500008205000084050000CF
:1001180086050000880500008A0500008C0500009F
:100128008E0500009005000092050000940500006F
:1001380096050000980500009A0500009C0500003F
:100148009E050000A0050000A2050000A40500000F
:10015800A6050000A8050000AA050000AC050000DF
:10016800AE050000B0050000B2050000B4050000AF
:10017800B6050000B8050000BA050000BC0500007F
:10018800BE050000C0050000C2050000C40500004F
:10019800C6050000C8050000CA050000CC0500001F
:1001A800CE050000D0050000D2050000D4050000EF
:1001B800D6050000D8050000DA050000DC050000BF
:1001C800DE050000E0050000E2050000E40500008F
:1001D8000000000000000000000000000000000017
:1001E8000000000000000000000000000000000007
:0801F8000000000000000000FF
:10020000397101436EC619A0397141536AC866CA73
:1002100062CC5ECE19A0397101535AD056D252D455
:100220004ED64AD826DA22DC06DE330161408282CD
:1002300041114AC026C222C406C68282B24D410183
:10024000024D924C224CB24B4101024B924A224A3F
:10025000B2494101024992442244B24041018280A4
:100260003D432A876373C3029377F700BDEFADE583
:10027000937606FF3D8ABA960CC34CC30CC74CC795
:100280004107E36BD7FE11E28280B306C3408A06C2
:100290009702000096966780A6002307B700A30682
:1002A000B7002306B700A305B7002305B700A304D2
:1002B000B7002304B700A303B7002303B700A302CA
:1002C000B7002302B700A301B7002301B700A300C2
:1002D000B7002300B700828093F5F50F9396850051
:1002E000D58D93960501D58D61B79396270097021A
:1002F000000096968682E78086FA9680C1171D8F49
:100300003E96E374C3F8A5B77300203001A0EFF266
:100310003FF279718545114502C202C402C6EF0061
:10032000A0763715014089474C00130505807C8273
:1003300002C6392313060002814508081537854592
:100340001305002091272165652B372401401305F3
:100350000440392E854737070E000C08130504406A
:100360003ECC3ACE2302F10202C802CA02D0812654
:1003700013050440854579261305044085456D2104
:10038000054693050022130504406926B7E700E0FF
:1003900023810742114723A2E710456165BDEFF2B3
:1003A0003FE9EF005000716513050520EF00B0052F
:1003B000B707002083A5070137350000130505ACFA
:1003C000EF10C003A93737240140130504409D46B0
:1003D00005468545BD26130504408545B9263734B5
:1003E00000001305401FEF00A07E938781808E23BD
:1003F000130504ADEF108000EDB7411122C637247C
:1004000001409305002213050440E52E8547631C37
:10041000F50013050440D5262394A18093050022FE
:1004200013050440ED2E3244410173002030B7170C
:1004300002409843B706FFF841111367170098C3AD
:10044000D84337060200758FD8C39843B706F7FE26
:10045000FD16758F98C39843B706FCFFFD16758F80
:1004600098C3D843B70681FFFD16758FD8C398434C
:10047000B70600ECFD16758F98C33707FF0098C7C5
:1004800023A6070202C402C69843C166558F98C3CB
:10049000B716024005679C42F18F3EC6A24785070A
:1004A0003EC4B24781E7A247E397E7FEB717024091
:1004B0009C431397E7006357070685473EC63247BC
:1004C0008547631FF704B7170240D843B706C1FF3B
:1004D000FD16D8C3D843D8C3D84313670740D8C341
:1004E000D843758FD8C3D843B7061D00558FD8C3DE
:1004F0009843B7060001558F98C398439316670039
:10050000E3DD06FED843B7160240719BD8C3D8433B
:1005100013672700D8C32147DC42B18BE39EE7FE77
:100520004101828002C661BF01A001A001A001A01B
:1005300001A001A001A001A001A001A001A001A0B3
:1005400001A001A001A001A001A001A001A001A0A3
:1005500001A001A001A001A001A001A001A001A093
:1005600001A001A001A001A001A001A001A001A083
:1005700001A001A001A001A001A001A001A001A073
:1005800001A001A001A001A001A001A001A001A063
:1005900001A001A001A001A001A001A001A001A053
:1005A00001A001A001A001A001A001A001A001A043
:1005B00001A001A001A001A001A001A001A001A033
:1005C00001A001A001A001A001A001A001A001A023
:1005D00001A001A001A001A001A001A001A001A013
:1005E00001A001A001A0970100209381A122178101
:1005F0000020130121A1172500001305256397058D
:100600000020938525A01386818063FAC50083228C
:10061000050023A0550011059105E3EAC5FE1385E9
:100620008180938501816377B50023200500110542
:10063000E36DB5FEFD42739002BCAD427390428003
:10064000B76200009382820873A002309702000014
:100650009382C29E93E2320073905230EFF03FDDFE
:10066000970200009382E2D373901234730020301B
:10067000EFF21FBCB727014093870740631BF500CB
:1006800085451305002005218145130500202129FA
:10069000D1B6B737014093870780E31BF5FE854548
:1006A000130500400921814513050040CDB75C4189
:1006B0003707F1E01307F7EF944D7D8F9C41D58FFD
:1006C000D44DD58FD441A206D58FD98F5CC11C459E
:1006D00037F7F1FF1307D77FD4457D8F9C49D58F1E
:1006E00094458606D58FD98F1CC55C55370710FFFA
:1006F0007D177D8FDC29FD1793F7F70FD207D98F70
:100700005CD582801C4589C593E717001CC5828093
:10071000F99BEDBF5C4193F5F50F01C6DD8D4CC132
:10072000828093C5F5FFFD8DDDBF1C4591C5370760
:100730005000D98F1CC582803707B0FF7D17F98F15
:10074000D5BFA54763F7B7048D47138765FF330708
:10075000F7020328C5009D47B397E70093C7F7FF4B
:10076000B3F70701B396E600DD8E54C5994763E3FE
:10077000C70495477D163306F6025859FD47B397CF
:10078000C70093C7F7FFF98F3396C5005D8E50D928
:1007900082800D473387E502032805019D47B39703
:1007A000E70093C7F7FFB3F70701B396E600DD8EC6
:1007B00014C96DBFB14763E2C7029547651633069A
:1007C000F6021859FD47B397C70093C7F7FFF98F93
:1007D0003396C5005D8E10D9828095474D1633063D
:1007E000F6025855FD47B397C70093C7F7FFF98F37
:1007F000B395C500DD8D4CD58280684542054181A9
:1008000082805841144193D78500F58F99C713F51D
:10081000F50F798D3335A000828001458280A1815A
:1008200093C5F5FF0CC182805C4191C53707000478
:10083000D98F5CC18280370700FC7D17F98FD5BF47
:100840009C4513F7070113F8F70001C7D841336837
:10085000E8008E2113F7F50F39C318418146854E04
:100860003D4F930F800293028004214E3396DE00A9
:10087000B3F8C500631116039398260033131F01C4
:100880001343F3FF3377E300B318180133E7E800AD
:10089000639FF70550C98506E39AC6FD18C1130783
:1008A000F00F6375B70454412146854E3D4F930FB9
:1008B000800293028004414EB398CE0033F71501B5
:1008C0006392E8021317260001173313EF00134356
:1008D000F3FFB376D3003317E800D98E639DF70199
:1008E000232A15010506E319C6FD54C18280E3944D
:1008F00057FA10C94DB7E39757FE23281501DDB706
:10090000B7160240DC4251777D17F98F5D8DC8C262
:100910008280371702405C439146B18B6385D700D4
:10092000A1466382D706B7177A00938707201CC1B8
:10093000371602405C4237070020130707009183F7
:10094000BD8BBA9794231C41B3D7D7005CC15442E6
:10095000A1829D8ABA969422B3D6D70014C5544278
:10096000AD829D8A36971823B3D7E7005CC55842FD
:100970003983937637001387418036971823B3D78E
:10098000E7021CC982805C435843C166C983758FE6
:10099000B7F6FF1F83A6C670BD8B89071396160195
:1009A00063480600C54601466392D702C94739A885
:1009B0008946638FD702BD46638ED702C146638ED8
:1009C000D702C54601466393D700C1471DEF37479D
:1009D000024003270780418B05C737177A001307AA
:1009E0000720B307F7021CC121D61C41858381B7BC
:1009F00001466DBF0546B547D1BF0146BD47F9B7B2
:100A000037173D0013070790E9BFB7150240D855C7
:100A10009316F700D85563DF060411833D8B9306C8
:100A2000170037177A00130707203357D70218C16A
:100A3000D455A182BD8A8DE295463307D70205833E
:100A400018C137170240585714413D8B050733D75B
:100A5000E60218C1184171B785456394B600E546B2
:100A6000E9BFBD456396B600D1463387E602C9BFEC
:100A70008906E5BF3D8B9306170037177A001307E9
:100A800007203357D702F1B799C5371702401C4FDB
:100A90005D8D08CF8280B7170240984F1345F5FF50
:100AA000798D88CF828099C5371702405C475D8D6C
:100AB00048C78280B7170240D8471345F5FF798DA4
:100AC000C8C78280EFF2CFF61629F577FD17F58FAC
:100AD000F621DA257971D58F1EA95625FD779387E2
:100AE000379FF58FD6212A842EC6D58F9625D58F90
:100AF000B625D58F5EA55E29C207C18393F7F7CFD0
:100B0000D98F5EA968083135B747014093870780C0
:100B1000B245631AF404A25756246547B387E70227
:100B2000C206C186984163D20604060752244206D3
:100B3000B3D7E702130740064186B3D6E702B3F7FF
:100B4000E7029206635506028E0793872703B3D701
:100B5000E70213F77700B367D700C207C1831EA46B
:100B600045616FF02FEF925745BF0A07C1B7920753
:100B700093872703B3D7E702BD8BD58FF9BF91C504
:100B80005E250967D98F5EA582805A25F977FD1702
:100B9000F98FD5BF93F5F51F4EA182800A216D8D87
:100BA0003335A0008280B707002083A707013717DD
:100BB0007A0013070720B3D7E70293F7F70F2386CE
:100BC000F1801307803EB387E7022395F18082808E
:100BD000B7F700E0D8438146799BD8C303D7A180FB
:100BE0003306A70290CBD4CB98431367070198C371
:100BF00098431367170298C3D843058B75DF984352
:100C0000799B98C38280EFF2AFE22A8411650111CB
:100C100085451105953D930700207C8237150140DD
:100C20008D473EC44C00E147130505803EC6093997
:100C300022C837440140B70708000C081305048098
:100C40003ECC02CA231E0100B53D85451305048034
:100C50003D3705616FF00FE0EFF2EFDBB744014085
:100C6000AE893289014493840480634524014A8516
:100C70006FF0AFDD9305000426850D3765DDB38782
:100C800089008385070026850504C205C1811937BF
:100C9000E9BF011106CE2EC60DCD1841AA8705C3A6
:100CA00058417D5511CB8546631BD70098472300DB
:100CB000070023A207000545F2400561828098479E
:100CC000B24614A39847050798C7D8437D17D8C3E1
:100CD000DDB705466C004937F9BF797122D426D2B9
:100CE0004ECE52CC56CA06D64AD05AC82A8AAE8AA6
:100CF000328481449309000263440602B3879A0058
:100D0000838707009DE363D6840263D2E402198CD3
:100D100093F726009309000281C719E393090003A2
:100D2000858A01499DE6228929A88504C1BF058CD1
:100D3000C5B70144F1BFCE8552853AC6993F3247C7
:100D40007D19E34A20FF22896353040001493304DB
:100D5000244163CBE402CA84B3872441D6978385B8
:100D600007009DED2289634120056353040001447F
:100D700033059400B250225492540259F249624A07
:100D8000D24A424B45618280B3049740268B93053B
:100D9000000352857D1BF53DE31B0BFE269965BFC5
:100DA0005285C53D85044DBFCE855285DD357D1903
:100DB0005DBF5D71A6C252DC86C6A2C4CAC04EDE4B
:100DC00056DABA843E8A95E1930700030147D2863A
:100DD00026862C08FC841137B640264496440649E2
:100DE000F259625AD25A616182802A893684C68A4F
:100DF00091CAA94701446317F60063D50500B305FE
:100E0000B0400544A30701029307F102A54613056C
:100E100068FC33F7C50263D3E6002A97130707037C
:100E2000A38FE7FE9389F7FF33D7C50263F7C504A5
:100E300001CCB9C413772A0021C79305D0024A8593
:100E400042C6813D3248FD1493774A0099CF9307FB
:100E50001006930500034A85631CF8021D3D9305A7
:100E600080074A853D350904F9145687D2862686BF
:100E7000CE854A859D35229585B7BA85CE8751BFE7
:100E80001307D002A38FE9FE01449389E7FF6DBFEA
:100E9000093593058005F1B71D71CAC8CEC6D6C203
:100EA000DAC03A8986CEA2CCA6CAD2C45EDE62DCA3
:100EB00066DA6AD86ED633E7C500BE89AA8A428B45
:100EC0008347010629E385CF8D679387D7027C840A
:100ED000230501000147DA864E862C005685F53B36
:100EE000F6406644D6444649B649264A964A064BD9
:100EF000F25B625CD25C425DB25D256182809307E9
:100F000000037C84C1BF368AAE8432846300090248
:100F1000A9470149639CF600635A0600B304B04038
:100F2000B33790003304C0401D8C0549A30F010066
:100F3000130DF101935DFA41A54C138C68FC5286A8
:100F4000EE862685A285EF00B00663D3AC006295DD
:100F500013050503A30FADFE5286EE862685A285F6
:100F6000930BFDFF6D296366B40163988D0263F6F0
:100F70004403630C09006386090293772B0095C331
:100F80009305D00256853133FD190147DA864E8626
:100F9000DE85568599334A95A1B7AA842E845E8D45
:100FA00079BF9307D002A38FFBFE0149930BEDFF9E
:100FB000E9BF1D71CEC6B289A2CC01462A84A6CA59
:100FC000CAC8B6842E8981462E85CE8586CE3ACE75
:100FD00042CCD2C4D6C23E8AC68ADAC05EDE62DCA9
:100FE00066DA6AD86ED6EF005035135BF501CE8510
:100FF0004A85EF10207F72476248AE8CBA87AA8577
:101000000547D688A68666862A8C5AC02285693509
:101010002A8D9305E0022285AD39050D8147854D66
:10102000814B294763CE47076285E685EF1050075D
:101030002A86AE864A85CE85EF1000072A89AE89BA
:101040006E85DE85EF10D0052A86AE864A85CE8570
:10105000EF00103AEF10007913D6F541318DB34708
:10106000B600B305C5403335B5003386C7405AC016
:10107000D688D287A686098E094822850547293D4C
:10108000F64066446A95D6444649B649264A964A89
:10109000064BF25B625CD25C425DB25D2561828090
:1010A000B30677038507B33BB703B30DB703B69B0E
:1010B00095BF5D715AD8373B0000A2C4A6C2CAC012
:1010C0004EDE52DC56DA5ED662D486C666D2AA8975
:1010D0002E893284014A8144930B5002930AB00254
:1010E000294C130B0BAE8305090085E563850900C8
:1010F00081454E85793EB64026442685064996446C
:10110000F259625AD25A425BB25B225C925C6161D4
:101110008280638775014E85AD3E85040509E1B780
:1011200083071900930C1900639977019305500206
:101130004E85853685046689D5B7CDDB638757052F
:1011400063C8FA00130730026384E704814705A0EF
:101150001307D002638AE70013070003E398E7FE52
:10116000930C2900894721A0930C29008547038708
:101170000C006303570563C1EA0293063002630B58
:10118000D70266890145A54535A8930C29007DBF86
:10119000930C29009147E1BF9306D0026309D70061
:1011A00093060003E31FD7FC93E7270031A0850CCB
:1011B0008547C1BF93E74700850CE1B73305850339
:1011C0000509369503070900930607FD13F6F60F88
:1011D000E3F6C5FE1306E0029946631EC700050943
:1011E0008146254603070900130707FD9375F70F8E
:1011F0006375B602368A030709001306A006630961
:10120000C70A6341E6021306C0046303C70A130654
:1012100080066308C70801461DA8B3868603050932
:10122000BA96C9B7130640076304C7081306A00798
:101230006300C7089305C0060146631AB70083051B
:1012400019000D466394E5000509114605090307D9
:101250000900930500061308100663C4E50013088F
:1012600010049305700663C2E506930550066356A5
:10127000B7169305700463CFE50213065004635E4E
:10128000C71493063004E31BD7E81840930C4400BE
:10129000A30E0100230EE100BE8601472A866C08DA
:1012A00071A0830519000146E393E5FA090945B7E2
:1012B000050995B793063006E309D7FC63CDE6062A
:1012C000930680056303D70291BD9306300763063A
:1012D000D70463CDE6029306F0066308D70C9306A5
:1012E000000793E74700E31BD7E211476318E60ABC
:1012F0001D04137784FF0C43504313048700C288F6
:1013000002C03E880147AA87C146B1A09306500794
:101310006300D7069306800775B71840930C440006
:10132000DA8511C3BA855287BE862A864E85753204
:10133000AA946684E5B311476313E6021D0413778C
:1013400084FF0C43504313048700C28802C03E88C8
:101350000547AA87A9464E858136AA94C1B30C4099
:10136000D28811042A87854629464E859934F5B7D7
:101370001147631FE6001D04137784FF0C4350439D
:1013800013048700C28802C03E880147AA87D9B7E4
:101390000C40D28811042A878146F9B70C40D288C4
:1013A00011042A8781464146C9B711476310E602F6
:1013B0001D04137784FF0C43504313048700C28835
:1013C00002C03E880147AA87A14671B70C40D28867
:1013D00011042A878146214649BF1D04137684FFE4
:1013E000130486000C4250423307D540C2887D1753
:1013F0003E884E85B687A9466D3E85B739712ED297
:1014000032D4AA855010014506CE36D63AD83EDAF7
:1014100042DC46DE32C67139F24021618280B687F5
:10142000B2882A832E88639B061463F8C50A416735
:10143000636BE61AB70700016360F63493568601C2
:10144000E147171700001307676E36971823BA97FE
:10145000130700021D8F19CB3398E500B357F50031
:10146000B318E60033E807013313E50013D608018B
:101470003355C80293960801C1829357030133770D
:10148000C802B385A60242073368F700637AB80042
:1014900046989307F5FF636418016365B8303E858D
:1014A0003308B8403357C80242031353030133785B
:1014B000C802B386E602420833686800637BD8003E
:1014C00046989307F7FF6365180179176363D8009F
:1014D0003E874205598D8145828001E60547B35814
:1014E000C702416763E8E80EB707000163EAF8281E
:1014F00093D68801E1471717000013072763369733
:101500001423BE9693070002958FFDE7939E080172
:101510003387154113DF080193DE0E01854593578C
:1015200003013355E7033377E703B306D5034207D7
:10153000D98F63FAD700C6971307F5FF63E4170145
:1015400063E5D7263A85958F33D7E70342031353D4
:101550000301B3F7E703B30ED703C207B3E767008E
:1015600063FBD701C6979306F7FF63E51701791769
:1015700063E3D70136874205598D828063E1D50444
:10158000C16763E1F604B707000163E3F61E13D7F2
:10159000860161489717000093874759BA979823A7
:1015A000130E00024297330EEE40631A0E0C63EDE9
:1015B000B61C3335C5001345150081458280814531
:1015C000014582809307F00F63F3D71C13D7860081
:1015D0002148C9B71307F00FC686E37E17F193D6EB
:1015E0008800A14709BF1307F00FB286E37BC7E469
:1015F00093568600A147B1B5B398F80033D6D5000D
:1016000013DF0801335EE6033397F500B356D500C8
:10161000558F939E080193DE0E013313F500935509
:101620000701B376E603B387CE03C206CD8E63FB14
:10163000F600C6961306FEFF63E4161763F2F6166D
:10164000791EC6969D8E33D6E60393170701C18394
:10165000B3F6E6033385CE02139706015D8F637BF5
:10166000A70046979307F6FF636817136376A712E0
:101670007916469793150E01098FD18D4DB5B35745
:10168000E600B396C601DD8E33D3E50013DF060115
:10169000B357E303939E060193DE0E013398C50111
:1016A0003357E50033680701935808013316C60124
:1016B0003373E303B385FE024203B368130163FB94
:1016C000B800B6981387F7FF63EAD80C63F8B80C34
:1016D000F917B698B388B84033D7E80342081358CF
:1016E0000801B3F8E8033383EE02C208B3E508014A
:1016F00063FB6500B6951308F7FF63EDD50863FB40
:1017000065087917B695C207416FD98F1307FFFF98
:10171000B3F6E70093D80701718F4182B38EE602DA
:10172000B3856540B386C60213D80E013387E8023D
:10173000BA96C2963386C80263F3E6007A9693D8C7
:101740000601469663E2C5026385C5003E85814574
:10175000828041677D17F98EC206B3FEEE00331515
:10176000C501F696E374D5FE1385F7FF81458280A7
:1017700013D70601414839BD93560601C147D1B17F
:1017800093D60801C14785BB8145054582803687D0
:10179000014809B5428785BF3E86E9BDBA871DBFAE
:1017A000328E4DB579154698E5B97915C69761BB66
:1017B000B68732882A832E872E8E6391061463F0B3
:1017C000C50A41676376E61A1307F00FB2866375A0
:1017D000C70093568600A147171700001307073567
:1017E0003697182393080002BA97B388F840638CA1
:1017F0000800B3951501B357F5003318160133EE01
:10180000B7003313150113560801B357CE02131551
:101810000801418193560301337ECE02B307F502DE
:10182000420E3367DE006378F70042976365070175
:101830006373F70042971D8FB356C70293170301D6
:10184000C1833377C7023305D5024207D98F63EBD3
:10185000A7083385A740335515018145828001E6ED
:1018600005473358C7024167636BE80EB7070001AD
:101870006364F82A93568801E1471717000013079D
:10188000E72A3697182393080002BA97B388F840DE
:10189000639A081E131E0801B385054113560801FB
:1018A000135E0E0113570301B3D6C502B3F5C5028B
:1018B000B386C603C2054D8F6377D7004297636432
:1018C0000701636AD726158F3355C70242031353A6
:1018D00003013377C7023305C5034207B3676700C7
:1018E00063F8A700C29763E5070163F3A700C297F7
:1018F0003385A74033551501814582802A88E3EF5F
:10190000D5F4C16763E5F604B707000163E2F6208A
:1019100013D38601E14897170000938727219A97F0
:1019200003CE070013030002469E3303C34163192D
:10193000030463E4B6006369C5003308C540958DB0
:10194000333705013387E5404285BA8582809307A6
:10195000F00F63FBD71C13D38600A1486DBF13079C
:10196000F00FC286E37B07F193568800A14731B799
:10197000B70700016366F61A93568601E147A9BDD1
:10198000B357C601B3966600DD8EB3D8C50113D731
:101990000601B3DEE802139F0601B357C501135FCA
:1019A0000F01B3956500DD8D13D805013316660070
:1019B00033156500B3F8E802B307DF03C20833E864
:1019C0000801637BF80036989388FEFF6363D8169E
:1019D0006371F816F91E36983308F840B357E802D9
:1019E000C205C1813378E802330FFF0213170801E3
:1019F0004D8F637BE70136979385F7FF6369D712B5
:101A00006377E713F9173697C20EC162B3EEFE0093
:101A10001388F2FFB3F80E019355060193DE0E0111
:101A200033780601B38F08033307E74133880E0389
:101A300093D70F01B388B802C298C697B38EBE027F
:101A400063F30701969E41687D1893D50701B3F7AC
:101A50000701C207B3FF0F01F695FE976362B70A4D
:101A6000630EB708B307F5403335F500B305B7404B
:101A7000898D339EC50133D567003365AE00B3D57C
:101A8000650082803318180133D7F500135608011A
:101A9000B356C702131E0801B357F500135E0E01BB
:101AA000B3951501DD8D93DE0501331315013377F1
:101AB000C702B307DE0293160701B3E6D60163F847
:101AC000F600C29663E5060163F3F600C2969D8EAA
:101AD00033D7C60293970501C183B3F6C602330715
:101AE000EE0293950601DD8D63F8E500C29563E58E
:101AF000050163F3E500C295998D6DB3E374F5F6C6
:101B00003386C740B3B7C700B6979D8DB28799BFDC
:101B100013D30601C14801B593560801C147B1BBB3
:101B200093560601C1474DB936838148EDB3AE8760
:101B3000E1BDC68E55B5429779B313D74501B707B6
:101B40001000FD1713D846011377F77F9308F07F35
:101B500033FEB700AA8EF58FFD81328F1378F87FA0
:101B6000FD82630E1703630D180129E3B368AE000D
:101B7000631F08005D8E01EE0143638C080421A8F9
:101B8000B3E8C7000943639608046DD305A06384D6
:101B900008046385D50205438DCD7D531DA8B36828
:101BA000AE00094363970802630AE8026314080061
:101BB0005D8E75D2E391D5FEE34FE8FC63490701E2
:101BC000E3EBC7FD630FFE0001436374FE00F1D534
:101BD00005431A858280EDFE7D53E5BF5D8E79DA7F
:101BE000CDBFE36ADFFB0143E3F5EEFFF5F175B727
:101BF00039714AD813D945014ED652D456D2939949
:101C0000C50006DE22DC26DA5AD05ECE1379F97FD3
:101C10002A8A93D9C90093DAF501630D090E930757
:101C2000F07F6306F9181354D5018E09B3693401A6
:101C30003704800033E4890093143500130919C078
:101C40008149814B13D74601139AC6001377F77F5A
:101C5000B285135ACA0013DBF601630B0710930712
:101C6000F07F6303F7049357D6010E0A33EA470166
:101C7000130717C0B7078000B367FA009315360043
:101C80003A99814833C76A01BD463A85130819005D
:101C900063E8361717160000130646E58A09B2995D
:101CA00083A60900B2968286B367CA001309F97F3A
:101CB0006399071293E9290081458948E1B70147F3
:101CC0009307F07F3704080081443204D207318043
:101CD0007E075D8C598CA285F2506254268542594C
:101CE000D254B259225A925A025BF24B216182803D
:101CF0005A853E84AE84C68B8947638DFB0E8D4723
:101D0000E38FFBFA85472A87639EFB3881470144AE
:101D1000814465BF33E4A90061C036C632C4638C18
:101D2000092A4E85EF00F0522246B246AA871307D1
:101D300055FF7544938487FF198CB39999003354E8
:101D40008A0033643401B3149A0013D7460113098F
:101D5000D0C0139AC6001377F77F3309F940814941
:101D6000814BB285135ACA0013DBF601E31907EE63
:101D7000B367CA00B1C7630F0A22528532C4EF00AD
:101D8000504D22462A87930655FFF547930587FF56
:101D9000958F331ABA00B357F600B3E74701B3156E
:101DA000B6003309E9401309D9C08148E1BD33E4E5
:101DB000A90001ECA14981441309F07F894B59B571
:101DC00093E919008145854875BD4E84AA84B149BF
:101DD0001309F07F8D4BBDB5914981440149854B75
:101DE00095B593E93900D2878D4869BD89475685F5
:101DF000E397FBF02A879307F07F01448144F1B514
:101E0000C16E1386FEFF93D6040113DE0501F18C2B
:101E1000F18D338695023383B6029358060133055C
:101E20009E021A95AA98B382C60363F36800F692DD
:101E3000C16F1383FFFF33F5670093D30701B3F737
:101E40006800C207337366003E933306950293D849
:101E50000801B387A602135F0601B3849302BE9400
:101E6000FA94B38E760263F3F400FE9E416A930700
:101E7000FAFF935F0401B376F400B3F9F4007D8EAA
:101E8000C1803384D502C209338FD401B299CE9870
:101E9000B307DE02935E0401B385BF02AE97BE9E18
:101EA000330EFE0363F3BE00529EC1679385F7FFB6
:101EB00033F6BE006D8C4206229693DE0E01B3050A
:101EC000D502769E3385AF0213D40501B386D302C3
:101ED000AA96A296B38FF30363F3A600BE9F416553
:101EE0007D15B3F7A600C2076D8DAA97B38558007C
:101EF000B3B93501FA97B2953384370133B6C500CB
:101F0000B30EC4013385CE0033343401B3B7E701D7
:101F1000C18F33BECE0113D406013336C5003E94C3
:101F20003366CE009394950032947E94B3E46400BB
:101F3000260493567501B3349000DD819317950004
:101F4000CD8C558CDD8C9317740063DB070093D721
:101F5000140085889316F401DD8CD58C05804289A8
:101F60009307F93F6359F00893F6740081CE93F616
:101F7000F40011466388C60093864400B3B496000B
:101F80002694B6849316740063D80600B70700FF42
:101F9000FD177D8C930709409306E07F63CFF60E13
:101FA00093D634009314D4012604D58C318093F752
:101FB000F77F21BB328532C4EF00B029930655016B
:101FC000F147130705022246E3D1D7DC6115B317A9
:101FD000A6008145F9B3EF00D02713075501F1455D
:101FE000930705022246B246E3D5E5D461153314C2
:101FF000AA00814499BB85469D8EB1E71309E9414A
:10200000B3972401B3D4D40033192401B337F000BB
:10201000B3649900DD8C93F77400B356D40081CF7C
:1020200093F7F40011466388C70093874400B3B464
:102030009700A696BE849397860063D807048547C9
:102040000144814459B113068003E341D6CC7D4657
:10205000E356D6FA0556B307F64093050002335609
:10206000F4006387B6001309E943B3172401DD8C3C
:10207000B3349000D18C93F67400014499CA93F75D
:10208000F40011468146E392C7FA1394960031801A
:10209000F6068D80D58C81470DB99307F07F0144FA
:1020A000814425B142896DBD370710007D170111AC
:1020B0003373B70093D84601758F935ED60122CC57
:1020C00026CA0E0393D445019357D5010E0706CEB9
:1020D0004AC84EC693F8F87F130EF07F33E7EE0040
:1020E00093F4F47F13D4F50133E36700131F350035
:1020F000FD82931E36006380C81993C61600B3850F
:1021000014416305D4126351B018638B081AB707E2
:1021100080005D8F6380C4599307800363C3B73425
:10212000FD4763C4B748930700028D8FB3D9BE0043
:102130003318F700B39EFE00336838013357B700F9
:10214000B339D001336838013303E340B3090F4199
:10215000B3373F013306F3409317860063D3072458
:10216000370980007D1933792601630F092C4A85D0
:10217000EF00300E130785FF93070002998FB3D746
:10218000F9003316E900D18FB399E9006344972A27
:10219000058F13061700FD4663C4C63A13070002F5
:1021A000118FB3D6C9003398E9003397E700558FF4
:1021B00033380001B369070133D6C700814493F770
:1021C000790081CF93F6F90091476388F6009386F2
:1021D000490033B836014296B6899317860063D614
:1021E000071C138714009307F07F05886306F72008
:1021F000B70780FFFD17F18F1398D70193D93900E6
:10220000A60733683801B1831377F77F9396C70029
:102210005207B1827E04D98EC18EF2406244D2440C
:102220004249B2494285B685056182806356B00A4B
:10223000638A0812B70780005D8F6386C42D9307F9
:10224000800363C7B718FD4763D1B73C138805FE09
:1022500093070002B3590701638AF500930700044E
:10226000B385B7403317B700B3EEEE003338D00173
:102270003368380195A2B367D7019385148099E339
:1022800093C61600630AD404D1E19387140093F730
:10229000E77F6398071EB367E3013368D701639252
:1022A00004166381073C6315084213183500931622
:1022B000D3011358380033E806019357330019A2AD
:1022C000B367D7016384071A9387F5FF638A073AD8
:1022D000638BC523BE8589B56398051C938614005E
:1022E00093F7E67FC1EFB367E301639F0434638C28
:1022F0000744B367D701639307460E051318D3014C
:102300000D813368A800935733006DA8B3859840BA
:1023100063960420B367E301638C07309387F5FF6E
:10232000638807401305F07F6382A520BE8593076D
:10233000800363C1B72AFD4763C7B73C9307000218
:102340008D8F3318F3003356BF00B317FF00336887
:10235000C800B339F0003353B30033683801330792
:102360006740ADACB367D701638207109387F5FF71
:10237000638E071E638FC52DBE85D1B59307F07F91
:10238000638BF606FA9E33B6EE01B307E300B2970D
:102390001398F70193DE1E00B369D80113D6170016
:1023A000B68493F77900E39F07E09317D60113D81B
:1023B00039003368F800A685935736001307F07F7D
:1023C0006380E506B207B18313F7F57F05883DBD4D
:1023D0003367D7013338E000B309E801B3B7E90147
:1023E0003386670093178600E3DD07FA85049307B9
:1023F000F07F639BF41805881307F07F814701483D
:1024000031B5639007106300083C1318360093172A
:10241000D701135838003368F800368493573700D3
:10242000B367F800E9DB01441307F07FB707080042
:102430000148E9BB370680FF7D167D8E93F7790052
:10244000998CE39107D895B74E852125130785010F
:10245000FD47E3D3E7D2130685FFB397C90081494F
:1024600035B33368D70133380001CDB113183500C7
:102470009317D301135838003368F800935733008B
:1024800035BFB309DF413309E34033363F01330938
:10249000C9409317890063CA072033E82901E3166E
:1024A00008CC8147014439BFB38598406381041447
:1024B000B70680009307F07F3363D3006381F82071
:1024C0009307800363CCB722FD4763C9B72C9307FA
:1024D00000028D8F3318F300B356BF00B317FF000F
:1024E0003368D800B339F0003353B3003368380190
:1024F0001A97B309D801B3B7D9013386E700C68468
:10250000D5B5E31208F2131835009317D301135809
:1025100038003368F8009357330019B73705800047
:102520009307F07F3363A300E393F8E00E061318DC
:10253000D7010D823368C800935737003684CDB574
:1025400005179306000233D7E700630AD600930607
:1025500000043386C6403396C700B3E9C900333858
:102560003001B369E8000146814425BDB309DF01AC
:10257000B307E30033BFE9013386E7019317860011
:102580008544E3D007E28944B70780FFFD17F18F48
:1025900013D7190013F81900336807019399F7014D
:1025A000B3E9090113D6170019B9138805FE93077B
:1025B0000002B3590701638AF50093070004B3854D
:1025C000B7403317B700B3EEEE003338D0013368AD
:1025D0003801ADBE3363E30133386000B3890E4187
:1025E000B3B73E013306F740C6843684B5B6B36749
:1025F000E301638707189387F5FF638C071C930635
:10260000F07F638ED50ABE8565BD930700028D8F6E
:10261000B3D9BE003318F700B39EFE00336838010B
:102620003357B700B339D001336838013A936DB3EB
:10263000131836009317D7011358380033E80701F1
:102640003684935737009DBBBDCB3367D701E31C5E
:1026500007DC0E051318D3010D813368A8009357CA
:1026600033007DBBE30F08E2131836009317D70140
:10267000135838003368F80036849357370099B3FD
:10268000B309DF41B307E340333F3F013386E741FE
:102690008544D9B4131835009316D3011358380064
:1026A00033E8060193573300A5BBB389EE413306E7
:1026B000674033B93E013309264136847DB40E06A6
:1026C0001318D7010D823368C8009357370089BBB0
:1026D000B309DF41B307E34033363F013386C740D8
:1026E0009317860063D7070AB389EE41B3076740A3
:1026F000B3BE3E013386D7413684D1B43363E301A0
:1027000033386000FDB3138805FE93070002B35908
:102710000301638AF50093070004B385B7403313C0
:10272000B300336F6F003338E001336838017DB593
:10273000B389EE41B3076740B3BE3E013386D7414C
:102740003684854411BC131836009317D7011358EB
:1027500038003368F80093573700ADB1B309DF0193
:10276000B307E30033BFE9013386E701931786001F
:10277000E3D907C2B70780FFFD177D8E854415B1E9
:102780000E061318D7010D823368C800935737001F
:1027900035B133E8C900E30608D021B1138805FE3E
:1027A00093070002B3590301638AF50093070004FD
:1027B000B385B7403313B300336F6F003338E00194
:1027C000336838013DB301441307F07FB7070800B1
:1027D00035BCB309DF01B307E300B3BED9013386CB
:1027E000D70169BB3707100093D745019306F7FF60
:1027F00093F7F77F1308E03FED8E13D6F50163538F
:10280000F8029305D04363D2F5028545918D3305D7
:10281000B04013D6F541B7050080B337A000918DC5
:102820009D8D828001458145828013082043B3E558
:10283000E6006354F8021387D7BA9387D7BC634581
:102840000704B315E500014565D23305A040B33751
:10285000A000B305B0409D8D8280930630439D8ECD
:102860007D47634CD7001387D7BE3397E5003355B8
:10287000D500598DB3D5D500C1BF130530411D8D8D
:1028800033D5A5008145C9B7FD46135715009D8E68
:102890003357D700B395F500D98D3315F5006DB7D3
:1028A000011106CE22CC26CA4AC84EC6B367B5006F
:1028B00095CFAE84AA8913D9F50163CD050426848A
:1028C000A5C4268579229306E043898E9307304379
:1028D00063C9D7089397C4002D464E8793F6F67FB9
:1028E000B1836359A600130655FFB1A8014981467B
:1028F00081470147B207F2406244D206B1837E09A4
:10290000D58FB3E72701D2444249B2493A85BE8503
:10291000056182803305A040B336A000B304B04007
:10292000958CAA892684D1FC4E8525222A86930679
:10293000E04313050502898E9307A00293F6F67F04
:1029400063C7A70C55061307B002098FB397C400DD
:1029500033D7E9005D8F9317C700B1833397C90060
:1029600051BF9307604363DBD7022147098F93056B
:1029700007FE63C2050CB3D5B400014713068501F9
:1029800093078503634C06083396C9008149B3E970
:10299000C90033363001B3E9C5003A84A1474E86F9
:1029A00063C9A704B70780FFFD17937576003377D7
:1029B000F40085C59375F6001148638005039305FF
:1029C000460033B6C50032971316870063510608D8
:1029D0009306F0437D8F898E2E861355360093170C
:1029E00097001316D7013367A600B18393F6F67FDD
:1029F00011B793078002930585FF898FB3D7F9003C
:102A00003317B40033E4E7003396B90061BF5516BD
:102A1000B397C900B207B1830147E9BD7D4613D81A
:102A200019001D8E3358C8003396F4003366C80071
:102A3000B399F900A9BF7D46198E93971400B3D5B9
:102A4000E900B397C700DD8D33D7E40005BF2E86BC
:102A500069B7C167637CF5029307F00F13070002A3
:102A600063EBA700970700009387470CAA9788237A
:102A70003305A74082802181970700009387070BC9
:102A8000AA97882361473305A7408280B7070001D2
:102A9000636DF50061819707000093872709AA9766
:102AA000882321473305A740828041819707000092
:102AB0009387C707AA97882341473305A740828099
:102AC00053797374656D436C6B3A25640D0A00008D
:102AD0006164635F64617461203D2025640D0A00B8
:102AE000286E756C6C29000018F3FFFF0AF2FFFFD7
:102AF0000AF2FFFF08F2FFFF10F2FFFF10F2FFFFE4
:102B0000D6F1FFFF08F2FFFF10F2FFFFD6F1FFFF43
:102B100010F2FFFF08F2FFFF04F3FFFF04F3FFFFD3
:102B200004F3FFFFD6F1FFFF0001020203030303DA
:102B3000040404040404040405050505050505054D
:102B4000050505050505050506060606060606062D
:102B50000606060606060606060606060606060615
:102B600006060606060606060707070707070707FD
:102B700007070707070707070707070707070707E5
:102B800007070707070707070707070707070707D5
:102B900007070707070707070707070707070707C5
:102BA00007070707070707070808080808080808AD
:102BB0000808080808080808080808080808080895
:102BC0000808080808080808080808080808080885
:102BD0000808080808080808080808080808080875
:102BE0000808080808080808080808080808080865
:102BF0000808080808080808080808080808080855
:102C00000808080808080808080808080808080844
:102C10000808080808080808080808080808080834
:082C200008080808080808086C
:102C2800000000000102030401020304060708096A
:082C380000A24A040204060890
:00000001FF
