:100000006F00A03113000000130000001300000077
:100010001300000013000000130000001300000094
:100020001300000013000000130000001300000084
:08003000130000007300100032
:100038000000000000000000A0010000A401000072
:1000480000000000B20200000000000000000000F4
:10005800B4020000B602000000000000000000002A
:10006800B802000000000000BA0200000000000012
:10007800BC020000BE020000C0020000C202000074
:10008800C4020000C6020000C8020000CA02000044
:10009800CC020000CE020000D0020000D202000014
:1000A800D4020000D6020000D8020000DA020000E4
:1000B800DC020000DE020000E0020000E2020000B4
:1000C800E4020000E6020000E8020000EA02000084
:1000D800EC020000EE020000F0020000F202000054
:1000E800F4020000F6020000F8020000FA02000024
:1000F800FC020000FE0200000003000002030000F2
:1001080004030000060300002A0900000A03000097
:100118000C0300000E03000010030000120300008F
:10012800140300001603000018030000000000007C
:080138000000000000000000BF
:10014000397101436EC619A0397141536AC866CA34
:1001500062CC5ECE19A0397101535AD056D252D416
:100160004ED64AD826DA22DC06DE3301614082828E
:1001700041114AC026C222C406C68282B24D410144
:10018000024D924C224CB24B4101024B924A224A00
:10019000B2494101024992442244B2404101828065
:1001A0007300203001A0EFF2BFFC0545DD2465257A
:1001B000B7150000374500409385059613050540A7
:1001C000252F01A0B71702409843B706FFF8411149
:1001D0001367170098C3D84337060200758FD8C33A
:1001E0009843B706F7FEFD16758F98C39843B70678
:1001F000FCFFFD16758F98C3D843B70681FFFD1627
:10020000758FD8C337079F0098C702C402C69843AA
:10021000C166558F98C3B716024005679C42F18F9F
:100220003EC6A24785073EC4B24781E7A247E3978F
:10023000E7FEB71702409C431397E7006357070692
:1002400085473EC632478547631FF704B71702400C
:10025000D843B706C1FFFD16D8C3D843D8C3D84387
:1002600013670740D8C3D843758FD8C3D843B706A0
:100270001D00558FD8C39843B7060001558F98C30A
:10028000984393166700E3DD06FED843B716024095
:10029000719BD8C3D84313672700D8C32147DC42DA
:1002A000B18BE39EE7FE4101828002C661BF01A0DF
:1002B00001A001A001A001A001A001A001A001A036
:1002C00001A001A001A001A001A001A001A001A026
:1002D00001A001A001A001A001A001A001A001A016
:1002E00001A001A001A001A001A001A001A001A006
:1002F00001A001A001A001A001A001A001A001A0F6
:1003000001A001A001A001A001A001A001A001A0E5
:1003100001A001A001A001A001A0970100209381EC
:10032000614F175100201301E1CD1705000013059F
:10033000E564970500209385E5CC1386818063FAF8
:10034000C5008322050023A0550011059105E3EAAD
:10035000C5FE13858180938501816377B5002320D5
:1003600005001105E36DB5FEFD42739002BC8D42A0
:10037000739042809302800873A0023097020000BD
:100380009382C2CB93E2320073905230EFF09FE33E
:1003900097020000938262E1739012347300203060
:1003A0009C4513F7070113F8F70001C7D8413368DC
:1003B000E80037270240145B3707000F758F4DEBBD
:1003C00085462384D180371701406315E5009A21C3
:1003D00035839AA18E2113F7F50F39C31841814651
:1003E000854E3D4F930F800293028004214E339639
:1003F000DE00B3F8C500631116039398260033138B
:100400001F011343F3FF3377E300B318180133E7F9
:10041000E8006397F70750C98506E39AC6FD18C13F
:100420001307F00F6375B70454412146854E3D4FC5
:10043000930F800293028004414EB398CE0033F7AD
:1004400015016392E8021317260001173313EF001A
:100450001343F3FFB376D3003317E800D98E6395C7
:10046000F703232A15010506E319C6FD54C182804E
:1004700037170140E310E5F603C7818021DF81BF14
:10048000E39C57F810C949BFE39F57FC2328150187
:10049000D9BF23A6A18082809387C180944318216D
:1004A00081E63C21920721A894430546639FC6023A
:1004B0003C21103192076314D60093E707F8B7E6A2
:1004C00000E093F7F70FBA962380F64085469357DE
:1004D00057003397E6005441A5C2938707048A0763
:1004E000B7E600E0B69798C382808C438946639153
:1004F000D50214313C216365D6008A06B6975DB7F4
:100500009386E6038A06B69793F7F70F920775B7B7
:1005100090438D46631CD60014313C216364D600A1
:100520008606E9BF9386C6078606F1BF94439147C6
:10053000E39EF6F81C31BDB7938707064DB7371712
:1005400002405C439146B18B6385D700A14663842A
:10055000D706B7177A00938707201CC137160240C9
:100560005C4237070020130707009183BD8BBA97C1
:1005700094231C41B3D7D7005CC15442A1829D8A09
:10058000BA969422B3D6D70014C55442AD829D8A40
:1005900036971823B3D7E7005CC558423983937662
:1005A0003700370700201307070136971823B3D702
:1005B000E7021CC982805C435843C166C983BD8B76
:1005C000758F8907C5466393D700C94701EF374741
:1005D000024003270780418B09CF37177A001307A2
:1005E000072021A83717024058439316E700E3D6A7
:1005F00006FE37173D0013070790B387E702B1BF28
:1006000099C5371702401C4F5D8D08CF8280B71700
:100610000240984F1345F5FF798D88CF828099C5A8
:10062000371702405C4F5D8D48CF8280B71702407C
:10063000D84F1345F5FF798DC8CF828099C53717FC
:1006400002405C475D8D48C78280B7170240D8479B
:100650001345F5FF798DC8C7828099C537170240C9
:100660001C4B5D8D08CB8280B7170240984B134519
:10067000F5FF798D88CB8280EFF29FAFB7470140BD
:10068000938707806319F50085451165453F8145CE
:1006900011656D3701B6B747004093870740631B6C
:1006A000F5008545370502004D3F814537050200BD
:1006B0006D37CDB7B757004013870780631AE50041
:1006C000854537050400513F814537050400CDB706
:1006D000938707C0E310F5FC854537050800B53F53
:1006E000814537050800E9B7EFF29FA81629F5778D
:1006F000FD17F58FF621DA257971D58F1EA95625BC
:10070000FD779387379FF58FD6212A842EC6D58F04
:100710009625D58FB625D58F5EA55E29C207C183E4
:1007200093F7F7CFD98F5EA96808113DB74701400D
:1007300093870780B2456319F404A257562465478E
:10074000B387E702C206C186984163D10604060753
:1007500052244206B3D7E702130740064186B3D6B8
:10076000E702B3F7E7029206635406028E07938707
:100770002703B3D7E70213F77700B367D700C207A1
:10078000C1831EA4456139B492574DBF0A07C9B74A
:10079000920793872703B3D7E702BD8BD58FC5B7E1
:1007A00091C55E250967D98F5EA582805A25F977A4
:1007B000FD17F98FD5BF13F7F50F85471583B3954F
:1007C000B7006319F7009307C500984301CED98D90
:1007D0008CC38280894693074501E318D7FE9307AF
:1007E0000501E5B793C5F5FFF98DDDB793F5F51F65
:1007F0004EA182804A211375F51F82800A216D8DDA
:100800003335A000828013F7F50F85461583B39723
:10081000B6006311D7025A25F98F1A210145420704
:10082000418381CB0545A181B315B5006D8F33356B
:10083000E000828089466314D7001A29F1BF5A2943
:10084000E1BFA1818547B397B70093C7F7FFC20700
:10085000C1831EA18280EFF2BF9179718545370572
:100860000200753B85451145613B37440040130547
:10087000044019359147FC82B71401408D473ECCA6
:100880004C08E147138504803ECE193EA147FC8207
:100890004C089147138504803ECE1936F167938743
:1008A00007200C103ED013050440B7070C003ED4BF
:1008B00002D2231601020D3D930760137C86854703
:1008C0005C87680085473EC8C13E130504408545E6
:1008D000C13D05469305505213050440E93D45616D
:1008E00055B8EFF2FF882A84113793050008228556
:1008F000313765DD6FF01F8AEFF29F87AA842E895A
:100900000144B30789008C2326850504D93F13745D
:10091000F40FB307890083870700E5F79305000408
:100920002685E93D65DD6FF0FF86411122C637441B
:1009300000409305505213050440F13511CD930545
:10094000505213050440F53D130504406535937579
:10095000F50F13050440593D324441017300203026
:10096000546869732069732061207465737420640E
:080970006174612E0A00000011
:10097800000000000102030401020304060708093D
:08098800020406080000000053
:00000001FF
